:020000040800F2
:10000000F0C90020ED0100080D2900089F28000814
:10001000A3280008D51400087D5500080000000042
:10002000000000000000000000000000FD52000879
:100030008115000800000000551400080153000855
:10004000070200080702000807020008070200086C
:10005000070200080702000807020008070200085C
:10006000070200080702000807020008070200084C
:10007000070200080702000807020008070200083C
:10008000070200080702000807020008070200082C
:10009000070200080702000807020008070200081C
:1000A000070200080702000807020008070200080C
:1000B00007020008070200080702000807020008FC
:1000C00007020008070200080702000807020008EC
:1000D000070200086D550008070200080702000823
:1000E00007020008070200080702000807020008CC
:1000F00007020008070200080702000807020008BC
:1001000007020008070200080702000807020008AB
:10011000070200080702000807020008070200089B
:10012000070200080702000807020008070200088B
:1001300000F002F800F04AF80AA090E8000C8244AF
:100140008344AAF10107DA4501D100F03FF8AFF28C
:10015000090EBAE80F0013F0010F18BFFB1A43F0A5
:100160000103184754C7000074C70000103A24BFA9
:1001700078C878C1FAD8520724BF30C830C144BF0C
:1001800004680C607047000000230024002500264E
:10019000103A28BF78C1FBD8520728BF30C148BFEA
:1001A0000B607047662909F05E82782900F076803E
:1001B000002070471FB500F0B7FB040000200021AD
:1001C00008F0AEFFE0601FBD10B510BD00F0C8FC28
:1001D0001146FFF7EFFF08F03BFD00F0E6FC03B42B
:1001E000FFF7F2FF03BC05F002FA00000948804760
:1001F00009480047FEE7FEE7FEE7FEE7FEE7FEE709
:10020000FEE7FEE7FEE7FEE704480549054A064B20
:10021000704700001953000831010008F0C30020A6
:10022000F0C90020F0C50020F0C5002072B670476C
:1002300062B6704772B602B4EFF3118180F3118891
:10024000BFF34F8FBFF36F8F084602BC62B6704793
:1002500072B680F31188BFF34F8FBFF36F8F62B612
:10026000704730BF704720BF7047B0FA80F07047CA
:1002700090FAA0F0B0FA80F0704790FAA0F07047C2
:10028000704700000FB4044910B503AA029800F0AB
:1002900039FB10BC5DF814FB2400002070B5044647
:1002A0000D4621461068AFF300802188090502D56C
:1002B0000F4A7A4402E00E4A7A440E32002104F1D9
:1002C000240305E000F00F060009965D5E54491C0A
:1002D0000028F7D120780023000704D5702D02D024
:1002E00009B1022311322046BDE8704000F0A2B8E7
:1002F00032C500002DE9F05F894604464FF0000A40
:10030000DFF824B1FB44C0F820A02046E16888470C
:1003100000287DD0252806D0D4E901219047206A05
:10032000401C2062F1E700255F462046E1688847CF
:100330002028064607DB312E05D2B81910F8200C0C
:1003400008B10543F1E7A80701D525F00405C4F875
:100350001CA00027C4F818A02A2E09D0304605F0AA
:100360003FF938B304EB8708303EC8F8186019E04D
:1003700059F8041B204604EB87029161E168884725
:10038000012F064618D1E069002820DA25F0200563
:100390001DE0D8F8180000EB800006EB4000303874
:1003A000C8F818002046E1688847064605F018F9A5
:1003B0000028EED1012F0AD02E2E08D12046E16868
:1003C00088477F1C0646022F45F02005C4DBA06944
:1003D000002803DA404245F00105A061E80701D09A
:1003E00025F01005A6B1A6F14100192802D8203643
:1003F00045F400654A463146204625604D46FFF7E4
:10040000D1FE60B1012807D0ED1D25F0070000E006
:1004100007E000F1080978E705F1040975E73046BF
:100420007AE7206ABDE8F09F08C500007047704772
:10043000704770472DE9F0470D46994692460446AD
:1004400000F124080168880604D5E06921F0100154
:10045000216000E00120A84201DD471B00E00027E9
:10046000A1697A1902EB0900081AA0612078C00678
:1004700002D42046AFF30080002608E0D4E9012131
:100480001AF806009047206A401C761C20624E45F0
:10049000F4DB2078C0060AD52046AFF3008006E0E2
:1004A000D4E9012130209047206A401C2062381E88
:1004B000A7F10107F4DC07E0D4E9012118F80500F1
:1004C0009047206A401C2062281EA5F10105F3DC3C
:1004D0002046AFF300802078000602D50220BDE858
:1004E000F0870120FBE770472DE9FF4F0C461E46C1
:1004F0004FF0FF378BB0D2E90001DDF860800A9041
:100500008A46C1F30A5505B93D46002108464FF019
:100510000000BAF1000F00F4400005DA00EB8000A3
:100520004FF4400101EA50004FEA9059B9F1010F30
:1005300000DDB9460A9850EA4A000ED044F6105041
:10054000A5F2FF3545432F14B8F1000F1ED07542B8
:10055000291E1EDDC9F100021CE0B8F1010F4FF0A9
:10056000000001D0302103E0F24305E02154401C9B
:10057000B042FBDB30460022002121540B99C1F828
:100580000880C1E900200FB0BDE8F08FBD1B6D1CD5
:10059000DEE74A4600DA694206A800F067FA06ABD1
:1005A00093E8070003AB83E8070050460A9900F080
:1005B00045FB8DE80700A0F500501F380090039818
:1005C000002D0ADD42F21F014A460844002303A918
:1005D0000390684600F0AEFD09E0A0F500504A46E1
:1005E0001F38002303A90390684600F0B8FD8DE88A
:1005F00007000004000C03D04FF0FF30410800E07A
:100600001046B8F1000F03D00022009215461EE0FC
:10061000751E05D400F08CF9303262556D1EF9D587
:10062000B3460122084302D000227F1C04E0207858
:10063000302801D100227F1E002A099784D01DE0B6
:10064000112D07DA00F074F9303262556D1C50EA52
:100650000102F5D1084302D00098C8B10EE0002194
:10066000681E05E0235C625C63542254401E491CF2
:100670008142F7DBAB46A81B401E0990002004F81E
:100680000B000B98099AC0F80880C0E9002B7AE7A4
:1006900011264FF0000857E72DE9F04F8846044631
:1006A000D21D22F0070191B0D1E90001CDE90A0184
:1006B00004F066FF02460B98C00F01D02D2007E022
:1006C0002068810701D52B2002E0202101EAC0002B
:1006D000032A099001D0072A05DB0346414620463C
:1006E00000F084F90BE12078800601D5E06900E094
:1006F0000620B8F1650F814606D0B8F1660F18D014
:10070000B8F1670F70D131E00020B9F1110F0090FE
:1007100001DB112301E009F101030AAA01A90CA8D8
:10072000FFF7E2FEDDE90C70002609F101058346C2
:1007300047E001204B4600904FF000470AAA01A96C
:100740000CA8FFF7D1FEDDE90DB00C995D4600263F
:1007500010B909F101000D18B9EB050003D4C0F17F
:10076000FF3609F10105A5EB09002BE0B9F1010FF6
:1007700001DA4FF001090020B9F1110F009048464D
:1007800001DD112300E003460AAA01A90CA8FFF726
:10079000ABFEDDE90C704D4600268346207800074D
:1007A0000AD4AB4500DA5D4601A8012D04DD4119EC
:1007B00011F8011C302907D04F4502DA17F1040F58
:1007C00004DA012082460FE06D1EEEE7002F02DC06
:1007D000ED1B3E4403E0781CA84200DD7D1CB81BE5
:1007E00000F1010A4FF000472078000703D4AA4522
:1007F00001DB4FF0FF3A0021B7F1004F0DF1430844
:100800008DF8431024D002202B23002F01DA7F42E1
:100810002D230A21021EA0F1010000DC5FB197FB2D
:10082000F1FC97FBF1F201FB1C7C17460CF1300C3C
:1008300008F801CDEEE7A8F1010003702188090551
:1008400001D5452100E06521A0F1010800F8011C57
:1008500009980FA9A1EB0807FF1D00B1012041195C
:1008600001EBEA70A1693844081A401EA0612078A3
:10087000C00602D42046AFF30080099828B1D4E91D
:1008800001219047206A401C20622078C00622D5B2
:100890002046AFF300801EE0002E04DBB34502DDEE
:1008A00001A8805D00E03020D4E901219047206A52
:1008B000401C2062761CAAF101005FEA000A0AD1FE
:1008C00000F032F8C0680168405CD4E9012190472B
:1008D000206A401C2062281EA5F10105DCDC07E02F
:1008E000D4E9012118F8010B9047206A401C2062CE
:1008F000381EA7F10107F3DC2046AFF30080032088
:1009000011B041E6074B70B50D467B4400F05BF833
:100910000446284600F01CF910B14FF0FF3070BDBE
:10092000204670BDAB4D000000487047ACC30020AE
:1009300030B5B0F10A024FEA900E71F100034EEAB1
:10094000817EB0EB0E0061EB91014FEA101E4EEA82
:10095000017E10EB0E0041EB11114FEA102E4EEA12
:10096000016E10EB0E0041EB11214FEA104E4EEAE2
:10097000014E10EB0E0041EB1141401841F1000116
:100980004FEAD00040EA41704FEAD10110EB8005F8
:100990004FEA810444EA907444EB01046D1944EB7E
:1009A0000404521BA3414FF0000348BF0A3200D594
:1009B00030BD401C41F1000130BD000001694A1CFE
:1009C00002610878704700B58FB0CDE90131002190
:1009D000059105497944CDE9031011466846FFF7B2
:1009E00089FC0FB000BD0000E5FFFFFF2DE9F041DD
:1009F0001F46044603260168072A01F4006004DB51
:100A000008B116A505E016A503E008B115A500E09C
:100A100015A521F010002060A069C01EA0610FB1D3
:100A2000401EA0612046AFF300804FB1D4E9012100
:100A300038469047206A401C2062C01C206206E0B5
:100A4000206AFAE7D4E9012115F8010B9047761ED8
:100A5000F8D22046AFF30080BDE8F0814E414E0051
:100A60006E616E00494E4600696E66002DE9F047E2
:100A7000814616468AB0354878440DC88DE80D0089
:100A800032487844801C03AC0DC884E80D0041F660
:100A90009B300844372190FBF1F290FBF1F5A5F172
:100AA000800501FB12041B3C02D56442012000E0DA
:100AB0000020DFF898A080460027FA44AAF1BE0A79
:100AC0000EE0E0070AD03246684607EB47010123F3
:100AD0000AEB810100F043FB8DE8070064107F1CE6
:100AE000002CEED1194F7F44AE3F19E0E80715D036
:100AF00007EB04100DF1180A90E80E008AE80E00CA
:100B0000C068F04201D1981908903246012306A925
:100B100003A800F024FB03AB83E807006D10641CFE
:100B2000002DE3D14FF0010332466946B8F1000FC2
:100B300003A802D000F0FEFA01E000F010FBC9E9C2
:100B40000001C9F808200AB0BDE8F08724BE000003
:100B5000007B00F080007047004870478CC3002085
:100B60007546FFF7F9FFAE4605006946534620F08B
:100B70000700854618B020B5FFF746FBBDE82040CA
:100B80004FF000064FF000074FF000084FF0000B49
:100B900021F00701AC46ACE8C009ACE8C009ACE8FC
:100BA000C009ACE8C0098D46704710B50446AFF3E4
:100BB00000802046BDE81040FFF711BB4FF0013C1C
:100BC00050F8042B51F8043B9A4221D1A2EB0C03BC
:100BD000934313EACC1317D150F8042B51F8043B7C
:100BE0009A4215D1A2EB0C03934313EACC130BD119
:100BF00050F8042B51F8043B9A4209D1A2EB0C03A4
:100C0000934313EACC13DBD04FF00000704700BFD2
:100C1000D01A01BAB1FA81F101F0180122FA01F0FB
:100C2000CB40C1F12001DBB2C0B2C01A2CFA01F3F3
:100C3000D11A914311EAC311E6D170475FEA400C23
:100C400008BF91F0000F4FEA8C234FEAC12243EA1C
:100C500051514FEA1C5018BF00F5F0404FEA3000E8
:100C600018BF41F000415FEA6C5C00F02980BCF1E4
:100C7000FF3F08BF40F080407047130C06BF1204CE
:100C80004FF0100C4FF0000C130E04BF12020CF1C9
:100C9000080C130F04BF12010CF1040C930F04BFD6
:100CA00092000CF1020CD30F04BF52000CF1010CA6
:100CB00011464FF00002A0F11F00A0EB0C0070479E
:100CC00011F0004F08BF704731F000413FF4D5AF3D
:100CD0000B0C06BF09044FF0100C4FF0000C0B0E6C
:100CE00004BF09020CF1080C0B0F04BF09010CF141
:100CF000040C8B0F04BF89000CF1020CCB0F04BF56
:100D000049000CF1010CCCF12003A0EB0C0022FAFD
:100D100003F302FA0CF241EA030100F1010070470B
:100D200020F07F4C80EA030023F07F47ACEB070301
:100D300003F57C5300F0004003F1FF032DE98049E7
:100D40004FEA154B09B44FEA144325EA0B4E24EA47
:100D500003480FF2042606EB132749083E785FEAA2
:100D6000320203FB0667C7F5000707FB06F64FEAEA
:100D700054374FEAD64606F1020607FB066CCCF163
:100D8000005C4FEA1C472CEA074C07FB06F40CFBFF
:100D900006F504EB15464FEA961634BF00204FF0D7
:100DA00000404FEAD13706FB07FC4FEA1C4C0CFB16
:100DB0000BF7D21B03FB0CF761EB07010CFB0EF7E3
:100DC000B0EB074072EB17420CFB08F734BFA2EB05
:100DD0000742B2EB074261EB17414FEA0C444FEA7E
:100DE000910706FB07FC4FEA1C4C0CFB0BF7B0EB22
:100DF000C74072EB573203FB0CF734BFA2EBC7427C
:100E0000B2EBC74261EB57310CFB0EF7B0EBC700FA
:100E100072EB57720CFB08F734BFA2EBC702B2EBC0
:100E2000C70261EB5771039F4FEA816141EA92115A
:100E300004EBCC044FEAD1374FEA826206FB07FC91
:100E400042EA90124FEA80604FEA1C4C0CFB0BF711
:100E5000D21B03FB0CF761EB07010CFB0EF7B0EBA9
:100E6000074072EB17420CFB08F734BFA2EB0742B6
:100E7000B2EB074261EB17414FEA8C554FEA9107FD
:100E800004EB9C2406FB07FC4FEA1C4C0CFB0BF705
:100E9000B0EBC74072EB573203FB0CF734BFA2EB49
:100EA000C742B2EBC74261EB57310CFB0EF7B0EB18
:100EB000C70072EB57720CFB08F734BFA2EBC702F6
:100EC000B2EBC70261EB577115EB4C254FEA81611C
:100ED00041EA92114FEA82624FEAD13742EA901218
:100EE00006FB07FC44F100044FEA80604FEA1C4C0B
:100EF0000CFB0BF7D21B03FB0CF761EB07010CFBA0
:100F00000EF7B0EB074072EB17420CFB08F734BF4B
:100F1000A2EB0742B2EB074261EB174115EB1C1540
:100F20004FEA813141EA92414FEA823242EA9042ED
:100F30004FEA80304FEA0C7644F1000448EA03435C
:100F40004EEA0B484FF0000EB2EB080C71EB0307B2
:100F500024BF624639464EEB0E0E4FF0000B0018D0
:100F6000524149414BEB0B0BB2EB080C71EB030701
:100F70007BF1000B24BF624639464EEB0E0E4FF05C
:100F8000000B0018524149414BEB0B0BB2EB080C24
:100F900071EB03077BF1000B24BF624639464EEB31
:100FA0000E0E51EA020718BF46F0010616EB0E7648
:100FB00055F1000254F1000103D5BDE88901BDE8F7
:100FC0000088BDE88901BDE80048B619524141EBEF
:100FD0000101A3F10103704780807F7E7D7C7B7AD5
:100FE0007978777676757473727171706F6E6E6DD5
:100FF0006C6C6B6A6A69686867666665646463637B
:1010000062616160605F5F5E5E5D5D5C5C5B5B5A00
:101010005A5959585857575656555555545453536D
:1010200052525251515050504F4F4F4E4E4D4D4DC8
:101030004C4C4C4B4B4B4A4A4A4949494848484713
:101040004747474646464545454444444443434351
:101050004342424242414141002B9C4630D47700FA
:101060002BD01CB54FEA370703B44FF010004FF0F8
:101070001001BAF1000F06D0BCF1000FDCBF40F048
:10108000080040F008014FF000000FBCBDE8104020
:101090000BF1010BBBF1010F08BF5FEA170722BF7D
:1010A00012F1010211F101014FF0004143F100037F
:1010B00000F0004043EA00007047F9D35708D0E73A
:1010C00046EA064613F1400F4FEA16461FDD13F1BC
:1010D000200FDFBF16430A46002120335B42BED0FB
:1010E000C3F1200746EA064602FA07F74FEA16461A
:1010F00046EA0706C3F1200722FA03F201FA07F7CE
:1011000021FA03F14FF0000342EA0702A7E746EA9B
:10111000020646EA06464FEA164646EA0106BCBF04
:1011200046EA0646360C4FF000034FF000024FF03F
:10113000000194E72DE9804C9A46934670B491E8FB
:10114000380007C831EA400C48BF34EA430C03D5E5
:10115000FFF7E6FDFFF780FFF0BCBDE8008C2DE94E
:10116000804C9A46934670B491E8380007C810F056
:10117000804F08BF13F0804F03D100F005F8FFF750
:101180006BFFF0BCBDE8008C20F07F4780EA0300D5
:1011900023F07F4C07EB0C03A3F57C5300F00040D9
:1011A000A3F1FE0392F0000F00F0B38095F0000F62
:1011B00000F077802DE901494FEA11404FEA1446CB
:1011C00021EA004800FB06FC24EA064708FB06F675
:1011D00007FB08F800FB07F718EB06484CEB164C2A
:1011E0004FEA124B18EB07484FEA15464CEB1740F5
:1011F00022EA0B4E0BFB06FC25EA06470EFB06F621
:1012000007FB0EFE0BFB07F71EEB064E4CEB164CD6
:101210004FF000061EEB074E4CEB174B18EB0B087C
:1012200040F1000018EB0E0B58EB000840F10000F5
:101230008F1A4FF000013CBFC943661B14BFB5EBCA
:10124000040C00213CBFC943F61B4FEA17444EEA89
:101250008E0E27EA04454FEA1C4704FB07622CEA7E
:10126000074C05FB07F70CFB05F604FB0CFC16EB23
:10127000074642EB174216EB0C4642EB1C421BEBB7
:10128000060658EB0202414146EA9E0601D5BDE83A
:101290000189B619524141EB0101A3F10103BDE8F7
:1012A00001894FEA14454FEA114724EA054621EA2D
:1012B000074C05FB07F406FB07F70CFB06F105FBE3
:1012C0000CFC11EB074144EB17444FEA124711EBBA
:1012D0000C4144EB1C4422EA074C05FB07F206FBD9
:1012E00007F70CFB06F605FB0CFC16EB074642EB7A
:1012F000174216EB0C4642EB1C456A1854F10001EC
:1013000048BF7047B619524141EB0101A3F10103F7
:10131000704795F0000F37D04FEA11424FEA14475B
:1013200021EA024624EA074C02FB07F106FB07F715
:101330000CFB06F402FB0CFC14EB074441EB1741D9
:101340004FEA154714EB0C4441EB1C4125EA074CCE
:1013500002FB07F506FB07F70CFB06F602FB0CFC8D
:1013600016EB074645EB174516EB0C4645EB1C42C2
:10137000121951F1000148BF7047B619524141EBB3
:101380000101A3F1010370474FEA14454FEA1147E9
:1013900024EA054621EA074C05FB07F106FB07F79F
:1013A0000CFB06F24FF0000605FB0CFC12EB0742AB
:1013B00041EB174112EB0C4251EB1C4148BF704707
:1013C000921841EB0101A3F10103704772B64EF68A
:1013D0002250CEF2000040F2FF01C0F20001017085
:1013E000002080F3098840F26000C2F2000001682A
:1013F00081F3088802F0E4F940F28E00C2F20000A6
:1014000040F28F01C2F200010A78027040F2081027
:10141000C2F2000040F20C11C2F200010A68026040
:10142000106880F30988EFF3148040F0020020F088
:10143000040080F31488BFF36F8FBDE8F04F0FBC3A
:10144000BDE8005006BC62B6084721484FF0805105
:101450000160704772B640F26402C2F20002116885
:1014600081F31188BFF34F8FBFF36F8F62B6EFF335
:10147000098020E9F04F40F20815C2F20005296802
:101480000860744602F09CF940F28E00C2F200003F
:1014900040F28F01C2F200010A78027040F20C1192
:1014A000C2F200010A682A6044F0040E1068B0E835
:1014B000F04F80F3098840F20002C0F2000272B6D9
:1014C00082F31188BFF34F8FBFF36F8F62B67047FF
:1014D00004ED00E000BFFEE710B500F021F800F0D9
:1014E00019F810BD10B5002400BF00BF4020FEF762
:1014F000A1FE044600BF00BF1021054801F0D3F94A
:1015000000BF00BF2046FEF7A3FE00BF00BF10BD16
:10151000C0B6002010B5FFF7E5FF10BD00BFFEE725
:1015200010B500200249086000F00AF810BD000064
:101530005C00002001490860704700005C0000204A
:1015400010B50A48006840F0807008490860002023
:10155000074948600846006840F00100086000F054
:10156000B1FC0446FFF7E6FF10BD0000FCED00E013
:10157000001000E00148406870470000001000E0E3
:101580007047000070B50446B3F5804F13D1D1E920
:10159000000540EA05108D6840EA05208D69284362
:1015A0008D8940EA054054F82250064E35402843C4
:1015B00044F8220003E06FF0704044F8220000205D
:1015C00070BD00000000F0CF70B50246086852F808
:1015D000200020F001000E6842F8260088680828E4
:1015E00001D1402300E00023486818438E6830434F
:1015F000CE6830430E6930434E693043CE69304384
:101600000E6A30434E6A30438E6A3043CE6A3043AE
:101610000E6B40EA060488690443486B0443074D97
:1016200045F4806545F4E025086852F82000A84399
:1016300020430E6842F82600002070BD7FFB0800A2
:1016400010B50346D1E9000440EA04108C6840EA72
:1016500004208C8940EA0444088A401E44EA00546D
:10166000087D801E44EA00608C692043541C53F8B6
:10167000244004F040442043541C43F8240000203C
:1016800010BD000070B50446002594F82100022822
:1016900003D00420A0630125C1E02068006820F089
:1016A0000E00216808602068006820F001002168B1
:1016B00008605C492068884252D95A4978392068C4
:1016C000884201D1012047E05649643920688842A8
:1016D00001D1102040E0534950392068884201D19F
:1016E000801539E04F493C392068884201D1801487
:1016F00032E04C4928392068884202D14FF48030CA
:101700002AE0484914392068884202D14FF48010F9
:1017100022E044492068884201D140041CE042494B
:101720002068884201D1012016E03F491431206829
:10173000884201D110200FE03B49283120688842BF
:1017400001D1801508E038493C312068884201D138
:10175000801401E04FF480303349091F086051E0E4
:10176000304978392068884201D1012047E02D496D
:1017700064392068884201D1102040E0294950395D
:101780002068884201D1801539E026493C3920681B
:10179000884201D1801432E02249283920688842E9
:1017A00002D14FF480302AE01E4914392068884263
:1017B00002D14FF4801022E01A492068884201D1FA
:1017C00040041CE018492068884201D1012016E03D
:1017D000154914312068884201D110200FE01249C8
:1017E00028312068884201D1801508E00E493C313B
:1017F0002068884201D1801401E04FF4803009490B
:1018000080394860012084F8210000BF002084F85E
:10181000200000BF606B10B12046616B88472846EE
:1018200070BD000080000240080402402DE9F84726
:10183000024600239C467BE14FF0010808FA03F4BE
:10184000D1F8008008EA0400A0427DD1DFF8F4A2BC
:10185000D1F80480A8EB0A09D0453AD014DCB8F1DD
:10186000030F50D009DCB8F1000F31D0B8F1010FEF
:101870001CD0B8F1020F49D120E0B8F1110F18D0F7
:10188000B8F1120F42D11EE0B9F5881F25D006DC51
:10189000B9F5803F20D0B9F5801F37D11AE0B9F5EE
:1018A000001F18D0B9F5041F30D117E0D1F80CC0D3
:1018B0002DE0D1F80C8008F1040C28E0D1F80C8060
:1018C00008F1080C23E0D1F80C8008F10C0C1EE0A4
:1018D00000BF00BF00BF00BF00BF00BFD1F808803D
:1018E000B8F1000F02D14FF0040C0BE0D1F80880E2
:1018F000B8F1010F03D14FF0080C146102E04FF072
:10190000080C546103E04FF0000C00E000BF00BF82
:10191000FF2801D8904601E002F104084646FF285E
:1019200002D84FEA830803E0A3F108084FEA8808C9
:101930004746D6F800804FF00F0909FA07F928EA60
:1019400009080CFA07F900E07AE048EA0908C6F845
:101950000080D1F8048008F08058B8F1805F6FD122
:1019600000BFDFF8E481D8F8188048F00108DFF8FC
:10197000D891C9F81880C846D8F8188008F001082E
:10198000CDF8008000BF00BF4FEAB9384FEA930995
:1019900058F829504FEA83784FEA18794FF00F082A
:1019A00008FA09F825EA0805DFF8A081424502D1C6
:1019B0004FF0000824E0DFF89881424502D14FF053
:1019C00001081DE0DFF88C81424502D14FF002088A
:1019D00016E0DFF88481424502D14FF003080FE0A2
:1019E000DFF87881424502D14FF0040808E0DFF8C3
:1019F0007081424502D14FF0050801E04FF0060822
:101A00004FEA83794FEA197908FA09F848EA050597
:101A1000DFF850814FEA930948F82950D1F8048043
:101A200008F48038B8F5803F0BD1DFF83C81D8F856
:101A3000008048EA0008DFF83091C9F800800AE029
:101A400075E0DFF82481D8F8008028EA0008DFF884
:101A50001891C9F80080D1F8048008F40038B8F56E
:101A6000003F0ED1DFF8008108F10408D8F80080AB
:101A700048EA0008DFF8F09009F10409C9F800808D
:101A80000DE0DFF8E48008F10408D8F8008028EAC7
:101A90000008DFF8D49009F10409C9F80080D1F8F2
:101AA000048008F48018B8F5801F0ED1DFF8B880E4
:101AB00008F10808D8F8008048EA0008DFF8A89084
:101AC00009F10809C9F800800DE0DFF89C8008F1F1
:101AD0000808D8F8008028EA0008DFF88C9009F19F
:101AE0000809C9F80080D1F8048008F40018B8F596
:101AF000001F0ED1DFF8708008F10C08D8F80080C4
:101B000048EA0008DFF8609009F10C09C9F8008084
:101B10000DE0DFF8548008F10C08D8F8008028EABE
:101B20000008DFF8449009F10C09C9F800805B1C3B
:101B3000D1F8008028FA03F8B8F1000F7FF47CAEEA
:101B4000BDE8F887000011100010024000080140B5
:101B5000000C014000100140001401400018014039
:101B6000001C0140080001400004014010B5C2689B
:101B700021EA020302EA010443EA0443036110BDBF
:101B80000AB1016101E00B0403617047014800687C
:101B9000704700002C0000200348006803490978C2
:101BA00008440149086070472C00002034000020E0
:101BB00010B50848006840F010000649086003208E
:101BC00000F080F80F2000F007F800F02BF800205C
:101BD00010BD00000020024070B504460E48007899
:101BE0004FF47A71B1FBF0F00C490968B1FBF0F5E4
:101BF000284600F073FC08B1012070BD102C07D2FC
:101C000000222146501E00F01EF80548046001E045
:101C10000120F2E70020F0E734000020000000205F
:101C200030000020704701460846002809DB00F01C
:101C30001F0301229A4043099B0003F1E023C3F8EC
:101C4000002100BF70472DE9F05F80460D46164623
:101C5000002703F0A9FC074639462A46334601F01F
:101C60000700C0F1070ABAF1040F02D94FF0040AC5
:101C700001E0C0F1070AD14600F1040ABAF1070FEA
:101C800002D24FF0000A01E0A0F1030AD4464FF05F
:101C9000010A0AFA09FAAAF1010A0AEA020A0AFA88
:101CA0000CFA4FF0010B0BFA0CFBABF1010B0BEA3A
:101CB000030B4AEA0B042146404603F07DFCBDE8D5
:101CC000F09F000000BF00F00702064B19684FF6B6
:101CD000FF031940044B0B4343EA0221014B1960F7
:101CE00000BF70470CED00E00000FA0570B5044637
:101CF0000D460CB9012070BD5A48006800F007007D
:101D0000A8420ED25748006820F0070028435549E2
:101D100008600846006800F00700A84201D00120D2
:101D2000E9E7207800F0020002281DD1207800F0B9
:101D30000400042805D14C48406840F4E0604A495A
:101D40004860207800F00800082805D1464840681F
:101D500040F46050444948604348406820F0F00037
:101D6000A168084340494860207800F0010078B33A
:101D70006068012806D13C48006800F4003090B942
:101D80000120B8E76068022806D13748006800F0F3
:101D9000007040B90120AEE73348006800F002004F
:101DA00008B90120A7E73048406820F003006168C7
:101DB00008432D494860FFF7E9FE064609E0FFF7B2
:101DC000E5FE801B41F28831884202D9032092E768
:101DD00007E02548406800F00C006168B0EB810F17
:101DE000EDD12048006800F00700A8420ED91D4838
:101DF000006820F0070028431A4908600846006878
:101E000000F00700A84201D0012074E7207800F01C
:101E10000400042807D11448406820F4E060E16819
:101E2000084311494860207800F00800082808D1CC
:101E30000D48406820F46050216940EAC1000A4919
:101E4000486000F03FF808494968C1F30311074AA8
:101E5000515CC8400649086006480068FFF7BCFEB0
:101E6000002048E700200240001002406A96000867
:101E7000000000203000002001480068704700008A
:101E80000000002000B5FFF7F7FF04494968C1F3DF
:101E90000221034A515CC84000BD0000001002400E
:101EA0007A96000800B5FFF7E7FF04494968C1F3D7
:101EB000C221034A515CC84000BD0000001002402E
:101EC0007A960008F0B585B00FF26C0C9CE8E01033
:101ED00001A8A0E8E0101CA52D68009500210022B3
:101EE000002300240020194D696801F00C05F5B1AC
:101EF000042D02D0082D19D101E0154819E001ADDB
:101F0000C1F38346AC5D01F4803555B10F4D6D686A
:101F1000C5F340451DF805200D4D6543B5FBF2F3B3
:101F200002E00C4D04FB05F3184602E000BF084830
:101F300000BF00BF05B0F0BD020304050607080995
:101F40000A0B0C0D0E0F10100102000000100240D1
:101F500000127A0000093D00F8B504460CB90120D2
:101F6000F8BD207800F00100002878D0F8484068DB
:101F700000F00C0004280CD0F548406800F00C007C
:101F8000082811D1F248406800F48030B0F5803F55
:101F90000AD1EF48006800F4003000285FD0606884
:101FA00000285CD10120DBE700BF6068B0F5803F0E
:101FB00006D1E748006840F48030E549086028E031
:101FC000606858B9E248006820F48030E049086051
:101FD0000846006820F4802008601AE06068B0F5C8
:101FE000A02F0BD1DA48006840F48020D84908605F
:101FF0000846006840F4803008600AE0D448006871
:1020000020F48030D24908600846006820F480201F
:10201000086000BF606888B1FFF7B8FD054606E0BC
:10202000FFF7B4FD401B642801D9032098E7C84896
:10203000006800F400300028F2D010E0FFF7A6FDA1
:10204000054606E0FFF7A2FD401B642801D90320E6
:1020500086E7BF48006800F400300028F2D12078FD
:1020600000F00200022857D1B948406800F00C0087
:1020700050B1B748406800F00C00082818D1B448A7
:10208000406800F4803098B9B148006800F0020060
:1020900020B12069012801D0012061E7AC48006827
:1020A00020F0F800616940EAC100A949086033E006
:1020B0002069E8B10120A7490860FFF767FD0546E0
:1020C00006E0FFF763FD401B022801D9032047E724
:1020D0009F48006800F002000028F2D09C48006889
:1020E00020F0F800616940EAC1009949086013E0F6
:1020F000002098490860FFF749FD054606E0FFF714
:1021000045FD401B022801D9032029E790480068BB
:1021100000F002000028F2D1207800F00800082822
:102120002DD1A069B8B101208B490860FFF72EFDC1
:10213000054606E0FFF72AFD401B022801D90320CF
:102140000EE78348406A00F002000028F2D0012028
:1021500003F0C0F813E000207F490860FFF716FD88
:10216000054606E0FFF712FD401B022801D90320B7
:10217000F6E67748406A00F002000028F2D12078A5
:1021800000F00400042873D100277148C06900F0F2
:10219000805070B900BF6E48C06940F080506C49F3
:1021A000C8610846C06900F08050009000BF00BFC1
:1021B00001276A48006800F48070B0B96748006879
:1021C00040F4807065490860FFF7E0FC054606E0D2
:1021D000FFF7DCFC401B642801D90320C0E65F4800
:1021E000006800F480700028F2D000BFE068012889
:1021F00006D15748006A40F001005549086227E0BF
:10220000E06858B95248006A20F00100504908625D
:102210000846006A20F00400086219E0E06805281A
:102220000BD14B48006A40F0040049490862084657
:10223000006A40F0010008620AE04548006A20F0A8
:102240000100434908620846006A20F00400086261
:1022500000BFE068A0B1FFF799FC054609E0FFF771
:1022600095FC401B41F28831884202D9032077E671
:1022700022E03748006A00F002000028EFD012E0A8
:10228000FFF784FC054608E0FFF780FC401B41F2A5
:102290008831884201D9032062E62D48006A00F0A7
:1022A00002000028F0D1012F05D12948C06920F093
:1022B00080502749C86100BFE069C8B3244840681E
:1022C00000F00C00082860D0E069022848D1002006
:1022D00020490866FFF75AFC054606E0FFF756FC62
:1022E000401B022801D903203AE61948006800F093
:1022F00000700028F2D1206AB0F5803F07D1144861
:10230000406820F40030A168084311494860D4E9CE
:10231000080108430E49496821F4741108430C4927
:10232000486001200B490866FFF730FC054607E0CE
:102330003DE0FFF72BFC401B022801D903200FE6EC
:102340000348006800F000700028F2D02FE0000081
:1023500000100240000042428004424200700040EF
:10236000002014490866FFF711FC054606E0FFF758
:102370000DFC401B022801D90320F1E50E4800683E
:1023800000F000700028F2D111E0E069012800D1CE
:10239000E6E50948466806F48031206A814204D1A6
:1023A00006F47011606A814201D00120D8E5002056
:1023B000D6E50000000042420010024070B504461D
:1023C0000E4615461CB1A069B0F5807F01D10120F1
:1023D00070BD94F8410028B9002084F840002046E0
:1023E00000F020F804F108012068FFF7EDF831460D
:1023F000A2682068FFF724F92946236BD4E901027B
:10240000FFF7C0F8A168206850F8210040F00100F3
:10241000A268216841F82200012084F841000020D0
:10242000D6E7000010B586B0044600BF1E484069DC
:1024300040F480701C4948610846406900F480708F
:10244000019000BF00BF00BF0846806940F0200037
:1024500088610846806900F02000019000BF00BF3D
:1024600000BF0846806940F04000886108468069E6
:1024700000F04000019000BF00BF4CF203700290DA
:1024800002200390012004900320059002A9074830
:10249000FFF7CCF94FF68070029002A90448FFF7CD
:1024A000C5F906B010BD0000001002400014014044
:1024B00000180140042808D14FF0E021096941F0DB
:1024C00004014FF0E022116107E04FF0E0210969BB
:1024D00021F004014FF0E0221161704770B504460D
:1024E0002546681EB0F1807F01D301200FE0681EF1
:1024F0004FF0E02148610F214FF0FF3003F05CF80E
:1025000000204FF0E021886107200861002070BDA5
:10251000704700002DE9F0470446206805682068F0
:10252000C668206847694FF00008C14605F00F08EB
:10253000B8F1000F0AD105F0200038B106F02000F4
:1025400020B1204602F013FFBDE8F087B8F1000F7C
:1025500071D007F0010018B906F4907000286AD015
:1025600005F0010030B106F4807018B1E06B40F066
:102570000100E06305F0040030B107F0010018B17C
:10258000E06B40F00200E06305F0020030B107F0BC
:10259000010018B1E06B40F00400E06305F00800B2
:1025A00048B106F0200010B907F0010018B1E06B47
:1025B00040F00800E063E06B68B305F0200028B14C
:1025C00006F0200010B1204602F0D1FE20684069DC
:1025D000C0F38019E06B00F0080010B9B9F1000FEA
:1025E00022D0204602F0A3FE2068406900F040009F
:1025F000B0B12068406920F0400021684861606BFC
:1026000050B11848616B4863606BFFF73BF810B13D
:10261000606B416B88470CE02046FFF779FF08E0CC
:102620002046FFF775FF04E02046FFF771FF00200A
:10263000E06389E7FFE705F0800030B106F0800035
:1026400018B1204602F062FF7EE705F0400030B18D
:1026500006F0400018B1204602F079FE74E700BF92
:1026600072E700001B53000810B504460CB90120A6
:1026700010BDA06900B100E000BF94F8390028B98E
:10268000002084F83800204600F028F8242084F840
:1026900039002068C06820F400502168C8602046D6
:1026A00002F0B6FE2068006920F4904021680861BD
:1026B0002068406920F02A00216848612068C068CD
:1026C00040F400502168C8600020E063202084F8B6
:1026D000390084F83A000020CAE7000010B586B03F
:1026E00004462849206888424AD100BF00BF2648D6
:1026F000806940F00400244988610846806900F040
:102700000400019000BF00BF00BF00BF00BF08462B
:10271000806940F0040088610846806900F0040088
:10272000019000BF00BF00BF00BF00BF0846806926
:1027300040F4804088610846806900F48040019040
:1027400000BF00BF00BF4815029002200390012087
:1027500004900320059002A90C48FFF767F84FF496
:10276000806002900020039002A90848FFF75EF8FD
:102770002520FFF758FA032211462520FFF763FAB8
:1027800006B010BD003801400010024000080140B2
:1027900010B5034693F83A0020282FD101B10AB9A9
:1027A000012010BD00BF93F83800012801D102209C
:1027B000F7E7012083F8380000BF99629A85DA852F
:1027C0000020D863222083F83A0000BF002083F85D
:1027D000380000BF1868C06840F480701C68E06072
:1027E0001868406940F001001C6860611868C068A2
:1027F00040F020001C68E0600020D2E70220D0E713
:1028000010B504462049206888423BD11F48008803
:1028100000F4004088BB1D48008800F4804070B17F
:102820001B4800780A2803D000201849088024E0BB
:102830001648008840F40040144908801DE0144800
:1028400000780D2806D11148008840F480400F49D7
:10285000088012E00E4800780C490988C1F30D0188
:102860000C4A505409480088401C08490880084612
:102870000088C72801DD002008800122044906489D
:10288000FFF786FF10BD000000380140280000203F
:102890002A0000205C0B0020240C0020704700BFA1
:1028A000FEE700BFFEE730B505460C462246002194
:1028B000284600F001F830BD2DE9F04105460B46F1
:1028C00094460027002402E03F021F43641C042CAE
:1028D000FAD3604605F00306294646B1344603E0C4
:1028E00001F8013B401E641C08B1042CF8D30A46D1
:1028F00001E080C2001F0428FBD2114602E001F86B
:10290000013B401E0028FAD1BDE8F08170477047B6
:1029100070B5044600F09EF8002039490870394926
:1029200008703949087039490860394908603949DF
:1029300008703949087039490870394800680A2117
:10294000B0FBF1F0374908603748056845B13748B2
:10295000066803E0761E002028602D1D002EF9D1A8
:10296000324801683048006802F02EF801F08AFB16
:1029700001F0ACFB00202E4908602E49088020465B
:1029800001F072F9208800B170BD204601F078F99D
:10299000208800B1F8E7002027490860274908800F
:1029A0002749086027490880274908602749088087
:1029B000204601F083FF208800B1E5E7204601F0C2
:1029C0001BF9208800B1DFE7204602F009F82088D3
:1029D00000B1D9E7204601F03DFE208800B1D3E7E1
:1029E000204602F08FFA208800B1CDE700F0CCFF3E
:1029F000FFF78DFF01201649087000BFC4E70000F3
:102A00006C0000206D0000209A00002008010020CA
:102A10000C0100208E0000208F000020A00000206C
:102A200060C600089C0000202CC6000830C60008C4
:102A3000780000207C000020880000208C0000200E
:102A40009400002098000020A4000020A80000208E
:102A50006E000020084800680849096800EB810002
:102A6000074908600846006820F007000860402019
:102A700004490860704700002CC6000830C60008F2
:102A8000600000206400002008480078012800D081
:102A9000704707480078FA2800D3F9E7044800781F
:102AA000401C0349087000BFF2E700006D000020E1
:102AB0006C00002070B5002538480078012800D04F
:102AC00070BD00BF4020FDF7B5FB054600BF344890
:102AD000007828B900BF2846FDF7BAFB00BFEFE732
:102AE0002F480078401E2E4908700846007828B10B
:102AF00000BF2846FDF7ACFB00BFE1E7294800789E
:102B000028B100BF2846FDF7A3FB00BFD8E7264841
:102B100001682648006801F043FF0446012C02D0FA
:102B2000002000F0ABF901F0A3FA21490870084633
:102B3000007800EB40001F4951F820001E49086052
:102B4000084600681D49096888420FD1002000F03E
:102B50001BFE0446012C03D01848006800F08EF9D3
:102B600000BF2846FDF774FB00BFA9E712480068C4
:102B7000D0F89400401C10490968C1F8940010482E
:102B80000068401C0E490860FEF75FFC00BF284645
:102B9000FDF75EFB00BF00BF92E700006D00002064
:102BA0006C0000209A00002030C600082CC60008E7
:102BB0008F00002030C000200C0100200801002000
:102BC000C80000202DE9F04104460E4615460027B6
:102BD0002148007820B142F6E1602880BDE8F0810C
:102BE0001CB945F6C3502880F8E700BF00BF40205D
:102BF000FDF720FB074600BF00BF18492068884248
:102C00000AD100BF00BF3846FDF722FB00BF00BF5E
:102C100045F6C1502880E1E710482060666000203A
:102C20002062606284F82800E06204F1080001F08C
:102C30006AF9204601F08AF809480088401C0849D2
:102C4000088000BF00BF3846FDF702FB00BF00BF91
:102C50000020288000BFC1E76C0000204D5554586B
:102C60008C0000202DE9F0470646894617461C4691
:102C7000089D4FF0000A7C48007820B146F2AE1063
:102C80002880BDE8F08779480078012803D045F610
:102C900089602880F5E71EB945F6C3502880F0E723
:102CA0001FB1B7F5004F02D100E000BF03E045F6C9
:102CB00025602880E5E700BF6D493068884203D071
:102CC00045F6C4502880DCE700BF00BF4020FDF778
:102CD000B1FA824600BF00BF96F82800B8B965482F
:102CE00000687062012086F828000CB1F06A20604C
:102CF00031466048006801F041F800BF00BF50460F
:102D0000FDF7A6FA00BF00BF00202880B9E75949A7
:102D1000706A0968884221D196F82800FF280AD1F4
:102D200000BF00BF5046FDF793FA00BF00BF45F259
:102D300084702880A5E796F82800401C86F82800B3
:102D40000CB1F06A206000BF00BF5046FDF780FA6A
:102D500000BF00BF45F28270288092E707F4004070
:102D600068B100BF00BF5046FDF772FA00BF00BF58
:102D70000CB10020206046F2B010288081E73E4868
:102D8000007868B100BF00BF5046FDF761FA00BF90
:102D900000BF0CB10020206046F66350288070E729
:102DA000D6F8248098F83B003249096891F83B1026
:102DB000884206DD2F48006890F83B10404601F03D
:102DC000CFFC4B4604222B480168304601F02CF81A
:102DD00000BF00BF5046FDF73BFA00BF00BF00F048
:102DE00055F800BF00BF4020FDF724FA824600BF1F
:102DF00000BF2048006890F8390030B101280CD09D
:102E000002281AD0032821D110E01CB1194800680B
:102E1000C06C2060002028801CE01CB115480068B0
:102E2000C06C206046F2A910288013E00CB100208D
:102E3000206047F2D92028800CE01CB10D480068C2
:102E4000C06C206045F6C250288003E046F62E6034
:102E5000288000BF00BF00BF00BF5046FDF7F8F953
:102E600000BF00BF00BF0CE76C0000206D00002019
:102E70004D555458080100209A00002010B5044612
:102E800000BFFEF74BFB00BF10BD000010B50024D3
:102E900022480078012800D010BD2148007800B1F8
:102EA000FAE72048007800B1F6E700BF4020FDF7C0
:102EB000C1F9044600BF01F0DBF81B490870084661
:102EC000007800EB4000194951F8200018490860CB
:102ED0000846006817490968884205D100BF2046A6
:102EE000FDF7B6F900BFD7E711480068D0F89400A5
:102EF000401C0F490968C1F894000F480068401C45
:102F00000D490860FEF7A1FA00BF2046FDF7A0F9C1
:102F100000BFBFF36F8F00BFBEE700006D00002051
:102F20006C0000209A0000208F00002030C000209C
:102F30000C01002008010020C800002070B50446E4
:102F400000251748007818B146F66250208070BD01
:102F500014480078012803D045F689602080F6E700
:102F600011480078FA2803D345F209202080EEE7C3
:102F700000BF00BF4020FDF75DF9054600BF00BF60
:102F800009480078401C0849087000BF00BF284667
:102F9000FDF75EF900BF00BF0020208000BFD6E72C
:102FA0006C0000206D0000209A0000202DE9F04107
:102FB00005460C461646002700BF00BF4020FDF71F
:102FC00039F9074600BF00BF1DB900200D49087040
:102FD00002E001200B49087014B10B48046006E0C0
:102FE0000A4800680A21B0FBF1F00749086000BFF9
:102FF00000BF3846FDF72CF900BF00BF002030802D
:10300000BDE8F081A00000209C00002060C6000800
:1030100070B5044600251F48007818B146F6655083
:10302000208070BD1C480078012803D045F68960D7
:103030002080F6E71948007818B946F664502080D9
:10304000EFE700BF00BF4020FDF7F4F8054600BFE2
:1030500000BF12480078401E1049087008460078EA
:1030600050B100BF00BF2846FDF7F2F800BF00BF17
:1030700046F663502080D4E700BF00BF2846FDF726
:10308000E7F800BF00BFFFF701FF0020208000BF6E
:10309000C7E700006C0000206D0000209A000020AF
:1030A00070B504461C480078012803D045F68B60B3
:1030B000208070BD00256D1C6D1C6D1C174800889C
:1030C000A84203DC45F68C602080F2E714480078C3
:1030D000E8B900F0CDFF134908700846007812499E
:1030E00008701048007800EB4000104951F82000AB
:1030F0000F490860084600680E4908600120084929
:103100000870FEF763F943F69920208002E045F647
:103110008A60208000BFCCE76E000020D000002035
:103120006D0000208F0000208E00002030C00020A5
:103130000C010020080100202DE9F04107464FF066
:10314000000800BF00BF4020FDF774F8804600BFB4
:1031500000BF00203B4908803B4908603B490860AC
:103160003B4908603B4908603B4908603B4908818E
:1031700000BF00BF4046FDF76BF800BF00BF00BFB7
:1031800000BF4020FDF756F8804600BF00BF34481E
:10319000046800BF00BF4046FDF75AF800BF00BFFB
:1031A00021E000BF00BF4020FDF744F8804600BF8B
:1031B00000BF002044F8800FE062606120826082DE
:1031C00020626062FEF7D6F9E061803C04F16C0693
:1031D0000020B081D4F8BC4000BF00BF4046FDF7DE
:1031E00037F800BF00BF002CDBD100BF00BF40207C
:1031F000FDF720F8804600BF00BF1A48056800BFF1
:1032000000BF4046FDF724F800BF00BF13E000BF39
:1032100000BF4020FDF70EF8804600BF00BF05F15B
:1032200020060020B081AD6900BF00BF4046FDF719
:103230000FF800BF00BF002DE9D100203880BDE8A5
:10324000F0810000AE000020C4000020E00000205B
:10325000E4000020F8000020FC00002024C0002032
:10326000CC00002094000020704700002DE9FF4FA3
:1032700085B004469346DDE91995DDE91286159F70
:10328000002002906248007828B147F24A10288056
:1032900009B0BDE8F08F1CB947F2AD102880F7E700
:1032A000BBF1000F03D147F24F102880F0E71EB9A1
:1032B00046F62F602880EBE756480068874203D225
:1032C00046F630602880E3E71498B84203D346F608
:1032D00031602880DCE7B8F11E0F06D9B8F11F0F66
:1032E00003D046F273202880D2E7B8F11F0F06D131
:1032F0004948844203D046F273202880C8E720461C
:1033000001F0ECFA0020288009F0010010B909F062
:10331000020088B109F0020070B1B24600200490AA
:1033200007E00020CAF800000AF1040A0498401CD3
:1033300004900498B842F4D3149806EB80000390EC
:10334000CDE9007932465846039B089900F0B4F95C
:103350008246B24503D246F63260288098E7394665
:10336000304601F031FBC4F824B00898A0620698FA
:10337000E06084F83B8084F83C80C4F800A00398A7
:10338000A0601798E065179818B92448006820666F
:1033900001E0179820661898606026626764A4F8B8
:1033A000489004F16C00169900F0C8FC204600F02B
:1033B0003BF800BF00BF4020FCF73CFF029000BF7D
:1033C00000BF94F83B0000F069FE204600F0C6FE06
:1033D000204601F039FA12480088401C1049088044
:1033E00010480078012807D000BF00BF0298FCF702
:1033F0002FFF00BF00BF4BE700BF00BF0298FCF7E4
:1034000027FF00BF00BFFFF741FD00BF40E70000FE
:103410006C0000205CC6000860BF00209C000020FB
:10342000D00000206D000020704700002DE9F04121
:1034300004460E464FF000086148007820B147F27C
:103440004E103080BDE8F0815E480078012803D03E
:1034500045F689603080F5E75B48844203D147F246
:103460004C103080EEE784B900BF00BF4020FCF76D
:10347000E1FE804600BF00BF5448046800BF00BFA3
:103480004046FCF7E5FE00BF00BF00BF00BF402084
:10349000FCF7D0FE804600BF00BF94F83A00082831
:1034A0005ED2DFE800F004090E10080A0F11204672
:1034B00000F092FE5FE05EE000BF204601F03AFBC4
:1034C00059E000BF00BF00BF94F83800082839D287
:1034D000DFE800F0040705380D08090600BF00BF4B
:1034E00031E000BF00BF204600F045FD2BE0606BDF
:1034F000456A15F83B7F204600F03DFD2878697845
:103500003B3D884212D095F83B0094F83B1088422E
:103510000CD1284600F065FC074695F83C00B842FF
:1035200002DA95F83C0000E038460746002084F8AF
:10353000380095F83B00B84203D03946284601F0E0
:103540000FF900E000BF00BF94F83A00032803D051
:1035500094F83A00072802D1204601F0EBFA0AE07D
:1035600000BF00BF4046FCF773FE00BF00BF46F639
:103570002D60308066E700BF206C10B1204600F05F
:1035800001FC04F16C0000F0B9FB204600F022F8C9
:10359000204601F071F90E480088401E0C49088051
:1035A000FF2084F83A000020308000BF00BF404672
:1035B000FCF74EFE00BF00BFFFF768FC00BF41E70D
:1035C0006C0000206D00002060BF0020080100207A
:1035D000D0000020704770472DE9F05F05460E4689
:1035E00017461C464FF0000B3148007820B147F2D7
:1035F00059102080BDE8F09F1EB946F2D5202080EA
:10360000F8E71FB946F2D5202080F3E700BF00BFDE
:103610004020FCF70FFE834600BF00BF0DB92548D0
:103620000568286868B900BF00BF5846FCF710FE5F
:1036300000BF00BF00203060386047F25210208089
:10364000D8E795F8480000F0010068B900BF00BF56
:103650005846FCF7FDFD00BF00BF00203060386019
:1036600047F254102080C5E7D5F820A00AF1200ABF
:10367000D5F8449000BF00BF5846FCF7E9FD00BFF5
:1036800000BF4FF0000803E00AF1040A08F1010846
:10369000C84503D2DAF800000028F5D0C6F800804B
:1036A000A9EB080038600020208000BFA2E70000DE
:1036B0006C00002008010020F0B50446DDE9055645
:1036C00002EB850020F007004FF0807C071F384692
:1036D000C7F800C0071F38463C60DFF8A8C0071FC6
:1036E0003846C7F800C04FF0123C071F3846C7F8ED
:1036F00000C04FF0033C071F3846C7F800C04FF02A
:10370000023C071F3846C7F800C0071F38463B6019
:10371000071F384639606FF0020C071F3846C7F89C
:1037200000C04FF0113C071F3846C7F800C04FF0EB
:10373000103C071F3846C7F800C04FF0093C071F70
:103740003846C7F800C04FF0083C071F3846C7F896
:1037500000C04FF0073C071F3846C7F800C04FF0C5
:10376000063C071F3846C7F800C04FF0053C071F4E
:103770003846C7F800C04FF0043C071F3846C7F86A
:1037800000C0F0BD8949000830B504460CB90B48AB
:103790000468216A2068884206D3616C206A00EBC5
:1037A00081002168884201D8002030BD616C206A08
:1037B00001F0F6F805462846F7E70000080100206A
:1037C00070B5FDF7D7FE054615480068154909682C
:1037D000884215D012480068D0F89C00281A104979
:1037E0000968C1F898000E480068D0F8A0000C499C
:1037F0000968D1F89810084409490968C1F8A0007F
:1038000008480068C0F89C500020FFF7BDFF044640
:10381000012C03D002480068FFF730FB70BD0000A8
:10382000080100200C0100202DE9F04106460D465C
:10383000144600272748007820B147F275202080E1
:10384000BDE8F08124480078012803D045F689605E
:103850002080F5E72148007818B146F663502080B3
:10386000EEE735B1022D05D0042D05D0082D04D189
:1038700001E000BF00BF00BF03E045F625602080E7
:10388000DEE700BF00BF00BF4020FCF7D3FC0746C7
:1038900000BF00BF23462A4631461148006801F0A8
:1038A00003F9208838B100BF00BF3846FCF7D0FCD0
:1038B00000BF00BFC4E70A48006800F08DFC00BFED
:1038C00000BF3846FCF7C4FC00BF00BFFFF7DEFABC
:1038D00000BFB5E76C0000206D0000209A000020BA
:1038E0000801002010B50A480078012800D010BD5A
:1038F00000F014F80749097801EB4101064A02EB90
:10390000810000F097FC012001F0DEF900BFEEE736
:103910006D0000208E00002030C00020704710B5E0
:10392000002400BF00BF4020FCF784FC044600BF19
:1039300000BFFFF7A9F800BF00BF2046FCF788FCD6
:1039400000BF00BFFFF7CEFFFFF7B4F810BD0000C7
:1039500010B5014640224B1E4FF0E0246361094B35
:10396000186820F07F4040EA0260186023461B6917
:1039700043F00503236123461B6943F002032361DF
:1039800010BD000020ED00E00EB54748029047480A
:1039900000904748029047480290474800904748A7
:1039A0000290474801904748029047480290474894
:1039B0000290474802904748019047480190474885
:1039C0000190474802904748019047480290474875
:1039D0000190474801904748019047480190474867
:1039E0000290474802904748029047480190474854
:1039F0000290474802904748019047480190474845
:103A00000190474801904748019047480190474836
:103A10000290474802904748029047480290474822
:103A20000190474801904748019047480290474815
:103A30000290474802904748019047480190474804
:103A400001904748009047480190474802904748F6
:103A500002904748029047480290474802904748E2
:103A600002904748029047480190474802904748D3
:103A700002904748019047480190474802904748C4
:103A800002904748019047480190474802904748B4
:103A9000029047480190474801900298029001988F
:103AA0000190009800900EBD80C60008E4C7000891
:103AB00081C6000882C6000884C6000888C60008BF
:103AC0008CC6000889C60008B4C60008B5C6000840
:103AD000B6C60008B8C60008BAC60008BCC60008CA
:103AE000DCC60008DEC60008E0C60008E2C6000822
:103AF000E4C60008E6C60008E8C6000818C70008C3
:103B000019C700081AC700081CC700081EC700080C
:103B10001FC7000820C7000822C7000824C70008E4
:103B200026C7000828C700082CC700085CC7000883
:103B30005DC700085EC700085FC7000860C70008CF
:103B400062C7000864C700088CC700088DC700085A
:103B50008EC700088FC7000890C7000892C70008EA
:103B600094C7000898C7000899C700089AC70008BA
:103B70009BC700089CC700089DC700089EC7000897
:103B80009FC70008A0C70008A2C70008A3C7000875
:103B9000A4C70008A6C70008A8C70008A9C700084E
:103BA000AAC70008ACC70008DCC70008DDC70008CA
:103BB000DEC70008E0C70008002400BF00BF00BF48
:103BC0004020FCF737FB044600BF00BF08480068F0
:103BD000401C0749086007480068401C0549086008
:103BE00000BF00BF2046FCF733FB00BFE6E7000044
:103BF00068000020B000002010B58AB00446002004
:103C00000E4908600B2000210591CDE907040691BB
:103C100008460B4909680B4A12680B4B1B68CDE933
:103C20000132CDE903101F200023084A08A10090AB
:103C30000C48FFF71BFB0AB010BD00006800002015
:103C400024C6000820C600081CC60008B93B0008AE
:103C500075432F4F532D4949492049646C652054C1
:103C600061736B0060BF00200021034A1160034AAA
:103C70001180018070470000800000208400002037
:103C800070B501461A4D2D681DB945F21E750D809F
:103C900070BD184D2D881DB945F21D750D80F7E7D3
:103CA000134D28682A681032124D2D886D1EACB253
:103CB000002308E00260002545600581C5601030E2
:103CC00010325D1CABB2A342F4DB002505604560F9
:103CD0000581C560064D2D68074E3560054D2D8860
:103CE000B5800025F58035810D8000BFD0E700004C
:103CF00040C6000838C6000824C0002010B50146A0
:103D000048894B89BBB10A680B4B1B6813600A4C8E
:103D10004B6823602346DB884C891B1B064CE380E1
:103D200023469B884C892344034CA38000234B816A
:103D30008B810B604B6010BD24C0002001810022EC
:103D400042818281026042607047000009A1C16126
:103D5000002141610849096811B90021816105E02C
:103D60000549096881610449096848610249086098
:103D7000704700002000000088000020026C0A62EA
:103D8000016470472DE9F84305462C6C25E0D4F812
:103D90002090FDF7EFFB8046C4F82C802146284692
:103DA00000F034F804F10806306820B9002084F8E7
:103DB0002800606210E037686562012084F82800FE
:103DC00021463846FFF7DAFF00231A4639462046D7
:103DD000CDF8008000F0F6F84C46002CD7D1BDE8B5
:103DE000F88330B504461F2004F140010AE00D6855
:103DF000AB6823B193F83B20824200DA10460D688D
:103E000005F120010D68002DF1D130BD024602F10F
:103E1000400002E0036803F1200003688B42F9D1FF
:103E200003681B6A036070472DE9F04105460C46A4
:103E300016461F4684F83860002084F83900394659
:103E4000204600F075FC3DB105F108086563214688
:103E5000404600F05DF801E00020606321462846FE
:103E600000F002F8BDE8F08110B540B14468C1F837
:103E7000C04000F108031A68D468C46113E091F8E7
:103E80003840022C02D0072C08D103E006A4C1F868
:103E9000C04007E006A4C1F8C04003E007A4C1F891
:103EA000C04000BF00BF10BD5461736B20510000C3
:103EB0005461736B2053656D00000000200000000A
:103EC00010B50A4606A4C2F8C04040B100F108038C
:103ED000196811B1CC68C46101E001A4C46110BDCE
:103EE0002000000070B50446666B06F108052868DE
:103EF000C06A38B1204600F03EF866632146284685
:103F000000F006F870BD002101604160018170473A
:103F100010B591F83B3004683CB9012404810024B9
:103F2000CC620C630160416024E00489641C04815C
:103F3000026805E092F83B409C4200DD02E0D26A54
:103F4000002AF7D100BF3AB90024CC6244680C6360
:103F50000C6BE16241600DE0146B2CB9CA62002465
:103F60000C631163016005E0CA62146B0C630C6B97
:103F7000E162116310BD10B5446B14B3446B04F1DE
:103F800008010C68E46A1CB900240C604C6011E064
:103F9000046B24B9C26A002414630A600AE0C46A8C
:103FA00024B9036B0024DC624B6003E0036BC26A3C
:103FB000DA6213630C89641E0C810024C4620463FA
:103FC000446310BD2DE9F04105460C4616461F46D8
:103FD000DDF8188094F83A00082845D2DFE800F0B0
:103FE000040508090607272800BF00BF00BF3CE002
:103FF00000BF6666A4F86870C4F84C8015B120460E
:10400000FFF7B9FF21462846FFF75AFF94F83A0018
:10401000032802D1204600F08DFD204600F068F80C
:1040200000203834A070607004F838091DE000BF2B
:104030006666A4F86870C4F84C8015B12046FFF796
:104040009AFF21462846FFF73BFF94F83A000728DD
:1040500002D1204600F06EFD04203834A07000200C
:10406000607004F8380900E000BF00BFBDE8F081CF
:1040700010B503490868FCF7F8F8C0B210BD00009D
:1040800090000020002004E00021034A42F82010A4
:10409000401C0028F8D070479000002004490968AF
:1040A000C0F11F0301229A401143014A1160704779
:1040B0009000002004490968C0F11F0301229A40C2
:1040C0009143014A1160704790000020002109E0EF
:1040D00001EB4102054B03EB8200002202810260EA
:1040E0004260491C2029F3D37047000030C00020F3
:1040F00010B5044694F83B00FFF7D0FF94F83B005E
:1041000005490978884203D1204600F027F802E0EB
:10411000204600F003F810BD8E00002010B590F886
:104120003B3003EB43030C4C04EB83010B683BB9BE
:1041300001230B810023036143610860486009E0AB
:104140000B895B1C0B810B680361002343610A68C8
:104150005061086010BD000030C0002010B590F81C
:104160003B3003EB43030B4C04EB83010B683BB97F
:1041700001230B810023036143610860486008E06C
:104180000B895B1C0B81002303614A68426110614B
:10419000486010BD30C0002030B5D0E90045AC42C9
:1041A00018D0046824694568AC4209D101684268A6
:1041B0004A6100240C61546111610260416009E0B0
:1041C000016842680B6900245C610C614A611161FD
:1041D0000360416030BD00002DE9F041054695F8CF
:1041E0003B0000EB4000124901EB80046F692E692F
:1041F00087B946B9002020812060606095F83B00B7
:10420000FFF758FF0EE02089401E208100207061DA
:10421000266007E02089401E20813E610EB967605C
:1042200000E07761002068612861BDE8F08100004E
:1042300030C0002070B5054600262E4800780128C1
:1042400000D070BD00BF00BF4020FBF7F3FF064663
:1042500000BF00BF2C683CB900BF00BF3046FBF771
:10426000F7FF00BF00BFECE72348844207D100BF3F
:1042700000BF3046FBF7ECFF00BF00BFE1E7206E58
:1042800010B1206E401E2066206E38B100BF00BF06
:104290003046FBF7DDFF00BF00BFD2E7D5E90001E4
:1042A000884207D100BF00BF3046FBF7D1FF00BFF7
:1042B00000BFC6E71148007838B100BF00BF3046E4
:1042C000FBF7C6FF00BF00BFBBE72846FFF764FF50
:1042D0002C68E06D18B90A480068206601E0E06DBE
:1042E000206600BF00BF3046FBF7B2FF00BF00BF33
:1042F00000BFA6E7A000002060BF00209A000020B9
:104300009C00002088B00020009006E0BD490968AC
:10431000480002AA0021FFF787FABB48007801286D
:10432000F4D102A8FEF708FF4FF00008B748006874
:10433000B4490968884205D9B4480068B149096898
:10434000B0FBF1F8B8F1000F04D1B04800680A21C1
:10435000B0FBF1F800BFFDF70DF9814600BF00BFCB
:104360004020FBF767FF009000BF00BFA84800682F
:10437000A84908600020A649086000BF00BF009857
:10438000FBF766FF00BF00BFA3480068A1490968AA
:10439000884248D9A0480068A049884205D242F224
:1043A000107004900120039023E09B4800689C4912
:1043B000884205D24FF47A7004900A20039018E0E6
:1043C000954800689749884203D26420049003907E
:1043D0000FE0914800689449884205D20A20049071
:1043E0004FF47A70039004E00120049042F21070C0
:1043F0000390894801680398B1FBF0FB8549049854
:1044000009684843B0FBFBF042F21071081A874973
:104410000880874800880988884207DA834800882E
:104420008349088002E0002080490880FEF71CFFD5
:10443000002500BF00BF4020FBF7FCFE009000BF3E
:1044400000BF7C48046800BF00BF0098FBF700FF76
:1044500000BF00BF28E000BF00BF4020FBF7EAFE1E
:10446000009000BF00BF54F8A00F6060002044F827
:10447000A00900BF00BF0098FBF7EAFE00BF00BF25
:10448000D4F8A400054400BF00BF4020FBF7D2FED3
:10449000009000BF00BFD4F8BC4000BF00BF009830
:1044A000FBF7D6FE00BF00BF002CD4D15DB35B4844
:1044B000854205D242F210700690012007901DE05F
:1044C0005748854205D24FF47A7006900A2007902B
:1044D00014E05448854203D26420069007900DE012
:1044E0005148854205D20A2006904FF47A70079011
:1044F00004E00120069042F2107007900798B5FB87
:10450000F0F0059003E0002006900120059000BF28
:1045100000BF4020FBF78EFE009000BF00BF454863
:10452000046800BF00BF0098FBF792FE00BF00BF09
:104530002CE0D4F8A400069948430599B0FBF1F0AB
:1045400086B242F21070864200D90646A4F8906006
:10455000B4F89200B04201DAA4F8926002AB04F120
:10456000B002111D2046FFF737F800BF00BF402002
:10457000FBF760FE009000BF00BFD4F8BC4000BF56
:1045800000BF0098FBF764FE00BF00BF002CD0D135
:1045900000272948D0F800A00AF1200A274800681F
:1045A0000838019002E00AF1040A7F1CDAF80000E2
:1045B00010B901988742F6D3214807601F48006868
:1045C000C01B2049086020480078012805D1002040
:1045D0001D49087002A8FEF7AFFDFCF7CBFFA0EB6A
:1045E00009001A4908601A4800680968884203D21D
:1045F000164800681649086002AA00214046FFF7E5
:1046000013F9A8E648C60008BC00002060C60008F0
:10461000B0000020B8000020B4000020801A06007E
:1046200000093D00005A62020084D717AC00002048
:10463000AE000020CC0000202CC6000830C60008C8
:104640007000002074000020AA000020C00000209C
:10465000C400002010B58AB004460020214908603B
:1046600021490860214908602149087021490870E2
:1046700021490860214908602148006820B946F6B0
:104680002B6020800AB010BD1E4800681E490968D2
:10469000884203D246F62C602080F3E71B4800785E
:1046A0001F2803D346F62A602080EBE70320002171
:1046B0000591CDE907040691084612490A68144994
:1046C00009680F4B1B68CDE90131CDE903200F4884
:1046D000007800230F4A10A100901448FEF7C6FD91
:1046E00000BFCFE7B0000020B8000020B4000020D9
:1046F000BC000020AA0000207000002074000020F0
:104700004CC6000854C600085CC6000844C6000831
:1047100050C600080543000875432F4F532D4949E3
:10472000492053746174205461736B00B0C1002040
:1047300070B504460D4655B12B4608480021026865
:10474000204600F05BF9032084F83A0002E00220E2
:1047500084F83A002046FFF73FFD70BDD4000020EA
:104760002DE9F04104460D4600BF002694F83B7049
:1047700094F83A0008285DD2DFE800F004191E1F03
:104780001A1B20212046FFF727FD84F83B5094F8A0
:104790003B00FFF783FC2B480068844203D120468E
:1047A000FFF7BCFC02E02046FFF7D8FC44E000BF66
:1047B00000BF84F83B503FE000BF00BF00BF84F85B
:1047C0003B5094F8380008282FD2DFE800F02E0480
:1047D0002F2E0A05063000BF00BF2046FFF782FBE0
:1047E00026E02046FFF77EFB606B466AAF4205DDA0
:1047F00096F83B00A84217DC002615E096F83B002F
:10480000B84211D13046FFF7ECFA054696F83C0065
:10481000A84202DA96F83C0000E02846054696F8E1
:104820003B00A84200D1002602E000BF00BF00BF4D
:1048300000BF01E0BDE8F08100BF3446002C94D1F8
:1048400000BFF7E7080100200021C0F8B8100949AF
:10485000096819B90021C0F8BC1007E005490968CA
:10486000C0F8BC1003490968C1F8B80001490860E4
:1048700070470000CC000020D0F8B820D0F8BC1061
:104880004AB90D4B196011B10023C1F8B8300023AB
:10489000C0F8BC300FE029B90023C2F8BC30C0F822
:1048A000B83008E0C2F8BC10C1F8B8200023C0F846
:1048B000BC30C0F8B8307047CC0000200021044A5A
:1048C0001160044A1180044A1160018070470000A1
:1048D000CC000020D0000020C800002010B5044605
:1048E00000202060A060606020616061A061E061E4
:1048F00022A0E060002020626062A062E064606646
:10490000A4F86800002104F16C00FFF717FA0020FA
:104910002C3420656065A065A4F86000E0656062E5
:10492000E067C4F88000A06184F86200C4F88800E1
:10493000C4F88400A083A062E06220636063A4F8EE
:104940006400A4F86600A066E066FCF713FE20672A
:104950000020606720606060A06020736073A073B7
:104960002020E073207400206061C4F88C00C4F83B
:10497000900004A0C4F894002C3C10BD3F54617317
:104980006B0000002000000008B504480068FEF736
:1049900022FE69460020FEF749FD08BD08010020FF
:1049A00010B502460B46002107E0064C1068A042F5
:1049B00001D0002010BD121D491C0829F5D301208B
:1049C000F8E700004523CDAB0246002003E0034B8F
:1049D00042F82030401C0828F9D370474523CDAB5E
:1049E00000210180034A1160034A11609180D18047
:1049F00070470000D4000020D80000202DE9F043CB
:104A000004460F469446984608EB0C00DFF8909059
:104A1000D9F80090B944A0EB09021AB900206065EA
:104A2000BDE8F0831F4B186838B962650020A061AB
:104A3000E0611C6001209880F2E79888401C988013
:104A40001968486DC61BB2420BD2C86948B9626585
:104A5000B01A48650020E061A161CC611C600120B2
:104A6000DEE7921B0D46A96903E0486D121A0D4658
:104A7000896911B1486D9042F7D949B1CD69626534
:104A8000E561A161486D801A4865CC61AC6104E0C4
:104A90006265E5610020A061AC610120C0E7000013
:104AA000D4000020D80000202DE9F04F06460C4627
:104AB00091461F464FF0000BB9F1040F01D10025BC
:104AC00020E0B9F1080F1BD124B947F27E203880CD
:104AD000BDE8F08FB56D16480068A0EB0508A0454D
:104AE0000AD3B8FBF4F004FB0055B8FBF4F004FB68
:104AF000108000B12544B565B06D2044B06501E07B
:104B00000B48056823462A4659463046FFF776FF8C
:104B10008246BAF1010F05D1012086F83A00002043
:104B2000388002E047F27E20388000BFD0E70000E6
:104B3000D400002030B5C3698169134A9BB921B9FB
:104B400000241460948044651CE00024CC614C6D0A
:104B5000456D2C444C6511609488641E948000243B
:104B6000846144650EE0996121B1CB614C6D456D66
:104B70002C444C650024C4619488641E94800024F5
:104B80008461446530BD0000D80000202DE9F04765
:104B900006464FF000094B4F3C68002C77D0606D03
:104BA000B04204D8606D361A0020606502E0606D86
:104BB000801B60657CE009F101001FFA80F994F820
:104BC0003A00012802D005280BD106E0002084F825
:104BD0003A002046FFF78CFA51E0042084F83A00AE
:104BE0004DE0002594F83800042801D1606B456A37
:104BF00000206066A4F86800FCF7BCFCE064204676
:104C0000FFF7B9F994F83A00032802D007280BD12E
:104C100006E02046FFF76CFA002084F83A0004E032
:104C2000042084F83A0000E000BF00BF032084F8AD
:104C30003900002084F8380005B395F83B0095F85A
:104C40003C1088421AD095F83B0094F83B108842FB
:104C500014D12846FFF7C5F8804695F83C0040453A
:104C600002DA95F83C0000E04046804695F83B00AB
:104C7000404503D041462846FFF772FD00BF00BF04
:104C8000A06938603C681CB90020B88014E014E0CA
:104C9000B888401EB8800020E061606DB04204D842
:104CA000606D361A0020606502E0606D801B6065F3
:104CB000606D00283FF47FAF00BFA7F80690BDE805
:104CC000F0870000D800002070B50446002600BF21
:104CD00000BF4020FBF7AEFA064600BF00BF1048F9
:104CE000006820440E490860FCF744FC0546204655
:104CF000FFF74CFFFCF73EFC401B0A4908600A48DE
:104D000000680968884203D20648006806490860BE
:104D100000BF00BF3046FBF79BFA00BF00BF70BD6D
:104D2000D4000020E0000020E400002010B50024A2
:104D300000BF00BF4020FBF77DFA044600BF00BF64
:104D40000848094908600948086201F10800FFF7AE
:104D5000DAF800BF00BF2046FBF77AFA00BF00BFB9
:104D600010BD0000434F4E4474C2002098C2002082
:104D7000F8B5002600BF00BF4020FBF75BFA0646EF
:104D800000BF00BFFCF7F6FB04460F48C4620F4D9E
:104D9000286838B900BF00BF3046FBF759FA00BF9A
:104DA00000BFF8BD00231A46094908480838009496
:104DB000FFF708F900BF00BF3046FBF749FA00BF14
:104DC00000BF00BFEDE7000098C200207CC20020B9
:104DD000C8C200202DE9F84307464FF0000800BF85
:104DE00000BF4020FBF726FA804600BF00BFFCF75B
:104DF000C1FB06463F48C66201463F48FFF706F83A
:104E00003C4D08353C4890F83B003B4991F83C103C
:104E100088420AD0384890F83C00374981F83B0076
:104E2000084690F83C0035490870286828B90020E9
:104E30003049486281F8280010E02C682D4844620F
:104E400001202C4981F828002046FEF797FF002317
:104E50001A46214627480096FFF7B4F83B4603223E
:104E600025492748FEF7E0FF00BF00BF4046FBF79B
:104E7000EFF900BF00BFFEF709F800BF00BF4020F8
:104E8000FBF7D8F9804600BF00BF1A48406A80B9D6
:104E900018491948FEF772FF174816494862012061
:104EA00081F8280000BF00BF4046FBF7D1F900BFE2
:104EB0001DE01048446A94F83B000F4991F83B10FC
:104EC000884205DD0C4890F83B102046FFF748FC6F
:104ED0000023042208490748FEF7A6FF00BF00BFD1
:104EE0004046FBF7B5F900BF00BFFDF7CFFFBDE8B7
:104EF000F883000098C20020C8C200208E00002065
:104F000074C2002010B58AB0044600202A490880E7
:104F10002A4908602A4908602A4908802A48006806
:104F20002A490968B0FBF1F02949086000202949A5
:104F3000086029490860224628A12C48FDF742FE56
:104F4000208808B10AB010BDFFF7F0FE28480068BD
:104F500018B947F247302080F4E726480068264910
:104F60000968884203D247F248302080EAE72348A4
:104F700000781F2803D347F246302080E2E70B2059
:104F8000002105910A46CDE90704069119480068F9
:104F90001B490968164B1B68CDE90131CDE90302B5
:104FA000164800780023174A17A100901C48FEF706
:104FB0005DF900BFC6E70000F4000020E800002013
:104FC000F0000020EC00002060C6000868C6000861
:104FD00004010020F8000020FC0000204F53205462
:104FE0006D72204D757465780000000098C2002035
:104FF0006CC6000874C600085CC6000864C60008D9
:1050000070C60008F550000875432F4F532D4949CD
:10501000492054696D6572205461736B0000000073
:10502000C8C200202DE9F047054688462848006898
:1050300070B9002028616861254805600120254974
:1050400008802548C0F80080FFF792FEBDE8F08791
:1050500020480088401C1F490880A86940441E4918
:105060000968461A1A480468D4F818904E4510D2B8
:10507000606970B9A9EB0600A061002068612C612D
:105080006561134805601448C0F80080FFF770FEA2
:10509000DCE7A6EB090627463C6903E0A069361A5F
:1050A0002746246914B1A069B042F7D94CB16769A9
:1050B000AE616F612C61A069801BA06165613D617B
:1050C00004E0AE616F61002028613D6100BFBDE773
:1050D000F0000020EC000020000100201CB501A819
:1050E00000231A46194600900148FDF7BBFD1CBD80
:1050F00098C200204FF0000AFFF7F0FF00BF3D48C4
:10510000006810B94FF0000903E03A480068D0F891
:1051100018904846FFF75EFE3648006800B9EEE793
:10512000FCF728FA804600BF00BF4020FBF782F85A
:10513000824600BF00BF3048076800BF00BF50462E
:10514000FBF786F800BF00BF2C4800683D1A2B48CB
:105150000760284804680CE0A069A84204D2A0694E
:105160002D1A0020A06103E0A069401BA06100256A
:1051700024690DB1002CEFD11E48046826E00420FC
:1051800084F82600A66816B12046E168B04794F876
:105190002600042818D119480168204600F034F888
:1051A000A08C022809D184F82600206AA061134847
:1051B00001682046FFF736FF06E0002060612061AD
:1051C000A061032084F826000A48046814B1A0698D
:1051D0000028D4D0FCF7CEF9A0EB080008490860FD
:1051E000084800680968884203D2054800680549F4
:1051F000086084E7F0000020D400002000010020B7
:10520000F8000020FC0000202DE9F04105460F4683
:10521000D5F814802C69B8F1000F40D154B90020A2
:105220002949086029490880A86129480760FFF7D3
:105230009FFD46E025480088401E244908802448F8
:1052400000683E1A00206061A069A9690844A06155
:105250001D4804600EE0A069B04204D2A069361A6D
:105260000020A06103E0A069801BA0610026A04689
:10527000D8F810400EB1002CEDD1134800688069B9
:10528000A969884203D110480068806918B910489C
:105290000760FFF76DFD00202861A86111E00B4851
:1052A0000088401E09490880C8F810402CB1C4F895
:1052B0001480A069A9690844A06100206861286180
:1052C000A861BDE8F0810000F0000020EC000020A3
:1052D0000001002008B508490968C9084FF47A722E
:1052E000B1FBF2F14143009100BF00BF00994A1E9B
:1052F00000920029F9D108BD00000020704700008D
:1053000010B504480078012801D1FEF708FBFCF72E
:1053100043FC10BD6D000020704770B505466C6AF7
:105320000020E085E0842046FDF7F2F870BD0168BA
:10533000C96821F490710268D1600168496921F05F
:10534000010102685161202180F83A10704710B5C0
:1053500004462068C06820F040002168C860202012
:1053600084F839002046FDF799FA002010BD70B589
:10537000044694F83A00222847D1A068B0F5805F2F
:105380000CD1206950B90025A66A20684068C0F396
:1053900008003080A06A801CA06215E0A56A002683
:1053A000A068B0F5805F03D0A06828B9206918B95B
:1053B00020684068287004E02068406800F07F00A2
:1053C0002870A06A401CA062E08D401E80B2E0857B
:1053D000C8B92068C06820F020002168C860206833
:1053E000C06820F480702168C8602068406920F09F
:1053F000010021684861202084F83A002046FDF72A
:10540000FFF9002070BD0020FCE70220FAE7000051
:1054100070B504462168096921F44051E2681143DE
:10542000226811612269A1681143626941EA02059B
:105430002168C96841F20C62914329432268D16016
:105440002168496921F44071A269114322685161C0
:105450002D4A2168914202D1FCF724FD01E0FCF7BE
:1054600011FD00EBC00101EB001162689200B1FB7D
:10547000F2F100EBC00202EB001263689B00B2FB8A
:10548000F3F26423B2FBF3F202EBC20303EB02126A
:10549000A1EB8201322202EB01116422B1FBF2F195
:1054A00001F0F00100EBC00202EB001263689B0008
:1054B000B2FBF3F26423B2FBF3F201EB021200EB56
:1054C000C00101EB001163689B00B1FBF3F100EB3D
:1054D000C00303EB00136668B600B3FBF6F3642663
:1054E000B3FBF6F303EBC30606EB0313A1EB830157
:1054F000322303EB01116423B1FBF3F101F00F013F
:1055000011442268916070BD00380140014691F855
:105510003900212828D18868B0F5805F0BD108694F
:1055200048B90A6A1088C0F308000B685860086A16
:10553000801C086205E00B6A581C086218780B682A
:105540005860C88C401E80B2C88458B90868C068CA
:1055500020F080000B68D8600868C06840F0400008
:105560000B68D860002070470220FCE710B50248A5
:10557000FCF7D0FF10BD0000240C002000BFFEE7A8
:10558000490050EAC12018BF04204A0D18BF40F05E
:10559000010040F2FF72B2EB515F08BF40F0020021
:1055A000012808BF0520704702480068C0F30220A8
:1055B000704700000CED00E010B5002804DB0A077E
:1055C000130E054A135406E00A07140E034A00F0AE
:1055D0000F031B1FD45410BD00E400E018ED00E0E1
:1055E00030380A2801D2012070470020704700BFE0
:1055F0007047000070B5044600204FF0E0210861BC
:105600000420FCF757FF0C48048025460B4800682F
:105610000B49B1FBF0F045434FF0E020006940F04A
:1056200002004FF0E021086108464561006940F042
:105630000100086170BD00002200002060C6000863
:1056400040420F0070B50446002504E04FF47A7024
:1056500000F004F86D1CA542F8D370BD2DE9F843A5
:10566000074600264FF0E020D0F81490114800883B
:1056700007FB00F86846FDF761FC4FF0E020856904
:1056800011E04FF0E0208469AC420CD0AC4202D271
:10569000281B064403E0A9EB0400284406442546E1
:1056A000464500D300E0ECE700BF6846FDF7B0FCDC
:1056B000BDE8F8832200002000BF054A126802F00E
:1056C0004002002AF9D0C2B2014B1B1D1A6070477C
:1056D0000038014000B585B000BF00BF2848806990
:1056E00040F04000264988610846806900F040008B
:1056F000009000BF00BF00BF00BF00BF0846806928
:1057000040F0400088610846806900F04000009049
:1057100000BF00BF00BF00BF00BF0846806940F067
:10572000040088610846806900F00400009000BF12
:1057300000BF00BF102001900020029001200390C4
:105740000320049001A90F48FCF770F8082001908D
:1057500000200290012003900320049001A9094831
:10576000FCF764F8012001900020029002200390D1
:105770000320049001A90448FCF758F805B000BDC7
:1057800000100240001801400008014070B50446B6
:10579000002609480588408845430021084603F053
:1057A00055F803F0FBF900BF02E004480480761CC2
:1057B000AE42FAD370BD0000AC0C00200008006CB3
:1057C00010B5044658488471002C58D1F020564931
:1057D00008804FF4A07048800846808845F2105138
:1057E000884210D14FF430504F4908814FF428506F
:1057F00048814FF42C5088814FF4F07008804FF4AA
:10580000487048801AE04848808841F66311884211
:105810000DD12C20444908812B2048812A208881E1
:105820004FF4F07008804FF44870488006E02C2058
:105830003D4908812A2048812B2088813A48808868
:1058400045F21031884205D03748808847F296717A
:10585000884206D14FF4A070334908804FF4F070AD
:1058600048803148808849F60601884258D14FF473
:10587000F0702D4908804FF44870488050E04FF494
:10588000A07029490880F02048800846808845F2A9
:105890001051884210D14FF43050234908814FF401
:1058A000285048814FF42C5088814FF4487008806C
:1058B0004FF4F070488020E01B48808841F6631167
:1058C000884205D01848808849F6060188420DD1E3
:1058D0002C20154908812A2048812B2088814FF4EB
:1058E000487008804FF4F070488006E02C200E4984
:1058F00008812A2048812B2088810B48808845F226
:105900001031884205D00848808847F29671884255
:1059100006D14FF4F070044908804FF4A07048801D
:10592000002002F075FE10BDAC0C002070B50546DD
:105930000E4614463146284602F088FF03F02EF941
:1059400001490C8070BD00000008006C10B5CF202C
:1059500003F018F9002003F009F9C12003F006F95B
:10596000302003F003F9ED2003F00CF9642003F07C
:10597000FDF8032003F0FAF8122003F0F7F8812075
:1059800003F0F4F8E82003F0FDF8852003F0EEF8CA
:10599000102003F0EBF87A2003F0E8F8CB2003F0B6
:1059A000F1F8392003F0E2F82C2003F0DFF80020B2
:1059B00003F0DCF8342003F0D9F8022003F0D6F825
:1059C000F72003F0DFF8202003F0D0F8EA2003F0FE
:1059D000D9F8002003F0CAF8002003F0C7F8C0206F
:1059E00003F0D0F81B2003F0C1F8C12003F0CAF87F
:1059F000012003F0BBF8C52003F0C4F8302003F009
:105A0000B5F8302003F0B2F8C72003F0BBF8B72098
:105A100003F0ACF8362003F0B5F8482003F0A6F800
:105A20003A2003F0AFF8552003F0A0F8B12003F0BE
:105A3000A9F8002003F09AF81A2003F097F8B6208E
:105A400003F0A0F80A2003F091F8A22003F08EF8EA
:105A5000F22003F097F8002003F088F8262003F0E6
:105A600091F8012003F082F8E02003F08BF80F207A
:105A700003F07CF82A2003F079F8282003F076F868
:105A8000082003F073F80E2003F070F8082003F0EC
:105A90006DF8542003F06AF8A92003F067F843205A
:105AA00003F064F80A2003F061F80F2003F05EF8B9
:105AB000002003F05BF8002003F058F8002003F00A
:105AC00055F8002003F052F8E12003F05BF80020C5
:105AD00003F04CF8152003F049F8172003F046F8BE
