:020000040800F2
:10000000909C002079020008931C00088B1C0008BB
:100010008F1C000899070008451F00080000000019
:10002000000000000000000000000000E1010008E6
:100030009D0700080000000025020008BD1C000804
:10004000930200089302000893020008930200083C
:10005000930200089302000893020008930200082C
:10006000930200089302000893020008930200081C
:10007000930200089302000893020008930200080C
:1000800093020008930200089302000893020008FC
:1000900093020008930200089302000893020008EC
:1000A00093020008930200089302000893020008DC
:1000B00093020008930200089302000893020008CC
:1000C00093020008930200089302000893020008BC
:1000D00093020008351F00089302000893020008ED
:1000E000930200089302000893020008930200089C
:1000F000930200089302000893020008930200088C
:10010000930200089302000893020008930200087B
:100110009302000893020008D51C0008930200080F
:10012000930200089302000893020008930200085B
:1001300000F002F800F045F80AA090E8000C8244B4
:100140008344AAF10107DA4501D100F03AF8AFF291
:10015000090EBAE80F0013F0010F18BFFB1A43F0A5
:100160000103184744AE000064AE0000103A24BFFB
:1001700078C878C1FAD8520724BF30C830C144BF0C
:1001800004680C607047000000230024002500264E
:10019000103A28BF78C1FBD8520728BF30C148BFEA
:1001A0000B607047642900F0F380782900F02C81FF
:1001B000732900F05182002070471FB51FBD10B594
:1001C00010BD00F0B7FA1146FFF7F7FF05F004FC89
:1001D00000F0D5FA03B4FFF7F2FF03BC01F0D0FE44
:1001E000224B19680868B0E8F00F80F30988BFF364
:1001F0006F8F4FF0000080F311884EF00D0E7047A6
:100200000000000006480068006880F3088862B6B5
:1002100061B6BFF34F8FBFF36F8F00DF00BF00BF2A
:1002200008ED00E0EFF30980BFF36F8F0F4B1A6802
:1002300020E9F00F106008B54FF0500080F31188EE
:10024000BFF34F8FBFF36F8F06F0A8FE4FF0000093
:1002500080F31188BDE8084019680868B0E8F00F1D
:1002600080F30988BFF36F8F704700BF68000020DC
:10027000EFF30580704700000948804709480047B0
:10028000FEE7FEE7FEE7FEE7FEE7FEE7FEE7FEE746
:10029000FEE7FEE704480549054A064B70470000A3
:1002A000D11C00083101000890960020909C00208D
:1002B0009098002090980020704700000FB40449E7
:1002C00010B503AA029800F0CBF910BC5DF814FB3E
:1002D0002C0000202DE9F0410E460446002020624B
:1002E0002046E168884730B3252805D0D4E90121AC
:1002F0009047206A401CF2E7E168204600278847C3
:10030000050018D0A5F14100192802D820354FF476
:1003100000673246294620462760FFF743FF40B179
:10032000012804D0F61D26F007060836D8E7361D4A
:10033000D6E72846DAE7206ABDE8F08170B50C46BA
:100340000546012A05D02878800600D5EA690023F1
:1003500002E0012305E05B1C934202D2E05C00282E
:10036000F9D1A869E618C01AA861286A1844286259
:100370002846AFF3008004E0D5E9012114F8010B11
:100380009047B442F8D32846AFF3008070BD000018
:100390002DE9F0410646002410687529314616A55E
:1003A00010D0AFF30080002802DA404213A507E026
:1003B00031688A0701D512A502E0490704D511A5C5
:1003C000012401E0AFF3008000210A2206F1240796
:1003D00009E0B0FBF2FCB0FBF2F302FB1C00303092
:1003E00078541846491C0028F3D123462A46304643
:1003F000BDE8F04100F0ACB8000000002D000000A6
:100400002B0000002000000070B504460D46214678
:100410001068AFF300802188090502D50F4A7A449D
:1004200002E00E4A7A440E32002104F1240305E072
:1004300000F00F060009965D5E54491C0028F7D1B4
:1004400020780023000704D5702D02D009B10223C3
:1004500011322046BDE8704000F07AB85EAB000073
:10046000032A40F2308010F0030C00F0158011F8E0
:10047000013BBCF1020F624498BF11F801CB00F8B8
:10048000013B38BF11F8013BA2F1040298BF00F80C
:1004900001CB38BF00F8013B11F0030300F0F280FC
:1004A000083AC0F0088051F8043B083A51F804CBF0
:1004B000A0E80810F5E7121D5CBF51F8043B40F8B6
:1004C000043BAFF30080D20724BF11F8013B11F8C1
:1004D00001CB48BF11F8012B24BF00F8013B00F805
:1004E00001CB48BF00F8012B704702F0FF0343EA3D
:1004F000032242EA024200F0F9B84FF0000200B5D0
:10050000134694469646203922BFA0E80C50A0E836
:100510000C50B1F12001BFF4F7AF090728BFA0E8E4
:100520000C5048BF0CC05DF804EB890028BF40F8B0
:10053000042B08BF704748BF20F8022B11F0804FF2
:1005400018BF00F8012B704770477047704770471D
:100550002DE9F0470D4699469246044600F12408DD
:100560000168880604D5E06921F01001216000E0EF
:100570000120A84201DD471B00E00027A1697A198C
:1005800002EB0900081AA0612078C00602D42046B8
:10059000AFF30080002608E0D4E901211AF8060034
:1005A0009047206A401C761C20624E45F4DB207880
:1005B000C0060AD52046AFF3008006E0D4E9012149
:1005C00030209047206A401C2062381EA7F10107A6
:1005D000F4DC07E0D4E9012118F805009047206A0F
:1005E000401C2062281EA5F10105F3DC2046AFF374
:1005F00000802078000602D50220BDE8F0870120A7
:10060000FBE7000001694A1C02610878704700B5E9
:100610008FB0CDE901310021059105497944CDE93B
:10062000031011466846FFF755FE0FB000BD0000ED
:10063000E5FFFFFF10B5436913B1AFF3008001E0A0
:10064000FFF77CFE012010BD127800F124010A7032
:1006500000224A700122EDE711684FF0FF32E9E70E
:10066000074B70B50D467B44FFF7D1FF0446284683
:1006700000F05CF810B14FF0FF3070BD204670BD47
:10068000CB19000010B5203AC0F00B80B1E818502B
:10069000203AA0E81850B1E81850A0E81850BFF46C
:1006A000F5AF5FEA027C24BFB1E81850A0E818500B
:1006B00044BF18C918C0BDE810405FEA827C24BF5F
:1006C00051F8043B40F8043B08BF7047D20728BFED
:1006D00031F8023B48BF11F8012B28BF20F8023B3C
:1006E00048BF00F8012B70474FF000020429C0F00A
:1006F000128010F0030C3FF402AFCCF1040CBCF1FB
:10070000020F18BF00F8012BA8BF20F8022BA1EBA5
:100710000C01FFF7F4BE5FEAC17C24BF00F8012B97
:1007200000F8012B48BF00F8012B7047007B00F058
:1007300080007047754600F02BF8AE46050069460C
:10074000534620F00700854618B020B5FFF7A2FDFC
:10075000BDE820404FF000064FF000074FF00008C2
:100760004FF0000B21F00701AC46ACE8C009ACE843
:10077000C009ACE8C009ACE8C0098D46704710B5A7
:100780000446AFF300802046BDE81040FFF722BDCD
:10079000004870473096002000BFFEE77047000019
:1007A00070B50446B3F5804F13D1D1E9000540EA96
:1007B00005108D6840EA05208D6928438D8940EA3F
:1007C000054054F82250064E3540284344F8220094
:1007D00003E06FF0704044F82200002070BD00007C
:1007E0000000F0CF70B50246086852F8200020F0F3
:1007F00001000E6842F826008868082801D14023CD
:1008000000E00023486818438E683043CE683043C8
:100810000E6930434E693043CE6930430E6A30432F
:100820004E6A30438E6A3043CE6A30430E6B40EAE4
:10083000060488690443486B0443074D45F480650A
:1008400045F4E025086852F82000A84320430E68CC
:1008500042F82600002070BD7FFB080010B503465B
:10086000D1E9000440EA04108C6840EA04208C8935
:1008700040EA0444088A401E44EA0054087D801E71
:1008800044EA00608C692043541C53F8244004F06F
:1008900040442043541C43F82400002010BD0000B5
:1008A00070B50446002594F82100022803D00420E6
:1008B000A0630125C1E02068006820F00E002168D7
:1008C00008602068006820F00100216808605C4929
:1008D0002068884252D95A4978392068884201D123
:1008E000012047E0564964392068884201D1102030
:1008F00040E0534950392068884201D1801539E0E1
:100900004F493C392068884201D1801432E04C497B
:1009100028392068884202D14FF480302AE04849C3
:1009200014392068884202D14FF4801022E04449F3
:100930002068884201D140041CE042492068884276
:1009400001D1012016E03F4914312068884201D1CD
:1009500010200FE03B4928312068884201D18015E2
:1009600008E038493C312068884201D1801401E018
:100970004FF480303349091F086051E0304978391D
:100980002068884201D1012047E02D496439206860
:10099000884201D1102040E029495039206888421E
:1009A00001D1801539E026493C392068884201D1BF
:1009B000801432E0224928392068884202D14FF45D
:1009C00080302AE01E4914392068884202D14FF451
:1009D000801022E01A492068884201D140041CE0BE
:1009E00018492068884201D1012016E015491431C8
:1009F0002068884201D110200FE012492831206878
:100A0000884201D1801508E00E493C3120688842B7
:100A100001D1801401E04FF48030094980394860E9
:100A2000012084F8210000BF002084F8200000BFCE
:100A3000606B10B12046616B8847284670BD00008E
:100A400080000240080402402DE9F84702460023D6
:100A50009C467BE14FF0010808FA03F4D1F80080CE
:100A600008EA0400A0427DD1DFF8F4A2D1F80480A6
:100A7000A8EB0A09D0453AD014DCB8F1030F50D0E6
:100A800009DCB8F1000F31D0B8F1010F1CD0B8F17A
:100A9000020F49D120E0B8F1110F18D0B8F1120FB0
:100AA00042D11EE0B9F5881F25D006DCB9F5803F9C
:100AB00020D0B9F5801F37D11AE0B9F5001F18D042
:100AC000B9F5041F30D117E0D1F80CC02DE0D1F8F2
:100AD0000C8008F1040C28E0D1F80C8008F1080C17
:100AE00023E0D1F80C8008F10C0C1EE000BF00BF21
:100AF00000BF00BF00BF00BFD1F80880B8F1000FF1
:100B000002D14FF0040C0BE0D1F80880B8F1010FCE
:100B100003D14FF0080C146102E04FF0080C54614F
:100B200003E04FF0000C00E000BF00BFFF2801D839
:100B3000904601E002F104084646FF2802D84FEA39
:100B4000830803E0A3F108084FEA88084746D6F86F
:100B500000804FF00F0909FA07F928EA09080CFA92
:100B600007F900E07AE048EA0908C6F80080D1F801
:100B7000048008F08058B8F1805F6FD100BFDFF8C3
:100B8000E481D8F8188048F00108DFF8D891C9F856
:100B90001880C846D8F8188008F00108CDF8008001
:100BA00000BF00BF4FEAB9384FEA930958F82950FF
:100BB0004FEA83784FEA18794FF00F0808FA09F8DE
:100BC00025EA0805DFF8A081424502D14FF0000870
:100BD00024E0DFF89881424502D14FF001081DE082
:100BE000DFF88C81424502D14FF0020816E0DFF8B1
:100BF0008481424502D14FF003080FE0DFF878818D
:100C0000424502D14FF0040808E0DFF87081424508
:100C100002D14FF0050801E04FF006084FEA837952
:100C20004FEA197908FA09F848EA0505DFF8508112
:100C30004FEA930948F82950D1F8048008F4803825
:100C4000B8F5803F0BD1DFF83C81D8F8008048EA46
:100C50000008DFF83091C9F800800AE075E0DFF89D
:100C60002481D8F8008028EA0008DFF81891C9F834
:100C70000080D1F8048008F40038B8F5003F0ED1A8
:100C8000DFF8008108F10408D8F8008048EA00087D
:100C9000DFF8F09009F10409C9F800800DE0DFF8F1
:100CA000E48008F10408D8F8008028EA0008DFF89A
:100CB000D49009F10409C9F80080D1F8048008F43F
:100CC0008018B8F5801F0ED1DFF8B88008F1080849
:100CD000D8F8008048EA0008DFF8A89009F1080970
:100CE000C9F800800DE0DFF89C8008F10808D8F80A
:100CF000008028EA0008DFF88C9009F10809C9F89B
:100D00000080D1F8048008F40018B8F5001F0ED157
:100D1000DFF8708008F10C08D8F8008048EA000875
:100D2000DFF8609009F10C09C9F800800DE0DFF8E8
:100D3000548008F10C08D8F8008028EA0008DFF891
:100D4000449009F10C09C9F800805B1CD1F80080BF
:100D500028FA03F8B8F1000F7FF47CAEBDE8F887FD
:100D6000000011100010024000080140000C01407A
:100D7000001001400014014000180140001C014017
:100D80000800014000040140024693680B400BB18B
:100D9000012000E00020704710B5C26821EA02037C
:100DA00002EA010443EA0443036110BD0AB1016190
:100DB00001E00B04036170470148006870470000C0
:100DC00034000020034800680349097808440149B9
:100DD00008607047340000203C00002010B508482F
:100DE000006840F0100006490860032000F080F819
:100DF0000F2000F007F800F02BF8002010BD0000D5
:100E00000020024070B504460E4800784FF47A7115
:100E1000B1FBF0F00C490968B1FBF0F5284600F091
:100E200073FC08B1012070BD102C07D200222146AE
:100E3000501E00F01EF80548046001E00120F2E7B2
:100E40000020F0E73C0000200000002038000020D7
:100E5000704701460846002809DB00F01F03012205
:100E60009A4043099B0003F1E023C3F8002100BF2F
:100E700070472DE9F05F80460D461646002701F0C9
:100E800063F8074639462A46334601F00700C0F1A9
:100E9000070ABAF1040F02D94FF0040A01E0C0F1C9
:100EA000070AD14600F1040ABAF1070F02D24FF047
:100EB000000A01E0A0F1030AD4464FF0010A0AFA41
:100EC00009FAAAF1010A0AEA020A0AFA0CFA4FF030
:100ED000010B0BFA0CFBABF1010B0BEA030B4AEA1B
:100EE0000B042146404601F037F8BDE8F09F0000B2
:100EF00000BF00F00702064B19684FF6FF031940C8
:100F0000044B0B4343EA0221014B196000BF7047B9
:100F10000CED00E00000FA0570B504460D460CB972
:100F2000012070BD5A48006800F00700A8420ED2A8
:100F30005748006820F007002843554908600846D4
:100F4000006800F00700A84201D00120E9E72078FE
:100F500000F0020002281DD1207800F004000428CF
:100F600005D14C48406840F4E0604A494860207828
:100F700000F00800082805D14648406840F4605059
:100F8000444948604348406820F0F000A1680843A5
:100F900040494860207800F0010078B3606801287B
:100FA00006D13C48006800F4003090B90120B8E751
:100FB0006068022806D13748006800F0007040B928
:100FC0000120AEE73348006800F0020008B90120B4
:100FD000A7E73048406820F00300616808432D49C6
:100FE0004860FFF7E9FE064609E0FFF7E5FE801BD3
:100FF00041F28831884202D9032092E707E0254870
:10100000406800F00C006168B0EB810FEDD1204822
:10101000006800F00700A8420ED91D48006820F0C3
:10102000070028431A4908600846006800F00700D6
:10103000A84201D0012074E7207800F004000428C1
:1010400007D11448406820F4E060E1680843114982
:101050004860207800F00800082808D10D48406852
:1010600020F46050216940EAC1000A49486000F05C
:101070003FF808494968C1F30311074A515CC84069
:101080000649086006480068FFF7BCFE002048E7F4
:101090000020024000100240D07F00080000002025
:1010A0003800002001480068704700000000002060
:1010B00000B5FFF7F7FF04494968C1F30221034A6D
:1010C000515CC84000BD000000100240E07F0008F5
:1010D00000B5FFF7E7FF04494968C1F3C221034A9D
:1010E000515CC84000BD000000100240E07F0008D5
:1010F000F0B585B00FF26C0C9CE8E01001A8A0E8F8
:10110000E0101CA52D68009500210022002300247A
:101110000020194D696801F00C05F5B1042D02D0CD
:10112000082D19D101E0154819E001ADC1F383463E
:10113000AC5D01F4803555B10F4D6D68C5F3404588
:101140001DF805200D4D6543B5FBF2F302E00C4D93
:1011500004FB05F3184602E000BF084800BF00BFCB
:1011600005B0F0BD02030405060708090A0B0C0DC3
:101170000E0F1010010200000010024000127A0051
:1011800000093D00F8B504460CB90120F8BD2078EF
:1011900000F00100002878D0F848406800F00C000A
:1011A00004280CD0F548406800F00C00082811D144
:1011B000F248406800F48030B0F5803F0AD1EF4833
:1011C000006800F4003000285FD0606800285CD11F
:1011D0000120DBE700BF6068B0F5803F06D1E7483B
:1011E000006840F48030E549086028E0606858B93C
:1011F000E248006820F48030E04908600846006852
:1012000020F4802008601AE06068B0F5A02F0BD1B0
:10121000DA48006840F48020D84908600846006831
:1012200040F4803008600AE0D448006820F4803040
:10123000D24908600846006820F48020086000BF9A
:10124000606888B1FFF7B8FD054606E0FFF7B4FD1A
:10125000401B642801D9032098E7C848006800F4BF
:1012600000300028F2D010E0FFF7A6FD054606E0AA
:10127000FFF7A2FD401B642801D9032086E7BF4881
:10128000006800F400300028F2D1207800F002005D
:10129000022857D1B948406800F00C0050B1B74857
:1012A000406800F00C00082818D1B448406800F4E9
:1012B000803098B9B148006800F0020020B1206980
:1012C000012801D0012061E7AC48006820F0F80057
:1012D000616940EAC100A949086033E02069E8B1CA
:1012E0000120A7490860FFF767FD054606E0FFF704
:1012F00063FD401B022801D9032047E79F4800688F
:1013000000F002000028F2D09C48006820F0F800AD
:10131000616940EAC1009949086013E000209849DA
:101320000860FFF749FD054606E0FFF745FD401B55
:10133000022801D9032029E79048006800F0020044
:101340000028F2D1207800F0080008282DD1A069EB
:10135000B8B101208B490860FFF72EFD054606E075
:10136000FFF72AFD401B022801D903200EE783481E
:10137000406A00F002000028F2D0012000F08AFC50
:1013800013E000207F490860FFF716FD054606E0E0
:10139000FFF712FD401B022801D90320F6E677482B
:1013A000406A00F002000028F2D1207800F004002A
:1013B000042873D100277148C06900F0805070B9CB
:1013C00000BF6E48C06940F080506C49C861084653
:1013D000C06900F08050009000BF00BF01276A483C
:1013E000006800F48070B0B96748006840F480700D
:1013F00065490860FFF7E0FC054606E0FFF7DCFC06
:10140000401B642801D90320C0E65F48006800F44F
:1014100080700028F2D000BFE068012806D157484C
:10142000006A40F001005549086227E0E06858B9B9
:101430005248006A20F00100504908620846006ADC
:1014400020F00400086219E0E06805280BD14B4841
:10145000006A40F00400494908620846006A40F00A
:10146000010008620AE04548006A20F00100434993
:1014700008620846006A20F00400086200BFE068C5
:10148000A0B1FFF799FC054609E0FFF795FC401B6A
:1014900041F28831884202D9032077E622E03748BA
:1014A000006A00F002000028EFD012E0FFF784FC91
:1014B000054608E0FFF780FC401B41F28831884276
:1014C00001D9032062E62D48006A00F002000028DE
:1014D000F0D1012F05D12948C06920F0805027495B
:1014E000C86100BFE069C8B32448406800F00C0040
:1014F000082860D0E069022848D100202049086609
:10150000FFF75AFC054606E0FFF756FC401B022891
:1015100001D903203AE61948006800F0007000285D
:10152000F2D1206AB0F5803F07D11448406820F41A
:101530000030A168084311494860D4E90801084314
:101540000E49496821F4741108430C494860012090
:101550000B490866FFF730FC054607E03DE0FFF762
:101560002BFC401B022801D903200FE6034800682A
:1015700000F000700028F2D02FE0000000100240C0
:1015800000004242800442420070004000201449A2
:101590000866FFF711FC054606E0FFF70DFC401B4F
:1015A000022801D90320F1E50E48006800F0007020
:1015B0000028F2D111E0E069012800D1E6E50948F0
:1015C000466806F48031206A814204D106F4701125
:1015D000606A814201D00120D8E50020D6E50000F4
:1015E000000042420010024070B504460E46154607
:1015F0001CB1A069B0F5807F01D1012070BD94F8C5
:10160000410028B9002084F84000204600F020F86E
:1016100004F108012068FFF7E5F83146A268206868
:10162000FFF71CF92946236BD4E90102FFF7B8F84C
:10163000A168206850F8210040F00100A2682168EC
:1016400041F82200012084F841000020D6E7000084
:1016500010B586B0044600BF1E48406940F4807053
:101660001C4948610846406900F48070019000BF41
:1016700000BF00BF0846806940F02000886108462E
:10168000806900F02000019000BF00BF00BF084645
:10169000806940F0400088610846806900F04000A1
:1016A000019000BF00BF4CF2037002900220039033
:1016B000012004900320059002A90748FFF7C4F910
:1016C0004FF68070029002A90448FFF7BDF906B0FA
:1016D00010BD00000010024000140140001801403D
:1016E000042808D14FF0E021096941F004014FF0CE
:1016F000E022116107E04FF0E021096921F00401C7
:101700004FF0E0221161704770B504462546681E0F
:10171000B0F1807F01D301200FE0681E4FF0E0217F
:1017200048610F214FF0FF3000F016FC00204FF011
:10173000E021886107200861002070BD7047704774
:10174000704710B5044620680069C0F34000D8B166
:101750002068C068C0F34000B0B16FF0020021689B
:101760000861012020772068806900F0030018B12B
:101770002046FFF7E5FF05E0204600F0ADF82046E3
:1017800000F0ABF80020207720680069C0F38000EB
:10179000D8B12068C068C0F38000B0B16FF0040019
:1017A00021680861022020772068806900F4407079
:1017B00018B12046FFF7C4FF05E0204600F08CF882
:1017C000204600F08AF80020207720680069C0F3E6
:1017D000C000D8B12068C068C0F3C000B0B16FF0DD
:1017E000080021680861042020772068C06900F0A3
:1017F000030018B12046FFF7A3FF05E0204600F0E4
:101800006BF8204600F069F8002020772068006916
:10181000C0F30010D8B12068C068C0F30010B0B1A8
:101820006FF0100021680861082020772068C069E7
:1018300000F4407018B12046FFF782FF05E0204613
:1018400000F04AF8204600F048F800202077206891
:10185000006900F0010058B12068C06800F0010084
:1018600030B16FF0010021680861204600F036F8C1
:1018700020680069C0F3C01058B12068C068C0F388
:10188000C01030B16FF08000216808612046FFF77A
:1018900055FF20680069C0F3801058B12068C06807
:1018A000C0F3801030B16FF040002168086120461D
:1018B00000F024F820680069C0F3401058B1206897
:1018C000C068C0F3401030B16FF02000216808619B
:1018D0002046FFF734FF10BD7047704710B504462F
:1018E0000448844205D100BF20210348FFF754FA81
:1018F00000BF10BD701200200018014070477047F3
:101900002DE9F0470446206805682068C66820680D
:1019100047694FF00008C14605F00F08B8F1000F05
:101920000AD105F0200038B106F0200020B1204691
:1019300000F002FABDE8F087B8F1000F71D007F0AF
:10194000010018B906F4907000286AD005F0010073
:1019500030B106F4807018B1E06B40F00100E06334
:1019600005F0040030B107F0010018B1E06B40F061
:101970000200E06305F0020030B107F0010018B189
:10198000E06B40F00400E06305F0080048B106F0A9
:10199000200010B907F0010018B1E06B40F008001A
:1019A000E063E06B68B305F0200028B106F020008A
:1019B00010B1204600F0C0F920684069C0F38019DA
:1019C000E06B00F0080010B9B9F1000F22D02046FA
:1019D00000F092F92068406900F04000B0B1206842
:1019E000406920F0400021684861606B50B11848A0
:1019F000616B4863606BFEF753FF10B1606B416B26
:101A000088470CE02046FFF77AFF08E02046FFF702
:101A100076FF04E02046FFF772FF0020E06389E7CD
:101A2000FFE705F0800030B106F0800018B12046D5
:101A300000F050FA7EE705F0400030B106F04000BB
:101A400018B1204600F068F974E700BF72E70000A3
:101A5000E51C000810B504460CB9012010BDA069B2
:101A600000B100E000BF94F8390028B9002084F8E4
:101A70003800204600F028F8242084F83900206837
:101A8000C06820F400502168C860204600F0A4F926
:101A90002068006920F4904021680861206840694E
:101AA00020F02A00216848612068C06840F4005096
:101AB0002168C8600020E063202084F8390084F8A1
:101AC0003A000020CAE7000010B586B00446284955
:101AD000206888424AD100BF00BF2648806940F094
:101AE0000400244988610846806900F004000190E0
:101AF00000BF00BF00BF00BF00BF0846806940F0C4
:101B0000040088610846806900F00400019000BF6D
:101B100000BF00BF00BF00BF0846806940F480409E
:101B200088610846806900F48040019000BF00BFD2
:101B300000BF48150290022003900120049003206A
:101B4000059002A90C48FEF77FFF4FF480600290D9
:101B50000020039002A90848FEF776FF2520FFF732
:101B600078F9032211462520FFF783F906B010BD4E
:101B700000380140001002400008014010B5034643
:101B800093F83A0020282FD101B10AB9012010BDE5
:101B900000BF93F83800012801D10220F7E70120A7
:101BA00083F8380000BF99629A85DA850020D863EF
:101BB000222083F83A0000BF002083F8380000BFDD
:101BC0001868C06840F480701C68E060186840695C
:101BD00040F001001C6860611868C06840F0200097
:101BE0001C68E0600020D2E70220D0E710B5044670
:101BF0002049206888423BD11F48008800F40040FB
:101C000088BB1D48008800F4804070B11B480078F4
:101C10000A2803D000201849088024E016480088CC
:101C200040F40040144908801DE0144800780D2855
:101C300006D11148008840F480400F49088012E026
:101C40000E4800780C490988C1F30D010C4A505424
:101C500009480088401C0849088008460088C728B1
:101C600001DD00200880012204490648FFF786FFB5
:101C700010BD00000038014030000020320000207C
:101C800010110020D8110020704700BFFEE700BFF0
:101C9000FEE7704708B508490968C9084FF47A7229
:101CA000B1FBF2F14143009100BF00BF00994A1E11
:101CB00000920029F9D108BD0000002010B5FFF7FF
:101CC00081F805F0EDFC012801D005F069FA10BD9E
:101CD0007047000010B50248FFF733FD10BD00004B
:101CE0007012002070B505466C6A0020E085E08423
:101CF0002046FFF704FE70BD0168C96821F49071A9
:101D00000268D1600168496921F0010102685161EE
:101D1000202180F83A10704710B504462068C0684A
:101D200020F040002168C860202084F83900204657
:101D3000FFF7AAFF002010BD70B5044694F83A00E2
:101D4000222847D1A068B0F5805F0CD1206950B936
:101D50000025A66A20684068C0F308003080A06AA9
:101D6000801CA06215E0A56A0026A068B0F5805F1F
:101D700003D0A06828B9206918B920684068287085
:101D800004E02068406800F07F002870A06A401CD2
:101D9000A062E08D401E80B2E085C8B92068C068AE
:101DA00020F020002168C8602068C06820F480709E
:101DB0002168C8602068406920F0010021684861FE
:101DC000202084F83A002046FFF710FF002070BD65
:101DD0000020FCE70220FAE770B504462168096993
:101DE00021F44051E2681143226811612269A1681F
:101DF0001143626941EA02052168C96841F20C6237
:101E0000914329432268D1602168496921F44071D6
:101E1000A2691143226851612D4A2168914202D181
:101E2000FFF756F901E0FFF743F900EBC00101EBC2
:101E3000001162689200B1FBF2F100EBC00202EB0C
:101E4000001263689B00B2FBF3F26423B2FBF3F26F
:101E500002EBC20303EB0212A1EB8201322202EB7E
:101E600001116422B1FBF2F101F0F00100EBC002BC
:101E700002EB001263689B00B2FBF3F26423B2FB37
:101E8000F3F201EB021200EBC00101EB00116368F9
:101E90009B00B1FBF3F100EBC00303EB001366689A
:101EA000B600B3FBF6F36426B3FBF6F303EBC3060D
:101EB00006EB0313A1EB8301322303EB011164232F
:101EC000B1FBF3F101F00F0111442268916070BD84
:101ED00000380140014691F83900212828D188684E
:101EE000B0F5805F0BD1086948B90A6A1088C0F361
:101EF00008000B685860086A801C086205E00B6ADD
:101F0000581C086218780B685860C88C401E80B254
:101F1000C88458B90868C06820F080000B68D86091
:101F20000868C06840F040000B68D8600020704727
:101F30000220FCE710B50248FFF7E2FC10BD0000EC
:101F4000D811002000BFFEE702480068C0F302205D
:101F5000704700000CED00E010B5002804DB0A0714
:101F6000130E054A135406E00A07140E034A00F044
:101F70000F031B1FD45410BD00E400E018ED00E077
:101F800000BF704770B5044600204FF0E0210861A3
:101F9000FFF7A6FBE11704EB5171C1F3CF010C4A27
:101FA0001180E11704EB5171CD104FF47A70454365
:101FB0004FF0E020006940F002004FF0E02108619E
:101FC00008464561006940F00100086170BD0000ED
:101FD0002A00002030B50446002504E04FF47A7052
:101FE00000F004F86D1CA542F8D330BD70B503466F
:101FF00000224FF0E02675690D4E368803FB06F48B
:102000004FF0E026B16910E04FF0E026B069884259
:102010000BD0884202D20E1A324402E02E1A0E442D
:1020200032440146A24200D300E0EDE700BF70BD9C
:102030002A00002000BF054A126802F04002002A70
:10204000F9D0C2B2014B1B1D1A6070470038014025
:102050000EB54FF4784038A120221346CDE9002177
:102060000290DC220A21084603F082FB4FF47840FC
:1020700033A118221346CDE900210290DC222F2142
:102080000A2003F075FB4FF4784032A1102213466A
:10209000CDE900210290DC224C210A2003F068FBEC
:1020A00000204FF49D7373226E210090052000F0F4
:1020B00055FA00204FF49D73EA226E2100907D2096
:1020C00000F04CFA0020822373221946009005206C
:1020D00000F0DEF900208223EA22194600907D20DC
:1020E00000F0D6F91F201FA110221346CDE90021D0
:1020F00002906E226F210F2003F03AFB1F201CA1DB
:1021000010221346CDE9002102906E226F21872014
:1021100003F02EFB19481A4901220023CDE90021C2
:102120000290802217A11A4805F052FA1949086056
:1021300004F0B6FE0EBD000053544D3332000000D3
:102140005461736B20437265617465202620446579
:102150006C00000041544F4D40414C49454E5445A0
:102160004B0000005461736B313A20303030000076
:102170005461736B323A203030300000A0090020E7
:10218000A007002073746172745F7461736B000048
:10219000F16500080400002000B585B000BF00BF55
:1021A0002848806940F040002649886108468069D7
:1021B00000F04000009000BF00BF00BF00BF00BFA4
:1021C0000846806940F0400088610846806900F058
:1021D0004000009000BF00BF00BF00BF00BF084626
:1021E000806940F0040088610846806900F00400BE
:1021F000009000BF00BF00BF10200190002002909F
:10220000012003900320049001A90F48FEF71CFC55
:1022100008200190002002900120039003200490E8
:1022200001A90948FEF710FC01200190002002904E
:10223000022003900320049001A90448FEF704FC47
:1022400005B000BD00100240001801400008014028
:1022500070B50446002514B10120224908702148B8
:10226000007848B310212048FEF78EFD50B10821B8
:102270001D48FEF789FD28B101211C48FEF784FDA9
:10228000012819D10A20FFF7A5FE00201549087082
:1022900010211548FEF778FD00B9012508211248E4
:1022A000FEF772FD00B9022501211048FEF76CFD12
:1022B000012815D1032513E010210B48FEF764FD1A
:1022C00001280DD108210848FEF75EFD012807D13D
:1022D00001210648FEF758FD10B901200149087098
:1022E000284670BD48000020001801400008014049
:1022F00070B50446002609480588408845430021FA
:10230000084603F005F903F00DFB00BF02E00448A6
:102310000480761CAE42FAD370BD0000601200202B
:102320000008006C10B5044658488471002C58D140
:10233000F020564908804FF4A070488008468088F5
:1023400045F21051884210D14FF430504F49088166
:102350004FF4285048814FF42C5088814FF4F0708E
:1023600008804FF4487048801AE04848808841F659
:10237000631188420DD12C20444908812B204881CB
:102380002A2088814FF4F07008804FF4487048800C
:1023900006E02C203D4908812A2048812B20888195
:1023A0003A48808845F21031884205D03748808805
:1023B00047F29671884206D14FF4A07033490880E5
:1023C0004FF4F07048803148808849F60601884211
:1023D00058D14FF4F0702D4908804FF44870488070
:1023E00050E04FF4A07029490880F020488008464A
:1023F000808845F21051884210D14FF43050234963
:1024000008814FF4285048814FF42C5088814FF4B4
:10241000487008804FF4F070488020E01B488088A6
:1024200041F66311884205D01848808849F60601B4
:1024300088420DD12C20154908812A2048812B2063
:1024400088814FF4487008804FF4F070488006E0AF
:102450002C200E4908812A2048812B2088810B4896
:10246000808845F21031884205D00848808847F2BC
:102470009671884206D14FF4F070044908804FF4F9
:10248000A0704880002002F025FF10BD60120020DF
:102490002DE9FF4F84B081468A4600200290834692
:1024A0000698A0EB09050798A0EB0A06CDF8049062
:1024B000CDF800A0002D01DD012705E00DB90027B2
:1024C00002E04FF0FF376D42002E02DD4FF00108B1
:1024D00006E016B94FF0000802E04FF0FF387642F0
:1024E000B54201DD2C4600E03446002003901EE09A
:1024F000009A91B2019A90B2119A00F01FF80298D6
:1025000028440290B3440298A04205DD0298001BC3
:102510000290019838440190A34504DDABEB040B15
:102520000098404400900398401C80B20390611CC6
:1025300003988842DCDD08B0BDE8F08F70B5054631
:102540000E4614463146284602F0E2FF03F0EAF94F
:1025500001490C8070BD00000008006C2DE9F841B5
:1025600005460E4617469846079C33463A4631467E
:1025700028460094FFF78CFF43462A4631462846FA
:102580000094FFF785FF43463A46414628460094AB
:10259000FFF77EFF43463A46314638460094FFF740
:1025A00077FFBDE8F88110B5CF2003F0AFF9002028
:1025B00003F0A0F9C12003F09DF9302003F09AF94F
:1025C000ED2003F0A3F9642003F094F9032003F055
:1025D00091F9122003F08EF9812003F08BF9E820A5
:1025E00003F094F9852003F085F9102003F082F9B7
:1025F0007A2003F07FF9CB2003F088F9392003F02B
:1026000079F92C2003F076F9002003F073F93420D7
:1026100003F070F9022003F06DF9F72003F076F96A
:10262000202003F067F9EA2003F070F9002003F09E
:1026300061F9002003F05EF9C02003F067F91B2068
:1026400003F058F9C12003F061F9012003F052F9B9
:10265000C52003F05BF9302003F04CF9302003F083
:1026600049F9C72003F052F9B72003F043F93620A7
:1026700003F04CF9482003F03DF93A2003F046F905
:10268000552003F037F9B12003F040F9002003F0A2
:1026900031F91A2003F02EF9B62003F037F90A2099
:1026A00003F028F9A22003F025F9F22003F02EF917
:1026B000002003F01FF9262003F028F9012003F081
:1026C00019F9E02003F022F90F2003F013F92A2072
:1026D00003F010F9282003F00DF9082003F00AF99F
:1026E0000E2003F007F9082003F004F9542003F04A
:1026F00001F9A92003F0FEF8432003F0FBF80A20BB
:1027000003F0F8F80F2003F0F5F8002003F0F2F8DA
:10271000002003F0EFF8002003F0ECF8002003F0B5
:10272000E9F8E12003F0F2F8002003F0E3F81520C7
:1027300003F0E0F8172003F0DDF8072003F0DAF8E3
:10274000112003F0D7F8062003F0D4F82B2003F073
:10275000D1F8562003F0CEF83C2003F0CBF805204A
:1027600003F0C8F8102003F0C5F80F2003F0C2F8FA
:102770003F2003F0BFF83F2003F0BCF80F2003F028
:10278000B9F82B2003F0C2F8002003F0B3F80020C2
:1027900003F0B0F8012003F0ADF83F2003F0AAF8F1
:1027A0002A2003F0B3F8002003F0A4F8002003F07F
:1027B000A1F8002003F09EF8EF2003F09BF8112011
:1027C00003F0A4F87820FFF705FC292003F09EF819
:1027D00010BD10B5FF2003F099F8FF2003F08AF830
:1027E000982003F087F8062003F084F8BC2003F05B
:1027F0008DF8012003F07EF80F2003F07BF86120B4
:1028000003F078F8FF2003F075F8012003F072F868
:10281000012003F06FF80B2003F06CF8102003F098
:1028200069F8372003F066F8632003F063F8FF20AF
:1028300003F060F8FF2003F05DF8012003F05AF880
:10284000012003F057F8002003F054F8002003F0B3
:1028500051F8FF2003F04EF8522003F04BF801200E
:1028600003F048F8002003F045F8402003F042F858
:10287000BD2003F04BF8012003F03CF8232003F0C7
:1028800039F8452003F036F8672003F033F80120CB
:1028900003F030F8232003F02DF8452003F02AF848
:1028A000672003F027F8BE2003F030F8002003F083
:1028B00021F8012003F01EF8AB2003F01BF8602084
:1028C00003F018F8222003F015F8222003F012F884
:1028D000222003F00FF8222003F00CF8222003F04E
:1028E00009F8C72003F012F8362003F003F8ED20B2
:1028F00003F00CF87F2002F0FDFF0F2002F0FAFF3A
:10290000C02003F003F80F2002F0F4FF0B2002F0C8
:10291000F1FF0A2002F0EEFFFC2002F0F7FF082092
:1029200002F0E8FFDF2002F0F1FF002002F0E2FFFA
:10293000002002F0DFFF002002F0DCFF002002F0A8
:10294000D9FF002002F0D6FF202002F0D3FFF320B1
:1029500002F0DCFF742002F0CDFFB42002F0D6FFBD
:10296000002002F0C7FF002002F0C4FF002002F0A8
:10297000C1FFF72002F0CAFF822002F0BBFFB120A6
:1029800002F0C4FF002002F0B5FF132002F0B2FFF6
:10299000132002F0AFFFF22002F0B8FF802002F017
:1029A000A9FF042002F0A6FF402002F0A3FF282088
:1029B00002F0A0FFC12002F0A9FF172002F09AFF49
:1029C000882002F097FF882002F094FF202002F078
:1029D00091FFE02002F09AFF002002F08BFF0A2016
:1029E00002F088FF122002F085FF102002F082FF23
:1029F0000E2002F07FFF202002F07CFFCC2002F0AE
:102A000079FF072002F076FF062002F073FF0B200B
:102A100002F070FF0E2002F06DFF0F2002F06AFF3F
:102A20000D2002F067FF152002F064FF102002F075
:102A300061FF002002F05EFFE12002F067FF00204E
:102A400002F058FF0B2002F055FF132002F052FF56
:102A50000D2002F04FFF0E2002F04CFF1B2002F071
:102A600049FF712002F046FF062002F043FF0620D6
:102A700002F040FF0A2002F03DFF0F2002F03AFF73
:102A80000E2002F037FF0F2002F034FF152002F075
:102A900031FF0C2002F02EFF002002F02BFF2A2035
:102AA00002F034FF002002F025FF002002F022FF98
:102AB000012002F01FFFDF2002F01CFF2B2002F09C
:102AC00025FF002002F016FF002002F013FF032074
:102AD00002F010FF1F2002F00DFF3A2002F016FF57
:102AE000552002F007FF362002F010FF002002F010
:102AF00001FF112002F00AFF7820FFF76BFA29206E
:102B000002F004FF1420FFF765FA2C2002F0FEFE0D
:102B100010BD10B5ED2002F0F9FE012002F0EAFE32
:102B2000FE2002F0E7FEEE2002F0F0FEDE2002F0D2
:102B3000E1FE212002F0DEFEF12002F0E7FE01209E
:102B400002F0D8FEDF2002F0E1FE102002F0D2FEFB
:102B5000C42002F0DBFE8F2002F0CCFEC62002F083
:102B6000D5FE002002F0C6FEE22002F0C3FEE22005
:102B700002F0C0FEE22002F0BDFEBF2002F0C6FE61
:102B8000AA2002F0B7FEB02002F0C0FE0D2002F035
:102B9000B1FE002002F0AEFE0D2002F0ABFE0020E0
:102BA00002F0A8FE112002F0A5FE002002F0A2FE15
:102BB000192002F09FFE002002F09CFE212002F06E
:102BC00099FE002002F096FE2D2002F093FE0020D8
:102BD00002F090FE3D2002F08DFE002002F08AFE01
:102BE0005D2002F087FE002002F084FE5D2002F0EE
:102BF00081FE002002F07EFEB12002F087FE8020E0
:102C000002F078FE002002F075FE8B2002F072FECA
:102C1000002002F06FFE962002F06CFE002002F011
:102C200069FEB22002F072FE002002F063FE002076
:102C300002F060FE022002F05DFE002002F05AFE6B
:102C4000032002F057FE002002F054FEB32002F0F1
:102C50005DFE002002F04EFE002002F04BFE002040
:102C600002F048FE002002F045FE002002F042FE85
:102C7000002002F03FFE002002F03CFE002002F0A7
:102C800039FE002002F036FE002002F033FE002064
:102C900002F030FE002002F02DFE002002F02AFE9D
:102CA000002002F027FE002002F024FE002002F0A7
:102CB00021FE002002F01EFE002002F01BFE00207C
:102CC00002F018FE002002F015FE002002F012FEB5
:102CD000002002F00FFE002002F00CFE002002F0A7
:102CE00009FEB42002F012FE8B2002F003FE002049
:102CF00002F000FE962002F0FDFD002002F0FAFD39
:102D0000A12002F0F7FD002002F0F4FDB52002F052
:102D1000FDFD022002F0EEFD002002F0EBFD03209D
:102D200002F0E8FD002002F0E5FD042002F0E2FDE3
:102D3000002002F0DFFDB62002F0E8FD002002F0E6
:102D4000D9FD002002F0D6FDB72002F0DFFD002003
:102D500002F0D0FD002002F0CDFD3F2002F0CAFDC0
:102D6000002002F0C7FD5E2002F0C4FD002002F04A
:102D7000C1FD642002F0BEFD002002F0BBFD8C20EE
:102D800002F0B8FD002002F0B5FDAC2002F0B2FD6B
:102D9000002002F0AFFDDC2002F0ACFD002002F0CC
:102DA000A9FD702002F0A6FD002002F0A3FD9020F6
:102DB00002F0A0FD002002F09DFDEB2002F09AFD44
:102DC000002002F097FDDC2002F094FD002002F0CC
:102DD00091FDB82002F09AFD002002F08BFD00204A
:102DE00002F088FD002002F085FD002002F082FD47
:102DF000002002F07FFD002002F07CFD002002F0A8
:102E000079FD002002F076FDBA2002F07FFD24203B
:102E100002F070FD002002F06DFD002002F06AFD5E
:102E2000002002F067FDC12002F070FD202002F0BA
:102E300061FD002002F05EFD542002F05BFD0020E9
:102E400002F058FDFF2002F055FD002002F052FD77
:102E5000C22002F05BFD0A2002F04CFD002002F0CF
:102E600049FD042002F046FD002002F043FDC3208E
:102E700002F04CFD3C2002F03DFD002002F03AFD46
:102E80003A2002F037FD002002F034FD392002F034
:102E900031FD002002F02EFD372002F02BFD002036
:102EA00002F028FD3C2002F025FD002002F022FD6A
:102EB000362002F01FFD002002F01CFD322002F03F
:102EC00019FD002002F016FD2F2002F013FD002056
:102ED00002F010FD2C2002F00DFD002002F00AFD92
:102EE000292002F007FD002002F004FD262002F058
:102EF00001FD002002F0FEFC242002F0FBFC00207B
:102F000002F0F8FC242002F0F5FC002002F0F2FCB4
:102F1000232002F0EFFC002002F0ECFC3C2002F049
:102F2000E9FC002002F0E6FC362002F0E3FC002081
:102F300002F0E0FC322002F0DDFC002002F0DAFCBE
:102F40002F2002F0D7FC002002F0D4FC2C2002F04D
:102F5000D1FC002002F0CEFC292002F0CBFC0020A6
:102F600002F0C8FC262002F0C5FC002002F0C2FCE2
:102F7000242002F0BFFC002002F0BCFC242002F060
:102F8000B9FC002002F0B6FC232002F0B3FC0020C4
:102F900002F0B0FCC42002F0B9FC622002F0AAFCEE
:102FA000002002F0A7FC052002F0A4FC002002F0A3
:102FB000A1FC842002F09EFC002002F09BFCF0208B
:102FC00002F098FC002002F095FC182002F092FC20
:102FD000002002F08FFCA42002F08CFC002002F004
:102FE00089FC182002F086FC002002F083FC5020AF
:102FF00002F080FC002002F07DFC0C2002F07AFC44
:10300000002002F077FC172002F074FC002002F090
:1030100071FC952002F06EFC002002F06BFCF320A6
:1030200002F068FC002002F065FCE62002F062FC81
:10303000002002F05FFCC52002F068FC322002F0A4
:1030400059FC002002F056FC442002F053FC002002
:1030500002F050FC652002F04DFC002002F04AFC1A
:10306000762002F047FC002002F044FC882002F0A9
:1030700041FC002002F03EFCC62002F047FC20206C
:1030800002F038FC002002F035FC172002F032FC80
:10309000002002F02FFC012002F02CFC002002F0A6
:1030A00029FCC72002F032FC002002F023FC0020A3
:1030B00002F020FC002002F01DFC002002F01AFCAF
:1030C000C82002F023FC002002F014FC002002F0D3
:1030D00011FC002002F00EFC002002F00BFCC920C5
:1030E00002F014FC002002F005FC002002F002FCBB
:1030F000002002F0FFFB002002F0FCFB002002F0A9
:10310000F9FB002002F0F6FB002002F0F3FB0020A8
:1031100002F0F0FB002002F0EDFB002002F0EAFBE1
:10312000002002F0E7FB002002F0E4FB002002F0A8
:10313000E1FB002002F0DEFB002002F0DBFB0020C0
:1031400002F0D8FBE02002F0E1FB162002F0D2FBF7
:10315000002002F0CFFB1C2002F0CCFB002002F08C
:10316000C9FB212002F0C6FB002002F0C3FB362081
:1031700002F0C0FB002002F0BDFB462002F0BAFBCB
:10318000002002F0B7FB522002F0B4FB002002F056
:10319000B1FB642002F0AEFB002002F0ABFB7A2012
:1031A00002F0A8FB002002F0A5FB8B2002F0A2FB9E
:1031B000002002F09FFB992002F09CFB002002F00F
:1031C00099FBA82002F096FB002002F093FBB920A7
:1031D00002F090FB002002F08DFBC42002F08AFB7D
:1031E000002002F087FBCA2002F084FB002002F0DE
:1031F00081FBD22002F07EFB002002F07BFBD92075
:1032000002F078FB002002F075FBE02002F072FB78
:10321000002002F06FFBF32002F06CFB002002F0B4
:1032200069FBE12002F072FB162002F063FB002034
:1032300002F060FB1C2002F05DFB002002F05AFB54
:10324000222002F057FB002002F054FB362002F04F
:1032500051FB002002F04EFB452002F04BFB00200A
:1032600002F048FB522002F045FB002002F042FB36
:10327000642002F03FFB002002F03CFB7A2002F0C9
:1032800039FB002002F036FB8B2002F033FB0020DC
:1032900002F030FB992002F02DFB002002F02AFB07
:1032A000A82002F027FB002002F024FBB92002F046
:1032B00021FB002002F01EFBC42002F01BFB0020BB
:1032C00002F018FBCA2002F015FB002002F012FBEE
:1032D000D22002F00FFB002002F00CFBD82002F0FD
:1032E00009FB002002F006FBE02002F003FB0020B7
:1032F00002F000FBF32002F0FDFA002002F0FAFADF
:10330000E22002F003FB052002F0F4FA002002F0B4
:10331000F1FA0B2002F0EEFA002002F0EBFA1B208B
:1033200002F0E8FA002002F0E5FA342002F0E2FAB6
:10333000002002F0DFFA442002F0DCFA002002F064
:10334000D9FA4F2002F0D6FA002002F0D3FA612019
:1033500002F0D0FA002002F0CDFA792002F0CAFA89
:10336000002002F0C7FA882002F0C4FA002002F020
:10337000C1FA972002F0BEFA002002F0BBFAA620A4
:1033800002F0B8FA002002F0B5FAB72002F0B2FA63
:10339000002002F0AFFAC22002F0ACFA002002F0E6
:1033A000A9FAC72002F0A6FA002002F0A3FAD12061
:1033B00002F0A0FA002002F09DFAD62002F09AFA5C
:1033C000002002F097FADD2002F094FA002002F0CB
:1033D00091FAF32002F08EFA002002F08BFAE3203B
:1033E00002F094FA052002F085FA002002F082FA39
:1033F0000A2002F07FFA002002F07CFA1C2002F082
:1034000079FA002002F076FA332002F073FA0020F5
:1034100002F070FA442002F06DFA002002F06AFA1D
:10342000502002F067FA002002F064FA622002F0F5
:1034300061FA002002F05EFA782002F05BFA0020C8
:1034400002F058FA882002F055FA002002F052FAF1
:10345000972002F04FFA002002F04CFAA62002F06A
:1034600049FA002002F046FAB72002F043FA0020A1
:1034700002F040FAC22002F03DFA002002F03AFACF
:10348000C72002F037FA002002F034FAD12002F00F
:1034900031FA002002F02EFAD52002F02BFA00209B
:1034A00002F028FADD2002F025FA002002F022FACC
:1034B000F32002F01FFA002002F01CFAE42002F0D0
:1034C00025FA012002F016FA002002F013FA01207A
:1034D00002F010FA002002F00DFA022002F00AFABF
:1034E000002002F007FA2A2002F004FA002002F07D
:1034F00001FA3C2002F0FEF9002002F0FBF94B201B
:1035000002F0F8F9002002F0F5F95D2002F0F2F97E
:10351000002002F0EFF9742002F0ECF9002002F034
:10352000E9F9842002F0E6F9002002F0E3F99320A3
:1035300002F0E0F9002002F0DDF9A22002F0DAF951
:10354000002002F0D7F9B32002F0D4F9002002F0F5
:10355000D1F9BE2002F0CEF9002002F0CBF9C42050
:1035600002F0C8F9002002F0C5F9CD2002F0C2F93E
:10357000002002F0BFF9D32002F0BCF9002002F0D5
:10358000B9F9DD2002F0B6F9002002F0B3F9F3201A
:1035900002F0B0F9002002F0ADF9E52002F0B6F932
:1035A000002002F0A7F9002002F0A4F9002002F0A8
:1035B000A1F9002002F09EF9022002F09BF9002000
:1035C00002F098F9292002F095F9002002F092F912
:1035D0003C2002F08FF9002002F08CF94B2002F021
:1035E00089F9002002F086F95D2002F083F90020BD
:1035F00002F080F9742002F07DF9002002F07AF9DF
:10360000842002F077F9002002F074F9932002F090
:1036100071F9002002F06EF9A22002F06BF900208F
:1036200002F068F9B32002F065F9002002F062F9B7
:10363000BE2002F05FF9002002F05CF9C42002F025
:1036400059F9002002F056F9CD2002F053F900207C
:1036500002F050F9D32002F04DF9002002F04AF9AF
:10366000DC2002F047F9002002F044F9F32002F0D8
:1036700041F9002002F03EF9E62002F047F911205E
:1036800002F038F9002002F035F9342002F032F966
:10369000002002F02FF9562002F02CF9002002F051
:1036A00029F9762002F026F9002002F023F977208C
:1036B00002F020F9002002F01DF9662002F01AF94C
:1036C000002002F017F9882002F014F9002002F01F
:1036D00011F9992002F00EF9002002F00BF9BB203D
:1036E00002F008F9002002F005F9992002F002F931
:1036F000002002F0FFF8662002F0FCF8002002F043
:10370000F9F8552002F0F6F8002002F0F3F8552001
:1037100002F0F0F8002002F0EDF8452002F0EAF89F
:10372000002002F0E7F8432002F0E4F8002002F065
:10373000E1F8442002F0DEF8002002F0DBF8E72098
:1037400002F0E4F8322002F0D5F8002002F0D2F8BE
:10375000552002F0CFF8002002F0CCF8762002F0DD
:10376000C9F8002002F0C6F8662002F0C3F8002075
:1037700002F0C0F8672002F0BDF8002002F0BAF8AD
:10378000672002F0B7F8002002F0B4F8872002F0BA
:10379000B1F8002002F0AEF8992002F0ABF800205A
:1037A00002F0A8F8BB2002F0A5F8002002F0A2F871
:1037B000992002F09FF8002002F09CF8772002F098
:1037C00099F8002002F096F8442002F093F80020C7
:1037D00002F090F8562002F08DF8002002F08AF8EE
:1037E000232002F087F8002002F084F8332002F052
:1037F00081F8002002F07EF8452002F07BF80020DE
:1038000002F078F8E82002F081F8002002F072F867
:10381000002002F06FF8992002F06CF8002002F00E
:1038200069F8872002F066F8002002F063F888202B
:1038300002F060F8002002F05DF8772002F05AF8FC
:10384000002002F057F8662002F054F8002002F041
:1038500051F8882002F04EF8002002F04BF8AA2020
:1038600002F048F8002002F045F8BB2002F042F8D0
:10387000002002F03FF8992002F03CF8002002F00E
:1038800039F8662002F036F8002002F033F85520AF
:1038900002F030F8002002F02DF8552002F02AF84E
:1038A000002002F027F8442002F024F8002002F063
:1038B00021F8442002F01EF8002002F01BF85520E9
:1038C00002F018F8002002F015F8E92002F01EF8C6
:1038D000AA2002F00FF8002002F00CF8002002F0FD
:1038E00009F8002002F006F8002002F00FF8AA20E4
:1038F00002F000F8CF2002F009F8002001F0FAFFF2
:10390000002001F0F7FF002001F0F4FF002001F09B
:10391000F1FF002001F0EEFF002001F0EBFF00209E
:1039200001F0E8FF002001F0E5FF002001F0E2FFD8
:10393000002001F0DFFF002001F0DCFF002001F09B
:10394000D9FF002001F0D6FF002001F0D3FF0020B6
:1039500001F0D0FF002001F0CDFF002001F0CAFFF0
:10396000F02001F0D3FF002001F0C4FF502001F04F
:10397000C1FF002001F0BEFF002001F0BBFF0020CE
:1039800001F0B8FFF32001F0C1FF002001F0B2FF09
:10399000F92001F0BBFF062001F0ACFF102001F080
:1039A000A9FF292001F0A6FF002001F0A3FF3A2083
:1039B00001F0ACFF552001F09DFF112001F0A6FFA2
:1039C0006420FEF707FB292001F0A0FF352001F05D
:1039D0009DFF002001F08EFF512001F097FFFF2096
:1039E00001F088FF532001F091FF2C2001F082FFAD
:1039F000552001F08BFF822001F07CFF2C2001F08C
:103A000085FF10BD10B555214FF4704001F094FFB3
:103A1000AA214FF2010001F08FFF52214FF2020064
:103A200001F08AFF08214FF2030001F085FF012118
:103A30004FF2040001F080FF0D214FF4304001F0FF
:103A40007BFF0D214BF2010001F076FF0D214BF2BF
:103A5000020001F071FF34214FF4364001F06CFF99
:103A600034214BF2016001F067FF34214BF2026018
:103A700001F062FF0D214FF4314001F05DFF0D2197
:103A80004BF2011001F058FF0D214BF2021001F032
:103A900053FF34214FF4374001F04EFF34214BF2F5
:103AA000017001F049FF34214BF2027001F044FF34
:103AB00000214FF4324001F03FFF00214BF2012082
:103AC00001F03AFF00214BF2022001F035FF2421E2
:103AD0004FF4384001F030FF24214BF6010001F093
:103AE0002BFF24214BF6020001F026FF01214FF4A9
:103AF0003F4001F021FF0F214FF4334001F01CFF44
:103B00000F214BF2013001F017FF0F214BF2023071
:103B100001F012FF34214FF4394001F00DFF342140
:103B20004BF6011001F008FF34214BF6021001F0B2
:103B300003FF08214FF4354001F0FEFE08214BF24F
:103B4000015001F0F9FE08214BF2025001F0F4FEA1
:103B500003214FF4424001F0EFFE24214FF43A409C
:103B600001F0EAFE24214BF6012001F0E5FE2421BC
:103B70004BF6022001F0E0FE00214FF43C4001F042
:103B8000DBFE78214BF6014001F0D6FE00214BF61A
:103B9000024001F0D1FE00214FF43D4001F0CCFE87
:103BA00078214BF6015001F0C7FE00214BF6025080
:103BB00001F0C2FE00214FF43E4001F0BDFE642141
:103BC0004BF6016001F0B8FE00214FF4514001F0C6
:103BD000B3FE33214DF2011001F0AEFE00214DF293
:103BE000021001F0A9FE34214DF2031001F0A4FEF1
:103BF00000214DF2041001F09FFE3A214DF2051014
:103C000001F09AFE00214DF2061001F095FE4A21C6
:103C10004DF2071001F090FE00214DF2081001F066
:103C20008BFE5C214DF2091001F086FE00214DF261
:103C30000A1001F081FE81214DF20B1001F07CFE93
:103C400000214DF20C1001F077FEA6214DF20D106F
:103C500001F072FE00214DF20E1001F06DFEE52123
:103C60004DF20F1001F068FE01214DF2101001F02D
:103C700063FE13214DF2111001F05EFE01214DF2A1
:103C8000121001F059FE54214DF2131001F054FEB0
:103C900001214DF2141001F04FFE82214DF215105A
:103CA00001F04AFE01214DF2161001F045FECA2135
:103CB0004DF2171001F040FE02214DF2181001F0F4
:103CC0003BFE00214DF2191001F036FE02214DF2AB
:103CD0001A1001F031FE01214DF21B1001F02CFEF3
:103CE00002214DF21C1001F027FE34214DF21D106F
:103CF00001F022FE02214DF21E1001F01DFE67218F
:103D00004DF21F1001F018FE02214DF2201001F0BB
:103D100013FE84214DF2211001F00EFE02214DF21E
:103D2000221001F009FEA4214DF2231001F004FE3F
:103D300002214DF2241001F0FFFDB7214DF22510B4
:103D400001F0FAFD02214DF2261001F0F5FDCF2120
:103D50004DF2271001F0F0FD02214DF2281001F084
:103D6000EBFDDE214DF2291001F0E6FD02214DF2BE
:103D70002A1001F0E1FDF2214DF22B1001F0DCFDE3
:103D800002214DF22C1001F0D7FDFE214DF22D1035
:103D900001F0D2FD03214DF22E1001F0CDFD1021D6
:103DA0004DF22F1001F0C8FD03214DF2301001F04B
:103DB000C3FD33214DF2311001F0BEFD03214DF260
:103DC000321001F0B9FD6D214DF2331001F0B4FD58
:103DD00000214FF4524001F0AFFD33214DF201209C
:103DE00001F0AAFD00214DF2022001F0A5FD3421D1
:103DF0004DF2032001F0A0FD00214DF2042001F05E
:103E00009BFD3A214DF2052001F096FD00214DF277
:103E1000062001F091FD4A214DF2072001F08CFDB2
:103E200000214DF2082001F087FD5C214DF20920B0
:103E300001F082FD00214DF20A2001F07DFD81217B
:103E40004DF20B2001F078FD00214DF20C2001F025
:103E500073FDA6214DF20D2001F06EFD00214DF203
:103E60000E2001F069FDE5214DF20F2001F064FD07
:103E700001214DF2102001F05FFD13214DF21120C0
:103E800001F05AFD01214DF2122001F055FD54219F
:103E90004DF2132001F050FD01214DF2142001F0EC
:103EA0004BFD82214DF2152001F046FD01214DF21E
:103EB000162001F041FDCA214DF2172001F03CFD12
:103EC00002214DF2182001F037FD00214DF219209A
:103ED00001F032FD02214DF21A2001F02DFD0121E9
:103EE0004DF21B2001F028FD02214DF21C2001F0B3
:103EF00023FD34214DF21D2001F01EFD02214DF263
:103F00001E2001F019FD67214DF21F2001F014FD64
:103F100002214DF2202001F00FFD84214DF22120DD
:103F200001F00AFD02214DF2222001F005FDA4213D
:103F30004DF2232001F000FD02214DF2242001F07A
:103F4000FBFCB7214DF2252001F0F6FC02214DF2D9
:103F5000262001F0F1FCCF214DF2272001F0ECFCEE
:103F600002214DF2282001F0E7FCDE214DF229204C
:103F700001F0E2FC02214DF22A2001F0DDFCF221E9
:103F80004DF22B2001F0D8FC02214DF22C2001F043
:103F9000D3FCFE214DF22D2001F0CEFC03214DF289
:103FA0002E2001F0C9FC10214DF22F2001F0C4FC9D
:103FB00003214DF2302001F0BFFC33214DF23120BE
:103FC00001F0BAFC03214DF2322001F0B5FC6D2165
:103FD0004DF2332001F0B0FC00214FF4534001F0CA
:103FE000ABFC33214DF2013001F0A6FC00214DF273
:103FF000023001F0A1FC34214DF2033001F09CFCB1
:1040000000214DF2043001F097FC3A214DF20530C9
:1040100001F092FC00214DF2063001F08DFC4A21A6
:104020004DF2073001F088FC00214DF2083001F01C
:1040300083FC5C214DF2093001F07EFC00214DF241
:104040000A3001F079FC81214DF20B3001F074FC53
:1040500000214DF20C3001F06FFCA6214DF20D3025
:1040600001F06AFC00214DF20E3001F065FCE52103
:104070004DF20F3001F060FC01214DF2103001F0E3
:104080005BFC13214DF2113001F056FC01214DF281
:10409000123001F051FC54214DF2133001F04CFC70
:1040A00001214DF2143001F047FC82214DF2153010
:1040B00001F042FC01214DF2163001F03DFCCA2115
:1040C0004DF2173001F038FC02214DF2183001F0AA
:1040D00033FC00214DF2193001F02EFC02214DF28B
:1040E0001A3001F029FC01214DF21B3001F024FCB3
:1040F00002214DF21C3001F01FFC34214DF21D3025
:1041000001F01AFC02214DF21E3001F015FC67216E
:104110004DF21F3001F010FC02214DF2203001F071
:104120000BFC84214DF2213001F006FC02214DF2FE
:10413000223001F001FCA4214DF2233001F0FCFB00
:1041400002214DF2243001F0F7FBB7214DF225306A
:1041500001F0F2FB02214DF2263001F0EDFBCF2100
:104160004DF2273001F0E8FB02214DF2283001F03A
:10417000E3FBDE214DF2293001F0DEFB02214DF29E
:104180002A3001F0D9FBF2214DF22B3001F0D4FBA3
:1041900002214DF22C3001F0CFFBFE214DF22D30EB
:1041A00001F0CAFB03214DF22E3001F0C5FB1021B6
:1041B0004DF22F3001F0C0FB03214DF2303001F001
:1041C000BBFB33214DF2313001F0B6FB03214DF240
:1041D000323001F0B1FB6D214DF2333001F0ACFB18
:1041E00000214FF4544001F0A7FB33214DF2014070
:1041F00001F0A2FB00214DF2024001F09DFB3421B1
:104200004DF2034001F098FB00214DF2044001F013
:1042100093FB3A214DF2054001F08EFB00214DF257
:10422000064001F089FB4A214DF2074001F084FB72
:1042300000214DF2084001F07FFB5C214DF2094066
:1042400001F07AFB00214DF20A4001F075FB81215B
:104250004DF20B4001F070FB00214DF20C4001F0DB
:104260006BFBA6214DF20D4001F066FB00214DF2E3
:104270000E4001F061FBE5214DF20F4001F05CFBC7
:1042800001214DF2104001F057FB13214DF2114076
:1042900001F052FB01214DF2124001F04DFB54217F
:1042A0004DF2134001F048FB01214DF2144001F0A2
:1042B00043FB82214DF2154001F03EFB01214DF2FE
:1042C000164001F039FBCA214DF2174001F034FBD2
:1042D00002214DF2184001F02FFB00214DF2194050
:1042E00001F02AFB02214DF21A4001F025FB0121C9
:1042F0004DF21B4001F020FB02214DF21C4001F069
:104300001BFB34214DF21D4001F016FB02214DF242
:104310001E4001F011FB67214DF21F4001F00CFB24
:1043200002214DF2204001F007FB84214DF2214093
:1043300001F002FB02214DF2224001F0FDFAA4211E
:104340004DF2234001F0F8FA02214DF2244001F031
:10435000F3FAB7214DF2254001F0EEFA02214DF2B9
:10436000264001F0E9FACF214DF2274001F0E4FAAE
:1043700002214DF2284001F0DFFADE214DF2294002
:1043800001F0DAFA02214DF22A4001F0D5FAF221C9
:104390004DF22B4001F0D0FA02214DF22C4001F0F9
:1043A000CBFAFE214DF22D4001F0C6FA03214DF269
:1043B0002E4001F0C1FA10214DF22F4001F0BCFA5D
:1043C00003214DF2304001F0B7FA33214DF2314074
:1043D00001F0B2FA03214DF2324001F0ADFA6D2145
:1043E0004DF2334001F0A8FA00214FF4554001F09E
:1043F000A3FA33214DF2015001F09EFA00214DF253
:10440000025001F099FA34214DF2035001F094FA70
:1044100000214DF2045001F08FFA3A214DF205507F
:1044200001F08AFA00214DF2065001F085FA4A2186
:104430004DF2075001F080FA00214DF2085001F0D2
:104440007BFA5C214DF2095001F076FA00214DF221
:104450000A5001F071FA81214DF20B5001F06CFA13
:1044600000214DF20C5001F067FAA6214DF20D50DB
:1044700001F062FA00214DF20E5001F05DFAE521E3
:104480004DF20F5001F058FA01214DF2105001F099
:1044900053FA13214DF2115001F04EFA01214DF261
:1044A000125001F049FA54214DF2135001F044FA30
:1044B00001214DF2145001F03FFA82214DF21550C6
:1044C00001F03AFA01214DF2165001F035FACA21F5
:1044D0004DF2175001F030FA02214DF2185001F060
:1044E0002BFA00214DF2195001F026FA02214DF26B
:1044F0001A5001F021FA01214DF21B5001F01CFA73
:1045000002214DF21C5001F017FA34214DF21D50DA
:1045100001F012FA02214DF21E5001F00DFA67214E
:104520004DF21F5001F008FA02214DF2205001F027
:1045300003FA84214DF2215001F0FEF902214DF2DF
:10454000225001F0F9F9A4214DF2235001F0F4F9C1
:1045500002214DF2245001F0EFF9B7214DF2255020
:1045600001F0EAF902214DF2265001F0E5F9CF21E0
:104570004DF2275001F0E0F902214DF2285001F0F0
:10458000DBF9DE214DF2295001F0D6F902214DF27E
:104590002A5001F0D1F9F2214DF22B5001F0CCF963
:1045A00002214DF22C5001F0C7F9FE214DF22D50A1
:1045B00001F0C2F903214DF22E5001F0BDF9102196
:1045C0004DF22F5001F0B8F903214DF2305001F0B7
:1045D000B3F933214DF2315001F0AEF903214DF220
:1045E000325001F0A9F96D214DF2335001F0A4F9D8
:1045F00000214FF4564001F09FF933214DF2016044
:1046000001F09AF900214DF2026001F095F9342190
:104610004DF2036001F090F900214DF2046001F0C9
:104620008BF93A214DF2056001F086F900214DF237
:10463000066001F081F94A214DF2076001F07CF932
:1046400000214DF2086001F077F95C214DF209601C
:1046500001F072F900214DF20A6001F06DF981213B
:104660004DF20B6001F068F900214DF20C6001F091
:1046700063F9A6214DF20D6001F05EF900214DF2C3
:104680000E6001F059F9E5214DF20F6001F054F987
:1046900001214DF2106001F04FF913214DF211602C
:1046A00001F04AF901214DF2126001F045F954215F
:1046B0004DF2136001F040F901214DF2146001F058
:1046C0003BF982214DF2156001F036F901214DF2DE
:1046D000166001F031F9CA214DF2176001F02CF992
:1046E00002214DF2186001F027F900214DF2196006
:1046F00001F022F902214DF21A6001F01DF90121A9
:104700004DF21B6001F018F902214DF21C6001F01E
:1047100013F934214DF21D6001F00EF902214DF222
:104720001E6001F009F967214DF21F6001F004F9E4
:1047300002214DF2206001F0FFF884214DF221604A
:1047400001F0FAF802214DF2226001F0F5F8A421FF
:104750004DF2236001F0F0F802214DF2246001F0E7
:10476000EBF8B7214DF2256001F0E6F802214DF299
:10477000266001F0E1F8CF214DF2276001F0DCF86E
:1047800002214DF2286001F0D7F8DE214DF22960B8
:1047900001F0D2F802214DF22A6001F0CDF8F221A9
:1047A0004DF22B6001F0C8F802214DF22C6001F0AF
:1047B000C3F8FE214DF22D6001F0BEF803214DF249
:1047C0002E6001F0B9F810214DF22F6001F0B4F81D
:1047D00003214DF2306001F0AFF833214DF231602A
:1047E00001F0AAF803214DF2326001F0A5F86D2125
:1047F0004DF2336001F0A0F855214FF4704001F004
:104800009BF8AA214FF2010001F096F852214FF2D5
:10481000020001F091F808214FF2030001F08CF83A
:1048200000214FF2040001F087F8CC214FF4314011
:1048300001F082F800214BF2011001F07DF8052112
:104840004FF4364001F078F870214FF4374001F012
:1048500073F870214BF2017001F06EF801214FF4F2
:10486000384001F069F803214BF6010001F064F8CB
:1048700003214BF6020001F05FF803214BF6030021
:1048800001F05AF802214FF43C4001F055F80021A4
:104890004BF6014001F050F800214BF6024001F0C8
:1048A0004BF8D0214FF4494001F046F802214CF674
:1048B000011001F041F850214CF6021001F03CF8D3
:1048C00050214CF6031001F037F850214CF604103B
:1048D00001F032F800214FF4545001F02DF8552129
:1048E0004FF4685001F028F84FF4885001F00EF8AA
:1048F0007820FDF77BFB4FF4245001F007F810BD42
:1049000010B5E22001F002F81D2000F0F3FF0220B4
:1049100000F0F0FF042000F0EDFF6420FDF766FBDF
:10492000E02000F0F3FF012000F0E4FF0A20FDF793
:1049300051FBE02000F0EAFF032000F0DBFF0C2039
:10494000FDF748FB012000F0E1FF0A20FDF742FBE4
:10495000E62000F0DBFF2F2000F0CCFFFF2000F06E
:10496000C9FFFF2000F0C6FFB02000F0CFFF2020DD
:1049700000F0C0FF002000F0BDFF032000F0BAFFF0
:1049800040F21F3000F0B6FF012000F0B3FF40F20C
:10499000DF1000F0AFFF002000F0ACFFB42000F00B
:1049A000B5FF042000F0A6FF40F21F4000F0A2FF78
:1049B000002000F09FFF2E2000F09CFF002000F060
:1049C00099FF002000F096FF002000F093FF0020E8
:1049D00000F090FFB62000F099FF022000F08AFF5F
:1049E0004FF4037000F086FF002000F083FF1720D3
:1049F00000F080FF152000F07DFF002000F07AFF1E
:104A0000002000F077FFF02000F080FF032000F08E
:104A100071FF292000F07AFFD02000F077FF0020FE
:104A200000F068FFBE2000F071FF052000F062FF7B
:104A3000FE2000F05FFF012000F05CFF002000F08E
:104A400059FF002000F056FF002000F053FFB8206F
:104A500000F05CFF032000F04DFF012000F04AFF52
:104A6000BA2000F053FF012000F044FF10BD10B544
:104A7000112000F04BFF7820FDF7ACFA362000F053
:104A800045FF002000F036FF3A2000F03FFF0520F0
:104A900000F030FFB22000F039FF0C2000F02AFFB8
:104AA0000C2000F027FF002000F024FF332000F04E
:104AB00021FF332000F01EFFB72000F027FF352034
:104AC00000F018FFBB2000F021FF322000F012FFA1
:104AD000C02000F01BFF0C2000F00CFFC22000F0F3
:104AE00015FF012000F006FFC32000F00FFF10208B
:104AF00000F000FFC42000F009FF202000F0FAFEC3
:104B0000C62000F003FF0F2000F0F4FED02000F0DC
:104B1000FDFEA42000F0EEFEA12000F0EBFEE02060
:104B200000F0F4FED02000F0E5FE002000F0E2FEF0
:104B3000022000F0DFFE072000F0DCFE0A2000F07B
:104B4000D9FE282000F0D6FE322000F0D3FE44200B
:104B500000F0D0FE422000F0CDFE062000F0CAFE9C
:104B60000E2000F0C7FE122000F0C4FE142000F05A
:104B7000C1FE172000F0BEFEE12000F0C7FED020ED
:104B800000F0B8FE002000F0B5FE022000F0B2FEFA
:104B9000072000F0AFFE0A2000F0ACFE282000F055
:104BA000A9FE312000F0A6FE542000F0A3FE47200D
:104BB00000F0A0FE0E2000F09DFE1C2000F09AFEEA
:104BC000172000F097FE1B2000F094FE1E2000F03E
:104BD00091FE2A2000F09AFE002000F08BFE0020BB
:104BE00000F088FE002000F085FEEF2000F082FE3D
:104BF0002B2000F08BFE002000F07CFE002000F057
:104C000079FE012000F076FE3F2000F073FE29209F
:104C100000F07CFE10BD10B5112000F077FE78206A
:104C2000FDF7D8F9362000F071FE482000F062FE52
:104C30003A2000F06BFE552000F05CFEF02000F002
:104C400065FEC32000F056FEF02000F05FFE9620C7
:104C500000F050FEB42000F059FE012000F04AFEA2
:104C6000B62000F053FE0A2000F044FEA22000F01F
:104C700041FEB72000F04AFEC62000F03BFEB920FE
:104C800000F044FE022000F035FEE02000F032FE8D
:104C9000C02000F03BFE802000F02CFE162000F02B
:104CA00029FEC12000F032FE192000F023FEC220B0
:104CB00000F02CFEA72000F01DFEC52000F026FE0F
:104CC000162000F017FEE82000F020FE402000F043
:104CD00011FE8A2000F00EFE002000F00BFE0020E6
:104CE00000F008FE292000F005FE192000F002FE69
:104CF000A52000F0FFFD332000F0FCFDE02000F0D7
:104D000005FEF02000F0F6FD072000F0F3FD0D2079
:104D100000F0F0FD042000F0EDFD052000F0EAFDBC
:104D2000142000F0E7FD362000F0E4FD542000F0F0
:104D3000E1FD4C2000F0DEFD382000F0DBFD13200B
:104D400000F0D8FD142000F0D5FD2E2000F0D2FD9B
:104D5000342000F0CFFDE12000F0D8FDF02000F07D
:104D6000C9FD102000F0C6FD142000F0C3FD0E2088
:104D700000F0C0FD0C2000F0BDFD082000F0BAFDE1
:104D8000352000F0B7FD442000F0B4FD4C2000F0C9
:104D9000B1FD262000F0AEFD102000F0ABFD12208A
:104DA00000F0A8FD2C2000F0A5FD322000F0A2FDAF
:104DB000F02000F0ABFD3C2000F09CFDF02000F066
:104DC000A5FD692000F096FD7820FDF703F921206C
:104DD00000F09CFD292000F099FD10BD2DE9F04F59
:104DE00005460E4617469846DDF824A04FF0000B06
:104DF000781B401C1FFA80FB344613E021462846EE
:104E000000F086FB00F08EFD4FF0000906E0074938
:104E1000A1F800A009F101001FFA80F9D945F6DBDD
:104E2000601C84B24445E9DDBDE8F08F0008006CE9
:104E300000B593B000BF00BFF948806940F48070AE
:104E4000F74988610846806900F48070009000BFCF
:104E500000BF00BF00BF00BF0846806940F02000CF
:104E600088610846806900F02000009000BF00BF04
:104E700000BF00BF00BF0846806940F02000886185
:104E80000846806900F02000009000BF00BF00BF0E
:104E900000BF00BF0846806940F480708861084602
:104EA000806900F48070009000BF00BF00BF00BFA9
:104EB00000BF0846806940F00800886108468069A4
:104EC00000F00800009000BF00BF00BF88140F90E2
:104ED0000220109001201190032012900FA9D148B8
:104EE000FBF7B2FD20200F900FA9CF48FBF7ACFDD8
:104EF00010200F900FA9CC48FBF7A6FD01200F90C2
:104F00000FA9C848FBF7A0FD01200F9010900FA932
:104F1000C648FBF799FD4FF02040C5490860C548D9
:104F20004860062088600021C148C16010214161AD
:104F300000218161C16141624FF480518162002191
:104F4000C1624FF48041016300214163816300200D
:104F5000089009900F200A9000200E900190029076
:104F6000012003900020079001AA08A9B048FCF78F
:104F70003BFB3220FDF72EF8D32000F0C7FC00F0F9
:104F80009DF9AD49888000F099F9AB49888000F01F
:104F900095F9A9498880084680884FF6FF7101EA93
:104FA0000020A549888000F089F9A3498988084331
:104FB000A14988800846808849F2413188427CD0E6
:104FC000042000F0A3FC00F079F99B49888000F0F0
:104FD00075F99949888000F071F9974988800846E9
:104FE00080884FF6FF7101EA00209349888000F025
:104FF00065F99149898808438F49888008468088E7
:1050000048F25251884203D147F289708A49888018
:105010008948808847F289718842D0D0D42000F036
:1050200075FC00F04BF98449888000F047F982490B
:10503000888000F043F980498880084680884FF6D0
:10504000FF7101EA00207C49888000F037F97A4935
:1050500089880843784988800846808845F210315D
:105060008842ACD0D32000F051FC00F027F97249FF
:10507000888000F023F97049888000F01FF96E499C
:105080008880084680884FF6FF7101EA00206A494F
:10509000888000F013F96849898808436649888048
:1050A0000846808847F29671884288D055214FF48F
:1050B000704000F041FCAA2100E07EE04FF20100C8
:1050C00000F03AFC52214FF2020000F035FC0821BA
:1050D0004FF2030000F030FC01214FF2040000F019
:1050E0002BFC4FF4454000F011FC00F0E7F852496A
:1050F0008880084680884FF6FF7101EA00204E49FB
:1051000088804CF2015000F001FC00F0D7F84A49C9
:1051100089880843484988800520FCF75BFF46489A
:10512000808845F21051884247D0D32000F0EEFB32
:1051300000F0C4F84049888000F0C0F83E498880FB
:1051400000F0BCF83C498880084680884FF6FF7123
:1051500001EA00203849888000F0B0F83649898893
:105160000843354988800846808849F60601884208
:1051700023D0A12000F0CAFB00F0A0F82E498880BF
:1051800000F09CF82C498880084680884FF6FF7113
:1051900001EA00202849888000F090F82649898893
:1051A0000843254988800846808845F26171884215
:1051B00003D141F66310204988801F4881881FA0D1
:1051C000FBF77CF81C48808847F28971884202D13D
:1051D000FFF74DFC4CE01848808849F24131884285
:1051E00002D1FDF7E0F943E01348808845F2103121
:1051F000884202D1FDF78DFC3AE00F48808847F2E3
:105200009671884202D1FFF706FD31E00A48808896
:1052100045F21051884217D1FEF7F4FB28E0000058
:10522000001002400020014000140140000C014029
:1052300018120020040100A0601200204C434420FA
:1052400049443A25780D0A001148808849F606013C
:10525000884202D1FDF7BDFA0AE00D48808841F688
:105260006311884204D1FFF74BFB642000F018FB68
:105270000020FDF757F800BF012211460548FBF753
:1052800095FD00BF4FF6FF70FDF732F813B000BD7B
:1052900060120020000C014000BF011EA0F10100BF
:1052A000FBD1704710B50246012000E050430B1EB1
:1052B000A1F10104E1B2F9D110BD000008B502204E
:1052C000FFF7EAFF024800880090BDF8000008BD23
:1052D0000008006CF0B50546002400278B48807953
:1052E000012805D18948808841F66311884208D198
:1052F00086488079F0B98548808841F663118842F4
:1053000018D1082D15D2DFE805F00406080A0C0EA6
:10531000101206250DE007250BE0042509E0052500
:1053200007E0012505E0002503E0032501E0022553
:1053300000BF00BF082D1CD2DFE805F00406090CF1
:105340000F12151800BF14E044F0800411E044F07F
:1053500040040EE044F0C0040BE044F0200408E0F8
:1053600044F0600405E044F0A00402E044F0E004EE
:1053700000BF00BF36276548808845F2105188423B
:1053800000D13F026148808849F2413188420BD008
:105390005E48808847F28971884205D05B488088E2
:1053A00047F29671884201D144F0080421463846FC
:1053B00000F0C2FA5548808841F6631188421DD03A
:1053C00004F0200068B1514800885049498888425B
:1053D00014DA4E48068840884C49088008464680C2
:1053E0000CE04A48008849494988884206DD474818
:1053F000068840884549088008464680434880889A
:1054000045F21051884252D14049488900F07EFA55
:10541000002000F06FFA3D494989491C88B200F02C
:1054200075FA002000F066FA38494989891C88B26B
:1054300000F06CFA35490988491EC1F30F2000F0CD
:1054400059FA32494989C91C88B200F05FFA2F49DC
:105450000978491EC8B200F04DFA2C49888900F03D
:1054600055FA002000F046FA28498989491C88B27B
:1054700000F04CFA002000F03DFA24498989891C8B
:1054800088B200F043FA21494988491EC1F30F2030
:1054900000F030FA1D498989C91C88B200F036FA3B
:1054A0001A498978491EC8B200F024FA2DE017493C
:1054B000488900F02BFA002000F01CFA002000F0D0
:1054C00019FA12490988491EC1F30F2000F012FA97
:1054D0000E490978491EC8B200F00CFA0B498889B8
:1054E00000F014FA002000F005FA002000F002FAA3
:1054F00006494988491EC1F30F2000F0FBF9034912
:105500008978491EC8B200F0F5F9F0BD601200209C
:1055100010B502460C464548808841F66311884222
:1055200047D142488079A8B940480088401E801A77
:1055300082B23E49488900F0E9F9002000F0DAF92A
:10554000002000F0D7F9101200F0D4F9D0B200F02A
:10555000D1F916E03549488900F0D8F9101200F069
:10556000C9F9D0B200F0C6F930490988491EC1F323
:105570000F2000F0BFF92D490978491EC8B200F08C
:10558000B9F92A49888900F0C1F9201200F0B2F96E
:10559000E0B200F0AFF925494988491EC1F30F2058
:1055A00000F0A8F921498978491EC8B200F0A2F993
:1055B0003AE01E48808845F21051884220D11B49AC
:1055C000488900F0A3F9101200F094F917494989AD
:1055D000491C88B200F09AF9D0B200F08BF9134957
:1055E000888900F093F9201200F084F90F49898925
:1055F000491C88B200F08AF9E0B200F07BF913E0B0
:105600000A49488900F082F9101200F073F9D0B20B
:1056100000F070F90549888900F078F9201200F04F
:1056200069F9E0B200F066F910BD000060120020D8
:105630002DE9FC4F80460E4615461C46B346002019
:10564000019000902046E31704EB5373DB102146D2
:105650004FEAE47C04EB5C7C4FEAEC0CA4EBCC0C52
:10566000BCF1000F02D04FF0010C01E04FF0000C34
:105670006344224604EBD27C4FEA6C0C03FB0CF330
:10568000DBB20193A5F12000C5B20C2C06D0102C82
:105690000BD0182C0ED0202C18D112E005EB4500B1
:1056A0002D4901EB8000009012E02C4800EB051022
:1056B00000900DE005EBC500294901EB800000904A
:1056C00006E0284800EB8510009001E0BDE8FC8F63
:1056D00000BF00273AE0009810F807904FF0000A4A
:1056E0002EE009F0800028B1314640460C9AFCF7C4
:1056F00025FF07E00B9828B91B4831460268404651
:10570000FCF71CFF4FEA49604FEA1069701C86B233
:1057100016484088B04200DCD8E7A6EB0B00A04258
:105720000AD15E4608F101001FFA80F80F48008890
:10573000404500DCCAE706E00AF1010000F0FF0A7C
:10574000BAF1080FCDDB00BF781CC7B201988742C1
:10575000C1DB00BFBAE70000E87F00085C840008F6
:105760004C8A0008A897000844000020601200201E
:105770002DE9FC4F04460D4690469946DDE90C7A2A
:105780000B9E04F0FF0B08EB04001FFA80F809EBF6
:1057900005001FFA80F917E0444502DB5C46A819B2
:1057A00085B24D4500DB15E00020CDE9000A3A78CE
:1057B000334629462046FFF73BFF304606EBD071C3
:1057C00004EB61018CB27F1C38787E2802DC3878CB
:1057D0002028E1DA00BFBDE8FC8F2DE9FF4F85B03E
:1057E000064693461F46DDE91389129C002004906B
:1057F000002550E0781B401EC1B20A20FFF752FD81
:10580000BBFBF0F00A21B0FBF1F201FB120A049895
:1058100060BB781EA84229DDBAF1000F24D108F040
:10582000800080B108F0010004EBD471491001FB45
:105830000561CDE90009039488B223463022069918
:10584000FFF7F6FE0FE008F0010004EBD4714910F9
:1058500001FB0561CDE90009039488B223462022AB
:105860000699FFF7E5FE14E00120049008F001001E
:1058700004EBD471491001FB0561CDE900090394E3
:1058800088B20AF13001CAB223460699FFF7D0FE6A
:1058900000BF681CC5B2BD42ACDB09B0BDE8F08FEB
:1058A0002DE9F0470446BE2000F030F8052000F056
:1058B00021F8204602F07BFA07464FF066320C4B87
:1058C00002F088FA054602F045FA1FFA80F94846C8
:1058D00000F010F8012000F00DF8FF2000F00AF8A9
:1058E000002000F007F8002000F004F8BDE8F08781
:1058F0006666044001B5BDF800000090BDF80000E8
:105900000149088008BD00000008006C01B5BDF821
:1059100000000090BDF800000149088008BD0000AB
:10592000FE07006C024800890249088070470000A9
:1059300060120020FE07006C024A1080921C118049
:1059400070470000FE07006C00B585B000BF00BFC7
:105950001E48806940F008001C498861084680693B
:1059600000F00800009000BF00BF00BF00BF00BFF4
:105970000846806940F0400088610846806900F070
:105980004000009000BF00BF00BF20200190012018
:10599000029003900320049001A90D48FBF754F8EE
:1059A0002020019001A90B48FBF74EF800BF01220F
:1059B00020210748FBF7FAF900BF00BF0122202190
:1059C0000448FBF7F3F900BF05B000BD001002402A
:1059D000000C01400018014010B5FBF7FFF94FF42F
:1059E000E01000F061FE4820FCF7CCFA4FF4E13003
:1059F00000F004FFFFF7A8FFFFF71AFAFCF7CCFB53
:105A0000002000F005F8FCF723FB002010BD00008B
:105A100030B504460225084951F8241001FB05F26F
:105A2000064951F82400002100F02AF8012103481A
:105A30000830015530BD000068AF00085C00002050
:105A400010B501460023002207E00B4850F8210062
:105A500030F8120000B15B1C521C084850F82100BD
:105A60009042F2D84FF47A705843044C54F82140D5
:105A7000B0FBF4F080B210BD5C00002068AF0008FD
:105A800030B5034601E003F8011B141EA2F1010228
:105A9000F9D130BD2DE9F04105460E462948076889
:105AA00000202949096881F85A0027480068001D2C
:105AB00000F0C0FE50B92448006890F82C10012076
:105AC000884022490968814320480160681CD8B990
:105AD000D6B11F4948681C49096888601A4982681C
