:020000040800F2
:10000000B8090020ED0100084B2E0008432E00081F
:10001000472E0008BD13000811360008000000003C
:10002000000000000000000000000000792E000821
:10003000C1130008000000004D2E00087B2E0008B0
:10004000070200080702000807020008070200086C
:10005000070200080702000807020008070200085C
:10006000070200080702000807020008070200084C
:10007000070200080702000807020008070200083C
:10008000070200080702000807020008070200082C
:10009000070200080702000807020008070200081C
:1000A000070200080702000807020008070200080C
:1000B000852E0008B12E000807020008070200087C
:1000C00007020008070200080702000807020008EC
:1000D00007020008013600080702000807020008AE
:1000E00007020008070200080702000807020008CC
:1000F000F92E000807020008F12E00080702000888
:100100000702000807020008E12E000807020008A5
:10011000070200080702000807020008070200089B
:10012000070200080702000807020008070200088B
:1001300000F002F800F04AF80AA090E8000C8244AF
:100140008344AAF10107DA4501D100F03FF8AFF28C
:10015000090EBAE80F0013F0010F18BFFB1A43F0A5
:10016000010318472445000044450000103A24BF0D
:1001700078C878C1FAD8520724BF30C830C144BF0C
:1001800004680C607047000000230024002500264E
:10019000103A28BF78C1FBD8520728BF30C148BFEA
:1001A0000B607047662904F01782642900F04C80C8
:1001B000002070471FB500F0AFFB040000200021B5
:1001C00003F0F8FDE0601FBD10B510BD00F0C0FCED
:1001D0001146FFF7EFFF03F0BBFC00F0DEFC03B4B9
:1001E000FFF7F2FF03BC03F04CFA00000948804718
:1001F00009480047FEE7FEE7FEE7FEE7FEE7FEE709
:10020000FEE7FEE7FEE7FEE704480549054A064B20
:1002100070470000832E000831010008B803002059
:10022000B8090020B8050020B8050020704700007C
:100230000FB4044910B503AA029800F05BFB10BC90
:100240005DF814FB080000202DE9F041064600246B
:1002500010687529314616A510D0AFF3008000282C
:1002600002DA404213A507E031688A0701D512A5DA
:1002700002E0490704D511A5012401E0AFF3008095
:1002800000210A2206F1240709E0B0FBF2FCB0FBD2
:10029000F2F302FB1C00303078541846491C002849
:1002A000F3D123462A463046BDE8F04100F0BAB803
:1002B000000000002D0000002B00000020000000C6
:1002C0002DE9F0474FF0000A89460446C0F820A007
:1002D0002046E1688847002876D0252806D0D4E952
:1002E00001219047206A401C2062F1E7E168204626
:1002F00000258847C4F81CA006460027C4F818A0AB
:100300002A2E09D0304603F0B5F938B304EB87083C
:10031000303EC8F8186019E059F8041B204604EB79
:1003200087029161E1688847012F064618D1E0698C
:10033000002820DA25F020051DE0D8F8180000EB91
:10034000800006EB40003038C8F818002046E1680D
:100350008847064603F08EF90028EED1012F0AD017
:100360002E2E08D12046E16888477F1C0646022FC2
:1003700045F02005C4DBA069002803DA404245F0BF
:100380000105A061E80701D025F01005B6B1A6F17E
:100390004100192802D8203645F400654A46314606
:1003A000204625604D46FFF7FDFE58B1012806D0D6
:1003B000ED1D25F0070000F1080989E704E005F1CB
:1003C000040985E730468AE7206ABDE8F0874FF0E8
:1003D000000200B5134694469646203922BFA0E895
:1003E0000C50A0E80C50B1F12001BFF4F7AF0907A1
:1003F00028BFA0E80C5048BF0CC05DF804EB890092
:1004000028BF40F8042B08BF704748BF20F8022BD4
:1004100011F0804F18BF00F8012B704770477047EC
:10042000704770472DE9F0470D46994692460446BD
:1004300000F124080168880604D5E06921F0100164
:10044000216000E00120A84201DD471B00E00027F9
:10045000A1697A1902EB0900081AA0612078C00688
:1004600002D42046AFF30080002608E0D4E9012141
:100470001AF806009047206A401C761C20624E4500
:10048000F4DB2078C0060AD52046AFF3008006E0F2
:10049000D4E9012130209047206A401C2062381E98
:1004A000A7F10107F4DC07E0D4E9012118F8050001
:1004B0009047206A401C2062281EA5F10105F3DC4C
:1004C0002046AFF300802078000602D50220BDE868
:1004D000F0870120FBE770472DE9FF4F0C461E46D1
:1004E0004FF0FF378BB0D2E90001DDF860800A9051
:1004F0008A46C1F30A5505B93D46002108464FF02A
:100500000000BAF1000F00F4400005DA00EB8000B3
:100510004FF4400101EA50004FEA9059B9F1010F40
:1005200000DDB9460A9850EA4A000ED044F6105051
:10053000A5F2FF3545432F14B8F1000F1ED07542C8
:10054000291E1EDDC9F100021CE0B8F1010F4FF0B9
:10055000000001D0302103E0F24305E02154401CAB
:10056000B042FBDB30460022002121540B99C1F838
:100570000880C1E900200FB0BDE8F08FBD1B6D1CE5
:10058000DEE74A4600DA694206A800F067FA06ABE1
:1005900093E8070003AB83E8070050460A9900F090
:1005A00045FB8DE80700A0F500501F380090039828
:1005B000002D0ADD42F21F014A460844002303A928
:1005C0000390684600F0AEFD09E0A0F500504A46F1
:1005D0001F38002303A90390684600F0B8FD8DE89A
:1005E00007000004000C03D04FF0FF30410800E08A
:1005F0001046B8F1000F03D00022009215461EE00D
:10060000751E05D400F08CF9303262556D1EF9D597
:10061000B3460122084302D000227F1C04E0207868
:10062000302801D100227F1E002A099784D01DE0C6
:10063000112D07DA00F074F9303262556D1C50EA62
:100640000102F5D1084302D00098C8B10EE00021A4
:10065000681E05E0235C625C63542254401E491C02
:100660008142F7DBAB46A81B401E0990002004F82E
:100670000B000B98099AC0F80880C0E9002B7AE7B4
:1006800011264FF0000857E72DE9F04F8846044641
:10069000D21D22F0070191B0D1E90001CDE90A0194
:1006A00002F0B8FF02460B98C00F01D02D2007E0E2
:1006B0002068810701D52B2002E0202101EAC0003B
:1006C000032A099001D0072A05DB0346414620464C
:1006D00000F084F90BE12078800601D5E06900E0A4
:1006E0000620B8F1650F814606D0B8F1660F18D024
:1006F000B8F1670F70D131E00020B9F1110F00900F
:1007000001DB112301E009F101030AAA01A90CA8E8
:10071000FFF7E2FEDDE90C70002609F101058346D2
:1007200047E001204B4600904FF000470AAA01A97C
:100730000CA8FFF7D1FEDDE90DB00C995D4600264F
:1007400010B909F101000D18B9EB050003D4C0F18F
:10075000FF3609F10105A5EB09002BE0B9F1010F06
:1007600001DA4FF001090020B9F1110F009048465D
:1007700001DD112300E003460AAA01A90CA8FFF736
:10078000ABFEDDE90C704D4600268346207800075D
:100790000AD4AB4500DA5D4601A8012D04DD4119FC
:1007A00011F8011C302907D04F4502DA17F1040F68
:1007B00004DA012082460FE06D1EEEE7002F02DC16
:1007C000ED1B3E4403E0781CA84200DD7D1CB81BF5
:1007D00000F1010A4FF000472078000703D4AA4532
:1007E00001DB4FF0FF3A0021B7F1004F0DF1430854
:1007F0008DF8431024D002202B23002F01DA7F42F2
:100800002D230A21021EA0F1010000DC5FB197FB3D
:10081000F1FC97FBF1F201FB1C7C17460CF1300C4C
:1008200008F801CDEEE7A8F1010003702188090561
:1008300001D5452100E06521A0F1010800F8011C67
:1008400009980FA9A1EB0807FF1D00B1012041196C
:1008500001EBEA70A1693844081A401EA0612078B3
:10086000C00602D42046AFF30080099828B1D4E92D
:1008700001219047206A401C20622078C00622D5C2
:100880002046AFF300801EE0002E04DBB34502DDFE
:1008900001A8805D00E03020D4E901219047206A62
:1008A000401C2062761CAAF101005FEA000A0AD10E
:1008B00000F032F8C0680168405CD4E9012190473B
:1008C000206A401C2062281EA5F10105DCDC07E03F
:1008D000D4E9012118F8010B9047206A401C2062DE
:1008E000381EA7F10107F3DC2046AFF30080032098
:1008F00011B041E6074B70B50D467B4400F05BF844
:100900000446284600F01CF910B14FF0FF3070BDCE
:10091000204670BD5331000000487047740300202A
:1009200030B5B0F10A024FEA900E71F100034EEAC1
:10093000817EB0EB0E0061EB91014FEA101E4EEA92
:10094000017E10EB0E0041EB11114FEA102E4EEA22
:10095000016E10EB0E0041EB11214FEA104E4EEAF2
:10096000014E10EB0E0041EB1141401841F1000126
:100970004FEAD00040EA41704FEAD10110EB800508
:100980004FEA810444EA907444EB01046D1944EB8E
:100990000404521BA3414FF0000348BF0A3200D5A4
:1009A00030BD401C41F1000130BD000001694A1C0E
:1009B00002610878704700B58FB0CDE901310021A0
:1009C000059105497944CDE9031011466846FFF7C2
:1009D00077FC0FB000BD0000E5FFFFFF2DE9F041FF
:1009E0001F46044603260168072A01F4006004DB61
:1009F00008B116A505E016A503E008B115A500E0AD
:100A000015A521F010002060A069C01EA0610FB1E3
:100A1000401EA0612046AFF300804FB1D4E9012110
:100A200038469047206A401C2062C01C206206E0C5
:100A3000206AFAE7D4E9012115F8010B9047761EE8
:100A4000F8D22046AFF30080BDE8F0814E414E0061
:100A50006E616E00494E4600696E66002DE9F047F2
:100A6000814616468AB0354878440DC88DE80D0099
:100A700032487844801C03AC0DC884E80D0041F670
:100A80009B300844372190FBF1F290FBF1F5A5F182
:100A9000800501FB12041B3C02D56442012000E0EA
:100AA0000020DFF898A080460027FA44AAF1BE0A89
:100AB0000EE0E0070AD03246684607EB4701012303
:100AC0000AEB810100F043FB8DE8070064107F1CF6
:100AD000002CEED1194F7F44AE3F19E0E80715D046
:100AE00007EB04100DF1180A90E80E008AE80E00DA
:100AF000C068F04201D1981908903246012306A936
:100B000003A800F024FB03AB83E807006D10641C0E
:100B1000002DE3D14FF0010332466946B8F1000FD2
:100B200003A802D000F0FEFA01E000F010FBC9E9D2
:100B30000001C9F808200AB0BDE8F087043C0000B5
:100B4000007B00F08000704700487047540300208D
:100B50007546FFF7F9FFAE4605006946534620F09B
:100B60000700854618B020B5FFF74EFBBDE82040D2
:100B70004FF000064FF000074FF000084FF0000B59
:100B800021F00701AC46ACE8C009ACE8C009ACE80C
:100B9000C009ACE8C0098D46704710B50446AFF3F4
:100BA00000802046BDE81040FFF719BB4FF0013C24
:100BB00050F8042B51F8043B9A4221D1A2EB0C03CC
:100BC000934313EACC1317D150F8042B51F8043B8C
:100BD0009A4215D1A2EB0C03934313EACC130BD129
:100BE00050F8042B51F8043B9A4209D1A2EB0C03B4
:100BF000934313EACC13DBD04FF00000704700BFE3
:100C0000D01A01BAB1FA81F101F0180122FA01F00B
:100C1000CB40C1F12001DBB2C0B2C01A2CFA01F303
:100C2000D11A914311EAC311E6D170475FEA400C33
:100C300008BF91F0000F4FEA8C234FEAC12243EA2C
:100C400051514FEA1C5018BF00F5F0404FEA3000F8
:100C500018BF41F000415FEA6C5C00F02980BCF1F4
:100C6000FF3F08BF40F080407047130C06BF1204DE
:100C70004FF0100C4FF0000C130E04BF12020CF1D9
:100C8000080C130F04BF12010CF1040C930F04BFE6
:100C900092000CF1020CD30F04BF52000CF1010CB6
:100CA00011464FF00002A0F11F00A0EB0C007047AE
:100CB00011F0004F08BF704731F000413FF4D5AF4D
:100CC0000B0C06BF09044FF0100C4FF0000C0B0E7C
:100CD00004BF09020CF1080C0B0F04BF09010CF151
:100CE000040C8B0F04BF89000CF1020CCB0F04BF66
:100CF00049000CF1010CCCF12003A0EB0C0022FA0E
:100D000003F302FA0CF241EA030100F1010070471B
:100D100020F07F4C80EA030023F07F47ACEB070311
:100D200003F57C5300F0004003F1FF032DE98049F7
:100D30004FEA154B09B44FEA144325EA0B4E24EA57
:100D400003480FF2042606EB132749083E785FEAB2
:100D5000320203FB0667C7F5000707FB06F64FEAFA
:100D600054374FEAD64606F1020607FB066CCCF173
:100D7000005C4FEA1C472CEA074C07FB06F40CFB0F
:100D800006F504EB15464FEA961634BF00204FF0E7
:100D900000404FEAD13706FB07FC4FEA1C4C0CFB26
:100DA0000BF7D21B03FB0CF761EB07010CFB0EF7F3
:100DB000B0EB074072EB17420CFB08F734BFA2EB15
:100DC0000742B2EB074261EB17414FEA0C444FEA8E
:100DD000910706FB07FC4FEA1C4C0CFB0BF7B0EB32
:100DE000C74072EB573203FB0CF734BFA2EBC7428C
:100DF000B2EBC74261EB57310CFB0EF7B0EBC7000B
:100E000072EB57720CFB08F734BFA2EBC702B2EBD0
:100E1000C70261EB5771039F4FEA816141EA92116A
:100E200004EBCC044FEAD1374FEA826206FB07FCA1
:100E300042EA90124FEA80604FEA1C4C0CFB0BF721
:100E4000D21B03FB0CF761EB07010CFB0EF7B0EBB9
:100E5000074072EB17420CFB08F734BFA2EB0742C6
:100E6000B2EB074261EB17414FEA8C554FEA91070D
:100E700004EB9C2406FB07FC4FEA1C4C0CFB0BF715
:100E8000B0EBC74072EB573203FB0CF734BFA2EB59
:100E9000C742B2EBC74261EB57310CFB0EF7B0EB28
:100EA000C70072EB57720CFB08F734BFA2EBC70206
:100EB000B2EBC70261EB577115EB4C254FEA81612C
:100EC00041EA92114FEA82624FEAD13742EA901228
:100ED00006FB07FC44F100044FEA80604FEA1C4C1B
:100EE0000CFB0BF7D21B03FB0CF761EB07010CFBB0
:100EF0000EF7B0EB074072EB17420CFB08F734BF5C
:100F0000A2EB0742B2EB074261EB174115EB1C1550
:100F10004FEA813141EA92414FEA823242EA9042FD
:100F20004FEA80304FEA0C7644F1000448EA03436C
:100F30004EEA0B484FF0000EB2EB080C71EB0307C2
:100F400024BF624639464EEB0E0E4FF0000B0018E0
:100F5000524149414BEB0B0BB2EB080C71EB030711
:100F60007BF1000B24BF624639464EEB0E0E4FF06C
:100F7000000B0018524149414BEB0B0BB2EB080C34
:100F800071EB03077BF1000B24BF624639464EEB41
:100F90000E0E51EA020718BF46F0010616EB0E7658
:100FA00055F1000254F1000103D5BDE88901BDE807
:100FB0000088BDE88901BDE80048B619524141EBFF
:100FC0000101A3F10103704780807F7E7D7C7B7AE5
:100FD0007978777676757473727171706F6E6E6DE5
:100FE0006C6C6B6A6A69686867666665646463638B
:100FF00062616160605F5F5E5E5D5D5C5C5B5B5A11
:101000005A5959585857575656555555545453537D
:1010100052525251515050504F4F4F4E4E4D4D4DD8
:101020004C4C4C4B4B4B4A4A4A4949494848484723
:101030004747474646464545454444444443434361
:101040004342424242414141002B9C4630D477000A
:101050002BD01CB54FEA370703B44FF010004FF008
:101060001001BAF1000F06D0BCF1000FDCBF40F058
:10107000080040F008014FF000000FBCBDE8104030
:101080000BF1010BBBF1010F08BF5FEA170722BF8D
:1010900012F1010211F101014FF0004143F100038F
:1010A00000F0004043EA00007047F9D35708D0E74A
:1010B00046EA064613F1400F4FEA16461FDD13F1CC
:1010C000200FDFBF16430A46002120335B42BED00B
:1010D000C3F1200746EA064602FA07F74FEA16462A
:1010E00046EA0706C3F1200722FA03F201FA07F7DE
:1010F00021FA03F14FF0000342EA0702A7E746EAAC
:10110000020646EA06464FEA164646EA0106BCBF14
:1011100046EA0646360C4FF000034FF000024FF04F
:10112000000194E72DE9804C9A46934670B491E80B
:10113000380007C831EA400C48BF34EA430C03D5F5
:10114000FFF7E6FDFFF780FFF0BCBDE8008C2DE95E
:10115000804C9A46934670B491E8380007C810F066
:10116000804F08BF13F0804F03D100F005F8FFF760
:101170006BFFF0BCBDE8008C20F07F4780EA0300E5
:1011800023F07F4C07EB0C03A3F57C5300F00040E9
:10119000A3F1FE0392F0000F00F0B38095F0000F72
:1011A00000F077802DE901494FEA11404FEA1446DB
:1011B00021EA004800FB06FC24EA064708FB06F685
:1011C00007FB08F800FB07F718EB06484CEB164C3A
:1011D0004FEA124B18EB07484FEA15464CEB174005
:1011E00022EA0B4E0BFB06FC25EA06470EFB06F631
:1011F00007FB0EFE0BFB07F71EEB064E4CEB164CE7
:101200004FF000061EEB074E4CEB174B18EB0B088C
:1012100040F1000018EB0E0B58EB000840F1000005
:101220008F1A4FF000013CBFC943661B14BFB5EBDA
:10123000040C00213CBFC943F61B4FEA17444EEA99
:101240008E0E27EA04454FEA1C4704FB07622CEA8E
:10125000074C05FB07F70CFB05F604FB0CFC16EB33
:10126000074642EB174216EB0C4642EB1C421BEBC7
:10127000060658EB0202414146EA9E0601D5BDE84A
:101280000189B619524141EB0101A3F10103BDE807
:1012900001894FEA14454FEA114724EA054621EA3D
:1012A000074C05FB07F406FB07F70CFB06F105FBF3
:1012B0000CFC11EB074144EB17444FEA124711EBCA
:1012C0000C4144EB1C4422EA074C05FB07F206FBE9
:1012D00007F70CFB06F605FB0CFC16EB074642EB8A
:1012E000174216EB0C4642EB1C456A1854F10001FC
:1012F00048BF7047B619524141EB0101A3F1010308
:10130000704795F0000F37D04FEA11424FEA14476B
:1013100021EA024624EA074C02FB07F106FB07F725
:101320000CFB06F402FB0CFC14EB074441EB1741E9
:101330004FEA154714EB0C4441EB1C4125EA074CDE
:1013400002FB07F506FB07F70CFB06F602FB0CFC9D
:1013500016EB074645EB174516EB0C4645EB1C42D2
:10136000121951F1000148BF7047B619524141EBC3
:101370000101A3F1010370474FEA14454FEA1147F9
:1013800024EA054621EA074C05FB07F106FB07F7AF
:101390000CFB06F24FF0000605FB0CFC12EB0742BB
:1013A00041EB174112EB0C4251EB1C4148BF704717
:1013B000921841EB0101A3F10103704700BFFEE762
:1013C0007047000070B50446002594F821000228FB
:1013D00003D00420A0630125C1E02068006820F04C
:1013E0000E00216808602068006820F00100216874
:1013F00008605C492068884252D95A497839206887
:10140000884201D1012047E056496439206888426A
:1014100001D1102040E0534950392068884201D161
:10142000801539E04F493C392068884201D1801449
:1014300032E04C4928392068884202D14FF480308C
:101440002AE0484914392068884202D14FF48010BC
:1014500022E044492068884201D140041CE042490E
:101460002068884201D1012016E03F4914312068EC
:10147000884201D110200FE03B4928312068884282
:1014800001D1801508E038493C312068884201D1FB
:10149000801401E04FF480303349091F086051E0A7
:1014A000304978392068884201D1012047E02D4930
:1014B00064392068884201D1102040E02949503920
:1014C0002068884201D1801539E026493C392068DE
:1014D000884201D1801432E02249283920688842AC
:1014E00002D14FF480302AE01E4914392068884226
:1014F00002D14FF4801022E01A492068884201D1BD
:1015000040041CE018492068884201D1012016E0FF
:10151000154914312068884201D110200FE012498A
:1015200028312068884201D1801508E00E493C31FD
:101530002068884201D1801401E04FF480300949CD
:1015400080394860012084F8210000BF002084F821
:10155000200000BF606B10B12046616B88472846B1
:1015600070BD000080000240080402402DE9F847E9
:10157000024600239C467BE14FF0010808FA03F481
:10158000D1F8008008EA0400A0427DD1DFF8F4A27F
:10159000D1F80480A8EB0A09D0453AD014DCB8F1A0
:1015A000030F50D009DCB8F1000F31D0B8F1010FB2
:1015B0001CD0B8F1020F49D120E0B8F1110F18D0BA
:1015C000B8F1120F42D11EE0B9F5881F25D006DC14
:1015D000B9F5803F20D0B9F5801F37D11AE0B9F5B1
:1015E000001F18D0B9F5041F30D117E0D1F80CC096
:1015F0002DE0D1F80C8008F1040C28E0D1F80C8023
:1016000008F1080C23E0D1F80C8008F10C0C1EE066
:1016100000BF00BF00BF00BF00BF00BFD1F80880FF
:10162000B8F1000F02D14FF0040C0BE0D1F80880A4
:10163000B8F1010F03D14FF0080C146102E04FF034
:10164000080C546103E04FF0000C00E000BF00BF45
:10165000FF2801D8904601E002F104084646FF2821
:1016600002D84FEA830803E0A3F108084FEA88088C
:101670004746D6F800804FF00F0909FA07F928EA23
:1016800009080CFA07F900E07AE048EA0908C6F808
:101690000080D1F8048008F08058B8F1805F6FD1E5
:1016A00000BFDFF8E481D8F8188048F00108DFF8BF
:1016B000D891C9F81880C846D8F8188008F00108F1
:1016C000CDF8008000BF00BF4FEAB9384FEA930958
:1016D00058F829504FEA83784FEA18794FF00F08ED
:1016E00008FA09F825EA0805DFF8A081424502D189
:1016F0004FF0000824E0DFF89881424502D14FF016
:1017000001081DE0DFF88C81424502D14FF002084C
:1017100016E0DFF88481424502D14FF003080FE064
:10172000DFF87881424502D14FF0040808E0DFF885
:101730007081424502D14FF0050801E04FF00608E4
:101740004FEA83794FEA197908FA09F848EA05055A
:10175000DFF850814FEA930948F82950D1F8048006
:1017600008F48038B8F5803F0BD1DFF83C81D8F819
:10177000008048EA0008DFF83091C9F800800AE0EC
:1017800075E0DFF82481D8F8008028EA0008DFF847
:101790001891C9F80080D1F8048008F40038B8F531
:1017A000003F0ED1DFF8008108F10408D8F800806E
:1017B00048EA0008DFF8F09009F10409C9F8008050
:1017C0000DE0DFF8E48008F10408D8F8008028EA8A
:1017D0000008DFF8D49009F10409C9F80080D1F8B5
:1017E000048008F48018B8F5801F0ED1DFF8B880A7
:1017F00008F10808D8F8008048EA0008DFF8A89047
:1018000009F10809C9F800800DE0DFF89C8008F1B3
:101810000808D8F8008028EA0008DFF88C9009F161
:101820000809C9F80080D1F8048008F40018B8F558
:10183000001F0ED1DFF8708008F10C08D8F8008086
:1018400048EA0008DFF8609009F10C09C9F8008047
:101850000DE0DFF8548008F10C08D8F8008028EA81
:101860000008DFF8449009F10C09C9F800805B1CFE
:10187000D1F8008028FA03F8B8F1000F7FF47CAEAD
:10188000BDE8F88700001110001002400008014078
:10189000000C0140001001400014014000180140FC
:1018A000001C0140080001400004014010B5C2685E
:1018B00021EA020302EA010443EA0443036110BD82
:1018C0000AB1016101E00B0403617047014800683F
:1018D00070470000100000200348006803490978A1
:1018E00008440149086070471000002018000020DB
:1018F00010B50848006840F010000649086005204F
:1019000000F080F80F2000F007F800F02BF800201E
:1019100010BD00000020024070B504460E4800785B
:101920004FF47A71B1FBF0F00C490968B1FBF0F5A6
:10193000284600F0E3FB08B1012070BD102C07D24F
:1019400000222146501E00F01EF80548046001E008
:101950000120F2E70020F0E718000020000000203E
:1019600014000020704701460846002809DB00F0FB
:101970001F0301229A4043099B0003F1E023C3F8AF
:10198000002100BF70472DE9F05F80460D461646E6
:10199000002701F053FE074639462A46334601F038
:1019A0000700C0F1070ABAF1040F02D94FF0040A88
:1019B00001E0C0F1070AD14600F1040ABAF1070FAD
:1019C00002D24FF0000A01E0A0F1030AD4464FF022
:1019D000010A0AFA09FAAAF1010A0AEA020A0AFA4B
:1019E0000CFA4FF0010B0BFA0CFBABF1010B0BEAFD
:1019F000030B4AEA0B042146404601F027FEBDE8EE
:101A0000F09F000000BF00F00702064B19684FF678
:101A1000FF031940044B0B4343EA0221014B1960B9
:101A200000BF70470CED00E00000FA0570B50446F9
:101A30000D460CB9012070BD5A48006800F007003F
:101A4000A8420ED25748006820F0070028435549A5
:101A500008600846006800F00700A84201D0012095
:101A6000E9E7207800F0020002281DD1207800F07C
:101A70000400042805D14C48406840F4E0604A491D
:101A80004860207800F00800082805D146484068E2
:101A900040F46050444948604348406820F0F000FA
:101AA000A168084340494860207800F0010078B3FD
:101AB0006068012806D13C48006800F4003090B905
:101AC0000120B8E76068022806D13748006800F0B6
:101AD000007040B90120AEE73348006800F0020012
:101AE00008B90120A7E73048406820F0030061688A
:101AF00008432D494860FFF7E9FE064609E0FFF775
:101B0000E5FE801B41F28831884202D9032092E72A
:101B100007E02548406800F00C006168B0EB810FD9
:101B2000EDD12048006800F00700A8420ED91D48FA
:101B3000006820F0070028431A490860084600683A
:101B400000F00700A84201D0012074E7207800F0DF
:101B50000400042807D11448406820F4E060E168DC
:101B6000084311494860207800F00800082808D18F
:101B70000D48406820F46050216940EAC1000A49DC
:101B8000486000F03FF808494968C1F30311074A6B
:101B9000515CC8400649086006480068FFF7BCFE73
:101BA000002048E70020024000100240DC45000809
:101BB0000000002014000020014800687047000069
:101BC0000000002000B5FFF7F7FF04494968C1F3A2
:101BD0000221034A515CC84000BD000000100240D1
:101BE000EC45000800B5FFF7E7FF04494968C1F379
:101BF000C221034A515CC84000BD000000100240F1
:101C0000EC450008F0B585B00FF26C0C9CE8E010D4
:101C100001A8A0E8E0101CA52D6800950021002275
:101C2000002300240020194D696801F00C05F5B16E
:101C3000042D02D0082D19D101E0154819E001AD9D
:101C4000C1F38346AC5D01F4803555B10F4D6D682D
:101C5000C5F340451DF805200D4D6543B5FBF2F376
:101C600002E00C4D04FB05F3184602E000BF0848F3
:101C700000BF00BF05B0F0BD020304050607080958
:101C80000A0B0C0D0E0F1010010200000010024094
:101C900000127A0000093D00F8B504460CB9012095
:101CA000F8BD207800F00100002878D0F84840689E
:101CB00000F00C0004280CD0F548406800F00C003F
:101CC000082811D1F248406800F48030B0F5803F18
:101CD0000AD1EF48006800F4003000285FD0606847
:101CE00000285CD10120DBE700BF6068B0F5803FD1
:101CF00006D1E748006840F48030E549086028E0F4
:101D0000606858B9E248006820F48030E049086013
:101D10000846006820F4802008601AE06068B0F58A
:101D2000A02F0BD1DA48006840F48020D849086021
:101D30000846006840F4803008600AE0D448006833
:101D400020F48030D24908600846006820F48020E2
:101D5000086000BF606888B1FFF7B8FD054606E07F
:101D6000FFF7B4FD401B642801D9032098E7C84859
:101D7000006800F400300028F2D010E0FFF7A6FD64
:101D8000054606E0FFF7A2FD401B642801D90320A9
:101D900086E7BF48006800F400300028F2D12078C0
:101DA00000F00200022857D1B948406800F00C004A
:101DB00050B1B748406800F00C00082818D1B4486A
:101DC000406800F4803098B9B148006800F0020023
:101DD00020B12069012801D0012061E7AC480068EA
:101DE00020F0F800616940EAC100A949086033E0C9
:101DF0002069E8B10120A7490860FFF767FD0546A3
:101E000006E0FFF763FD401B022801D9032047E7E6
:101E10009F48006800F002000028F2D09C4800684B
:101E200020F0F800616940EAC1009949086013E0B8
:101E3000002098490860FFF749FD054606E0FFF7D6
:101E400045FD401B022801D9032029E7904800687E
:101E500000F002000028F2D1207800F008000828E5
:101E60002DD1A069B8B101208B490860FFF72EFD84
:101E7000054606E0FFF72AFD401B022801D9032092
:101E80000EE78348406A00F002000028F2D00120EB
:101E900000F0DEFF13E000207F490860FFF716FD29
:101EA000054606E0FFF712FD401B022801D903207A
:101EB000F6E67748406A00F002000028F2D1207868
:101EC00000F00400042873D100277148C06900F0B5
:101ED000805070B900BF6E48C06940F080506C49B6
:101EE000C8610846C06900F08050009000BF00BF84
:101EF00001276A48006800F48070B0B9674800683C
:101F000040F4807065490860FFF7E0FC054606E094
:101F1000FFF7DCFC401B642801D90320C0E65F48C2
:101F2000006800F480700028F2D000BFE06801284B
:101F300006D15748006A40F001005549086227E081
:101F4000E06858B95248006A20F001005049086220
:101F50000846006A20F00400086219E0E0680528DD
:101F60000BD14B48006A40F004004949086208461A
:101F7000006A40F0010008620AE04548006A20F06B
:101F80000100434908620846006A20F00400086224
:101F900000BFE068A0B1FFF799FC054609E0FFF734
:101FA00095FC401B41F28831884202D9032077E634
:101FB00022E03748006A00F002000028EFD012E06B
:101FC000FFF784FC054608E0FFF780FC401B41F268
:101FD0008831884201D9032062E62D48006A00F06A
:101FE00002000028F0D1012F05D12948C06920F056
:101FF00080502749C86100BFE069C8B324484068E1
:1020000000F00C00082860D0E069022848D10020C8
:1020100020490866FFF75AFC054606E0FFF756FC24
:10202000401B022801D903203AE61948006800F055
:1020300000700028F2D1206AB0F5803F07D1144823
:10204000406820F40030A168084311494860D4E991
:10205000080108430E49496821F4741108430C49EA
:10206000486001200B490866FFF730FC054607E091
:102070003DE0FFF72BFC401B022801D903200FE6AF
:102080000348006800F000700028F2D02FE0000044
:1020900000100240000042428004424200700040B2
:1020A000002014490866FFF711FC054606E0FFF71B
:1020B0000DFC401B022801D90320F1E50E48006801
:1020C00000F000700028F2D111E0E069012800D191
:1020D000E6E50948466806F48031206A814204D169
:1020E00006F47011606A814201D00120D8E5002019
:1020F000D6E50000000042420010024070B50446E0
:102100002546681EB0F1807F01D301200FE0681ED4
:102110004FF0E02148610F214FF0FF3001F096FAB7
:1021200000204FF0E021886107200861002070BD89
:102130007047704710B5044634492068884263D11F
:102140003348007800F0800000285DD130480078E6
:1021500000F04000D0B12E48007840F080002C49BB
:10216000087000212B4800F055FC2B4908802948B5
:102170000068006A20F00A002649096808622548BC
:102180000068006A2349096808623DE00020204990
:102190000870214908801E48007840F040001C4922
:1021A000087000BF1B480068006A41F21111084026
:1021B00068B918480068006A8910084038B915489D
:1021C0000068006820F0010012490968086000BF3B
:1021D00000201049096848620E480068006A20F033
:1021E0000A000C49096808620A480068006A40F061
:1021F000020008490968086206480068006840F063
:10220000010004490968086010BD0000000C00408E
:102210002C000020C40200202E0000202DE9F041F7
:1022200004460D46164600BF94F83C00012802D132
:102230000220BDE8F081012084F83C0000BF96B97F
:10224000EB68D5E90012206801F008F82068806981
:1022500020F00C002168886120688069A968084323
:10226000216888613DE0042E13D1EB68D5E90012A6
:10227000206801F045F82068806920F440602168FA
:10228000886120688069A96840EA01202168886126
:1022900027E0082E12D1EB68D5E90012206801F082
:1022A0004CF82068C06920F00C002168C8612068E3
:1022B000C069A96808432168C86112E0EB68D5E9E4
:1022C0000012206801F055F82068C06920F44060D1
:1022D0002168C8612068C069A96840EA01202168B6
:1022E000C86100BF002084F83C0000BF00BFA0E729
:1022F00010B504460CB9012010BD94F83D0028B972
:10230000002084F83C00204600F026F8022084F8E3
:102310003D00211D206800F0F3FD012084F84600F7
:1023200000BF84F83E0001213F20015540200155A7
:102330004120015500BF00BF012084F84200432026
:102340000155442001554520015500BF012084F866
:102350003D000020D0E7000010B586B004461C49BF
:102360002068884232D100BF00BF1A48C06940F0DF
:1023700008001849C8610846C06900F008000190CB
:1023800000BF00BF00BF00BF00BF0846806940F02B
:10239000040088610846806900F00400019000BFD5
:1023A00000BF00BF01200290022003900490032090
:1023B000059002A90848FFF7D9F80322012132202D
:1023C000FFF7E1FA3220FFF7CEFA00BF06B010BDEA
:1023D000000C0040001002400008014070B50446A7
:1023E0000D461DB9022084F83E000EE0042D03D1F5
:1023F00002213F20015508E0082D03D10221402091
:10240000015502E00221412001551DB9022084F846
:1024100042000EE0042D03D102214320015508E0C3
:10242000082D03D102214420015502E0022145205C
:10243000015535B1042D0BD0082D10D00C2D1CD119
:1024400014E02068C06840F002002168C86015E010
:102450002068C06840F004002168C8600EE0206871
:10246000C06840F008002168C86007E02068C068C4
:1024700040F010002168C86000E000BF00BF0122EA
:102480002946206800F08AFD16492068884213D04A
:102490001549206888420FD02068B0F1804F0BD0DA
:1024A00012492068884207D011492068884203D029
:1024B0001049206888420CD12068806800F0070627
:1024C000062E0CD02068006840F0010021680860EA
:1024D00005E02068006840F00100216808600020E5
:1024E00070BD0000002C0140003401400004004099
:1024F00000080040000C004010B504462068006948
:10250000C0F34000D8B12068C068C0F34000B0B14B
:102510006FF002002168086101202077206880693F
:1025200000F0030018B12046FFF704FE05E0204646
:1025300000F0ADF8204600F0B5F9002020772068C3
:102540000069C0F38000D8B12068C068C0F3800083
:10255000B0B16FF004002168086102202077206884
:10256000806900F4407018B12046FFF7E3FD05E0F4
:10257000204600F08CF8204600F094F900202077E7
:1025800020680069C0F3C000D8B12068C068C0F3FB
:10259000C000B0B16FF00800216808610420207706
:1025A0002068C06900F0030018B12046FFF7C2FDA3
:1025B00005E0204600F06BF8204600F073F900209B
:1025C000207720680069C0F30010D8B12068C06887
:1025D000C0F30010B0B16FF010002168086108204E
:1025E00020772068C06900F4407018B12046FFF7DA
:1025F000A1FD05E0204600F04AF8204600F052F91F
:10260000002020772068006900F0010058B12068A0
:10261000C06800F0010030B16FF00100216808616E
:10262000204600F0BBF920680069C0F3C01058B123
:102630002068C068C0F3C01030B16FF0800021681E
:1026400008612046FFF774FD20680069C0F3801020
:1026500058B12068C068C0F3801030B16FF04000FE
:1026600021680861204600F024FA20680069C0F360
:10267000401058B12068C068C0F3401030B16FF00E
:102680002000216808612046FFF753FD10BD704708
:1026900070B504460D46164600BF94F83C0001286C
:1026A00001D1022070BD012084F83C0000BF36B18A
:1026B000042E1BD0082E31D00C2E5ED145E02946C9
:1026C000206800F087FC2068806940F008002168DD
:1026D00088612068806920F0040021688861206892
:1026E0008069296908432168886147E02946206894
:1026F00000F0A8FC2068806940F4006021688861CF
:102700002068806920F48060216888612068806981
:10271000296940EA0120216888612FE02946206864
:1027200000F0CEFC2068C06940F008002168C86154
:102730002068C06920F004002168C8612068C06971
:10274000296908432168C86118E02946206800F01B
:10275000F3FC2068C06940F400602168C86120680B
:10276000C06920F480602168C8612068C069296957
:1027700040EA01202168C86100E000BF00BF00BF3F
:10278000002084F83C0000BF00BF8BE710B5044672
:102790000CB9012010BD94F83D0028B9002084F840
:1027A0003C00204600F026F8022084F83D00211D60
:1027B000206800F0A5FB012084F8460000BF84F8E3
:1027C0003E0001213F200155402001554120015587
:1027D00000BF00BF012084F842004320015544207F
:1027E00001554520015500BF012084F83D0000201F
:1027F000D0E7000010B586B004462649206888421C
:1028000046D100BF00BF2448806940F0080022493B
:1028100088610846806900F00800019000BF00BF91
:1028200000BF00BF00BF0846C06940F00200C86199
:102830000846C06900F00200019000BF00BF00BF61
:102840002020029002200390012004900320059094
:1028500002A91248FEF78AFE00BF00BF0E48806939
:1028600040F001000C4988610846806900F00100D1
:10287000019000BF00BF00BF0949486820F44060D4
:1028800040F0E06040F40060486000BF00BF00BF5F
:1028900006B010BD0004004000100240000C0140D2
:1028A000000001407047000070B504460D4615B9A0
:1028B00094F83E000BE0042D02D13F20005D06E0BD
:1028C000082D02D14020005D01E04120005D01287B
:1028D00001D0012070BD1DB9022084F83E000EE039
:1028E000042D03D102213F20015508E0082D03D11A
:1028F00002214020015502E0022141200155012220
:102900002946206800F04AFB1F492068884203D00E
:102910001E492068884201D1012000E0002028B132
:102920002068406C40F400402168486416492068E3
:10293000884213D01549206888420FD02068B0F132
:10294000804F0BD012492068884207D01149206877
:10295000884203D01049206888420CD120688068E2
:1029600000F00706062E0CD02068006840F0010039
:102970002168086005E02068006840F001002168D7
:1029800008600020A6E70000002C01400034014050
:102990000004004000080040000C0040194A016893
:1029A00091422DD11849097801F0800111BB1649D7
:1029B000097801F04001E9B11349097801F03F01BC
:1029C0003F2918D111490968096A21F00A010F4A03
:1029D000126811620D490968096A0C4A126811628D
:1029E0000949097841F08001074A11704FF6FF71DB
:1029F000074A118004E004490978491C024A117011
:102A000070470000000C00402C000020C402002091
:102A10002E0000200246002031B1042907D00829E9
:102A200008D00C290CD108E01368586B09E0136832
:102A3000986B06E01368D86B03E01368186C00E02D
:102A400000BF00BF704770B504460D4600BF94F844
:102A50003C00012801D1022070BD012084F83C0017
:102A600000BF022084F83D002946204600F08EFB7E
:102A700048B1012084F83D0000BF002084F83C00EC
:102A800000BF0120E8E72068C06820F0400021680E
:102A9000C8602068C06820F480402168C8600120B8
:102AA00084F83D0000BF002084F83C0000BF00BF58
:102AB000D2E77047704700002DE9F04704462068D0
:102AC00005682068C668206847694FF00008C1465D
:102AD00005F00F08B8F1000F0AD105F0200038B159
:102AE00006F0200020B1204600F08BFCBDE8F08706
:102AF000B8F1000F71D007F0010018B906F490701A
:102B000000286AD005F0010030B106F4807018B1D9
:102B1000E06B40F00100E06305F0040030B107F025
:102B2000010018B1E06B40F00200E06305F0020024
:102B300030B107F0010018B1E06B40F00400E06331
:102B400005F0080048B106F0200010B907F00100B8
:102B500018B1E06B40F00800E063E06B68B305F08B
:102B6000200028B106F0200010B1204600F049FCFA
:102B700020684069C0F38019E06B00F0080010B9CC
:102B8000B9F1000F22D0204600F01BFC20684069FC
:102B900000F04000B0B12068406920F0400021689A
:102BA0004861606B50B11848616B4863606BFEF719
:102BB00009FC10B1606B416B88470CE02046FFF7C1
:102BC00079FF08E02046FFF775FF04E02046FFF795
:102BD00071FF0020E06389E7FFE705F0800030B176
:102BE00006F0800018B1204600F0DAFC7EE705F020
:102BF000400030B106F0400018B1204600F0F1FB73
:102C000074E700BF72E70000AF33000810B5044658
:102C10000CB9012010BDA06900B100E000BF94F81C
:102C2000390028B9002084F83800204600F028F840
:102C3000242084F839002068C06820F400502168FE
:102C4000C860204600F02EFC2068006920F4904007
:102C5000216808612068406920F02A0021684861E5
:102C60002068C06840F400502168C8600020E0631C
:102C7000202084F8390084F83A000020CAE70000D8
:102C800010B586B004462849206888424AD100BF62
:102C900000BF2648806940F0040024498861084646
:102CA000806900F00400019000BF00BF00BF00BFBA
:102CB00000BF0846806940F00400886108468069CA
:102CC00000F00400019000BF00BF00BF00BF00BFC4
:102CD0000846806940F4804088610846806900F4B5
:102CE0008040019000BF00BF00BF48150290022045
:102CF0000390012004900320059002A90C48FEF7E0
:102D000035FC4FF4806002900020039002A908482F
:102D1000FEF72CFC2520FEF726FE03221146252077
:102D2000FEF731FE06B010BD003801400010024031
:102D30000008014010B5034693F83A0020282FD12F
:102D400001B10AB9012010BD00BF93F83800012875
:102D500001D10220F7E7012083F8380000BF996213
:102D60009A85DA850020D863222083F83A0000BFD4
:102D7000002083F8380000BF1868C06840F48070F5
:102D80001C68E0601868406940F001001C686061E0
:102D90001868C06840F020001C68E0600020D2E79E
:102DA0000220D0E710B504462049206888423BD174
:102DB0001F48008800F4004088BB1D48008800F4CC
:102DC000804070B11B4800780A2803D000201849C1
:102DD000088024E01648008840F400401449088028
:102DE0001DE0144800780D2806D11148008840F4F1
:102DF00080400F49088012E00E4800780C4909888D
:102E0000C1F30D010C4A505409480088401C084980
:102E1000088008460088C72801DD002008800122BC
:102E200004490648FFF786FF10BD00000038014046
:102E30000C0000200E00002034000020FC000020C8
:102E4000704700BFFEE700BFFEE770477047000015
:102E500008B508490968C9084FF47A72B1FBF2F164
:102E60004143009100BF00BF00994A1E0092002913
:102E7000F9D108BD00000020704710B5FEF72CFD09
:102E800010BD704708480068006900F0010020B1DB
:102E900006480068401C054908606FF001000249BF
:102EA00009680861704700000C0300203000002012
:102EB00010B509480068006900F0010050B100BF7A
:102EC00020210648FEF7F2FC00BF6FF00100024926
:102ED0000968086110BD000034020020001801409C
:102EE00010B50248FFF708FB10BD0000C402002027
:102EF00010B500F073FC10BD10B500F06FFC10BDF4
:102F000010B50268204B98420ED0204B98420BD04F
:102F1000B0F1804F08D01E4B984205D01D4B98420F
:102F200002D01D4B984203D122F070024B681A4325
:102F3000154B98420ED0154B98420BD0B0F1804FF4
:102F400008D0134B984205D0124B984202D0124B36
:102F5000984203D122F44072CB681A4322F08003D6
:102F60004C6943EA040202608B68C3620B688362A7
:102F7000054B984202D0054B984201D10B6903637F
:102F80000123436110BD0000002C014000340140CA
:102F90000004004000080040000C004030B501F083
:102FA0001F05012404FA05F3046A9C430462046AC1
:102FB00001F01F0502FA05F52C43046230BD30B55F
:102FC0000C46816821F47F4142EA032525432943C9
:102FD000816030BD30B5056A25F001050562026AE1
:102FE0004368846924F0700424F003040D682C43C2
:102FF00022F002028D682A43104DA84200D103E05E
:103000000F4DA84206D100BF22F00802CD682A4326
:1030100022F00402094DA84202D0094DA84207D16E
:1030200023F4807323F400734D692B438D692B4384
:10303000436084614D684563026230BD002C0140ED
:103040000034014030B5056A25F010050562026ABA
:103050004368846924F4E04424F440740D6844EA2D
:10306000052422F020028D6842EA0512124DA84282
:1030700000D103E0114DA84207D100BF22F0800229
:10308000CD6842EA051222F040020B4DA84202D060
:103090000A4DA84209D123F4806323F400634D69EB
:1030A00043EA85038D6943EA8503436084614D6883
:1030B0008563026230BD0000002C014000340140F5
:1030C00030B5056A25F480750562026A4368C469F3
:1030D00024F0700424F003040D682C4322F40072E1
:1030E0008D6842EA0522124DA84200D103E0114D3D
:1030F000A84207D100BF22F40062CD6842EA05224F
:1031000022F480620A4DA84202D00A4DA84209D199
:1031100023F4805323F400534D6943EA05138D696A
:1031200043EA05134360C4614D68C563026230BD64
:10313000002C01400034014030B5056A25F480556B
:103140000562036A4468C26922F4E04222F44072D4
:103150000D6842EA052223F400538D6843EA0533E3
:10316000084DA84202D0084DA84204D124F480445E
:103170004D6944EA85144460C2614D680564036288
:1031800030BD0000002C0140003401402DE9F04129
:1031900005460C462868866826F070066068064377
:1031A00026F007062068064328688660606800F0FD
:1031B0000F0100293BD10011082838D2DFE800F0C8
:1031C000333435360B272D04D4E90313A26828685D
:1031D000FFF7F5FE2CE02068052802D10120BDE8AC
:1031E000F0812868D0F820802868006A20F001006B
:1031F000296808622868876927F0F007206947EA8C
:103200000017286887612868C0F8208010E02269CC
:10321000A168286800F00FF80AE02269A168286810
:1032200000F05AF804E000BF00BF00BF00E000BF9C
:1032300000BF0020D3E730B50B461446026A056A8A
:1032400025F001050562816921F0F00141EA0411D0
:1032500022F00A021A438161026230BD70B50C4649
:103260001546066A26F0010606628169026A154E55
:10327000B0420ED0144EB0420BD0B0F1804F08D007
:10328000124EB04205D0124EB04202D0114EB042A2
:1032900001D1012600E000261EB121F003012943DF
:1032A00001E041F0010121F0F001F02606EA0316E9
:1032B000314322F00A0204F00A06324381610262BD
:1032C00070BD0000002C01400034014000040040AB
:1032D00000080040000C004030B50B461446056A5B
:1032E00025F0100505628169026A21F4704141EA06
:1032F000043122F0A00242EA03128161026230BD71
:1033000070B50C461546066A26F0100606628169FD
:10331000026A21F4407141EA052121F470414FF421
:10332000704606EA0336314322F0A002A02606EAE0
:10333000041632438161026270BD70B50C461546B9
:10334000066A26F480760662C169026A21F00301EA
:10335000294321F0F001F02606EA0316314322F456
:1033600000724FF4007606EA04263243C16102621D
:1033700070BD70B50C461546066A26F48056066286
:10338000C169026A21F4407141EA052121F47041CA
:103390004FF4704606EA0336314322F400524FF4EC
:1033A000005606EA04363243C161026270BD70B550
:1033B00005466C6A0020E085E0842046FFF77AFB32
:1033C00070BD0168C96821F490710268D16001681C
:1033D000496921F0010102685161202180F83A1009
:1033E000704710B504462068C06820F0400021688E
:1033F000C860202084F839002046FFF721FD002016
:1034000010BD70B5044694F83A00222847D1A06850
:10341000B0F5805F0CD1206950B90025A66A2068FC
:103420004068C0F308003080A06A801CA06215E0EC
:10343000A56A0026A068B0F5805F03D0A06828B90F
:10344000206918B920684068287004E02068406846
:1034500000F07F002870A06A401CA062E08D401E32
:1034600080B2E085C8B92068C06820F020002168DB
:10347000C8602068C06820F480702168C860206837
:10348000406920F0010021684861202084F83A005A
:103490002046FFF787FC002070BD0020FCE70220DB
:1034A000FAE7000070B504462168096921F440512B
:1034B000E2681143226811612269A16811436269BF
:1034C00041EA02052168C96841F20C62914329432F
:1034D0002268D1602168496921F44071A2691143D1
:1034E000226851612D4A2168914202D1FEF77AFB90
:1034F00001E0FEF767FB00EBC00101EB0011626821
:103500009200B1FBF2F100EBC00202EB0012636823
:103510009B00B2FBF3F26423B2FBF3F202EBC203B3
:1035200003EB0212A1EB8201322202EB01116422B1
:10353000B1FBF2F101F0F00100EBC00202EB00126E
:1035400063689B00B2FBF3F26423B2FBF3F201EB7E
:10355000021200EBC00101EB001163689B00B1FB9C
:10356000F3F100EBC00303EB00136668B600B3FB96
:10357000F6F36426B3FBF6F303EBC30606EB031383
:10358000A1EB8301322303EB01116423B1FBF3F1BF
:1035900001F00F0111442268916070BD00380140B4
:1035A000014691F83900212828D18868B0F5805F5C
:1035B0000BD1086948B90A6A1088C0F308000B6883
:1035C0005860086A801C086205E00B6A581C086293
:1035D00018780B685860C88C401E80B2C88458B9EF
:1035E0000868C06820F080000B68D8600868C06870
:1035F00040F040000B68D860002070470220FCE7D4
:1036000010B50248FFF758FA10BD0000FC0000207A
:1036100000BFFEE7490050EAC12018BF04204A0D50
:1036200018BF40F0010040F2FF72B2EB515F08BFDB
:1036300040F00200012808BF0520704702480068DA
:10364000C0F30220704700000CED00E010B5002828
:1036500004DB0A07130E054A135406E00A07140E8A
:10366000034A00F00F031B1FD45410BD00E400E018
:1036700018ED00E030380A2801D201207047002000
:10368000704700BF7047000000B58FB000200B905E
:103690000C900D900E90142106A8FCF798FE0020C7
:1036A000029003900490059000BF00BF46488069D7
:1036B00040F40050444988610846806900F4005095
:1036C000019000BF00BF00BF00BF00BF0846806977
:1036D00040F0100088610846806900F010000190F9
:1036E00000BF00BF00BF00BF0846806940F0010076
:1036F00088610846806900F00100019000BF00BFAA
:1037000000BF3249486820F0060040F0E06040F019
:103710002000486000BF40200B9002200C900D90CC
:1037200003200E900BA92A48FDF720FF29482A49BB
:103730000860002048600021274881604FF6FF7133
:10374000C160FEF7D5FD04200690502007900020B0
:1037500008900A9006A92048FFF775F9002002900A
:1037600001200390002004900590002202A91A482D
:10377000FEF754FD022002900390042202A916488D
:10378000FEF74CFD032201212C20FEF7FCF82C2033
:10379000FEF7E9F8032201212E20FEF7F4F82E208F
:1037A000FEF7E1F80C480068C06840F001000A49E3
:1037B0000968C86000210848FEF710FE0421064889
:1037C000FEF70CFE0FB000BD0010024000000140EB
:1037D0000010014000340140EC01002010B56148A8
:1037E000007840B100206049088060490860604965
:1037F0000968486210BD5E480068006900F0010079
:1038000000283DD06FF00100594909680861584807
:1038100000680069C0F3400088BB0020554908706B
:103820005148008828B950480088401C4E490880FB
:1038300019E04D4800884FF6FF71884203D10020FF
:10384000494908800FE048480088B0F5004F04DB84
:103850004FF6FF704449088005E043480088400463
:10386000000C414908804048008841490968886245
:1038700000203F49096848623C490860BAE7FFE711
:103880003C48007868B93A480068006900F00200D6
:10389000022802D10120374908700020334908600E
:1038A000A8E730480078002857D1314800680069FF
:1038B00000F00200022850D104212D48FFF7AAF899
:1038C000401C2D49086000212948FFF7A3F8401C3F
:1038D0002A49086028480068096888423BD20120CC
:1038E000204908702148183000681F4908800846A0
:1038F000008848B920480068401C1F4908601F48DC
:103900000068401C1D49086000201A4908701748CB
:103910001038006820F0010014491039086014487C
:103920000068C06820F0020011490968C8601048AA
:103930000068C06820F004000D490968C8600C48A0
:103940000068C06820F0010009490968C8600020CB
:103950000649086001E000F013F800200349086000
:1039600000BF47E71C0000201E000020103401406B
:10397000EC0100202800002020000020240000206E
:1039800010B500F0C3F900201349087013490880EE
:10399000134909688862124909684862104800683A
:1039A000C06840F002000E490968C8600C48006811
:1039B000C06840F001000A490968C860084800680A
:1039C000006840F0010006490968086000200549C8
:1039D000086000F09DF910BD1C0000201E000020B2
:1039E000EC010020103401400149086070470000DC
:1039F0000400002010B504464FF47A7104FB01F076
:103A000000F002F810BD000070B5034600224FF030
:103A1000E02675690D4E366803FB06F44FF0E0268C
:103A2000B16910E04FF0E026B06988420BD08842BF
:103A300002D20E1A324402E02E1A0E4432440146DB
:103A4000A24200D300E0EDE700BF70BD04000020FB
:103A500000BF054A126802F04002002AF9D0C2B243
:103A6000014B1B1D1A6070470038014030B587B00C
:103A700004460D461C216846FCF7A9FC0E480F4978
:103A800008600846456000218160C460FEF77EFE44
:103A900060200090204604EBD07149100191022073
:103AA0000290042269460548FEF7F2FD042103480E
:103AB000FEF7FAFE07B030BD000400407C02002093
:103AC00000B585B000BF00BF1E48806940F0080007
:103AD0001C4988610846806900F00800009000BF1A
:103AE00000BF00BF00BF00BF0846806940F0400033
:103AF00088610846806900F04000009000BF00BF68
:103B000000BF202001900120029003900320049028
:103B100001A90D48FDF72AFD2020019001A90B48BD
:103B2000FDF724FD00BF012220210748FDF7C8FE54
:103B300000BF00BF012220210448FDF7C1FE00BFE5
:103B400005B000BD00100240000C0140001801400B
:103B500086B000200490FDF7CBFE4FF4E01000F09B
:103B6000D9F84820FFF740FF4FF4E13000F006F9A4
:103B7000FFF7A6FF47210920FFF778FFFFF784FD35
:103B800002203A49086070E00A20FFF733FF0498EA
:103B9000401CC0B204900498142866DB34480088A6
:103BA00000285AD033A0FCF743FB3348018833A0E8
:103BB000FCF73EFB3548016835A0FCF739FB384877
:103BC000016838A0FCF734FB2B48008800F008FBA4
:103BD0000022384BCDE9000100F002F90022364BFB
:103BE000CDE9020100F0A4F906460F462748006817
:103BF00000F0F6FA32463B46CDE9020100F004FB44
:103C0000804689462648006800F0EAFA32463B467C
:103C1000CDE9020100F0F8FA04460D4622462B4693
:103C20000020244900F084F90022244BCDE9020150
:103C300000F0EAFA82468B4642464B4620A0FCF74B
:103C4000F7FA22462B4624A0FCF7F2FA52465B46CE
:103C500027A0FCF7EDFAFFF793FE00BF20212A48CA
:103C6000FDF724FE00BF002004908DE738040040DB
:103C70001C0000200D0A00001E00002050574D209F
:103C800050534320203A25640D0A000020000020F4
:103C900050574D2048696768743A25640D0A000042
:103CA0002400002050574D204379636C653A256409
:103CB0000D0A00000000F03F0000524080842E41B9
:103CC00050574D2048696768742074696D653A25BE
:103CD0002E336675730D0A0050574D204379636C7F
:103CE000652074696D653A252E336675730D0A007B
:103CF00050574D204672657175656E6379203A257F
:103D00002E3366487A0D0A000018014072B67047DB
:103D100062B6704730B58FB005460124282105A84A
:103D2000FCF755FB14216846FCF751FB0120059078
:103D3000000406900020079002200C90C1030D9112
:103D40000E9505A8FDF7A8FF04460CB100BFFEE7DD
:103D50000F20009002200190002002904FF480601C
:103D600003900020049002216846FDF75FFE0446A0
:103D70000CB100BFFEE70FB030BD000010B5044627
:103D800009480A4908600846446000218160C16012
:103D9000016181610C214161FEF738FF0122044974
:103DA0000248FEF7C7FF10BD00380140FC000020AC
:103DB0000E00002010B500290AD00878002807D08E
:103DC00005487844FCF7F2FE002801D0002010BD21
:103DD0000248784410BD0000E6080000DE0800003C
:103DE00010B591EA030F48BF83F0004300F112833E
:103DF000841A71EB030C05D2121943EB0C03001B60
:103E000061EB0C01DFF824E14FEA1154A4EB135CE1
:103E10001EEA430F18BF9EEA445F73D023EA0E03E5
:103E2000DCF1200E21EA045143F4801332D322FA4C
:103E30000CFE10EB0E0023FA0CFE41EB0E01CCF150
:103E4000200E03FA0EFE10EB0E0051F10001B1F549
:103E5000801FCCF1200E32D201EB045112FA0EF287
:103E6000BDE8104058BF7047401C38BF5FEA4202AF
:103E700018BF7047002814BF20F0010041F1000175
:103E80004FEA410313F5001F38BF7047A1F1C0414D
:103E900000F0B2BA012A43EB0302ACF1200CDCF1D2
:103EA0001F0E32BF4FF0000E23FA0CF310EB03008D
:103EB00041EB0451B4EB115FD0D0A1EB045101F5FB
:103EC000801149085FEA300001EB04510ED350F134
:103ED000000038BF12FA0EFE08D1BDE81040C9E755
:103EE000401C38BF5FEA4202CAD1C3E7BDE81040B8
:103EF0004FEA410313F5001F38BF7047A1F1C041DD
:103F000000F07ABA9EEA445F08D011EA5E0FBDE87D
:103F1000104004BF01F0004100207047BDE8104090
:103F200070B500F01BFA00BF64FBBE3E0000E0FF6E
:103F30002DE9C04130B4DFF8A0C23CEA111418BF2B
:103F40003CEA131400F0EC8081EA03051CEA11142A
:103F500044EAD57418BF1CEA131500F0C780A4EB1F
:103F600005044FF0004545EAC12145EAC32341EA73
:103F7000505143EA525304F17F74994204F50034DE
:103F80004FEAC0204FEAC22208BF904200F09C8056
:103F90004FEA13650FF24016765D4FEA134506FBB4
:103FA00005F7C7F1807706FB07F74FEAD737A7FB7E
:103FB00003687642C8F58038A7FB06CE38BFA8F163
:103FC000010807FB08E64FF0000EA6FB028CE6FB9B
:103FD00003CEDCF1000CCEF1004E38BFAEF1010E85
:103FE000A6FB0C584FF000074FF00005E6FB0E87CC
:103FF000A1FB08C6A0FB07CE16EB0E0645F1000597
:10400000E1FB076515F1E04E7EBFA4F580345FEA61
:1040100046066D4116F1800745F100054FEA172766
:104020004FEA066647EA0567A6F1DE46B6F1805F0D
:104030004FEA15251FD9384624F0010C05EBC47151
:10404000BCF1FE6F01EB0C1102D8F0BCBDE80081A1
:1040500024425CBF01F5801E9EEAC47F02D4F0BCFE
:10406000BDE80081244238D4F0BCA1F1C041BDE8D4
:10407000004100F0C1B94FEAD22242EA43524FEA6E
:10408000D323A7FB02864FEAD02040EA415007FB2A
:1040900003661EEA0E0F4FEAD12105FB026658BFE8
:1040A000A6EB0056B6EB00564FEA520E4EEAC37E20
:1040B00018EB0E0E56EB530EBDD518EB02085E4101
:1040C0007F1C55F10005B6E74FF480154FF000074F
:1040D0004FF000064FF00008ADE7F0BC4FF00000D5
:1040E00001F1C04101F00041BDE8008111EA0C1F5F
:1040F0000CEA131500D00CE013EA0C1F00F0258029
:104100004FF00000F0BC81EA030101F00041BDE87E
:104110000081F0BCBDE8004181EA030100F06CB908
:10412000F0BCBDE8004170B500F018F9097EFC3E16
:1041300000F007B881EA03014FF0000001F00041F0
:10414000704781EA030100F057B9F0BCBDE80041B7
:104150004FF0000021497047FFFDFBF9F7F5F4F23D
:10416000F0EEEDEBE9E8E6E4E3E1E0DEDDDBDAD812
:10417000D7D5D4D3D1D0CFCDCCCBCAC8C7C6C5C470
:10418000C2C1C0BFBEBDBCBBBAB9B8B7B6B5B4B387
:10419000B2B1B0AFAEADACABAAA9A8A8A7A6A5A472
:1041A000A3A3A2A1A09F9F9E9D9C9C9B9A99999836
:1041B0009797969595949393929191908F8F8E8ED9
:1041C0008D8C8C8B8B8A8989888887878685858466
:1041D00084838382828181800000FF070000F87F52
:1041E000B0FA80F310FA03F10AD0C3F11D0303F50E
:1041F00080634FEA41504FEA035202EBD1217047EE
:104200004FF0000070470000DFF848C170B51CEAAD
:10421000111E1EBF1CEA13159EEA0C0F95EA0C0F27
:1042200000F06F8081EA030423EA4C134EEAD47E47
:1042300021EA4C1141F4801143F48013AE44A1FBF8
:10424000024CA0FB0365AEF17F7E361955EB0C05E1
:10425000A1FB034C4CF10003A0FB021C16EB0C0667
:10426000654153F10003094218BF46F0010613F4FB
:10427000007F0BD14FEA03314FEA0530340341EAA6
:10428000155140EA16506FF003020AE04FEAC321CD
:104290004FEAC520F40241EA555140EA56506FF00A
:1042A000020202EB2E4201EB025585EACE710AD0E2
:1042B0005FEA440C18BF24F0004450F1000041F1C3
:1042C000000120EAD47040F2FE7C624500D270BD4D
:1042D000A84214BF4FF080444FF04044002E08BF66
:1042E0000024BEF1806FA8BFA1F1C041BDE87040BD
:1042F00080F282804FF0000001F1C04101F00041E6
:1043000070479EEA0C0F0CEA131518BF95EA0C0FC4
:1043100006D04FF0000081EA030E0EF0004170BDA0
:1043200000F01CF88900013E00F007B800F009B861
:104330004FEA430C5FEA5C5C08D081EA030100F0BD
:104340005BB84FEA410C5FEA5C5CF6D14FF00000CD
:10435000014970470000FF070000F87F0EF1020ED0
:104360002EF0030E5EF8046B364205D4012A43EBAF
:10437000030515F5001F12D8012841EB010C1CF5AF
:10438000001F0CD80ED14FEAD17C15F5001F0CEBA5
:104390004C0C0CF1020C08BF4CEBD37C04E04FF04A
:1043A000080C01E04FEAD37C0CEB4C0526FA05F62D
:1043B00006F00706B6F1040C06D20EEB860CBDE83B
:1043C00070404CF0010C6047DFE80CF0090B020272
:1043D0004FF000414FF00000A1F5002170BD1946DB
:1043E0001046012851EB010418BFD4F5001484BF16
:1043F000002001F0004170BD0808A0F500114FEA4F
:104400003101704710B591EA030F48BF83F00043B4
:104410003FF5EEAC841A71EB030C07D212198CF045
:10442000004C43EB0C03001B61EB0C01DFF8A4E133
:104430004FEA1154A4EB135C1EEA430F18BF9EEA27
:10444000445F00F0B08023EA6E03524221EA045137
:10445000C3EB6E0338BF5B1EDCF1200E25D322FABE
:104460000CFE10EB0E0043FA0CFE41EB0E01CCF1FA
:10447000200E03FA0EFE10EB0E0051F10001CCF1FC
:10448000200E29D412FA0EF201EB0451BDE81040BF
:1044900058BF7047401C1CBFB2F1004F7047002846
:1044A0000CBF491C20F00100704712EB020E43EBD9
:1044B000030218BF4FF0010E4EEA4202ACF1200C8D
:1044C000DCF11E0E54D943FA0CFE10EB0E0051F134
:1044D000FF31CCF11E0ED5D50EF1010E12FA0EFEF3
:1044E000404141EB010101EB445C5FEA5C5C10D9A7
:1044F00010EBDE7001EB045138BFBEF1004FBDE898
:10450000104018BF704700280CBF491C20F0010064
:10451000704730D24FEAD42C11F5001124F4006416
:104520001BD0B1FA81F20B3AA41AA41ED2F12003D7
:10453000914030FA03F31943904001EBCC71002C09
:1045400001EB0451BDE81040A8BF704701F1C04124
:104550004FF0000001F000417047B0FA80F310FA0C
:1045600003F100D110BDE41A173C4805C90AE4E77D
:1045700001EB045110BD491001EB0451BDE810409E
:104580004FEA300002E04FF0000170474A0008BFD8
:104590000042F8D0B2F5001F28BF704701F000417B
:1045A0004FF0000070479EEA445F07D011EA5E0FAB
:1045B000BDE8104004BF002100207047BDE8104056
:1045C00070B5FFF7CBFE00BF40DFF63E83F0004141
:1045D000104670470000E0FFFCF756B800000000EE
:1045E00000000000010203040607080900000000A3
:1045F0000102030402400000000000A000000000CF
:1046000005400000000000C8000000000C40000051
:104610000000409C00000000194000000020BCBECB
:104620000000000034400000BFC91B8E00000004E1
:10463000B5400000504BCFD06607E2CF010000002C
:104640006C4100003E8251AADFEEA7340100000059
:10465000D9420000DCB5A0E23A301F97FFFFFFFF10
:10466000B4450000FD25A0C8E9A3C14FFFFFFFFF2F
:10467000FF3F00000000008000000000FF3F00003E
:104680000000008000000000C44600080000002078
:10469000340000006C010008F846000834000020D7
:1046A00084090000880100081C000000430000008D
:1046B000F8FFFFFF0C0000000E0000000F000000DC
:1046C0002E0000000024F4000000000000000000A4
:1046D00000000000000000001000000001000000C9
:1046E00000000000000000000000000000000000CA
:0846F0000000000000000000C2
:0400000508000131BD
:00000001FF
