:020000040800F2
:10000000F0B30020790200087F1C0008771C00086C
:100010007B1C000899070008451F0008000000002D
:10002000000000000000000000000000E1010008E6
:100030009D0700080000000025020008A91C000818
:10004000930200089302000893020008930200083C
:10005000930200089302000893020008930200082C
:10006000930200089302000893020008930200081C
:10007000930200089302000893020008930200080C
:1000800093020008930200089302000893020008FC
:1000900093020008930200089302000893020008EC
:1000A00093020008930200089302000893020008DC
:1000B00093020008930200089302000893020008CC
:1000C00093020008930200089302000893020008BC
:1000D00093020008211F0008930200089302000801
:1000E000930200089302000893020008930200089C
:1000F000930200089302000893020008930200088C
:10010000930200089302000893020008930200087B
:100110009302000893020008C11C00089302000823
:10012000930200089302000893020008930200085B
:1001300000F002F800F045F80AA090E8000C8244B4
:100140008344AAF10107DA4501D100F03AF8AFF291
:10015000090EBAE80F0013F0010F18BFFB1A43F0A5
:100160000103184764A9000084A90000103A24BFC5
:1001700078C878C1FAD8520724BF30C830C144BF0C
:1001800004680C607047000000230024002500264E
:10019000103A28BF78C1FBD8520728BF30C148BFEA
:1001A0000B607047642900F0F380782900F02C81FF
:1001B000732900F05182002070471FB51FBD10B594
:1001C00010BD00F0B7FA1146FFF7F7FF05F03EF853
:1001D00000F0D5FA03B4FFF7F2FF03BC01F0D0FE44
:1001E000224B19680868B0E8F00F80F30988BFF364
:1001F0006F8F4FF0000080F311884EF00D0E7047A6
:100200000000000006480068006880F3088862B6B5
:1002100061B6BFF34F8FBFF36F8F00DF00BF00BF2A
:1002200008ED00E0EFF30980BFF36F8F0F4B1A6802
:1002300020E9F00F106008B54FF0500080F31188EE
:10024000BFF34F8FBFF36F8F06F02AFB4FF0000014
:1002500080F31188BDE8084019680868B0E8F00F1D
:1002600080F30988BFF36F8F704700BF64000020E0
:10027000EFF30580704700000948804709480047B0
:10028000FEE7FEE7FEE7FEE7FEE7FEE7FEE7FEE746
:10029000FEE7FEE704480549054A064B70470000A3
:1002A000BD1C000831010008F0AD0020F0B30020B3
:1002B000F0AF0020F0AF0020704700000FB40449F9
:1002C00010B503AA029800F0CBF910BC5DF814FB3E
:1002D000280000202DE9F0410E460446002020624F
:1002E0002046E168884730B3252805D0D4E90121AC
:1002F0009047206A401CF2E7E168204600278847C3
:10030000050018D0A5F14100192802D820354FF476
:1003100000673246294620462760FFF743FF40B179
:10032000012804D0F61D26F007060836D8E7361D4A
:10033000D6E72846DAE7206ABDE8F08170B50C46BA
:100340000546012A05D02878800600D5EA690023F1
:1003500002E0012305E05B1C934202D2E05C00282E
:10036000F9D1A869E618C01AA861286A1844286259
:100370002846AFF3008004E0D5E9012114F8010B11
:100380009047B442F8D32846AFF3008070BD000018
:100390002DE9F0410646002410687529314616A55E
:1003A00010D0AFF30080002802DA404213A507E026
:1003B00031688A0701D512A502E0490704D511A5C5
:1003C000012401E0AFF3008000210A2206F1240796
:1003D00009E0B0FBF2FCB0FBF2F302FB1C00303092
:1003E00078541846491C0028F3D123462A46304643
:1003F000BDE8F04100F0ACB8000000002D000000A6
:100400002B0000002000000070B504460D46214678
:100410001068AFF300802188090502D50F4A7A449D
:1004200002E00E4A7A440E32002104F1240305E072
:1004300000F00F060009965D5E54491C0028F7D1B4
:1004400020780023000704D5702D02D009B10223C3
:1004500011322046BDE8704000F07AB87EA6000058
:10046000032A40F2308010F0030C00F0158011F8E0
:10047000013BBCF1020F624498BF11F801CB00F8B8
:10048000013B38BF11F8013BA2F1040298BF00F80C
:1004900001CB38BF00F8013B11F0030300F0F280FC
:1004A000083AC0F0088051F8043B083A51F804CBF0
:1004B000A0E80810F5E7121D5CBF51F8043B40F8B6
:1004C000043BAFF30080D20724BF11F8013B11F8C1
:1004D00001CB48BF11F8012B24BF00F8013B00F805
:1004E00001CB48BF00F8012B704702F0FF0343EA3D
:1004F000032242EA024200F0F9B84FF0000200B5D0
:10050000134694469646203922BFA0E80C50A0E836
:100510000C50B1F12001BFF4F7AF090728BFA0E8E4
:100520000C5048BF0CC05DF804EB890028BF40F8B0
:10053000042B08BF704748BF20F8022B11F0804FF2
:1005400018BF00F8012B704770477047704770471D
:100550002DE9F0470D4699469246044600F12408DD
:100560000168880604D5E06921F01001216000E0EF
:100570000120A84201DD471B00E00027A1697A198C
:1005800002EB0900081AA0612078C00602D42046B8
:10059000AFF30080002608E0D4E901211AF8060034
:1005A0009047206A401C761C20624E45F4DB207880
:1005B000C0060AD52046AFF3008006E0D4E9012149
:1005C00030209047206A401C2062381EA7F10107A6
:1005D000F4DC07E0D4E9012118F805009047206A0F
:1005E000401C2062281EA5F10105F3DC2046AFF374
:1005F00000802078000602D50220BDE8F0870120A7
:10060000FBE7000001694A1C02610878704700B5E9
:100610008FB0CDE901310021059105497944CDE93B
:10062000031011466846FFF755FE0FB000BD0000ED
:10063000E5FFFFFF10B5436913B1AFF3008001E0A0
:10064000FFF77CFE012010BD127800F124010A7032
:1006500000224A700122EDE711684FF0FF32E9E70E
:10066000074B70B50D467B44FFF7D1FF0446284683
:1006700000F05CF810B14FF0FF3070BD204670BD47
:10068000CB19000010B5203AC0F00B80B1E818502B
:10069000203AA0E81850B1E81850A0E81850BFF46C
:1006A000F5AF5FEA027C24BFB1E81850A0E818500B
:1006B00044BF18C918C0BDE810405FEA827C24BF5F
:1006C00051F8043B40F8043B08BF7047D20728BFED
:1006D00031F8023B48BF11F8012B28BF20F8023B3C
:1006E00048BF00F8012B70474FF000020429C0F00A
:1006F000128010F0030C3FF402AFCCF1040CBCF1FB
:10070000020F18BF00F8012BA8BF20F8022BA1EBA5
:100710000C01FFF7F4BE5FEAC17C24BF00F8012B97
:1007200000F8012B48BF00F8012B7047007B00F058
:1007300080007047754600F02BF8AE46050069460C
:10074000534620F00700854618B020B5FFF7A2FDFC
:10075000BDE820404FF000064FF000074FF00008C2
:100760004FF0000B21F00701AC46ACE8C009ACE843
:10077000C009ACE8C009ACE8C0098D46704710B5A7
:100780000446AFF300802046BDE81040FFF722BDCD
:10079000004870478CAD002000BFFEE770470000A6
:1007A00070B50446B3F5804F13D1D1E9000540EA96
:1007B00005108D6840EA05208D6928438D8940EA3F
:1007C000054054F82250064E3540284344F8220094
:1007D00003E06FF0704044F82200002070BD00007C
:1007E0000000F0CF70B50246086852F8200020F0F3
:1007F00001000E6842F826008868082801D14023CD
:1008000000E00023486818438E683043CE683043C8
:100810000E6930434E693043CE6930430E6A30432F
:100820004E6A30438E6A3043CE6A30430E6B40EAE4
:10083000060488690443486B0443074D45F480650A
:1008400045F4E025086852F82000A84320430E68CC
:1008500042F82600002070BD7FFB080010B503465B
:10086000D1E9000440EA04108C6840EA04208C8935
:1008700040EA0444088A401E44EA0054087D801E71
:1008800044EA00608C692043541C53F8244004F06F
:1008900040442043541C43F82400002010BD0000B5
:1008A00070B50446002594F82100022803D00420E6
:1008B000A0630125C1E02068006820F00E002168D7
:1008C00008602068006820F00100216808605C4929
:1008D0002068884252D95A4978392068884201D123
:1008E000012047E0564964392068884201D1102030
:1008F00040E0534950392068884201D1801539E0E1
:100900004F493C392068884201D1801432E04C497B
:1009100028392068884202D14FF480302AE04849C3
:1009200014392068884202D14FF4801022E04449F3
:100930002068884201D140041CE042492068884276
:1009400001D1012016E03F4914312068884201D1CD
:1009500010200FE03B4928312068884201D18015E2
:1009600008E038493C312068884201D1801401E018
:100970004FF480303349091F086051E0304978391D
:100980002068884201D1012047E02D496439206860
:10099000884201D1102040E029495039206888421E
:1009A00001D1801539E026493C392068884201D1BF
:1009B000801432E0224928392068884202D14FF45D
:1009C00080302AE01E4914392068884202D14FF451
:1009D000801022E01A492068884201D140041CE0BE
:1009E00018492068884201D1012016E015491431C8
:1009F0002068884201D110200FE012492831206878
:100A0000884201D1801508E00E493C3120688842B7
:100A100001D1801401E04FF48030094980394860E9
:100A2000012084F8210000BF002084F8200000BFCE
:100A3000606B10B12046616B8847284670BD00008E
:100A400080000240080402402DE9F84702460023D6
:100A50009C467BE14FF0010808FA03F4D1F80080CE
:100A600008EA0400A0427DD1DFF8F4A2D1F80480A6
:100A7000A8EB0A09D0453AD014DCB8F1030F50D0E6
:100A800009DCB8F1000F31D0B8F1010F1CD0B8F17A
:100A9000020F49D120E0B8F1110F18D0B8F1120FB0
:100AA00042D11EE0B9F5881F25D006DCB9F5803F9C
:100AB00020D0B9F5801F37D11AE0B9F5001F18D042
:100AC000B9F5041F30D117E0D1F80CC02DE0D1F8F2
:100AD0000C8008F1040C28E0D1F80C8008F1080C17
:100AE00023E0D1F80C8008F10C0C1EE000BF00BF21
:100AF00000BF00BF00BF00BFD1F80880B8F1000FF1
:100B000002D14FF0040C0BE0D1F80880B8F1010FCE
:100B100003D14FF0080C146102E04FF0080C54614F
:100B200003E04FF0000C00E000BF00BFFF2801D839
:100B3000904601E002F104084646FF2802D84FEA39
:100B4000830803E0A3F108084FEA88084746D6F86F
:100B500000804FF00F0909FA07F928EA09080CFA92
:100B600007F900E07AE048EA0908C6F80080D1F801
:100B7000048008F08058B8F1805F6FD100BFDFF8C3
:100B8000E481D8F8188048F00108DFF8D891C9F856
:100B90001880C846D8F8188008F00108CDF8008001
:100BA00000BF00BF4FEAB9384FEA930958F82950FF
:100BB0004FEA83784FEA18794FF00F0808FA09F8DE
:100BC00025EA0805DFF8A081424502D14FF0000870
:100BD00024E0DFF89881424502D14FF001081DE082
:100BE000DFF88C81424502D14FF0020816E0DFF8B1
:100BF0008481424502D14FF003080FE0DFF878818D
:100C0000424502D14FF0040808E0DFF87081424508
:100C100002D14FF0050801E04FF006084FEA837952
:100C20004FEA197908FA09F848EA0505DFF8508112
:100C30004FEA930948F82950D1F8048008F4803825
:100C4000B8F5803F0BD1DFF83C81D8F8008048EA46
:100C50000008DFF83091C9F800800AE075E0DFF89D
:100C60002481D8F8008028EA0008DFF81891C9F834
:100C70000080D1F8048008F40038B8F5003F0ED1A8
:100C8000DFF8008108F10408D8F8008048EA00087D
:100C9000DFF8F09009F10409C9F800800DE0DFF8F1
:100CA000E48008F10408D8F8008028EA0008DFF89A
:100CB000D49009F10409C9F80080D1F8048008F43F
:100CC0008018B8F5801F0ED1DFF8B88008F1080849
:100CD000D8F8008048EA0008DFF8A89009F1080970
:100CE000C9F800800DE0DFF89C8008F10808D8F80A
:100CF000008028EA0008DFF88C9009F10809C9F89B
:100D00000080D1F8048008F40018B8F5001F0ED157
:100D1000DFF8708008F10C08D8F8008048EA000875
:100D2000DFF8609009F10C09C9F800800DE0DFF8E8
:100D3000548008F10C08D8F8008028EA0008DFF891
:100D4000449009F10C09C9F800805B1CD1F80080BF
:100D500028FA03F8B8F1000F7FF47CAEBDE8F887FD
:100D6000000011100010024000080140000C01407A
:100D7000001001400014014000180140001C014017
:100D80000800014000040140024693680B400BB18B
:100D9000012000E00020704710B5C26821EA02037C
:100DA00002EA010443EA0443036110BD0AB1016190
:100DB00001E00B04036170470148006870470000C0
:100DC00030000020034800680349097808440149BD
:100DD00008607047300000203800002010B5084837
:100DE000006840F0100006490860032000F080F819
:100DF0000F2000F007F800F02BF8002010BD0000D5
:100E00000020024070B504460E4800784FF47A7115
:100E1000B1FBF0F00C490968B1FBF0F5284600F091
:100E200073FC08B1012070BD102C07D200222146AE
:100E3000501E00F01EF80548046001E00120F2E7B2
:100E40000020F0E7380000200000002034000020DF
:100E5000704701460846002809DB00F01F03012205
:100E60009A4043099B0003F1E023C3F8002100BF2F
:100E700070472DE9F05F80460D461646002701F0C9
:100E800063F8074639462A46334601F00700C0F1A9
:100E9000070ABAF1040F02D94FF0040A01E0C0F1C9
:100EA000070AD14600F1040ABAF1070F02D24FF047
:100EB000000A01E0A0F1030AD4464FF0010A0AFA41
:100EC00009FAAAF1010A0AEA020A0AFA0CFA4FF030
:100ED000010B0BFA0CFBABF1010B0BEA030B4AEA1B
:100EE0000B042146404601F037F8BDE8F09F0000B2
:100EF00000BF00F00702064B19684FF6FF031940C8
:100F0000044B0B4343EA0221014B196000BF7047B9
:100F10000CED00E00000FA0570B504460D460CB972
:100F2000012070BD5A48006800F00700A8420ED2A8
:100F30005748006820F007002843554908600846D4
:100F4000006800F00700A84201D00120E9E72078FE
:100F500000F0020002281DD1207800F004000428CF
:100F600005D14C48406840F4E0604A494860207828
:100F700000F00800082805D14648406840F4605059
:100F8000444948604348406820F0F000A1680843A5
:100F900040494860207800F0010078B3606801287B
:100FA00006D13C48006800F4003090B90120B8E751
:100FB0006068022806D13748006800F0007040B928
:100FC0000120AEE73348006800F0020008B90120B4
:100FD000A7E73048406820F00300616808432D49C6
:100FE0004860FFF7E9FE064609E0FFF7E5FE801BD3
:100FF00041F28831884202D9032092E707E0254870
:10100000406800F00C006168B0EB810FEDD1204822
:10101000006800F00700A8420ED91D48006820F0C3
:10102000070028431A4908600846006800F00700D6
:10103000A84201D0012074E7207800F004000428C1
:1010400007D11448406820F4E060E1680843114982
:101050004860207800F00800082808D10D48406852
:1010600020F46050216940EAC1000A49486000F05C
:101070003FF808494968C1F30311074A515CC84069
:101080000649086006480068FFF7BCFE002048E7F4
:101090000020024000100240F07A0008000000200A
:1010A0003400002001480068704700000000002064
:1010B00000B5FFF7F7FF04494968C1F30221034A6D
:1010C000515CC84000BD000000100240007B0008D9
:1010D00000B5FFF7E7FF04494968C1F3C221034A9D
:1010E000515CC84000BD000000100240007B0008B9
:1010F000F0B585B00FF26C0C9CE8E01001A8A0E8F8
:10110000E0101CA52D68009500210022002300247A
:101110000020194D696801F00C05F5B1042D02D0CD
:10112000082D19D101E0154819E001ADC1F383463E
:10113000AC5D01F4803555B10F4D6D68C5F3404588
:101140001DF805200D4D6543B5FBF2F302E00C4D93
:1011500004FB05F3184602E000BF084800BF00BFCB
:1011600005B0F0BD02030405060708090A0B0C0DC3
:101170000E0F1010010200000010024000127A0051
:1011800000093D00F8B504460CB90120F8BD2078EF
:1011900000F00100002878D0F848406800F00C000A
:1011A00004280CD0F548406800F00C00082811D144
:1011B000F248406800F48030B0F5803F0AD1EF4833
:1011C000006800F4003000285FD0606800285CD11F
:1011D0000120DBE700BF6068B0F5803F06D1E7483B
:1011E000006840F48030E549086028E0606858B93C
:1011F000E248006820F48030E04908600846006852
:1012000020F4802008601AE06068B0F5A02F0BD1B0
:10121000DA48006840F48020D84908600846006831
:1012200040F4803008600AE0D448006820F4803040
:10123000D24908600846006820F48020086000BF9A
:10124000606888B1FFF7B8FD054606E0FFF7B4FD1A
:10125000401B642801D9032098E7C848006800F4BF
:1012600000300028F2D010E0FFF7A6FD054606E0AA
:10127000FFF7A2FD401B642801D9032086E7BF4881
:10128000006800F400300028F2D1207800F002005D
:10129000022857D1B948406800F00C0050B1B74857
:1012A000406800F00C00082818D1B448406800F4E9
:1012B000803098B9B148006800F0020020B1206980
:1012C000012801D0012061E7AC48006820F0F80057
:1012D000616940EAC100A949086033E02069E8B1CA
:1012E0000120A7490860FFF767FD054606E0FFF704
:1012F00063FD401B022801D9032047E79F4800688F
:1013000000F002000028F2D09C48006820F0F800AD
:10131000616940EAC1009949086013E000209849DA
:101320000860FFF749FD054606E0FFF745FD401B55
:10133000022801D9032029E79048006800F0020044
:101340000028F2D1207800F0080008282DD1A069EB
:10135000B8B101208B490860FFF72EFD054606E075
:10136000FFF72AFD401B022801D903200EE783481E
:10137000406A00F002000028F2D0012000F080FC5A
:1013800013E000207F490860FFF716FD054606E0E0
:10139000FFF712FD401B022801D90320F6E677482B
:1013A000406A00F002000028F2D1207800F004002A
:1013B000042873D100277148C06900F0805070B9CB
:1013C00000BF6E48C06940F080506C49C861084653
:1013D000C06900F08050009000BF00BF01276A483C
:1013E000006800F48070B0B96748006840F480700D
:1013F00065490860FFF7E0FC054606E0FFF7DCFC06
:10140000401B642801D90320C0E65F48006800F44F
:1014100080700028F2D000BFE068012806D157484C
:10142000006A40F001005549086227E0E06858B9B9
:101430005248006A20F00100504908620846006ADC
:1014400020F00400086219E0E06805280BD14B4841
:10145000006A40F00400494908620846006A40F00A
:10146000010008620AE04548006A20F00100434993
:1014700008620846006A20F00400086200BFE068C5
:10148000A0B1FFF799FC054609E0FFF795FC401B6A
:1014900041F28831884202D9032077E622E03748BA
:1014A000006A00F002000028EFD012E0FFF784FC91
:1014B000054608E0FFF780FC401B41F28831884276
:1014C00001D9032062E62D48006A00F002000028DE
:1014D000F0D1012F05D12948C06920F0805027495B
:1014E000C86100BFE069C8B32448406800F00C0040
:1014F000082860D0E069022848D100202049086609
:10150000FFF75AFC054606E0FFF756FC401B022891
:1015100001D903203AE61948006800F0007000285D
:10152000F2D1206AB0F5803F07D11448406820F41A
:101530000030A168084311494860D4E90801084314
:101540000E49496821F4741108430C494860012090
:101550000B490866FFF730FC054607E03DE0FFF762
:101560002BFC401B022801D903200FE6034800682A
:1015700000F000700028F2D02FE0000000100240C0
:1015800000004242800442420070004000201449A2
:101590000866FFF711FC054606E0FFF70DFC401B4F
:1015A000022801D90320F1E50E48006800F0007020
:1015B0000028F2D111E0E069012800D1E6E50948F0
:1015C000466806F48031206A814204D106F4701125
:1015D000606A814201D00120D8E50020D6E50000F4
:1015E000000042420010024070B504460E46154607
:1015F0001CB1A069B0F5807F01D1012070BD94F8C5
:10160000410028B9002084F84000204600F020F86E
:1016100004F108012068FFF7E5F83146A268206868
:10162000FFF71CF92946236BD4E90102FFF7B8F84C
:10163000A168206850F8210040F00100A2682168EC
:1016400041F82200012084F841000020D6E7000084
:1016500010B586B0044600BF1E48406940F4807053
:101660001C4948610846406900F48070019000BF41
:1016700000BF00BF0846806940F02000886108462E
:10168000806900F02000019000BF00BF00BF084645
:10169000806940F0400088610846806900F04000A1
:1016A000019000BF00BF4CF2037002900220039033
:1016B000012004900320059002A90748FFF7C4F910
:1016C0004FF68070029002A90448FFF7BDF906B0FA
:1016D00010BD00000010024000140140001801403D
:1016E000042808D14FF0E021096941F004014FF0CE
:1016F000E022116107E04FF0E021096921F00401C7
:101700004FF0E0221161704770B504462546681E0F
:10171000B0F1807F01D301200FE0681E4FF0E0217F
:1017200048610F214FF0FF3000F016FC00204FF011
:10173000E021886107200861002070BD7047704774
:10174000704710B5044620680069C0F34000D8B166
:101750002068C068C0F34000B0B16FF0020021689B
:101760000861012020772068806900F0030018B12B
:101770002046FFF7E5FF05E0204600F0ADF82046E3
:1017800000F0ABF80020207720680069C0F38000EB
:10179000D8B12068C068C0F38000B0B16FF0040019
:1017A00021680861022020772068806900F4407079
:1017B00018B12046FFF7C4FF05E0204600F08CF882
:1017C000204600F08AF80020207720680069C0F3E6
:1017D000C000D8B12068C068C0F3C000B0B16FF0DD
:1017E000080021680861042020772068C06900F0A3
:1017F000030018B12046FFF7A3FF05E0204600F0E4
:101800006BF8204600F069F8002020772068006916
:10181000C0F30010D8B12068C068C0F30010B0B1A8
:101820006FF0100021680861082020772068C069E7
:1018300000F4407018B12046FFF782FF05E0204613
:1018400000F04AF8204600F048F800202077206891
:10185000006900F0010058B12068C06800F0010084
:1018600030B16FF0010021680861204600F036F8C1
:1018700020680069C0F3C01058B12068C068C0F388
:10188000C01030B16FF08000216808612046FFF77A
:1018900055FF20680069C0F3801058B12068C06807
:1018A000C0F3801030B16FF040002168086120461D
:1018B00000F024F820680069C0F3401058B1206897
:1018C000C068C0F3401030B16FF02000216808619B
:1018D0002046FFF734FF10BD7047704710B504462F
:1018E0000448844205D100BF20210348FFF754FA81
:1018F00000BF10BD4402002000180140704770472F
:101900002DE9F0470446206805682068C66820680D
:1019100047694FF00008C14605F00F08B8F1000F05
:101920000AD105F0200038B106F0200020B1204691
:1019300000F0F8F9BDE8F087B8F1000F71D007F0BA
:10194000010018B906F4907000286AD005F0010073
:1019500030B106F4807018B1E06B40F00100E06334
:1019600005F0040030B107F0010018B1E06B40F061
:101970000200E06305F0020030B107F0010018B189
:10198000E06B40F00400E06305F0080048B106F0A9
:10199000200010B907F0010018B1E06B40F008001A
:1019A000E063E06B68B305F0200028B106F020008A
:1019B00010B1204600F0B6F920684069C0F38019E4
:1019C000E06B00F0080010B9B9F1000F22D02046FA
:1019D00000F088F92068406900F04000B0B120684C
:1019E000406920F0400021684861606B50B11848A0
:1019F000616B4863606BFEF753FF10B1606B416B26
:101A000088470CE02046FFF77AFF08E02046FFF702
:101A100076FF04E02046FFF772FF0020E06389E7CD
:101A2000FFE705F0800030B106F0800018B12046D5
:101A300000F046FA7EE705F0400030B106F04000C5
:101A400018B1204600F05EF974E700BF72E70000AD
:101A5000D11C000810B504460CB9012010BDA069C6
:101A600000B100E000BF94F8390028B9002084F8E4
:101A70003800204600F028F8242084F83900206837
:101A8000C06820F400502168C860204600F09AF930
:101A90002068006920F4904021680861206840694E
:101AA00020F02A00216848612068C06840F4005096
:101AB0002168C8600020E063202084F8390084F8A1
:101AC0003A000020CAE7000010B586B00446284955
:101AD000206888424AD100BF00BF2648806940F094
:101AE0000400244988610846806900F004000190E0
:101AF00000BF00BF00BF00BF00BF0846806940F0C4
:101B0000040088610846806900F00400019000BF6D
:101B100000BF00BF00BF00BF0846806940F480409E
:101B200088610846806900F48040019000BF00BFD2
:101B300000BF48150290022003900120049003206A
:101B4000059002A90C48FEF77FFF4FF480600290D9
:101B50000020039002A90848FEF776FF2520FFF732
:101B600078F9032211462520FFF783F906B010BD4E
:101B700000380140001002400008014010B5034643
:101B800093F83A0020282FD101B10AB9012010BDE5
:101B900000BF93F83800012801D10220F7E70120A7
:101BA00083F8380000BF99629A85DA850020D863EF
:101BB000222083F83A0000BF002083F8380000BFDD
:101BC0001868C06840F480701C68E060186840695C
:101BD00040F001001C6860611868C06840F0200097
:101BE0001C68E0600020D2E70220D0E71D4A0168AF
:101BF000914236D11C49098801F4004189BB1A4938
:101C0000098801F4804171B1184909780A2903D083
:101C10000021154A118024E01349098841F400414C
:101C2000114A11801DE0114909780D2906D10E498C
:101C3000098841F480410C4A118012E00B4909786F
:101C4000094A1288C2F30D02094B995406490988C2
:101C5000491C054A118011460988C72901DD002168
:101C600011807047003801402C0000202E00002019
:101C7000E4000020704700BFFEE700BFFEE77047AA
:101C800008B508490968C9084FF47A72B1FBF2F146
:101C90004143009100BF00BF00994A1E00920029F5
:101CA000F9D108BD0000002010B5FFF78BF805F052
:101CB00099FA012801D004F0F5FE10BD704700002C
:101CC00010B50248FFF73DFD10BD000044020020A2
:101CD00070B505466C6A0020E085E0842046FFF779
:101CE0000EFE70BD0168C96821F490710268D16070
:101CF0000168496921F0010102685161202180F8E1
:101D00003A10704710B504462068C06820F04000C3
:101D10002168C860202084F839002046FFF7AAFF18
:101D2000002010BD70B5044694F83A00222847D12F
:101D3000A068B0F5805F0CD1206950B90025A66A73
:101D400020684068C0F308003080A06A801CA06250
:101D500015E0A56A0026A068B0F5805F03D0A068F2
:101D600028B9206918B920684068287004E0206804
:101D7000406800F07F002870A06A401CA062E08DDF
:101D8000401E80B2E085C8B92068C06820F02000FD
:101D90002168C8602068C06820F480702168C8602D
:101DA0002068406920F0010021684861202084F803
:101DB0003A002046FFF71AFF002070BD0020FCE724
:101DC0000220FAE770B504462168096921F4405100
:101DD000E2681143226811612269A16811436269B6
:101DE00041EA02052168C96841F20C629143294326
:101DF0002268D1602168496921F44071A2691143C8
:101E0000226851612D4A2168914202D1FFF760F9A1
:101E100001E0FFF74DF900EBC00101EB0011626832
:101E20009200B1FBF2F100EBC00202EB001263681A
:101E30009B00B2FBF3F26423B2FBF3F202EBC203AA
:101E400003EB0212A1EB8201322202EB01116422A8
:101E5000B1FBF2F101F0F00100EBC00202EB001265
:101E600063689B00B2FBF3F26423B2FBF3F201EB75
:101E7000021200EBC00101EB001163689B00B1FB93
:101E8000F3F100EBC00303EB00136668B600B3FB8D
:101E9000F6F36426B3FBF6F303EBC30606EB03137A
:101EA000A1EB8301322303EB01116423B1FBF3F1B6
:101EB00001F00F0111442268916070BD00380140AB
:101EC000014691F83900212828D18868B0F5805F53
:101ED0000BD1086948B90A6A1088C0F308000B687A
:101EE0005860086A801C086205E00B6A581C08628A
:101EF00018780B685860C88C401E80B2C88458B9E6
:101F00000868C06820F080000B68D8600868C06866
:101F100040F040000B68D860002070470220FCE7CA
:101F200010B50648FFF7ECFC00BF01220449034846
:101F3000FFF724FE0028F8D110BD0000AC010020FE
:101F40002E00002000BFFEE702480068C0F3022018
:101F5000704700000CED00E010B5002804DB0A0714
:101F6000130E054A135406E00A07140E034A00F044
:101F70000F031B1FD45410BD00E400E018ED00E077
:101F800000BF704770B5044600204FF0E0210861A3
:101F9000FFF7A6FBE11704EB5171C1F3CF010C4A27
:101FA0001180E11704EB5171CD104FF47A70454365
:101FB0004FF0E020006940F002004FF0E02108619E
:101FC00008464561006940F00100086170BD0000ED
:101FD0002600002030B50446002504E04FF47A7056
:101FE00000F004F86D1CA542F8D330BD70B503466F
:101FF00000224FF0E02675690D4E368803FB06F48B
:102000004FF0E026B16910E04FF0E026B069884259
:102010000BD0884202D20E1A324402E02E1A0E442D
:1020200032440146A24200D300E0EDE700BF70BD9C
:102030002600002000BF054A126802F04002002A74
:10204000F9D0C2B2014B1B1D1A6070470038014025
:102050000EB54FF478401DA120221346CDE9002192
:102060000290DC220A21084603F01EF84FF4784063
:1020700018A118221346CDE900210290DC222F215D
:102080000A2003F011F84FF4784016A110221346ED
:10209000CDE900210290DC224C210A2003F004F853
:1020A00000204FF49D73EA227D210090052000F06E
:1020B000EFF91048012100238022CDE900100EA184
:1020C000104804F0F5FE04F081FB0EBD53544D336F
:1020D000320000004E6F74696679204D61696C4270
:1020E0006F78000041544F4D40414C49454E544596
:1020F0004B0000000400002073746172745F74610F
:10210000736B0000FD5F000800B585B000BF00BF25
:102110002848806940F04000264988610846806967
:1021200000F04000009000BF00BF00BF00BF00BF34
:102130000846806940F0400088610846806900F0E8
:102140004000009000BF00BF00BF00BF00BF0846B6
:10215000806940F0040088610846806900F004004E
:10216000009000BF00BF00BF10200190002002902F
:10217000012003900320049001A90F48FEF764FC9E
:102180000820019000200290012003900320049079
:1021900001A90948FEF758FC012001900020029097
:1021A000022003900320049001A90448FEF74CFC90
:1021B00005B000BD001002400018014000080140B9
:1021C00070B50446002514B1012022490870214849
:1021D000007848B310212048FEF7D6FD50B1082101
:1021E0001D48FEF7D1FD28B101211C48FEF7CCFDAA
:1021F000012819D10A20FFF7EDFE002015490870CB
:1022000010211548FEF7C0FD00B90125082112482C
:10221000FEF7BAFD00B9022501211048FEF7B4FD12
:10222000012815D1032513E010210B48FEF7ACFD62
:1022300001280DD108210848FEF7A6FD012807D185
:1022400001210648FEF7A0FD10B9012001490870E0
:10225000284670BD440000200018014000080140DD
:1022600070B504460026094805884088454300218A
:10227000084602F0E9FD02F08FFF00BF02E00448CB
:102280000480761CAE42FAD370BD000034020020F8
:102290000008006C10B5044649488471002C45D1F3
:1022A000F020474908804FF4A07048800846808895
:1022B00045F21051884210D14FF430504049088106
:1022C0004FF4285048814FF42C5088814FF4F0701F
:1022D00008804FF4487048801AE03948808841F6F9
:1022E000631188420DD12C20354908812B2048816B
:1022F0002A2088814FF4F07008804FF4487048809D
:1023000006E02C202E4908812A2048812B20888134
:102310002B48808845F2103188424CD14FF4A07090
:10232000274908804FF4F070488044E04FF4A070D3
:1023300023490880F02048800846808845F21051E3
:10234000884210D14FF430501D4908814FF4285075
:1023500048814FF42C5088814FF4487008804FF426
:10236000F07048801AE01648808841F66311884270
:102370000DD12C20124908812A2048812B208881E8
:102380004FF4487008804FF4F070488006E02C202D
:102390000B4908812A2048812B20888108488088A1
:1023A00045F21031884206D14FF4F070044908809C
:1023B0004FF4A0704880002002F02EFC10BD0000F9
:1023C000340200202DE9FF4F84B081468A46002068
:1023D000029083460698A0EB09050798A0EB0A0631
:1023E000CDF80490CDF800A0002D01DD012705E017
:1023F0000DB9002702E04FF0FF376D42002E02DDDD
:102400004FF0010806E016B94FF0000802E04FF067
:10241000FF387642B54201DD2C4600E0344600200C
:1024200003901EE0009A91B2019A90B2119A00F0C6
:102430001FF8029828440290B3440298A04205DD98
:102440000298001B0290019838440190A34504DDD6
:10245000ABEB040B0098404400900398401C80B202
:102460000390611C03988842DCDD08B0BDE8F08F62
:1024700070B505460E4614463146284602F0E4FC87
:1024800002F08AFE01490C8070BD00000008006C5B
:102490002DE9F84105460E4617469846079C3346F7
:1024A0003A46314628460094FFF78CFF43462A46B9
:1024B000314628460094FFF785FF43463A46414699
:1024C00028460094FFF77EFF43463A463146384699
:1024D0000094FFF777FFBDE8F88110B5CF2002F038
:1024E0004FFE002002F040FEC12002F03DFE3020F1
:1024F00002F03AFEED2002F043FE642002F034FECA
:10250000032002F031FE122002F02EFE812002F0A4
:102510002BFEE82002F034FE852002F025FE10207C
:1025200002F022FE7A2002F01FFECB2002F028FEED
:10253000392002F019FE2C2002F016FE002002F0D5
:1025400013FE342002F010FE022002F00DFEF720F0
:1025500002F016FE202002F007FEEA2002F010FE34
:10256000002002F001FE002002F0FEFDC02002F07B
:1025700007FE1B2002F0F8FDC12002F001FE012041
:1025800002F0F2FDC52002F0FBFD302002F0ECFD70
:10259000302002F0E9FDC72002F0F2FDB72002F082
:1025A000E3FD362002F0ECFD482002F0DDFD3A208C
:1025B00002F0E6FD552002F0D7FDB12002F0E0FD6B
:1025C000002002F0D1FD1A2002F0CEFDB62002F06C
:1025D000D7FD0A2002F0C8FDA22002F0C5FDF220BE
:1025E00002F0CEFD002002F0BFFD262002F0C8FD63
:1025F000012002F0B9FDE02002F0C2FD0F2002F040
:10260000B3FD2A2002F0B0FD282002F0ADFD082025
:1026100002F0AAFD0E2002F0A7FD082002F0A4FDA2
:10262000542002F0A1FDA92002F09EFD432002F0FB
:102630009BFD0A2002F098FD0F2002F095FD00207E
:1026400002F092FD002002F08FFD002002F08CFDD0
:10265000002002F089FDE12002F092FD002002F04E
:1026600083FD152002F080FD172002F07DFD07207C
:1026700002F07AFD112002F077FD062002F074FDD1
:102680002B2002F071FD562002F06EFD3C2002F07E
:102690006BFD052002F068FD102002F065FD0F20A3
:1026A00002F062FD3F2002F05FFD3F2002F05CFD82
:1026B0000F2002F059FD2B2002F062FD002002F0F5
:1026C00053FD002002F050FD012002F04DFD3F209F
:1026D00002F04AFD2A2002F053FD002002F044FDE2
:1026E000002002F041FD002002F03EFDEF2002F04C
:1026F0003BFD112002F044FD7820FFF76BFC292000
:1027000002F03EFD10BD10B5ED2002F039FD0120B4
:1027100002F02AFDFE2002F027FDEE2002F030FD3F
:10272000DE2002F021FD212002F01EFDF12002F04A
:1027300027FD012002F018FDDF2002F021FD10200E
:1027400002F012FDC42002F01BFD8F2002F00CFDF0
:10275000C62002F015FD002002F006FDE22002F086
:1027600003FDE22002F000FDE22002F0FDFCBF20AC
:1027700002F006FDAA2002F0F7FCB02002F000FDF6
:102780000D2002F0F1FC002002F0EEFC0D2002F022
:10279000EBFC002002F0E8FC112002F0E5FC002038
:1027A00002F0E2FC192002F0DFFC002002F0DCFC69
:1027B000212002F0D9FC002002F0D6FC2D2002F0EE
:1027C000D3FC002002F0D0FC3D2002F0CDFC002024
:1027D00002F0CAFC5D2002F0C7FC002002F0C4FC3D
:1027E0005D2002F0C1FC002002F0BEFCB12002F02E
:1027F000C7FC802002F0B8FC002002F0B5FC8B2062
:1028000002F0B2FC002002F0AFFC962002F0ACFC1B
:10281000002002F0A9FCB22002F0B2FC002002F07D
:10282000A3FC002002F0A0FC022002F09DFC00208E
:1028300002F09AFC032002F097FC002002F094FCC6
:10284000B32002F09DFC002002F08EFC002002F07C
:102850008BFC002002F088FC002002F085FC0020A8
:1028600002F082FC002002F07FFC002002F07CFCE1
:10287000002002F079FC002002F076FC002002F03B
:1028800073FC002002F070FC002002F06DFC0020C0
:1028900002F06AFC002002F067FC002002F064FCF9
:1028A000002002F061FC002002F05EFC002002F03B
:1028B0005BFC002002F058FC002002F055FC0020D8
:1028C00002F052FC002002F04FFC002002F04CFC11
:1028D000002002F049FCB42002F052FC8B2002F0F0
:1028E00043FC002002F040FC962002F03DFC00205A
:1028F00002F03AFCA12002F037FC002002F034FC88
:10290000B52002F03DFC022002F02EFC002002F077
:102910002BFC032002F028FC002002F025FC042000
:1029200002F022FC002002F01FFCB62002F028FC7E
:10293000002002F019FC002002F016FCB72002F083
:102940001FFC002002F010FC002002F00DFC3F20D4
:1029500002F00AFC002002F007FC5E2002F004FCFA
:10296000002002F001FC642002F0FEFB002002F0D7
:10297000FBFB8C2002F0F8FB002002F0F5FBAC2002
:1029800002F0F2FB002002F0EFFBDC2002F0ECFB97
:10299000002002F0E9FB702002F0E6FB002002F0CC
:1029A000E3FB902002F0E0FB002002F0DDFBEB20D7
:1029B00002F0DAFB002002F0D7FBDC2002F0D4FBAF
:1029C000002002F0D1FBB82002F0DAFB002002F078
:1029D000CBFB002002F0C8FB002002F0C5FB00206A
:1029E00002F0C2FB002002F0BFFB002002F0BCFBA3
:1029F000002002F0B9FB002002F0B6FBBA2002F082
:102A0000BFFB242002F0B0FB002002F0ADFB002051
:102A100002F0AAFB002002F0A7FBC12002F0B0FBED
:102A2000202002F0A1FB002002F09EFB542002F0C7
:102A30009BFB002002F098FBFF2002F095FB00209A
:102A400002F092FBC22002F09BFB0A2002F08CFBFA
:102A5000002002F089FB042002F086FB002002F037
:102A600083FBC32002F08CFB3C2002F07DFB0020A6
:102A700002F07AFB3A2002F077FB002002F074FBB0
:102A8000392002F071FB002002F06EFB372002F0CB
:102A90006BFB002002F068FB3C2002F065FB00208D
:102AA00002F062FB362002F05FFB002002F05CFBCC
:102AB000322002F059FB002002F056FB2F2002F0DA
:102AC00053FB002002F050FB2C2002F04DFB0020B5
:102AD00002F04AFB292002F047FB002002F044FBF1
:102AE000262002F041FB002002F03EFB242002F0F1
:102AF0003BFB002002F038FB242002F035FB0020D5
:102B000002F032FB232002F02FFB002002F02CFB0E
:102B10003C2002F029FB002002F026FB362002F0C8
:102B200023FB002002F020FB322002F01DFB0020DE
:102B300002F01AFB2F2002F017FB002002F014FB1A
:102B40002C2002F011FB002002F00EFB292002F0E5
:102B50000BFB002002F008FB262002F005FB002002
:102B600002F002FB242002F0FFFA002002F0FCFA3F
:102B7000242002F0F9FA002002F0F6FA232002F0F5
:102B8000F3FA002002F0F0FAC42002F0F9FA622011
:102B900002F0EAFA002002F0E7FA052002F0E4FA77
:102BA000002002F0E1FA842002F0DEFA002002F0B8
:102BB000DBFAF02002F0D8FA002002F0D5FA182053
:102BC00002F0D2FA002002F0CFFAA42002F0CCFAF0
:102BD000002002F0C9FA182002F0C6FA002002F024
:102BE000C3FA502002F0C0FA002002F0BDFA0C2017
:102BF00002F0BAFA002002F0B7FA172002F0B4FA95
:102C0000002002F0B1FA952002F0AEFA002002F0A6
:102C1000ABFAF32002F0A8FA002002F0A5FAE620B1
:102C200002F0A2FA002002F09FFAC52002F0A8FAF2
:102C3000322002F099FA002002F096FA442002F0C5
:102C400093FA002002F090FA652002F08DFA00203D
:102C500002F08AFA762002F087FA002002F084FA65
:102C6000882002F081FA002002F07EFAC62002F0ED
:102C700087FA202002F078FA002002F075FA172077
:102C800002F072FA002002F06FFA012002F06CFAF2
:102C9000002002F069FAC72002F072FA002002F068
:102CA00063FA002002F060FA002002F05DFA0020D2
:102CB00002F05AFAC82002F063FA002002F054FA37
:102CC000002002F051FA002002F04EFA002002F03B
:102CD0004BFAC92002F054FA002002F045FA002015
:102CE00002F042FA002002F03FFA002002F03CFA23
:102CF000002002F039FA002002F036FA002002F03B
:102D000033FA002002F030FA002002F02DFA002001
:102D100002F02AFA002002F027FA002002F024FA3A
:102D2000002002F021FA002002F01EFA002002F03A
:102D30001BFA002002F018FAE02002F021FA162017
:102D400002F012FA002002F00FFA1C2002F00CFA36
:102D5000002002F009FA212002F006FA002002F019
:102D600003FA362002F000FA002002F0FDF94620B6
:102D700002F0FAF9002002F0F7F9522002F0F4F91B
:102D8000002002F0F1F9642002F0EEF9002002F0D8
:102D9000EBF97A2002F0E8F9002002F0E5F98B2047
:102DA00002F0E2F9002002F0DFF9992002F0DCF9EC
:102DB000002002F0D9F9A82002F0D6F9002002F094
:102DC000D3F9B92002F0D0F9002002F0CDF9C420E7
:102DD00002F0CAF9002002F0C7F9CA2002F0C4F9D3
:102DE000002002F0C1F9D22002F0BEF9002002F06A
:102DF000BBF9D92002F0B8F9002002F0B5F9E020C3
:102E000002F0B2F9002002F0AFF9F32002F0ACF9C1
:102E1000002002F0A9F9E12002F0B2F9162002F038
:102E2000A3F9002002F0A0F91C2002F09DF9002077
:102E300002F09AF9222002F097F9002002F094F9AA
:102E4000362002F091F9002002F08EF9452002F0C0
:102E50008BF9002002F088F9522002F085F9002059
:102E600002F082F9642002F07FF9002002F07CF980
:102E70007A2002F079F9002002F076F98B2002F036
:102E800073F9002002F070F9992002F06DF900202A
:102E900002F06AF9A82002F067F9002002F064F954
:102EA000B92002F061F9002002F05EF9C42002F0BE
:102EB0005BF9002002F058F9CA2002F055F9002011
:102EC00002F052F9D22002F04FF9002002F04CF942
:102ED000D82002F049F9002002F046F9E02002F083
:102EE00043F9002002F040F9F32002F03DF9002000
:102EF00002F03AF9E22002F043F9052002F034F939
:102F0000002002F031F90B2002F02EF9002002F02F
:102F10002BF91B2002F028F9002002F025F93420BB
:102F200002F022F9002002F01FF9442002F01CF9FF
:102F3000002002F019F94F2002F016F9002002F0EB
:102F400013F9612002F010F9002002F00DF9792048
:102F500002F00AF9002002F007F9882002F004F9D3
:102F6000002002F001F9972002F0FEF8002002F0A4
:102F7000FBF8A62002F0F8F8002002F0F5F8B720E0
:102F800002F0F2F8002002F0EFF8C22002F0ECF8B4
:102F9000002002F0E9F8C72002F0E6F8002002F075
:102FA000E3F8D12002F0E0F8002002F0DDF8D620AE
:102FB00002F0DAF8002002F0D7F8DD2002F0D4F8B1
:102FC000002002F0D1F8F32002F0CEF8002002F049
:102FD000CBF8E32002F0D4F8052002F0C5F8002079
:102FE00002F0C2F80A2002F0BFF8002002F0BCF89C
:102FF0001C2002F0B9F8002002F0B6F8332002F0ED
:10300000B3F8002002F0B0F8442002F0ADF8002040
:1030100002F0AAF8502002F0A7F8002002F0A4F86D
:10302000622002F0A1F8002002F09EF8782002F061
:103030009BF8002002F098F8882002F095F8002014
:1030400002F092F8972002F08FF8002002F08CF83E
:10305000A62002F089F8002002F086F8B72002F0DE
:1030600083F8002002F080F8C22002F07DF80020F2
:1030700002F07AF8C72002F077F8002002F074F826
:10308000D12002F071F8002002F06EF8D52002F095
:103090006BF8002002F068F8DD2002F065F80020EF
:1030A00002F062F8F32002F05FF8002002F05CF812
:1030B000E42002F065F8012002F056F8002002F04A
:1030C00053F8012002F050F8002002F04DF80220E1
:1030D00002F04AF8002002F047F82A2002F044F8F3
:1030E000002002F041F83C2002F03EF8002002F0FF
:1030F0003BF84B2002F038F8002002F035F85D2054
:1031000002F032F8002002F02FF8742002F02CF8C0
:10311000002002F029F8842002F026F8002002F0B6
:1031200023F8932002F020F8002002F01DF8A220DE
:1031300002F01AF8002002F017F8B32002F014F899
:10314000002002F011F8BE2002F00EF8002002F07C
:103150000BF8C42002F008F8002002F005F8CD209A
:1031600002F002F8002001F0FFFFD32001F0FCFF85
:10317000002001F0F9FFDD2001F0F6FF002001F052
:10318000F3FFF32001F0F0FF002001F0EDFFE52058
:1031900001F0F6FF002001F0E7FF002001F0E4FF5E
:1031A000002001F0E1FF002001F0DEFF022001F02D
:1031B000DBFF002001F0D8FF292001F0D5FF00201F
:1031C00001F0D2FF3C2001F0CFFF002001F0CCFF46
:1031D0004B2001F0C9FF002001F0C6FF5D2001F087
:1031E000C3FF002001F0C0FF742001F0BDFF0020EC
:1031F00001F0BAFF842001F0B7FF002001F0B4FF16
:10320000932001F0B1FF002001F0AEFFA22001F0F9
:10321000ABFF002001F0A8FFB32001F0A5FF0020C4
:1032200001F0A2FFBE2001F09FFF002001F09CFFF3
:10323000C42001F099FF002001F096FFCD2001F09D
:1032400093FF002001F090FFD32001F08DFF0020BC
:1032500001F08AFFDC2001F087FF002001F084FFED
:10326000F32001F081FF002001F07EFFE62001F055
:1032700087FF112001F078FF002001F075FF342056
:1032800001F072FF002001F06FFF562001F06CFF8B
:10329000002001F069FF762001F066FF002001F0B8
:1032A00063FF772001F060FF002001F05DFF6620E2
:1032B00001F05AFF002001F057FF882001F054FF71
:1032C000002001F051FF992001F04EFF002001F095
:1032D0004BFFBB2001F048FF002001F045FF992083
:1032E00001F042FF002001F03FFF662001F03CFFAB
:1032F000002001F039FF552001F036FF002001F0D9
:1033000033FF552001F030FF002001F02DFF452054
:1033100001F02AFF002001F027FF432001F024FFE5
:10332000002001F021FF442001F01EFF002001F0E9
:103330001BFFE72001F024FF322001F015FF0020E1
:1033400001F012FF552001F00FFF002001F00CFFEB
:10335000762001F009FF002001F006FF662001F051
:1033600003FF002001F000FF672001F0FDFE0020B8
:1033700001F0FAFE672001F0F7FE002001F0F4FEF4
:10338000872001F0F1FE002001F0EEFE992001F00F
:10339000EBFE002001F0E8FEBB2001F0E5FE00207E
:1033A00001F0E2FE992001F0DFFE002001F0DCFEDA
:1033B000772001F0D9FE002001F0D6FE442001F074
:1033C000D3FE002001F0D0FE562001F0CDFE0020FB
:1033D00001F0CAFE232001F0C7FE002001F0C4FE68
:1033E000332001F0C1FE002001F0BEFE452001F0B7
:1033F000BBFE002001F0B8FEE82001F0C1FE002075
:1034000001F0B2FE002001F0AFFE992001F0ACFE09
:10341000002001F0A9FE872001F0A6FE002001F0A7
:10342000A3FE882001F0A0FE002001F09DFE772081
:1034300001F09AFE002001F097FE662001F094FE54
:10344000002001F091FE882001F08EFE002001F0A6
:103450008BFEAA2001F088FE002001F085FEBB2033
:1034600001F082FE002001F07FFE992001F07CFE39
:10347000002001F079FE662001F076FE002001F0C8
:1034800073FE552001F070FE002001F06DFE552006
:1034900001F06AFE002001F067FE442001F064FEA6
:1034A000002001F061FE442001F05EFE002001F0EA
:1034B0005BFE552001F058FE002001F055FEE9208A
:1034C00001F05EFEAA2001F04FFE002001F04CFE4C
:1034D000002001F049FE002001F046FE002001F02E
:1034E0004FFEAA2001F040FECF2001F049FE00204F
:1034F00001F03AFE002001F037FE002001F034FE1A
:10350000002001F031FE002001F02EFE002001F02D
:103510002BFE002001F028FE002001F025FE0020F7
:1035200001F022FE002001F01FFE002001F01CFE31
:10353000002001F019FE002001F016FE002001F02D
:1035400013FE002001F010FE002001F00DFE00200F
:1035500001F00AFEF02001F013FE002001F004FE4D
:10356000502001F001FE002001F0FEFD002001F0DE
:10357000FBFD002001F0F8FDF32001F001FE00202A
:1035800001F0F2FDF92001F0FBFD062001F0ECFD59
:10359000102001F0E9FD292001F0E6FD002001F0F6
:1035A000E3FD3A2001F0ECFD552001F0DDFD112096
:1035B00001F0E6FD6420FEF70DFD292001F0E0FD9D
:1035C000352001F0DDFD002001F0CEFD512001F09D
:1035D000D7FDFF2001F0C8FD532001F0D1FD2C20C4
:1035E00001F0C2FD552001F0CBFD822001F0BCFDB1
:1035F0002C2001F0C5FD10BD10B555214FF47040D1
:1036000001F0D4FDAA214FF2010001F0CFFD5221BB
:103610004FF2020001F0CAFD08214FF2030001F051
:10362000C5FD01214FF2040001F0C0FD0D214FF452
:10363000304001F0BBFD0D214BF2010001F0B6FD61
:103640000D214BF2020001F0B1FD34214FF4364060
:1036500001F0ACFD34214BF2016001F0A7FD3421F3
:103660004BF2026001F0A2FD0D214FF4314001F058
:103670009DFD0D214BF2011001F098FD0D214BF243
:10368000021001F093FD34214FF4374001F08EFD1C
:1036900034214BF2017001F089FD34214BF20270AC
:1036A00001F084FD00214FF4324001F07FFD002144
:1036B0004BF2012001F07AFD00214BF2022001F0D3
:1036C00075FD24214FF4384001F070FD24214BF6A4
:1036D000010001F06BFD24214BF6020001F066FDB4
:1036E00001214FF43F4001F061FD0F214FF43340C1
:1036F00001F05CFD0F214BF2013001F057FD0F216D
:103700004BF2023001F052FD34214FF4394001F008
:103710004DFD34214BF6011001F048FD34214BF6EC
:10372000021001F043FD08214FF4354001F03EFD49
:1037300008214BF2015001F039FD08214BF20250F3
:1037400001F034FD03214FF4424001F02FFD24210C
:103750004FF43A4001F02AFD24214BF6012001F0FC
:1037600025FD24214BF6022001F020FD00214FF41D
:103770003C4001F01BFD78214BF6014001F016FDA5
:1037800000214BF6024001F011FD00214FF43D40B5
:1037900001F00CFD78214BF6015001F007FD0021EE
:1037A0004BF6025001F002FD00214FF43E4001F0C3
:1037B000FDFC64214BF6016001F0F8FC00214FF4A0
:1037C000514001F0F3FC33214DF2011001F0EEFC09
:1037D00000214DF2021001F0E9FC34214DF20310FA
:1037E00001F0E4FC00214DF2041001F0DFFC3A216D
:1037F0004DF2051001F0DAFC00214DF2061001F047
:10380000D5FC4A214DF2071001F0D0FC00214DF209
:10381000081001F0CBFC5C214DF2091001F0C6FC50
:1038200000214DF20A1001F0C1FC81214DF20B1074
:1038300001F0BCFC00214DF20C1001F0B7FCA621F8
:103840004DF20D1001F0B2FC00214DF20E1001F00E
:10385000ADFCE5214DF20F1001F0A8FC01214DF265
:10386000101001F0A3FC13214DF2111001F09EFC89
:1038700001214DF2121001F099FC54214DF2131068
:1038800001F094FC01214DF2141001F08FFC822113
:103890004DF2151001F08AFC01214DF2161001F0D5
:1038A00085FCCA214DF2171001F080FC02214DF277
:1038B000181001F07BFC00214DF2191001F076FC8C
:1038C00002214DF21A1001F071FC01214DF21B1082
:1038D00001F06CFC02214DF21C1001F067FC342158
:1038E0004DF21D1001F062FC02214DF21E1001F09C
:1038F0005DFC67214DF21F1001F058FC02214DF2D2
:10390000201001F053FC84214DF2211001F04EFCF7
:1039100002214DF2221001F049FCA4214DF22310A6
:1039200001F044FC02214DF2241001F03FFCB721CC
:103930004DF2251001F03AFC02214DF2261001F063
:1039400035FCCF214DF2271001F030FC02214DF261
:10395000281001F02BFCDE214DF2291001F026FC8D
:1039600002214DF22A1001F021FCF2214DF22B1020
:1039700001F01CFC02214DF22C1001F017FCFE217D
:103980004DF22D1001F012FC03214DF22E1001F02A
:103990000DFC10214DF22F1001F008FC03214DF217
:1039A000301001F003FC33214DF2311001F0FEFB29
:1039B00003214DF2321001F0F9FB6D214DF233106D
:1039C00001F0F4FB00214FF4524001F0EFFB3321F2
:1039D0004DF2012001F0EAFB00214DF2022001F03E
:1039E000E5FB34214DF2032001F0E0FB00214DF214
:1039F000042001F0DBFB3A214DF2052001F0D6FB5B
:103A000000214DF2062001F0D1FB4A214DF20720A2
:103A100001F0CCFB00214DF2082001F0C7FB5C2136
:103A20004DF2092001F0C2FB00214DF20A2001F005
:103A3000BDFB81214DF20B2001F0B8FB00214DF2BE
:103A40000C2001F0B3FBA6214DF20D2001F0AEFBDE
:103A500000214DF20E2001F0A9FBE5214DF20F20CF
:103A600001F0A4FB01214DF2102001F09FFB132176
:103A70004DF2112001F09AFB01214DF2122001F0CC
:103A800095FB54214DF2132001F090FB01214DF2E2
:103A9000142001F08BFB82214DF2152001F086FBF2
:103AA00001214DF2162001F081FBCA214DF21720B1
:103AB00001F07CFB02214DF2182001F077FB002180
:103AC0004DF2192001F072FB02214DF21A2001F093
:103AD0006DFB01214DF21B2001F068FB02214DF22C
:103AE0001C2001F063FB34214DF21D2001F05EFB30
:103AF00002214DF21E2001F059FB67214DF21F20DB
:103B000001F054FB02214DF2202001F04FFB8421F3
:103B10004DF2212001F04AFB02214DF2222001F05A
:103B200045FBA4214DF2232001F040FB02214DF280
:103B3000242001F03BFBB7214DF2252001F036FB9C
:103B400002214DF2262001F031FBCF214DF227203A
:103B500001F02CFB02214DF2282001F027FBDE2191
:103B60004DF2292001F022FB02214DF22A2001F022
:103B70001DFBF2214DF22B2001F018FB02214DF22A
:103B80002C2001F013FBFE214DF22D2001F00EFB45
:103B900003214DF22E2001F009FB10214DF22F20C0
:103BA00001F004FB03214DF2302001F0FFFA332134
:103BB0004DF2312001F0FAFA03214DF2322001F0EA
:103BC000F5FA6D214DF2332001F0F0FA00214FF4A7
:103BD000534001F0EBFA33214DF2013001F0E6FAE7
:103BE00000214DF2023001F0E1FA34214DF20330B0
:103BF00001F0DCFA00214DF2043001F0D7FA3A214D
:103C00004DF2053001F0D2FA00214DF2063001F0FC
:103C1000CDFA4A214DF2073001F0C8FA00214DF2E9
:103C2000083001F0C3FA5C214DF2093001F0BEFA10
:103C300000214DF20A3001F0B9FA81214DF20B302A
:103C400001F0B4FA00214DF20C3001F0AFFAA621D8
:103C50004DF20D3001F0AAFA00214DF20E3001F0C4
:103C6000A5FAE5214DF20F3001F0A0FA01214DF245
:103C7000103001F09BFA13214DF2113001F096FA49
:103C800001214DF2123001F091FA54214DF213301E
:103C900001F08CFA01214DF2143001F087FA8221F3
:103CA0004DF2153001F082FA01214DF2163001F08B
:103CB0007DFACA214DF2173001F078FA02214DF257
:103CC000183001F073FA00214DF2193001F06EFA4C
:103CD00002214DF21A3001F069FA01214DF21B3038
:103CE00001F064FA02214DF21C3001F05FFA342138
:103CF0004DF21D3001F05AFA02214DF21E3001F052
:103D000055FA67214DF21F3001F050FA02214DF2B1
:103D1000203001F04BFA84214DF2213001F046FAB7
:103D200002214DF2223001F041FAA4214DF223305C
:103D300001F03CFA02214DF2243001F037FAB721AC
:103D40004DF2253001F032FA02214DF2263001F019
:103D50002DFACF214DF2273001F028FA02214DF241
:103D6000283001F023FADE214DF2293001F01EFA4D
:103D700002214DF22A3001F019FAF2214DF22B30D6
:103D800001F014FA02214DF22C3001F00FFAFE215D
:103D90004DF22D3001F00AFA03214DF22E3001F0E0
:103DA00005FA10214DF22F3001F000FA03214DF2F7
:103DB000303001F0FBF933214DF2313001F0F6F9EA
:103DC00003214DF2323001F0F1F96D214DF2333023
:103DD00001F0ECF900214FF4544001F0E7F93321F0
:103DE0004DF2014001F0E2F900214DF2024001F0F4
:103DF000DDF934214DF2034001F0D8F900214DF2F4
:103E0000044001F0D3F93A214DF2054001F0CEF91A
:103E100000214DF2064001F0C9F94A214DF2074058
:103E200001F0C4F900214DF2084001F0BFF95C2116
:103E30004DF2094001F0BAF900214DF20A4001F0BB
:103E4000B5F981214DF20B4001F0B0F900214DF29E
:103E50000C4001F0ABF9A6214DF20D4001F0A6F99E
:103E600000214DF20E4001F0A1F9E5214DF20F4085
:103E700001F09CF901214DF2104001F097F9132156
:103E80004DF2114001F092F901214DF2124001F082
:103E90008DF954214DF2134001F088F901214DF2C2
:103EA000144001F083F982214DF2154001F07EF9B2
:103EB00001214DF2164001F079F9CA214DF2174067
:103EC00001F074F902214DF2184001F06FF9002160
:103ED0004DF2194001F06AF902214DF21A4001F049
:103EE00065F901214DF21B4001F060F902214DF20C
:103EF0001C4001F05BF934214DF21D4001F056F9F0
:103F000002214DF21E4001F051F967214DF21F4090
:103F100001F04CF902214DF2204001F047F98421D3
:103F20004DF2214001F042F902214DF2224001F010
:103F30003DF9A4214DF2234001F038F902214DF260
:103F4000244001F033F9B7214DF2254001F02EF95C
:103F500002214DF2264001F029F9CF214DF22740F0
:103F600001F024F902214DF2284001F01FF9DE2171
:103F70004DF2294001F01AF902214DF22A4001F0D8
:103F800015F9F2214DF22B4001F010F902214DF20A
:103F90002C4001F00BF9FE214DF22D4001F006F905
:103FA00003214DF22E4001F001F910214DF22F4076
:103FB00001F0FCF803214DF2304001F0F7F8332115
:103FC0004DF2314001F0F2F803214DF2324001F0A0
:103FD000EDF86D214DF2334001F0E8F800214FF487
:103FE000554001F0E3F833214DF2015001F0DEF8C5
:103FF00000214DF2025001F0D9F834214DF2035066
:1040000001F0D4F800214DF2045001F0CFF83A212C
:104010004DF2055001F0CAF800214DF2065001F0B2
:10402000C5F84A214DF2075001F0C0F800214DF2C9
:10403000085001F0BBF85C214DF2095001F0B6F8D0
:1040400000214DF20A5001F0B1F881214DF20B50E0
:1040500001F0ACF800214DF20C5001F0A7F8A621B8
:104060004DF20D5001F0A2F800214DF20E5001F07A
:104070009DF8E5214DF20F5001F098F801214DF225
:10408000105001F093F813214DF2115001F08EF809
:1040900001214DF2125001F089F854214DF21350D4
:1040A00001F084F801214DF2145001F07FF88221D3
:1040B0004DF2155001F07AF801214DF2165001F041
:1040C00075F8CA214DF2175001F070F802214DF237
:1040D000185001F06BF800214DF2195001F066F80C
:1040E00002214DF21A5001F061F801214DF21B50EE
:1040F00001F05CF802214DF21C5001F057F8342118
:104100004DF21D5001F052F802214DF21E5001F007
:104110004DF867214DF21F5001F048F802214DF291
:10412000205001F043F884214DF2215001F03EF877
:1041300002214DF2225001F039F8A4214DF2235012
:1041400001F034F802214DF2245001F02FF8B7218C
:104150004DF2255001F02AF802214DF2265001F0CF
:1041600025F8CF214DF2275001F020F802214DF221
:10417000285001F01BF8DE214DF2295001F016F80D
:1041800002214DF22A5001F011F8F2214DF22B508C
:1041900001F00CF802214DF22C5001F007F8FE213D
:1041A0004DF22D5001F002F803214DF22E5000F097
:1041B000FDFF10214DF22F5000F0F8FF03214DF2CA
:1041C000305000F0F3FF33214DF2315000F0EEFF9C
:1041D00003214DF2325000F0E9FF6D214DF23350D2
:1041E00000F0E4FF00214FF4564000F0DFFF3321E0
:1041F0004DF2016000F0DAFF00214DF2026000F0A4
:10420000D5FF34214DF2036000F0D0FF00214DF2C4
:10421000046000F0CBFF3A214DF2056000F0C6FFCC
:1042200000214DF2066000F0C1FF4A214DF2076007
:1042300000F0BCFF00214DF2086000F0B7FF5C21E8
:104240004DF2096000F0B2FF00214DF20A6000F06B
:10425000ADFF81214DF20B6000F0A8FF00214DF26F
:104260000C6000F0A3FFA6214DF20D6000F09EFF50
:1042700000214DF20E6000F099FFE5214DF20F6034
:1042800000F094FF01214DF2106000F08FFF132128
:104290004DF2116000F08AFF01214DF2126000F032
:1042A00085FF54214DF2136000F080FF01214DF293
:1042B000146000F07BFF82214DF2156000F076FF64
:1042C00001214DF2166000F071FFCA214DF2176016
:1042D00000F06CFF02214DF2186000F067FF002132
:1042E0004DF2196000F062FF02214DF21A6000F0F9
:1042F0005DFF01214DF21B6000F058FF02214DF2DD
:104300001C6000F053FF34214DF21D6000F04EFFA1
:1043100002214DF21E6000F049FF67214DF21F603F
:1043200000F044FF02214DF2206000F03FFF8421A5
:104330004DF2216000F03AFF02214DF2226000F0C0
:1043400035FFA4214DF2236000F030FF02214DF231
:10435000246000F02BFFB7214DF2256000F026FF0E
:1043600002214DF2266000F021FFCF214DF227609F
:1043700000F01CFF02214DF2286000F017FFDE2143
:104380004DF2296000F012FF02214DF22A6000F088
:104390000DFFF2214DF22B6000F008FF02214DF2DB
:1043A0002C6000F003FFFE214DF22D6000F0FEFEB8
:1043B00003214DF22E6000F0F9FE10214DF22F6026
:1043C00000F0F4FE03214DF2306000F0EFFE3321E7
:1043D0004DF2316000F0EAFE03214DF2326000F050
:1043E000E5FE6D214DF2336000F0E0FE55214FF403
:1043F000704000F0DBFEAA214FF2010000F0D6FE73
:1044000052214FF2020000F0D1FE08214FF20300CA
:1044100000F0CCFE00214FF2040000F0C7FECC21DA
:104420004FF4314000F0C2FE00214BF2011000F0C9
:10443000BDFE05214FF4364000F0B8FE70214FF468
:10444000374000F0B3FE70214BF2017000F0AEFE79
:1044500001214FF4384000F0A9FE03214BF6010082
:1044600000F0A4FE03214BF6020000F09FFE0321A2
:104470004BF6030000F09AFE02214FF43C4000F09E
:1044800095FE00214BF6014000F090FE00214BF616
:10449000024000F08BFED0214FF4494000F086FE30
:1044A00002214CF6011000F081FE50214CF6021062
:1044B00000F07CFE50214CF6031000F077FE5021F6
:1044C0004CF6041000F072FE00214FF4545000F03E
:1044D0006DFE55214FF4685000F068FE4FF488508F
:1044E00000F04EFE7820FDF781FD4FF4245000F0DF
:1044F00047FE10BD10B5E22000F042FE1D2000F086
:1045000033FE022000F030FE042000F02DFE642077
:10451000FDF76CFDE02000F033FE012000F024FEEA
:104520000A20FDF757FDE02000F02AFE032000F0EE
:104530001BFE0C20FDF74EFD012000F021FE0A209D
:10454000FDF748FDE62000F01BFE2F2000F00CFEDA
:10455000FF2000F009FEFF2000F006FEB02000F072
:104560000FFE202000F000FE002000F0FDFD0320E3
:1045700000F0FAFD40F21F3000F0F6FD012000F0DF
:10458000F3FD40F2DF1000F0EFFD002000F0ECFD45
:10459000B42000F0F5FD042000F0E6FD40F21F40DD
:1045A00000F0E2FD002000F0DFFD2E2000F0DCFD39
:1045B000002000F0D9FD002000F0D6FD002000F022
:1045C000D3FD002000F0D0FDB62000F0D9FD022080
:1045D00000F0CAFD4FF4037000F0C6FD002000F0AB
:1045E000C3FD172000F0C0FD152000F0BDFD002028
:1045F00000F0BAFD002000F0B7FDF02000F0C0FD93
:10460000032000F0B1FD292000F0BAFDD02000F019
:10461000B7FD002000F0A8FDBE2000F0B1FD052090
:1046200000F0A2FDFE2000F09FFD012000F09CFDA7
:10463000002000F099FD002000F096FD002000F021
:1046400093FDB82000F09CFD032000F08DFD0120BB
:1046500000F08AFDBA2000F093FD012000F084FDF7
:1046600010BD10B5112000F08BFD7820FDF7B2FCD5
:10467000362000F085FD002000F076FD3A2000F0A5
:104680007FFD052000F070FDB22000F079FD0C20C8
:1046900000F06AFD0C2000F067FD002000F064FDD2
:1046A000332000F061FD332000F05EFDB72000F004
:1046B00067FD352000F058FDBB2000F061FD322081
:1046C00000F052FDC02000F05BFD0C2000F04CFD1E
:1046D000C22000F055FD012000F046FDC32000F08F
:1046E0004FFD102000F040FDC42000F049FD2020C7
:1046F00000F03AFDC62000F043FD0F2000F034FD2D
:10470000D02000F03DFDA42000F02EFDA12000F0FF
:104710002BFDE02000F034FDD02000F025FD00202E
:1047200000F022FD022000F01FFD072000F01CFD1C
:104730000A2000F019FD282000F016FD322000F0BC
:1047400013FD442000F010FD422000F00DFD062076
:1047500000F00AFD0E2000F007FD122000F004FD1D
:10476000142000F001FD172000F0FEFCE12000F015
:1047700007FDD02000F0F8FC002000F0F5FC02203E
:1047800000F0F2FC072000F0EFFC0A2000F0ECFC47
:10479000282000F0E9FC312000F0E6FC542000F075
:1047A000E3FC472000F0E0FC0E2000F0DDFC1C20C4
:1047B00000F0DAFC172000F0D7FC1B2000F0D4FC3E
:1047C0001E2000F0D1FC2A2000F0DAFC002000F0CE
:1047D000CBFC002000F0C8FC002000F0C5FCEF205E
:1047E00000F0C2FC2B2000F0CBFC002000F0BCFC51
:1047F000002000F0B9FC012000F0B6FC3F2000F0E2
:10480000B3FC292000F0BCFC10BD00002DE9F04FE6
:1048100005460E4617469846DDF824A04FF0000BDB
:10482000781B401C1FFA80FB344613E021462846C3
:1048300000F00AFB00F0B0FC4FF0000906E0074969
:10484000A1F800A009F101001FFA80F9D945F6DBB3
:10485000601C84B24445E9DDBDE8F08F0008006CBF
:1048600000B593B000BF00BFDC48806940F48070A1
:10487000DA4988610846806900F48070009000BFC2
:1048800000BF00BF00BF00BF0846806940F02000A5
:1048900088610846806900F02000009000BF00BFDA
:1048A00000BF00BF00BF0846806940F0200088615B
:1048B0000846806900F02000009000BF00BF00BFE4
:1048C00000BF00BF0846806940F4807088610846D8
:1048D000806900F48070009000BF00BF00BF00BF7F
:1048E00000BF0846806940F008008861084680697A
:1048F00000F00800009000BF00BF00BF88140F90B8
:104900000220109001201190032012900FA9B448AA
:10491000FCF79AF820200F900FA9B248FCF794F802
:1049200010200F900FA9AF48FCF78EF801200F90D0
:104930000FA9AB48FCF788F801200F9010900FA941
:10494000A948FCF781F84FF02040A8490860A84822
:104950004860062088600021A448C16010214161A0
:1049600000218161C16141624FF480518162002167
:10497000C1624FF4804101630021416381630020E3
:10498000089009900F200A9000200E90019002904C
:10499000012003900020079001AA08A99348FCF782
:1049A00023FE3220FDF716FBD32000F0E9FB00F0D8
:1049B00029F99049888000F025F98E49888000F017
:1049C00021F98C498880084680884FF6FF7101EAFA
:1049D00000208849888000F015F9864989880843B5
:1049E000844988800846808849F2413188427DD0D8
:1049F000042000F0C5FB00F005F97E49888000F036
:104A000001F97C49888000F0FDF87A4988800846E1
:104A100080884FF6FF7101EA00207649888000F017
:104A2000F1F874498988084372498880084680886B
:104A300048F25251884203D147F289706D4988800B
:104A40006C48808847F289718842D0D0D42000F029
:104A500097FB00F0D7F86749888000F0D3F86549E4
:104A6000888000F0CFF863498880084680884FF638
:104A7000FF7101EA00205F49888000F0C3F85D49BA
:104A8000898808435B4988800846808845F2103150
:104A900088425FD055214FF4704000F087FBAA2177
:104AA0004FF2010000F082FB52214FF2020000F0B1
:104AB0007DFB08214FF2030000F078FB01214FF24B
:104AC000040000F073FB4FF4454000F059FB00F088
:104AD00099F848498880084680884FF6FF7101EAB6
:104AE0000020444988804CF2015000E032E000F0A0
:104AF00047FB00F087F83F49898808433D49888093
:104B00000846808845F21051884223D0A12000F049
:104B100037FB00F077F83749888000F073F83549A3
:104B20008880084680884FF6FF7101EA00203149ED
:104B3000888000F067F82F49898808432D498880CC
:104B40000846808845F26171884203D141F66310BE
:104B5000284988802748818827A0FBF7AFFB254894
:104B6000808847F28971884202D1FFF77AFD25E0FB
:104B70002048808849F24131884202D1FDF7ADFCDE
:104B80001CE01C48808845F21031884202D1FDF7B4
:104B9000BAFD13E01748808845F21051884202D1CF
:104BA000FEF72AFD0AE01348808841F66311884227
:104BB00004D1FFF79FFC642000F0ACFA0020FDF761
:104BC00069FB00BF012211460748FCF7EFF800BF60
:104BD0004FF6FF70FDF744FB13B000BD001002401C
:104BE0000020014000140140000C0140EC010020B5
:104BF000040100A0340200204C43442049443A25DB
:104C0000780D0A0008B5034800880090BDF8000040
:104C100008BD00000008006CF0B505460024002720
:104C200088488079012805D18648808841F663113B
:104C3000884208D183488079F0B98248808841F65B
:104C40006311884218D1082D15D2DFE805F004065B
:104C5000080A0C0E101206250DE007250BE00425AE
:104C600009E0052507E0012505E0002503E003250F
:104C700001E0022500BF00BF082D1CD2DFE805F0CF
:104C80000406090C0F12151800BF14E044F080044C
:104C900011E044F040040EE044F0C0040BE044F0A6
:104CA000200408E044F0600405E044F0A00402E0C1
:104CB00044F0E00400BF00BF36276248808845F218
:104CC0001051884200D13F025E48808849F241314C
:104CD000884205D05B48808847F28971884201D1BB
:104CE00044F008042146384600F060FA55488088B0
:104CF00041F6631188421DD004F0200068B151488C
:104D0000008850494988884214DA4E48068840880D
:104D10004C490880084646800CE04A4800884949CA
:104D20004988884206DD474806884088454908800A
:104D3000084646804348808845F21051884252D147
:104D40004049488900F01CFA002000F00DFA3D4966
:104D50004989491C88B200F013FA002000F004FAD7
:104D600038494989891C88B200F00AFA354909880E
:104D7000491EC1F30F2000F0F7F932494989C91CD7
:104D800088B200F0FDF92F490978491EC8B200F039
:104D9000EBF92C49888900F0F3F9002000F0E4F9E0
:104DA00028498989491C88B200F0EAF9002000F0FE
:104DB000DBF924498989891C88B200F0E1F921498D
:104DC0004988491EC1F30F2000F0CEF91D49898999
:104DD000C91C88B200F0D4F91A498978491EC8B2B2
:104DE00000F0C2F92DE01749488900F0C9F9002008
:104DF00000F0BAF9002000F0B7F912490988491EFD
:104E0000C1F30F2000F0B0F90E490978491EC8B26D
:104E100000F0AAF90B49888900F0B2F9002000F0EF
:104E2000A3F9002000F0A0F906494988491EC1F302
:104E30000F2000F099F903498978491EC8B200F0A3
:104E400093F9F0BD3402002010B502460C464548E7
:104E5000808841F66311884247D142488079A8B9D9
:104E600040480088401E801A82B23E49488900F0BE
:104E700087F9002000F078F9002000F075F9101291
:104E800000F072F9D0B200F06FF916E035494889A8
:104E900000F076F9101200F067F9D0B200F064F972
:104EA00030490988491EC1F30F2000F05DF92D49F2
:104EB0000978491EC8B200F057F92A49888900F0DC
:104EC0005FF9201200F050F9E0B200F04DF92549E9
:104ED0004988491EC1F30F2000F046F9214989781D
:104EE000491EC8B200F040F93AE01E48808845F2F9
:104EF0001051884220D11B49488900F041F9101215
:104F000000F032F917494989491C88B200F038F994
:104F1000D0B200F029F91349888900F031F9201244
:104F200000F022F90F498989491C88B200F028F95C
:104F3000E0B200F019F913E00A49488900F020F9BD
:104F4000101200F011F9D0B200F00EF9054988896D
:104F500000F016F9201200F007F9E0B200F004F9B1
:104F600010BD0000340200202DE9FC4F80460E46A3
:104F700015461C46B3460020019000902046E317DA
:104F800004EB5373DB1021464FEAE47C04EB5C7CBA
:104F90004FEAEC0CA4EBCC0CBCF1000F02D04FF0AC
:104FA000010C01E04FF0000C6344224604EBD27C7C
:104FB0004FEA6C0C03FB0CF3DBB20193A5F120006C
:104FC000C5B20C2C06D0102C0BD0182C0ED0202CD7
:104FD00018D112E005EB45002D4901EB800000904F
:104FE00012E02C4800EB051000900DE005EBC50029
:104FF000294901EB8000009006E0284800EB85106D
:10500000009001E0BDE8FC8F00BF00273AE0009867
:1050100010F807904FF0000A2EE009F0800028B148
:10502000314640460C9AFDF723FA07E00B9828B961
:105030001B48314602684046FDF71AFA4FEA4960BC
:105040004FEA1069701C86B216484088B04200DCF6
:10505000D8E7A6EB0B00A0420AD15E4608F101009A
:105060001FFA80F80F480088404500DCCAE706E0D8
:105070000AF1010000F0FF0ABAF1080FCDDB00BF12
:10508000781CC7B201988742C1DB00BFBAE70000B5
:10509000087B00087C7F00086C850008C892000827
:1050A00040000020340200202DE9FC4F04460D464C
:1050B00090469946DDE90C7A0B9E04F0FF0B08EB55
:1050C00004001FFA80F809EB05001FFA80F917E0C9
:1050D000444502DB5C46A81985B24D4500DB15E06E
:1050E0000020CDE9000A3A78334629462046FFF7EA
:1050F0003BFF304606EBD07104EB61018CB27F1CA4
:1051000038787E2802DC38782028E1DA00BFBDE854
:10511000FC8F00002DE9F0470446BE2000F030F877
:10512000052000F021F8204602F0D1FB07464FF0A1
:1051300066320C4B02F0DEFB054602F09BFB1FFAC9
:1051400080F9484600F010F8012000F00DF8FF202B
:1051500000F00AF8002000F007F8002000F004F842
:10516000BDE8F0876666044001B5BDF80000009018
:10517000BDF800000149088008BD00000008006C6F
:1051800001B5BDF800000090BDF80000014908809D
:1051900008BD0000FE07006C024800890249088033
:1051A0007047000034020020FE07006C024A1080A5
:1051B000921C118070470000FE07006C00B585B09E
:1051C00000BF00BF1E48806940F008001C4988618C
:1051D0000846806900F00800009000BF00BF00BFD3
:1051E00000BF00BF0846806940F040008861084663
:1051F000806900F04000009000BF00BF00BF202089
:1052000001900120029003900320049001A90D4811
:10521000FBF71AFC2020019001A90B48FBF714FCB6
:1052200000BF012220210748FBF7C0FD00BF00BFDF
:10523000012220210448FBF7B9FD00BF05B000BDE5
:1052400000100240000C01400018014010B5FBF7AF
:10525000C5FD4FF4E01000F003FF4820FCF792FE7C
:105260004FF4E13000F078FFFFF7A8FFFFF7F8FAFE
:10527000FCF74AFF002000F005F8FCF7E9FE0020EB
:1052800010BD000030B504460225084951F824102D
:1052900001FB05F2064951F82400002100F02AF82C
:1052A000012103480830015530BD000088AA0008DC
:1052B0005800002010B501460023002207E00B48EB
:1052C00050F8210030F8120000B15B1C521C084855
:1052D00050F821009042F2D84FF47A705843044CB1
:1052E00054F82140B0FBF4F080B210BD580000200B
:1052F00088AA000830B5034601E003F8011B141E1C
:10530000A2F10102F9D130BD2DE9F04105460E466A
:105310002948076800202949096881F85900274869
:105320000068001D00F034FF50B92448006890F870
:105330002C100120884022490968814320480160DF
:10534000681CD8B9D6B11F4948681C4909688860EB
:105350001A4982680968CA6018490968091D826883
:10536000516016490968091D8160164A1349096888
:105370004A6111460968491C11601AE07C190F48FE
:1053800000684460BC4207D20C480168091D0E4801
:10539000006800F021FF0CE008480168091D0B4877
:1053A000006800F019FF0A480068844201D20848EA
:1053B0000460BDE8F0810000780000206400002057
:1053C0007C000020508500206C0000206800002038
:1053D0009400002010B5044600F024FF3148006816
:1053E000401C304908603048006840B92E480460CD
:1053F0000846006801280DD100F016FA0AE02B4893
:10540000006838B928480068C06AE16A884201D853
:105410002548046026480068401C25490860084665
:105420000068606494F82C100120884021490968C4
:10543000084320490860E16A01EB81011E4A02EB42
:1054400081014868A0608268E260211D8268516025
:105450008160E16A01EB8101174A02EB810262611E
:10546000E16A01EB8101144A52F82110491CE26AF9
:1054700002EB8202104B43F8221000F01DFF0B4894
:10548000006868B108480068C06AE16A884207D2CB
:105490004FF0805009490860BFF34F8FBFF36F8F03
:1054A00010BD000074000020640000208000002077
:1054B000900000207C0000208082002004ED00E0AD
:1054C00010B500F0AFFE10480068D0B90F4800F0EA
:1054D00073FE0F4800F070FE0C480E4908600C483F
:1054E0000D49086000221021052001F0F5FA064957
:1054F00008600846006820B108A10348006800F071
:105500009BFF00F0D9FE10BDAC0000206485002098
:1055100078850020A4000020A8000020546D72515E
:105520000000000010B516E000F07CFE0C48C068DA
:10553000C468201D00F02CFE0A480068401E09497E
:10554000086009480068401E0749086000F0B4FE82
:10555000204600F05FF8044800680028E4D110BD40
:105560003C850020740000207000002070B50446C7
:105570000D46206C70B1216CE0680144E160D4E913
:105580000210884201D32168E1602846226CE1685C
:10559000FAF766FF70BD2DE9F04104460F46154647
:1055A0004FF00008A66B206C48B9206800282CD169
:1055B000A06801F021FF80460020A06025E07DB9B1
:1055C0003946226C6068FAF74BFF216C606808442A
:1055D0006060D4E90101884217D32068606014E05C
:1055E0003946226CE068FAF73BFF216CE068411A0B
:1055F000E1602168E068884203D2216CA068411A0A
:10560000E160022D01D106B1761E701CA0634046F8
:10561000BDE8F08110B50446206B00F08BFE2046FB
:1056200000F088FE10BD00000146084A12681268AA
:105630000AB9012200E000220A600A6822B9034A7E
:105640001268D268106800E000207047A4000020B3
:1056500030B54FF42053174800F007042CB1C01D9B
:1056600020F00700134C041B1B1B0246124C226047
:105670000024114D6C60D018083820F007000F4C42
:10568000206000240D4D2D686C600C4D2D682C6041
:105690001146441A4C60094C24680C60084D4C6853
:1056A0002C60084D4C682C604FF00044064D2C6077
:1056B00030BD00008C850020B8000020C000002014
:1056C000C8000020C4000020D400002000BFFFF765
:1056D00029FF064800680128F9D94FF08050044995
:1056E0000860BFF34F8FBFF36F8FF0E78082002019
:1056F00004ED00E02DE9F04106460D4617469846B8
:10570000069C0DB9246000E02760E6632564012152
:10571000204601F029FA84F850800020A064BDE8FA
:10572000F08100002DE9F05F82460F4690469B46CF
:105730000A9E0C9C4FEA8801A522206BFAF7D5FE41
:10574000A8F10100216B01EB800929F0070909F09C
:10575000070008B9012000E0002028B94FF4587272
:1057600024A12DA0FAF7AAFD87B1002507E0795DF5
:1057700004F134004155785D00B902E06D1C102D34
:10578000F5D300BF00214320015502E0002084F83A
:105790003400202E01D2012000E0002028B940F280
:1057A000973214A11CA0FAF789FD202E00D31F26E2
:1057B000E662E66400202065201D00F00AFD04F189
:1057C000180000F006FD2461C6F12000A0616462AB
:1057D0000020606584F8580084F859005A46514604
:1057E000484600F0F9FB20600B9808B10B98046064
:1057F000BDE8F09F2E2E5C2E2E5C4D6964646C65B6
:1058000077617265735C4672656552544F535C7480
:1058100061736B732E6300004572726F723A2025BC
:10582000732C2025640D0A0010B5002407E004EB5A
:1058300084010F4A02EB810000F0BEFC641C202CA6
:10584000F5D30C4800F0B8FC0B4800F0B5FC0B4851
:1058500000F0B2FC0A4800F0AFFC0A4800F0ACFCD3
:1058600004480949086004480849086010BD000060
:1058700080820020008500201485002028850020DB
:105880003C85002050850020680000206C0000202E
:1058900010B50146164800E0006803688B42FBD350
:1058A0000246436813448B4204D143684C68234446
:1058B000436001460A464B6813440468A34211D171
:1058C0000C4C03682468A34208D04B6804686468E1
:1058D00023444B6003681B680B6005E0054B1B68A5
:1058E0000B6001E003680B60884200D0016010BDCE
:1058F000B8000020C00000202DE9F04104460D460C
:1059000016461F464FF0000865602461B5420CD86A
:10591000F01BA169884202D34FF0010811E0211D5C
:105920000948006800F058FC0BE0BE4204D2BD42BA
:1059300002D34FF0010804E0211D0448006800F084
:105940004BFC4046BDE8F081A8000020A4000020E8
:1059500070B5054600F066FCA86B08B9012400E0AC
:10596000002400F0A9FC204670BD0000F1B50098AD
:10597000846C00262CB940F6D53220A128A0FAF775
:105980009DFCA06BE16B884201D2012000E0002069
:1059900028B940F6D63219A121A0FAF78FFCA06BE6
:1059A000E16B884227D294F945500022694620468F
:1059B000FFF7F1FD0646681C60B9606A08B901206E
:1059C00000E00020B0B904F1240001F09DFD88B191
:1059D00001260FE07F2D01D0012000E0002028B932
:1059E00040F6F63205A10EA0FAF768FC681C40B23A
:1059F00084F8450000BF3046F8BD00002E2E5C2E16
:105A00002E5C4D6964646C6577617265735C467287
:105A1000656552544F535C71756575652E63000062
:105A20004572726F723A2025732C2025640D0A008E
:105A300070B505460E460E480068C068C468201D53
:105A400000F0A6FB94F8280000F0040028B13246CC
:105A50002946204600F0FEF805E094F8280000F002
:105A6000FE0084F828002046216A884770BD0000A7
:105A7000A400002070B586B08AE0029800280CDAF5
:105A800003AE2EB940F2063247A150A0FAF716FC39
:105A9000D6E90020B168904700BF0298002877DB64
:105AA000049C606908B9012000E0002010B9201DA5
:105AB00000F06EFB01A800F0F9F8054602980A28EC
:105AC00064D2DFE800F06305072E365306082F374F
:105AD00000BF00BF00BF94F8280040F0010084F828
