:020000040800F2
:10000000900E0020DD010008E1010008E301000876
:10001000E5010008E7010008E90100080000000010
:10002000000000000000000000000000EB010008DC
:10003000ED01000800000000EF010008F1010008D8
:10004000F3010008F3010008F3010008F3010008C0
:10005000F3010008F3010008F3010008F3010008B0
:10006000F3010008F3010008F3010008F3010008A0
:10007000F3010008F3010008F3010008F301000890
:10008000F3010008F3010008F3010008F301000880
:10009000F3010008F3010008F3010008F301000870
:1000A000F3010008F3010008F3010008F301000860
:1000B000F3010008F3010008F3010008F301000850
:1000C000F3010008F3010008F3010008F301000840
:1000D000F3010008E5040008F3010008F30100083B
:1000E000F3010008F3010008F3010008F301000820
:1000F000F3010008F3010008F3010008F301000810
:10010000F3010008F3010008F3010008F3010008FF
:10011000F3010008F3010008F3010008F3010008EF
:10012000F3010008F3010008F3010008F3010008DF
:1001300000F002F800F042F80AA090E8000C8244B7
:100140008344AAF10107DA4501D100F037F8AFF294
:10015000090EBAE80F0013F0010F18BFFB1A43F0A5
:1001600001031847BC760000DC760000103A24BF7B
:1001700078C878C1FAD8520724BF30C830C144BF0C
:1001800004680C607047000000230024002500264E
:10019000103A28BF78C1FBD8520728BF30C148BFEA
:1001A0000B607047642900F07780782900F0B080F8
:1001B000002070471FB51FBD10B510BD00F060F9DD
:1001C0001146FFF7F7FF03F05BFD00F07EF903B483
:1001D000FFF7F2FF03BC00F0A3F900000848004756
:1001E000FEE7FEE7FEE7FEE7FEE7FEE7FEE7FEE7E7
:1001F000FEE7FEE703480449044A054B7047000048
:100200003101000890080020900E0020900A002084
:10021000900A0020704700000FB4044910B503AAEB
:10022000029800F0FFF810BC5DF814FB08000020F5
:100230002DE9F0410E460446002020622046E16888
:10024000884730B3252805D0D4E901219047206A9A
:10025000401CF2E7E168204600278847050018D0D7
:10026000A5F14100192802D820354FF40067324625
:10027000294620462760FFF795FF40B1012804D0AA
:10028000F61D26F007060836D8E7361DD6E72846BD
:10029000DAE7206ABDE8F0812DE9F0410646002446
:1002A00010687529314616A510D0AFF300800028DC
:1002B00002DA404213A507E031688A0701D512A58A
:1002C00002E0490704D511A5012401E0AFF3008045
:1002D00000210A2206F1240709E0B0FBF2FCB0FB82
:1002E000F2F302FB1C00303078541846491C0028F9
:1002F000F3D123462A463046BDE8F04100F038B835
:10030000000000002D0000002B0000002000000075
:1003100070B504460D4621461068AFF30080218871
:10032000090502D50F4A7A4402E00E4A7A440E3299
:10033000002104F1240305E000F00F060009965D9A
:100340005E54491C0028F7D120780023000704D50B
:10035000702D02D009B1022311322046BDE8704051
:1003600000F006B8CE7400007047704770477047C1
:100370002DE9F0470D4699469246044600F12408BF
:100380000168880604D5E06921F01001216000E0D1
:100390000120A84201DD471B00E00027A1697A196E
:1003A00002EB0900081AA0612078C00602D420469A
:1003B000AFF30080002608E0D4E901211AF8060016
:1003C0009047206A401C761C20624E45F4DB207862
:1003D000C0060AD52046AFF3008006E0D4E901212B
:1003E00030209047206A401C2062381EA7F1010788
:1003F000F4DC07E0D4E9012118F805009047206AF1
:10040000401C2062281EA5F10105F3DC2046AFF355
:1004100000802078000602D50220BDE8F087012088
:10042000FBE70000074B70B50D467B4400F011F868
:100430000446284600F020F810B14FF0FF3070BDA0
:10044000204670BD7F01000001694A1C02610878E6
:10045000704700B58FB0CDE9013100210591054904
:100460007944CDE9031011466846FFF7E1FE0FB06D
:1004700000BD0000E5FFFFFF007B00F0800070473B
:10048000754600F02BF8AE4605006946534620F04D
:100490000700854618B020B5FFF7ACFEBDE8204048
:1004A0004FF000064FF000074FF000084FF0000B30
:1004B00021F00701AC46ACE8C009ACE8C009ACE8E3
:1004C000C009ACE8C0098D46704710B50446AFF3CB
:1004D00000802046BDE81040FFF779BE0048704715
:1004E000300800200B49096801F0200189B1094951
:1004F000091D0968C8B208490968B1F55C4F08D2FE
:100500000649054A1268885403490968491C024A89
:1005100011607047003801401000002000100020DA
:1005200000BF70474FF0E021096941F004014FF02E
:10053000E0221161054908601146096941F0010195
:1005400011616FF07041516170470000040000209C
:1005500010B504464FF47A7104FB01F000F002F884
:1005600010BD000070B5034600224FF0E02675690B
:100570000D4E366803FB06F44FF0E026B16910E03B
:100580004FF0E026B06988420BD0884202D20E1AA2
:10059000324402E02E1A0E4432440146A24200D3F5
:1005A00000E0EDE700BF70BD0400002000BF054A79
:1005B000126802F04002002AF9D0C2B2014B1B1DA2
:1005C0001A6070470038014010B50446206807499A
:1005D0000840B0F1005F08D16068054908602068F4
:1005E00003F015FF02480068804710BD0000FE2F91
:1005F000000000202DE9F05F06460F4690460024DB
:10060000B3463D46A1461BE068784FEA002A2878A9
:1006100040EA0A0AAD1C2046611C8CB20D4921F843
:1006200010A0B4F5806F07D100244FF480625846C3
:1006300003F0A6FD0BF5006B09F102001FFA80F92B
:10064000C145E1D324B122460249584603F098FD42
:10065000BDE8F09F200000201CB500BF184880694D
:1006600040F040001649886100BF00BF084680691D
:1006700040F04000886100BF00BF0846806940F03C
:100680000400886100BF0120009000231A46102159
:1006900001900C4803F046FE0120009000231A460A
:1006A00008210190074803F03DFE022001210023AC
:1006B0001A46CDE90010044803F034FE1CBD0000CA
:1006C00000100240001801400008014070B50446C7
:1006D000002514B10120224908702148007848B350
:1006E0001021204803F00AFE50B108211D4803F0F4
:1006F00005FE28B101211C4803F000FE012819D194
:100700000A20FFF725FF0020154908701021154821
:1007100003F0F4FD00B901250821124803F0EEFDB5
:1007200000B902250121104803F0E8FD012815D188
:10073000032513E010210B4803F0E0FD01280DD143
:100740000821084803F0DAFD012807D101210648F5
:1007500003F0D4FD10B9012001490870284670BD8E
:100760001C000020001801400008014070B504463C
:10077000002609480588408845430021084603F0C3
:1007800091F803F037FA00BF02E004480480761CB9
:10079000AE42FAD370BD0000200800200008006CB3
:1007A00010B5044658488471002C58D1F0205649A1
:1007B00008804FF4A07048800846808845F21051A8
:1007C000884210D14FF430504F4908814FF42850DF
:1007D00048814FF42C5088814FF4F07008804FF41A
:1007E000487048801AE04848808841F66311884282
:1007F0000DD12C20444908812B2048812A20888152
:100800004FF4F07008804FF44870488006E02C20C8
:100810003D4908812A2048812B2088813A488088D8
:1008200045F21031884205D03748808847F29671EA
:10083000884206D14FF4A070334908804FF4F0701D
:1008400048803148808849F60601884258D14FF4E3
:10085000F0702D4908804FF44870488050E04FF404
:10086000A07029490880F02048800846808845F219
:100870001051884210D14FF43050234908814FF471
:10088000285048814FF42C5088814FF448700880DC
:100890004FF4F070488020E01B48808841F66311D7
:1008A000884205D01848808849F6060188420DD153
:1008B0002C20154908812A2048812B2088814FF45B
:1008C000487008804FF4F070488006E02C200E49F4
:1008D00008812A2048812B2088810B48808845F296
:1008E0001031884205D00848808847F296718842C6
:1008F00006D14FF4F070044908804FF4A07048808E
:10090000002002F0B1FE10BD2008002070B50546A1
:100910000E4614463146284602F0C4FF03F06AF939
:1009200001490C8070BD00000008006C10B5CF209C
:1009300003F054F9002003F045F9C12003F042F917
:10094000302003F03FF9ED2003F048F9642003F074
:1009500039F9032003F036F9122003F033F981202E
:1009600003F030F9E82003F039F9852003F02AF983
:10097000102003F027F97A2003F024F9CB2003F0AC
:100980002DF9392003F01EF92C2003F01BF900206B
:1009900003F018F9342003F015F9022003F012F9DE
:1009A000F72003F01BF9202003F00CF9EA2003F0F4
:1009B00015F9002003F006F9002003F003F9C02028
:1009C00003F00CF91B2003F0FDF8C12003F006F939
:1009D000012003F0F7F8C52003F000F9302003F000
:1009E000F1F8302003F0EEF8C72003F0F7F8B72055
:1009F00003F0E8F8362003F0F1F8482003F0E2F8BD
:100A00003A2003F0EBF8552003F0DCF8B12003F0B6
:100A1000E5F8002003F0D6F81A2003F0D3F8B6204A
:100A200003F0DCF80A2003F0CDF8A22003F0CAF8A6
:100A3000F22003F0D3F8002003F0C4F8262003F0DE
:100A4000CDF8012003F0BEF8E02003F0C7F80F2036
:100A500003F0B8F82A2003F0B5F8282003F0B2F824
:100A6000082003F0AFF80E2003F0ACF8082003F0E4
:100A7000A9F8542003F0A6F8A92003F0A3F8432016
:100A800003F0A0F80A2003F09DF80F2003F09AF875
:100A9000002003F097F8002003F094F8002003F002
:100AA00091F8002003F08EF8E12003F097F8002081
:100AB00003F088F8152003F085F8172003F082F87A
:100AC000072003F07FF8112003F07CF8062003F0E4
:100AD00079F82B2003F076F8562003F073F83C20C9
:100AE00003F070F8052003F06DF8102003F06AF8A9
:100AF0000F2003F067F83F2003F064F83F2003F075
:100B000061F80F2003F05EF82B2003F067F8002057
:100B100003F058F8002003F055F8012003F052F8D4
:100B20003F2003F04FF82A2003F058F8002003F08C
:100B300049F8002003F046F8002003F043F8EF20C6
:100B400003F040F8112003F049F87820FFF700FD8A
:100B5000292003F043F810BD10B5FF2003F03EF844
:100B6000FF2003F02FF8982003F02CF8062003F064
:100B700029F8BC2003F032F8012003F023F80F20FD
:100B800003F020F8612003F01DF8FF2003F01AF8AD
:100B9000012003F017F8012003F014F80B2003F0F4
:100BA00011F8102003F00EF8372003F00BF8632043
:100BB00003F008F8FF2003F005F8FF2003F002F827
:100BC000012002F0FFFF012002F0FCFF002002F0F4
:100BD000F9FF002002F0F6FFFF2002F0F3FF5220A1
:100BE00002F0F0FF012002F0EDFF002002F0EAFF2A
:100BF000402002F0E7FFBD2002F0F0FF012002F0EC
:100C0000E1FF232002F0DEFF452002F0DBFF67203A
:100C100002F0D8FF012002F0D5FF232002F0D2FF1E
:100C2000452002F0CFFF672002F0CCFFBE2002F08B
:100C3000D5FF002002F0C6FF012002F0C3FFAB2069
:100C400002F0C0FF602002F0BDFF222002F0BAFFD8
:100C5000222002F0B7FF222002F0B4FF222002F08F
:100C6000B1FF222002F0AEFFC72002F0B7FF36200E
:100C700002F0A8FFED2002F0B1FF7F2002F0A2FFFA
:100C80000F2002F09FFFC02002F0A8FF0F2002F00B
:100C900099FF0B2002F096FF0A2002F093FFFC2040
:100CA00002F09CFF082002F08DFFDF2002F096FF8B
:100CB000002002F087FF002002F084FF002002F0F5
:100CC00081FF002002F07EFF002002F07BFF202049
:100CD00002F078FFF32002F081FF742002F072FF2F
:100CE000B42002F07BFF002002F06CFF002002F035
:100CF00069FF002002F066FFF72002F06FFF8220FC
:100D000002F060FFB12002F069FF002002F05AFFFC
:100D1000132002F057FF132002F054FFF22002F0DC
:100D20005DFF802002F04EFF042002F04BFF4020C8
:100D300002F048FF282002F045FFC12002F04EFFDC
:100D4000172002F03FFF882002F03CFF882002F0CD
:100D500039FF202002F036FFE02002F03FFF0020A4
:100D600002F030FF0A2002F02DFF122002F02AFFCD
:100D7000102002F027FF0E2002F024FF202002F0B6
:100D800021FFCC2002F01EFF072002F01BFF0620EF
:100D900002F018FF0B2002F015FF0E2002F012FFE8
:100DA0000F2002F00FFF0D2002F00CFF152002F0C3
:100DB00009FF102002F006FF002002F003FFE120EF
:100DC00002F00CFF002002F0FDFE0B2002F0FAFE04
:100DD000132002F0F7FE0D2002F0F4FE0E2002F0C8
:100DE000F1FE1B2002F0EEFE712002F0EBFE062069
:100DF00002F0E8FE062002F0E5FE0A2002F0E2FE24
:100E00000F2002F0DFFE0E2002F0DCFE0F2002F0C9
:100E1000D9FE152002F0D6FE0C2002F0D3FE0020F1
:100E200002F0D0FE2A2002F0D9FE002002F0CAFE15
:100E3000002002F0C7FE012002F0C4FEDF2002F015
:100E4000C1FE2B2002F0CAFE002002F0BBFE0020F3
:100E500002F0B8FE032002F0B5FE1F2002F0B2FE41
:100E60003A2002F0BBFE552002F0ACFE362002F024
:100E7000B5FE002002F0A6FE112002F0AFFE7820A1
:100E8000FFF766FB292002F0A9FE1420FFF760FBA4
:100E90002C2002F0A3FE10BD10B5ED2002F09EFE46
:100EA000012002F08FFEFE2002F08CFEEE2002F008
:100EB00095FEDE2002F086FE212002F083FEF12066
:100EC00002F08CFE012002F07DFEDF2002F086FEA3
:100ED000102002F077FEC42002F080FE8F2002F086
:100EE00071FEC62002F07AFE002002F06BFEE220C6
:100EF00002F068FEE22002F065FEE22002F062FEEF
:100F0000BF2002F06BFEAA2002F05CFEB02002F0CF
:100F100065FE0D2002F056FE002002F053FE0D206B
:100F200002F050FE002002F04DFE112002F04AFEB9
:100F3000002002F047FE192002F044FE002002F0DB
:100F400041FE212002F03EFE002002F03BFE2D205B
:100F500002F038FE002002F035FE3D2002F032FEA5
:100F6000002002F02FFE5D2002F02CFE002002F097
:100F700029FE5D2002F026FE002002F023FEB120B3
:100F800002F02CFE802002F01DFE002002F01AFE6E
:100F90008B2002F017FE002002F014FE962002F0D3
:100FA00011FE002002F00EFEB22002F017FE00201B
:100FB00002F008FE002002F005FE022002F002FE10
:100FC000002002F0FFFD032002F0FCFD002002F0F3
:100FD000F9FDB32002F002FE002002F0F3FD002034
:100FE00002F0F0FD002002F0EDFD002002F0EAFD2D
:100FF000002002F0E7FD002002F0E4FD002002F0F6
:10100000E1FD002002F0DEFD002002F0DBFD00200B
:1010100002F0D8FD002002F0D5FD002002F0D2FD44
:10102000002002F0CFFD002002F0CCFD002002F0F5
:10103000C9FD002002F0C6FD002002F0C3FD002023
:1010400002F0C0FD002002F0BDFD002002F0BAFD5C
:10105000002002F0B7FD002002F0B4FD002002F0F5
:10106000B1FD002002F0AEFDB42002F0B7FD8B20F0
:1010700002F0A8FD002002F0A5FD962002F0A2FDDE
:10108000002002F09FFDA12002F09CFD002002F054
:1010900099FDB52002F0A2FD022002F093FD002090
:1010A00002F090FD032002F08DFD002002F08AFD89
:1010B000042002F087FD002002F084FDB62002F03B
:1010C0008DFD002002F07EFD002002F07BFDB720A8
:1010D00002F084FD002002F075FD002002F072FD98
:1010E0003F2002F06FFD002002F06CFD5E2002F058
:1010F00069FD002002F066FD642002F063FD00201F
:1011000002F060FD8C2002F05DFD002002F05AFD2F
:10111000AC2002F057FD002002F054FDDC2002F06C
:1011200051FD002002F04EFD702002F04BFD00202A
:1011300002F048FD902002F045FD002002F042FD43
:10114000EB2002F03FFD002002F03CFDDC2002F02D
:1011500039FD002002F036FDB82002F03FFD0020EE
:1011600002F030FD002002F02DFD002002F02AFDEB
:10117000002002F027FD002002F024FD002002F0F4
:1011800021FD002002F01EFD002002F01BFDBA2010
:1011900002F024FD242002F015FD002002F012FDD3
:1011A000002002F00FFD002002F00CFDC12002F033
:1011B00015FD202002F006FD002002F003FD542062
:1011C00002F000FD002002F0FDFCFF2002F0FAFC1E
:1011D000002002F0F7FCC22002F000FD0A2002F01D
:1011E000F1FC002002F0EEFC042002F0EBFC0020F9
:1011F00002F0E8FCC32002F0F1FC3C2002F0E2FC2B
:10120000002002F0DFFC3A2002F0DCFC002002F0BB
:10121000D9FC392002F0D6FC002002F0D3FC3720A4
:1012200002F0D0FC002002F0CDFC3C2002F0CAFC11
:10123000002002F0C7FC362002F0C4FC002002F0BF
:10124000C1FC322002F0BEFC002002F0BBFC2F20CB
:1012500002F0B8FC002002F0B5FC2C2002F0B2FC39
:10126000002002F0AFFC292002F0ACFC002002F0CC
:10127000A9FC262002F0A6FC002002F0A3FC2420FA
:1012800002F0A0FC002002F09DFC242002F09AFC59
:10129000002002F097FC232002F094FC002002F0D2
:1012A00091FC3C2002F08EFC002002F08BFC3620EA
:1012B00002F088FC002002F085FC322002F082FC63
:1012C000002002F07FFC2F2002F07CFC002002F0C6
:1012D00079FC2C2002F076FC002002F073FC29201F
:1012E00002F070FC002002F06DFC262002F06AFC87
:1012F000002002F067FC242002F064FC002002F0D1
:1013000061FC242002F05EFC002002F05BFC232044
:1013100002F058FC002002F055FCC42002F05EFCF4
:10132000622002F04FFC002002F04CFC052002F08D
:1013300049FC002002F046FC842002F043FC00201F
:1013400002F040FCF02002F03DFC002002F03AFCEC
:10135000182002F037FC002002F034FCA42002F038
:1013600031FC002002F02EFC182002F02BFC0020A3
:1013700002F028FC502002F025FC002002F022FCA4
:101380000C2002F01FFC002002F01CFC172002F0D1
:1013900019FC002002F016FC952002F013FC00203E
:1013A00002F010FCF32002F00DFC002002F00AFC19
:1013B000E62002F007FC002002F004FCC52002F049
:1013C0000DFC322002F0FEFB002002F0FBFB44206B
:1013D00002F0F8FB002002F0F5FB652002F0F2FBC2
:1013E000002002F0EFFB762002F0ECFB002002F080
:1013F000E9FB882002F0E6FB002002F0E3FBC620B8
:1014000002F0ECFB202002F0DDFB002002F0DAFB12
:10141000172002F0D7FB002002F0D4FB012002F0DD
:10142000D1FB002002F0CEFBC72002F0D7FB00204A
:1014300002F0C8FB002002F0C5FB002002F0C2FB56
:10144000002002F0BFFBC82002F0C8FB002002F021
:10145000B9FB002002F0B6FB002002F0B3FB002035
:1014600002F0B0FBC92002F0B9FB002002F0AAFB99
:10147000002002F0A7FB002002F0A4FB002002F0F5
:10148000A1FB002002F09EFB002002F09BFB00204D
:1014900002F098FB002002F095FB002002F092FB86
:1014A000002002F08FFB002002F08CFB002002F0F5
:1014B00089FB002002F086FB002002F083FB002065
:1014C00002F080FB002002F07DFBE02002F086FBB2
:1014D000162002F077FB002002F074FB1C2002F0C3
:1014E00071FB002002F06EFB212002F06BFB00205C
:1014F00002F068FB362002F065FB002002F062FB80
:10150000462002F05FFB002002F05CFB522002F05C
:1015100059FB002002F056FB642002F053FB002030
:1015200002F050FB7A2002F04DFB002002F04AFB53
:101530008B2002F047FB002002F044FB992002F0D0
:1015400041FB002002F03EFBA82002F03BFB002004
:1015500002F038FBB92002F035FB002002F032FB2C
:10156000C42002F02FFB002002F02CFBCA2002F066
:1015700029FB002002F026FBD22002F023FB0020F2
:1015800002F020FBD92002F01DFB002002F01AFB24
:10159000E02002F017FB002002F014FBF32002F021
:1015A00011FB002002F00EFBE12002F017FB1620D9
:1015B00002F008FB002002F005FB1C2002F002FBF9
:1015C000002002F0FFFA222002F0FCFA002002F0D4
:1015D000F9FA362002F0F6FA002002F0F3FA45207C
:1015E00002F0F0FA002002F0EDFA522002F0EAFADE
:1015F000002002F0E7FA642002F0E4FA002002F092
:10160000E1FA7A2002F0DEFA002002F0DBFA8B2009
:1016100002F0D8FA002002F0D5FA992002F0D2FAAE
:10162000002002F0CFFAA82002F0CCFA002002F04D
:10163000C9FAB92002F0C6FA002002F0C3FAC420A9
:1016400002F0C0FA002002F0BDFACA2002F0BAFA95
:10165000002002F0B7FAD22002F0B4FA002002F023
:10166000B1FAD82002F0AEFA002002F0ABFAE02086
:1016700002F0A8FA002002F0A5FAF32002F0A2FA84
:10168000002002F09FFAE22002F0A8FA052002F002
:1016900099FA002002F096FA0B2002F093FA00204B
:1016A00002F090FA1B2002F08DFA002002F08AFA74
:1016B000342002F087FA002002F084FA442002F07D
:1016C00081FA002002F07EFA4F2002F07BFA00201F
:1016D00002F078FA612002F075FA002002F072FA46
:1016E000792002F06FFA002002F06CFA882002F0F4
:1016F00069FA002002F066FA972002F063FA0020EF
:1017000002F060FAA62002F05DFA002002F05AFA18
:10171000B72002F057FA002002F054FAC22002F07B
:1017200051FA002002F04EFAC72002F04BFA0020D6
:1017300002F048FAD12002F045FA002002F042FA05
:10174000D62002F03FFA002002F03CFADD2002F041
:1017500039FA002002F036FAF32002F033FA0020C2
:1017600002F030FAE32002F039FA052002F02AFAFA
:10177000002002F027FA0A2002F024FA002002F0EA
:1017800021FA1C2002F01EFA002002F01BFA33207E
:1017900002F018FA002002F015FA442002F012FAC2
:1017A000002002F00FFA502002F00CFA002002F0A4
:1017B00009FA622002F006FA002002F003FA78200B
:1017C00002F000FA002002F0FDF9882002F0FAF998
:1017D000002002F0F7F9972002F0F4F9002002F05F
:1017E000F1F9A62002F0EEF9002002F0EBF9B720A3
:1017F00002F0E8F9002002F0E5F9C22002F0E2F977
:10180000002002F0DFF9C72002F0DCF9002002F02E
:10181000D9F9D12002F0D6F9002002F0D3F9D52071
:1018200002F0D0F9002002F0CDF9DD2002F0CAF973
:10183000002002F0C7F9F32002F0C4F9002002F002
:10184000C1F9E42002F0CAF9012002F0BBF900203E
:1018500002F0B8F9012002F0B5F9002002F0B2F967
:10186000022002F0AFF9002002F0ACF92A2002F0C9
:10187000A9F9002002F0A6F93C2002F0A3F900200B
:1018800002F0A0F94B2002F09DF9002002F09AF935
:101890005D2002F097F9002002F094F9742002F024
:1018A00091F9002002F08EF9842002F08BF90020DB
:1018B00002F088F9932002F085F9002002F082F905
:1018C000A22002F07FF9002002F07CF9B32002F0A0
:1018D00079F9002002F076F9BE2002F073F90020B9
:1018E00002F070F9C42002F06DF9002002F06AF9EC
:1018F000CD2002F067F9002002F064F9D32002F055
:1019000061F9002002F05EF9DD2002F05BF90020B1
:1019100002F058F9F32002F055F9002002F052F9D4
:10192000E52002F05BF9002002F04CF9002002F003
:1019300049F9002002F046F9002002F043F90220A4
:1019400002F040F9002002F03DF9292002F03AF9B6
:10195000002002F037F93C2002F034F9002002F0B8
:1019600031F94B2002F02EF9002002F02BF95D2016
:1019700002F028F9002002F025F9742002F022F983
:10198000002002F01FF9842002F01CF9002002F070
:1019900019F9932002F016F9002002F013F9A220A1
:1019A00002F010F9002002F00DF9B32002F00AF95C
:1019B000002002F007F9BE2002F004F9002002F036
:1019C00001F9C42002F0FEF8002002F0FBF8CD205F
:1019D00002F0F8F8002002F0F5F8D32002F0F2F857
:1019E000002002F0EFF8DC2002F0ECF8002002F01A
:1019F000E9F8F32002F0E6F8002002F0E3F8E62030
:101A000002F0ECF8112002F0DDF8002002F0DAF824
:101A1000342002F0D7F8002002F0D4F8562002F06B
:101A2000D1F8002002F0CEF8762002F0CBF80020AA
:101A300002F0C8F8772002F0C5F8002002F0C2F8E2
:101A4000662002F0BFF8002002F0BCF8882002F007
:101A5000B9F8002002F0B6F8992002F0B3F800209F
:101A600002F0B0F8BB2002F0ADF8002002F0AAF8B6
:101A7000992002F0A7F8002002F0A4F8662002F0F6
:101A8000A1F8002002F09EF8552002F09BF80020FB
:101A900002F098F8552002F095F8002002F092F834
:101AA000452002F08FF8002002F08CF8432002F06D
:101AB00089F8002002F086F8442002F083F8002024
:101AC00002F080F8E72002F089F8322002F07AF87C
:101AD000002002F077F8552002F074F8002002F0A0
:101AE00071F8762002F06EF8002002F06BF86620A4
:101AF00002F068F8002002F065F8672002F062F852
:101B0000002002F05FF8672002F05CF8002002F08D
:101B100059F8872002F056F8002002F053F8992077
:101B200002F050F8002002F04DF8BB2002F04AF815
:101B3000002002F047F8992002F044F8002002F05B
:101B400041F8772002F03EF8002002F03BF84420F4
:101B500002F038F8002002F035F8562002F032F892
:101B6000002002F02FF8232002F02CF8002002F0D1
:101B700029F8332002F026F8002002F023F845204F
:101B800002F020F8002002F01DF8E82002F026F80C
:101B9000002002F017F8002002F014F8992002F05B
:101BA00011F8002002F00EF8872002F00BF8002058
:101BB00002F008F8882002F005F8002002F002F890
:101BC000772001F0FFFF002001F0FCFF662001F00C
:101BD000F9FF002001F0F6FF882001F0F3FF00205C
:101BE00001F0F0FFAA2001F0EDFF002001F0EAFF74
:101BF000BB2001F0E7FF002001F0E4FF992001F095
:101C0000E1FF002001F0DEFF662001F0DBFF002095
:101C100001F0D8FF552001F0D5FF002001F0D2FFE0
:101C2000552001F0CFFF002001F0CCFF442001F04F
:101C3000C9FF002001F0C6FF442001F0C3FF0020CF
:101C400001F0C0FF552001F0BDFF002001F0BAFFF8
:101C5000E92001F0C3FFAA2001F0B4FF002001F049
:101C6000B1FF002001F0AEFF002001F0ABFF00202B
:101C700001F0B4FFAA2001F0A5FFCF2001F0AEFFD4
:101C8000002001F09FFF002001F09CFF002001F0E8
:101C900099FF002001F096FF002001F093FF002043
:101CA00001F090FF002001F08DFF002001F08AFF7D
:101CB000002001F087FF002001F084FF002001F0E8
:101CC00081FF002001F07EFF002001F07BFF00205B
:101CD00001F078FF002001F075FF002001F072FF95
:101CE000002001F06FFFF02001F078FF002001F0EC
:101CF00069FF502001F066FF002001F063FF002023
:101D000001F060FF002001F05DFFF32001F066FFAD
:101D1000002001F057FFF92001F060FF062001F0DC
:101D200051FF102001F04EFF292001F04BFF002051
:101D300001F048FF3A2001F051FF552001F042FF29
:101D4000112001F04BFF6420FEF702FC292001F076
:101D500045FF352001F042FF002001F033FF512004
:101D600001F03CFFFF2001F02DFF532001F036FF72
:101D70002C2001F027FF552001F030FF822001F0D8
:101D800021FF2C2001F02AFF10BD10B555214FF482
:101D9000704001F039FFAA214FF2010001F034FF39
:101DA00052214FF2020001F02FFF08214FF20300F1
:101DB00001F02AFF01214FF2040001F025FF0D215F
:101DC0004FF4304001F020FF0D214BF2010001F0F3
:101DD0001BFF0D214BF2020001F016FF34214FF4DE
:101DE000364001F011FF34214BF2016001F00CFF8D
:101DF00034214BF2026001F007FF0D214FF4314016
:101E000001F002FF0D214BF2011001F0FDFE0D214A
:101E10004BF2021001F0F8FE34214FF4374001F08C
:101E2000F3FE34214BF2017001F0EEFE34214BF24F
:101E3000027001F0E9FE00214FF4324001F0E4FEAF
:101E400000214BF2012001F0DFFE00214BF20220C5
:101E500001F0DAFE24214FF4384001F0D5FE2421B0
:101E60004BF6010001F0D0FE24214BF6020001F0F8
:101E7000CBFE01214FF43F4001F0C6FE0F214FF48D
:101E8000334001F0C1FE0F214BF2013001F0BCFEE6
:101E90000F214BF2023001F0B7FE34214FF43940EC
:101EA00001F0B2FE34214BF6011001F0ADFE3421F9
:101EB0004BF6021001F0A8FE08214FF4354001F066
:101EC000A3FE08214BF2015001F09EFE08214BF2C7
:101ED000025001F099FE03214FF4424001F094FEBC
:101EE00024214FF43A4001F08FFE24214BF60120CB
:101EF00001F08AFE24214BF6022001F085FE00212C
:101F00004FF43C4001F080FE78214BF6014001F097
:101F10007BFE00214BF6024001F076FE00214FF4DB
:101F20003D4001F071FE78214BF6015001F06CFE4E
:101F300000214BF6025001F067FE00214FF43E40B5
:101F400001F062FE64214BF6016001F05DFE0021AC
:101F50004FF4514001F058FE33214DF2011001F0D1
:101F600053FE00214DF2021001F04EFE34214DF2DD
:101F7000031001F049FE00214DF2041001F044FE6F
:101F80003A214DF2051001F03FFE00214DF20610FE
:101F900001F03AFE4A214DF2071001F035FE002112
:101FA0004DF2081001F030FE5C214DF2091001F0F5
:101FB0002BFE00214DF20A1001F026FE81214DF288
:101FC0000B1001F021FE00214DF20C1001F01CFE5F
:101FD000A6214DF20D1001F017FE00214DF20E105A
:101FE00001F012FEE5214DF20F1001F00DFE01216E
:101FF0004DF2101001F008FE13214DF2111001F006
:1020000003FE01214DF2121001F0FEFD54214DF2AC
:10201000131001F0F9FD01214DF2141001F0F4FD4F
:1020200082214DF2151001F0EFFD01214DF2161045
:1020300001F0EAFDCA214DF2171001F0E5FD022181
:102040004DF2181001F0E0FD00214DF2191001F0E1
:10205000DBFD02214DF21A1001F0D6FD01214DF2F7
:102060001B1001F0D1FD02214DF21C1001F0CCFD3E
:1020700034214DF21D1001F0C7FD02214DF21E105A
:1020800001F0C2FD67214DF21F1001F0BDFD0221DC
:102090004DF2201001F0B8FD84214DF2211001F025
:1020A000B3FD02214DF2221001F0AEFDA4214DF24C
:1020B000231001F0A9FD02214DF2241001F0A4FD2E
:1020C000B7214DF2251001F09FFD02214DF226109F
:1020D00001F09AFDCF214DF2271001F095FD02216C
:1020E0004DF2281001F090FDDE214DF2291001F093
:1020F0008BFD02214DF22A1001F086FDF2214DF2F6
:102100002B1001F081FD02214DF22C1001F07CFD1D
:10211000FE214DF22D1001F077FD03214DF22E101E
:1021200001F072FD10214DF22F1001F06DFD032121
:102130004DF2301001F068FD33214DF2311001F005
:1021400063FD03214DF2321001F05EFD6D214DF271
:10215000331001F059FD00214FF4524001F054FDBD
:1021600033214DF2012001F04FFD00214DF20220FC
:1021700001F04AFD34214DF2032001F045FD00211C
:102180004DF2042001F040FD3A214DF2052001F00E
:102190003BFD00214DF2062001F036FD4A214DF2B3
:1021A000072001F031FD00214DF2082001F02CFD47
:1021B0005C214DF2092001F027FD00214DF20A209B
:1021C00001F022FD81214DF20B2001F01DFD0021C7
:1021D0004DF20C2001F018FDA6214DF20D2001F06A
:1021E00013FD00214DF20E2001F00EFDE5214DF210
:1021F0000F2001F009FD01214DF2102001F004FD36
:1022000013214DF2112001F0FFFC01214DF21220AB
:1022100001F0FAFC54214DF2132001F0F5FC0121EC
:102220004DF2142001F0F0FC82214DF2152001F056
:10223000EBFC01214DF2162001F0E6FCCA214DF223
:10224000172001F0E1FC02214DF2182001F0DCFC26
:1022500000214DF2192001F0D7FC02214DF21A2085
:1022600001F0D2FC01214DF21B2001F0CDFC022136
:102270004DF21C2001F0C8FC34214DF21D2001F06C
:10228000C3FC02214DF21E2001F0BEFC67214DF27D
:102290001F2001F0B9FC02214DF2202001F0B4FC16
:1022A00084214DF2212001F0AFFC02214DF22220C9
:1022B00001F0AAFCA4214DF2232001F0A5FC02218B
:1022C0004DF2242001F0A0FCB7214DF2252001F0B1
:1022D0009BFC02214DF2262001F096FCCF214DF20D
:1022E000272001F091FC02214DF2282001F08CFC06
:1022F000DE214DF2292001F087FC02214DF22A2037
:1023000001F082FCF2214DF22B2001F07DFC022134
:102310004DF22C2001F078FCFE214DF22D2001F031
:1023200073FC03214DF22E2001F06EFC10214DF2C2
:102330002F2001F069FC03214DF2302001F064FCF4
:1023400033214DF2312001F05FFC03214DF23220A8
:1023500001F05AFC6D214DF2332001F055FC0021B3
:102360004FF4534001F050FC33214DF2013001F0A5
:102370004BFC00214DF2023001F046FC34214DF2BD
:10238000033001F041FC00214DF2043001F03CFC2F
:102390003A214DF2053001F037FC00214DF20630B4
:1023A00001F032FC4A214DF2073001F02DFC0021F2
:1023B0004DF2083001F028FC5C214DF2093001F0AB
:1023C00023FC00214DF20A3001F01EFC81214DF268
:1023D0000B3001F019FC00214DF20C3001F014FC1F
:1023E000A6214DF20D3001F00FFC00214DF20E3010
:1023F00001F00AFCE5214DF20F3001F005FC01214E
:102400004DF2103001F000FC13214DF2113001F0BB
:10241000FBFB01214DF2123001F0F6FB54214DF28D
:10242000133001F0F1FB01214DF2143001F0ECFB0F
:1024300082214DF2153001F0E7FB01214DF21630FB
:1024400001F0E2FBCA214DF2173001F0DDFB022161
:102450004DF2183001F0D8FB00214DF2193001F097
:10246000D3FB02214DF21A3001F0CEFB01214DF2D7
:102470001B3001F0C9FB02214DF21C3001F0C4FBFE
:1024800034214DF21D3001F0BFFB02214DF21E3010
:1024900001F0BAFB67214DF21F3001F0B5FB0221BC
:1024A0004DF2203001F0B0FB84214DF2213001F0DB
:1024B000ABFB02214DF2223001F0A6FBA4214DF22C
:1024C000233001F0A1FB02214DF2243001F09CFBEE
:1024D000B7214DF2253001F097FB02214DF2263055
:1024E00001F092FBCF214DF2273001F08DFB02214C
:1024F0004DF2283001F088FBDE214DF2293001F049
:1025000083FB02214DF22A3001F07EFBF2214DF2D5
:102510002B3001F079FB02214DF22C3001F074FBDD
:10252000FE214DF22D3001F06FFB03214DF22E30D4
:1025300001F06AFB10214DF22F3001F065FB032101
:102540004DF2303001F060FB33214DF2313001F0BB
:102550005BFB03214DF2323001F056FB6D214DF251
:10256000333001F051FB00214FF4544001F04CFB9B
:1025700033214DF2014001F047FB00214DF20240B2
:1025800001F042FB34214DF2034001F03DFB0021FC
:102590004DF2044001F038FB3A214DF2054001F0C4
:1025A00033FB00214DF2064001F02EFB4A214DF293
:1025B000074001F029FB00214DF2084001F024FB07
:1025C0005C214DF2094001F01FFB00214DF20A4051
:1025D00001F01AFB81214DF20B4001F015FB0021A7
:1025E0004DF20C4001F010FBA6214DF20D4001F020
:1025F0000BFB00214DF20E4001F006FBE5214DF2F0
:102600000F4001F001FB01214DF2104001F0FCFAF6
:1026100013214DF2114001F0F7FA01214DF2124061
:1026200001F0F2FA54214DF2134001F0EDFA0121CC
:102630004DF2144001F0E8FA82214DF2154001F00C
:10264000E3FA01214DF2164001F0DEFACA214DF203
:10265000174001F0D9FA02214DF2184001F0D4FAE6
:1026600000214DF2194001F0CFFA02214DF21A403B
:1026700001F0CAFA01214DF21B4001F0C5FA022116
:102680004DF21C4001F0C0FA34214DF21D4001F022
:10269000BBFA02214DF21E4001F0B6FA67214DF25D
:1026A0001F4001F0B1FA02214DF2204001F0ACFAD6
:1026B00084214DF2214001F0A7FA02214DF222407F
:1026C00001F0A2FAA4214DF2234001F09DFA02216B
:1026D0004DF2244001F098FAB7214DF2254001F067
:1026E00093FA02214DF2264001F08EFACF214DF2ED
:1026F000274001F089FA02214DF2284001F084FAC6
:10270000DE214DF2294001F07FFA02214DF22A40EC
:1027100001F07AFAF2214DF22B4001F075FA022114
:102720004DF22C4001F070FAFE214DF22D4001F0E7
:102730006BFA03214DF22E4001F066FA10214DF2A2
:102740002F4001F061FA03214DF2304001F05CFAB4
:1027500033214DF2314001F057FA03214DF232405E
:1027600001F052FA6D214DF2334001F04DFA002193
:102770004FF4554001F048FA33214DF2015001F079
:1027800043FA00214DF2025001F03EFA34214DF29D
:10279000035001F039FA00214DF2045001F034FAEF
:1027A0003A214DF2055001F02FFA00214DF206506A
:1027B00001F02AFA4A214DF2075001F025FA0021D2
:1027C0004DF2085001F020FA5C214DF2095001F061
:1027D0001BFA00214DF20A5001F016FA81214DF248
:1027E0000B5001F011FA00214DF20C5001F00CFADF
:1027F000A6214DF20D5001F007FA00214DF20E50C6
:1028000001F002FAE5214DF20F5001F0FDF901212E
:102810004DF2105001F0F8F913214DF2115001F072
:10282000F3F901214DF2125001F0EEF954214DF26D
:10283000135001F0E9F901214DF2145001F0E4F9CF
:1028400082214DF2155001F0DFF901214DF21650B1
:1028500001F0DAF9CA214DF2175001F0D5F9022141
:102860004DF2185001F0D0F900214DF2195001F04D
:10287000CBF902214DF21A5001F0C6F901214DF2B7
:102880001B5001F0C1F902214DF21C5001F0BCF9BE
:1028900034214DF21D5001F0B7F902214DF21E50C6
:1028A00001F0B2F967214DF21F5001F0ADF902219C
:1028B0004DF2205001F0A8F984214DF2215001F091
:1028C000A3F902214DF2225001F09EF9A4214DF20C
:1028D000235001F099F902214DF2245001F094F9AE
:1028E000B7214DF2255001F08FF902214DF226500B
:1028F00001F08AF9CF214DF2275001F085F902212C
:102900004DF2285001F080F9DE214DF2295001F0FE
:102910007BF902214DF22A5001F076F9F2214DF2B5
:102920002B5001F071F902214DF22C5001F06CF99D
:10293000FE214DF22D5001F067F903214DF22E508A
:1029400001F062F910214DF22F5001F05DF90321E1
:102950004DF2305001F058F933214DF2315001F071
:1029600053F903214DF2325001F04EF96D214DF231
:10297000335001F049F900214FF4564001F044F979
:1029800033214DF2016001F03FF900214DF2026068
:1029900001F03AF934214DF2036001F035F90021DC
:1029A0004DF2046001F030F93A214DF2056001F07A
:1029B0002BF900214DF2066001F026F94A214DF273
:1029C000076001F021F900214DF2086001F01CF9C7
:1029D0005C214DF2096001F017F900214DF20A6007
:1029E00001F012F981214DF20B6001F00DF9002187
:1029F0004DF20C6001F008F9A6214DF20D6001F0D6
:102A000003F900214DF20E6001F0FEF8E5214DF2D0
:102A10000F6001F0F9F801214DF2106001F0F4F8B7
:102A200013214DF2116001F0EFF801214DF2126017
:102A300001F0EAF854214DF2136001F0E5F80121AC
:102A40004DF2146001F0E0F882214DF2156001F0C2
:102A5000DBF801214DF2166001F0D6F8CA214DF2E3
:102A6000176001F0D1F802214DF2186001F0CCF8A6
:102A700000214DF2196001F0C7F802214DF21A60F1
:102A800001F0C2F801214DF21B6001F0BDF80221F6
:102A90004DF21C6001F0B8F834214DF21D6001F0D8
:102AA000B3F802214DF21E6001F0AEF867214DF23D
:102AB0001F6001F0A9F802214DF2206001F0A4F896
:102AC00084214DF2216001F09FF802214DF2226035
:102AD00001F09AF8A4214DF2236001F095F802214B
:102AE0004DF2246001F090F8B7214DF2256001F01D
:102AF0008BF802214DF2266001F086F8CF214DF2CD
:102B0000276001F081F802214DF2286001F07CF885
:102B1000DE214DF2296001F077F802214DF22A60A2
:102B200001F072F8F2214DF22B6001F06DF80221F4
:102B30004DF22C6001F068F8FE214DF22D6001F09D
:102B400063F803214DF22E6001F05EF810214DF282
:102B50002F6001F059F803214DF2306001F054F874
:102B600033214DF2316001F04FF803214DF2326014
:102B700001F04AF86D214DF2336001F045F855211E
:102B80004FF4704001F040F8AA214FF2010001F02B
:102B90003BF852214FF2020001F036F808214FF2C3
:102BA000030001F031F800214FF2040001F02CF88D
:102BB000CC214FF4314001F027F800214BF20110F5
:102BC00001F022F805214FF4364001F01DF8702184
:102BD0004FF4374001F018F870214BF2017001F00A
:102BE00013F801214FF4384001F00EF803214BF6A1
:102BF000010001F009F803214BF6020001F004F88E
:102C000003214BF6030000F0FFFF02214FF43C408C
:102C100000F0FAFF00214BF6014000F0F5FF002123
:102C20004BF6024000F0F0FFD0214FF4494000F095
:102C3000EBFF02214CF6011000F0E6FF50214CF6AC
:102C4000021000F0E1FF50214CF6031000F0DCFF11
:102C500050214CF6041000F0D7FF00214FF45450DF
:102C600000F0D2FF55214FF4685000F0CDFF4FF433
:102C7000885000F0B3FF7820FDF774FC4FF4245027
:102C800000F0ACFF10BD10B5E22000F0A7FF1D2042
:102C900000F098FF022000F095FF042000F092FF62
:102CA0006420FDF75FFCE02000F098FF012000F0B9
:102CB00089FF0A20FDF74CFCE02000F08FFF032085
:102CC00000F080FF0C20FDF743FC012000F086FFA0
:102CD0000A20FDF73DFCE62000F080FF2F2000F0E9
:102CE00071FFFF2000F06EFFFF2000F06BFFB020AF
:102CF00000F074FF202000F065FF002000F062FF6C
:102D0000032000F05FFF40F21F3000F05BFF012066
:102D100000F058FF40F2DF1000F054FF002000F0F8
:102D200051FFB42000F05AFF042000F04BFF40F2A6
:102D30001F4000F047FF002000F044FF2E2000F06D
:102D400041FF002000F03EFF002000F03BFF00208C
:102D500000F038FF002000F035FFB62000F03EFF05
:102D6000022000F02FFF4FF4037000F02BFF002033
:102D700000F028FF172000F025FF152000F022FFAB
:102D8000002000F01FFF002000F01CFFF02000F0EA
:102D900025FF032000F016FF292000F01FFFD020A0
:102DA00000F01CFF002000F00DFFBE2000F016FF19
:102DB000052000F007FFFE2000F004FF012000F0D6
:102DC00001FF002000F0FEFE002000F0FBFE0020CE
:102DD00000F0F8FEB82000F001FF032000F0F2FE42
:102DE000012000F0EFFEBA2000F0F8FE012000F014
:102DF000E9FE10BD10B5112000F0F0FE7820FDF7BF
:102E0000A7FB362000F0EAFE002000F0DBFE3A20AF
:102E100000F0E4FE052000F0D5FEB22000F0DEFE5A
:102E20000C2000F0CFFE0C2000F0CCFE002000F0C3
:102E3000C9FE332000F0C6FE332000F0C3FEB720E9
:102E400000F0CCFE352000F0BDFEBB2000F0C6FE39
:102E5000322000F0B7FEC02000F0C0FE0C2000F0D1
:102E6000B1FEC22000F0BAFE012000F0ABFEC3208C
:102E700000F0B4FE102000F0A5FEC42000F0AEFE6D
:102E8000202000F09FFEC62000F0A8FE0F2000F0DA
:102E900099FED02000F0A2FEA42000F093FEA12015
:102EA00000F090FEE02000F099FED02000F08AFEB5
:102EB000002000F087FE022000F084FE072000F0D2
:102EC00081FE0A2000F07EFE282000F07BFE3220EA
:102ED00000F078FE442000F075FE422000F072FE03
:102EE000062000F06FFE0E2000F06CFE122000F0B5
:102EF00069FE142000F066FE172000F063FEE1205A
:102F000000F06CFED02000F05DFE002000F05AFEC4
:102F1000022000F057FE072000F054FE0A2000F0C7
:102F200051FE282000F04EFE312000F04BFE5420D0
:102F300000F048FE472000F045FE0E2000F042FE63
:102F40001C2000F03FFE172000F03CFE1B2000F08C
:102F500039FE1E2000F036FE2A2000F03FFE002041
:102F600000F030FE002000F02DFE002000F02AFED0
:102F7000EF2000F027FE2B2000F030FE002000F0B4
:102F800021FE002000F01EFE012000F01BFE3F206D
:102F900000F018FE292000F021FE10BD10B5112010
:102FA00000F01CFE7820FDF7D3FA362000F016FE64
:102FB000482000F007FE3A2000F010FE552000F0F7
:102FC00001FEF02000F00AFEC32000F0FBFDF0201F
:102FD00000F004FE962000F0F5FDB42000F0FEFDA8
:102FE000012000F0EFFDB62000F0F8FD0A2000F00F
:102FF000E9FDA22000F0E6FDB72000F0EFFDC620BD
:1030000000F0E0FDB92000F0E9FD022000F0DAFD5B
:10301000E02000F0D7FDC02000F0E0FD802000F0AF
:10302000D1FD162000F0CEFDC12000F0D7FD192003
:1030300000F0C8FDC22000F0D1FDA72000F0C2FDC5
:10304000C52000F0CBFD162000F0BCFDE82000F00C
:10305000C5FD402000F0B6FD8A2000F0B3FD002041
:1030600000F0B0FD002000F0ADFD292000F0AAFD29
:10307000192000F0A7FDA52000F0A4FD332000F0EA
:10308000A1FDE02000F0AAFDF02000F09BFD07204C
:1030900000F098FD0D2000F095FD042000F092FD59
:1030A000052000F08FFD142000F08CFD362000F08C
:1030B00089FD542000F086FD4C2000F083FD38206F
:1030C00000F080FD132000F07DFD142000F07AFD5B
:1030D0002E2000F077FD342000F074FDE12000F098
:1030E0007DFDF02000F06EFD102000F06BFD14203F
:1030F00000F068FD0E2000F065FD0C2000F062FD80
:10310000082000F05FFD352000F05CFD442000F059
:1031100059FD4C2000F056FD262000F053FD1020F4
:1031200000F050FD122000F04DFD2C2000F04AFD73
:10313000322000F047FDF02000F050FD3C2000F070
:1031400041FDF02000F04AFD692000F03BFD7820B1
:10315000FDF7FEF9212000F041FD292000F03EFDA1
:1031600010BD00002DE9F04F05460E461746984663
:10317000DDF824A04FF0000B781B401C1FFA80FBE9
:10318000344613E02146284600F08CFB00F032FD67
:103190004FF0000906E00749A1F800A009F101007D
:1031A0001FFA80F9D945F6DB601C84B24445E9DD9D
:1031B000BDE8F08F0008006C1CB500BFFA488069BC
:1031C00040F48070F849886100BF00BF08468069FC
:1031D00040F02000886100BF00BF0846806940F0D1
:1031E0002000886100BF00BF0846806940F48070FD
:1031F000886100BF00BF0846806940F00800886110
:1032000000BF0846806940F0600088610846406958
:1032100040F4807048610120032100230222CDE99F
:1032200000100103E14801F07DF801200321002393
:103230000222CDE900102021DD4801F073F80120C1
:10324000032100230222CDE900101021D84801F00B
:1032500069F80120032100230222CDE90010014674
:10326000D24801F05FF80120032100230246CDE996
:1032700000100146CF4801F055F80120032100233A
:103280000222CDE900104CF20371C94801F04AF85E
:103290000120032100230222CDE900104FF68071A6
:1032A000C54801F03FF800204FF020418861C86117
:1032B000C24908604FF02040806940F480504FF0D0
:1032C000204188610846806940F480408861084652
:1032D000806940F0100088610846C069C8610846EE
:1032E000C069C8610846C06940F47060C861B348ED
:1032F0000068C1F81C01B1480068C1F81C0108460B
:10330000D0F81C0140F48070C1F81C0108468069A7
:1033100040F0010088610846806940F00040886103
:10332000A74800F08FF9D32000F058FC00F090F986
:10333000A449888000F08CF9A249888000F088F9BF
:10334000A0498880084680884FF6FF7101EA002076
:103350009C49888000F07CF99A49898808439949FA
:1033600088800846808849F2413188427ED0042016
:1033700000F034FC00F06CF99249888000F068F9A4
:103380009049888000F064F98E49888008468088DA
:103390004FF6FF7101EA00208A49888000F058F951
:1033A000884989880843874988800846808848F288
:1033B0005251884203D147F28970824988808148FE
:1033C000808847F289718842D0D0D42000F006FC72
:1033D00000F03EF97B49888000F03AF9794988800D
:1033E00000F036F977498880084680884FF6FF71EB
:1033F00001EA00207349888000F02AF97149898820
:103400000843704988800846808845F21031884218
:10341000ACD0D32000F0E2FB00F01AF969498880B3
:1034200000F016F96749888000F012F96549888034
:10343000084680884FF6FF7101EA002061498880C4
:1034400000F006F95F49898808435E49888008468C
:10345000808847F29671884288D055214FF4704099
:1034600000F0D2FBAA214FF2010000E07CE000F066
:10347000CBFB52214FF2020000F0C6FB08214FF2B5
:10348000030000F0C1FB01214FF2040000F0BCFB7F
:103490004FF4454000F0A2FB00F0DAF8494988807B
:1034A000084680884FF6FF7101EA00204549888070
:1034B0004CF2015000F092FB00F0CAF841498988B3
:1034C0000843404988800520FDF742F83D48808840
:1034D00045F21051884247D0D32000F07FFB00F026
:1034E000B7F83849888000F0B3F83649888000F092
:1034F000AFF834498880084680884FF6FF7101EAAA
:1035000000203049888000F0A3F82E4989880843BC
:103510002C4988800846808849F60601884223D0D5
:10352000A12000F05BFB00F093F82649888000F0B2
:103530008FF824498880084680884FF6FF7101EA99
:1035400000202049888000F083F81E4989880843BC
:103550001C4988800846808845F26171884203D101
:1035600041F66310174988801648818816A0FCF739
:1035700053FE1448808847F28971884202D1FFF7D0
:1035800039FC4DE00F48808849F24131884202D130
:10359000FDF7CCF944E00B48808845F210318842B1
:1035A00018D1FDF779FC3BE00010024000200140FB
:1035B00000140140000C0140001801401C0100A053
:1035C000FFFF0100200800204C43442049443A25D5
:1035D000780D0A001948808847F29671884202D116
:1035E000FFF7DCFC1CE01548808845F2105188424A
:1035F00002D1FEF7CAFB13E01048808849F60601A5
:10360000884202D1FDF7A8FA0AE00C48808841F60A
:103610006311884204D1FFF736FB642000F0A8FA5A
:103620000020FDF7BDF801221146054800F06EFEAE
:103630004FF6FF70FDF79AF81CBD0000200800202F
:10364000000C014000BF011EA0F10100FBD170473A
:1036500008B50220FFF7F6FF024800880090BDF889
:10366000000008BD0008006CF0B5054600240027E6
:103670008B488079012805D18948808841F66311FB
:10368000884208D186488079F0B98548808841F61B
:103690006311884218D1082D15D2DFE805F0040621
:1036A000080A0C0E101206250DE007250BE0042574
:1036B00009E0052507E0012505E0002503E00325D5
:1036C00001E0022500BF00BF082D1CD2DFE805F095
:1036D0000406090C0F12151800BF14E044F0800412
:1036E00011E044F040040EE044F0C0040BE044F06C
:1036F000200408E044F0600405E044F0A00402E087
:1037000044F0E00400BF00BF36276548808845F2DA
:103710001051884200D13F026148808849F241310E
:1037200088420BD05E48808847F28971884205D074
:103730005B48808847F29671884201D144F00804C2
:103740002146384600F060FA5548808841F66311FA
:1037500088421DD004F0200068B1514800885049CB
:103760004988884214DA4E48068840884C490880C7
:10377000084646800CE04A48008849494988884202
:1037800006DD474806884088454908800846468047
:103790004348808845F21051884252D140494889B7
:1037A00000F01CFA002000F00DFA3D494989491C3F
:1037B00088B200F013FA002000F004FA3849498971
:1037C000891C88B200F00AFA35490988491EC1F3FC
:1037D0000F2000F0F7F932494989C91C88B200F07E
:1037E000FDF92F490978491EC8B200F0EBF92C49C0
:1037F000888900F0F3F9002000F0E4F9284989896C
:10380000491C88B200F0EAF9002000F0DBF92449F5
:103810008989891C88B200F0E1F921494988491E4B
:10382000C1F30F2000F0CEF91D498989C91C88B267
:1038300000F0D4F91A498978491EC8B200F0C2F9DB
:103840002DE01749488900F0C9F9002000F0BAF9C5
:10385000002000F0B7F912490988491EC1F30F2072
:1038600000F0B0F90E490978491EC8B200F0AAF973
:103870000B49888900F0B2F9002000F0A3F900207C
:1038800000F0A0F906494988491EC1F30F2000F055
:1038900099F903498978491EC8B200F093F9F0BD3F
:1038A0002008002010B502460C464548808841F6A5
:1038B0006311884247D142488079A8B940480088BE
:1038C000401E801A82B23E49488900F087F90020E4
:1038D00000F078F9002000F075F9101200F072F98C
:1038E000D0B200F06FF916E03549488900F076F95A
:1038F000101200F067F9D0B200F064F9304909887D
:10390000491EC1F30F2000F05DF92D490978491EC9
:10391000C8B200F057F92A49888900F05FF92012EF
:1039200000F050F9E0B200F04DF925494988491EF0
:10393000C1F30F2000F046F921498978491EC8B229
:1039400000F040F93AE01E48808845F21051884264
:1039500020D11B49488900F041F9101200F032F9DA
:1039600017494989491C88B200F038F9D0B200F0F3
:1039700029F91349888900F031F9201200F022F961
:103980000F498989491C88B200F028F9E0B200F09B
:1039900019F913E00A49488900F020F9101200F0E3
:1039A00011F9D0B200F00EF90549888900F016F936
:1039B000201200F007F9E0B200F004F910BD000099
:1039C000200800202DE9FC4F80460E4615461C4677
:1039D000B3460020019000902046E31704EB537398
:1039E000DB1021464FEAE47C04EB5C7C4FEAEC0CF4
:1039F000A4EBCC0CBCF1000F02D04FF0010C01E0A5
:103A00004FF0000C6344224604EBD27C4FEA6C0C6E
:103A100003FB0CF3DBB20193A5F12000C5B20C2C23
:103A200006D0102C0BD0182C0ED0202C18D112E060
:103A300005EB45002D4901EB8000009012E02C4879
:103A400000EB051000900DE005EBC500294901EBE6
:103A50008000009006E0284800EB8510009001E00F
:103A6000BDE8FC8F00BF00273AE0009810F80790EF
:103A70004FF0000A2EE009F0800028B131464046A0
:103A80000C9AFCF743FF07E00B9828B91B48314616
:103A900002684046FCF73AFF4FEA49604FEA106976
:103AA000701C86B216484088B04200DCD8E7A6EB0E
:103AB0000B00A0420AD15E4608F101001FFA80F80F
:103AC0000F480088404500DCCAE706E00AF1010023
:103AD00000F0FF0ABAF1080FCDDB00BF781CC7B2B7
:103AE00001988742C1DB00BFBAE7000078480008B0
:103AF000EC4C0008DC520008386000081800002078
:103B0000200800202DE9FC4F04460D4690469946BA
:103B1000DDE90C7A0B9E04F0FF0B08EB04001FFAA2
:103B200080F809EB05001FFA80F917E0444502DB35
:103B30005C46A81985B24D4500DB15E00020CDE9B3
:103B4000000A3A78334629462046FFF73BFF3046C5
:103B500006EBD07104EB61018CB27F1C38787E28B3
:103B600002DC38782028E1DA00BFBDE8FC8F0000D5
:103B70002DE9F0470446BE2000F030F8052000F0A3
:103B800021F8204600F067FD07464FF066320C4BE7
:103B900000F074FD054600F031FD1FFA80F948463B
:103BA00000F010F8012000F00DF8FF2000F00AF8F6
:103BB000002000F007F8002000F004F8BDE8F087CE
:103BC0006666044001B5BDF800000090BDF8000035
:103BD0000149088008BD00000008006C01B5BDF86F
:103BE00000000090BDF800000149088008BD0000F9
:103BF000FE07006C024800890249088070470000F7
:103C000020080020FE07006C024A1080921C1180E0
:103C100070470000FE07006C1CB500BF15488069A6
:103C200040F008001349886100BF00BF0846806962
:103C300040F04000886100BF012000900023024650
:103C4000202101900C4800F06DFB01200090002322
:103C5000024620210190094800F064FB0122202146
:103C6000054800F053FB01222021044800F04EFBE0
:103C70001CBD000000100240000C01400018014073
:103C80000EB54FF0000800250026092000F01CFCAE
:103C90004820FCF747FC4FF4E131482000F04CFC91
:103CA000FFF7BAFFFFF788FAFCF7D6FC4FF478402D
:103CB0008EA110221346CDE900210290C8223221A4
:103CC0001E20FFF71FFF4FF478408AA110221346F1
:103CD000CDE900210290C82246211E20FFF712FFE5
:103CE0004FF4784086A110221346CDE900210290BE
:103CF000C8225A211E20FFF705FF4FF4784084A107
:103D000010221346CDE900210290C8226E211E2008
:103D1000FFF7F8FE4FF4784083A110221346CDE957
:103D200000210290C82282211E20FFF7EBFE4FF4F3
:103D3000784082A110221346CDE900210290C822CA
:103D400096211E20FFF7DEFECEE081480068A8B174
:103D50007F48006880450ED17D4805684FF0000817
:103D600000207B4908607BA0FCF756FA29467EA01C
:103D7000FCF752FA02E07648D0F80080781CC7B20F
:103D80000A20FCF7E5FB1E2F15D100BF7B48006819
:103D900080F020007949086000BF00275EB1701EE6
:103DA000C6B246B94FF6FF70E223F022D22100904E
:103DB0001E20FFF7D7F90020FCF788FC0446032CEF
:103DC0004CD1002D3AD06EA0FCF726FA1F2071A12D
:103DD00010221346CDE900210290C822BE211E20E8
:103DE000FFF790FE7148406800F07F40B0F1006F2F
:103DF00014D12A466E496F48FCF7FCFB1F206EA1C8
:103E000010221346CDE900210290C822BE211E20B7
:103E1000FFF778FE6EA0FCF7FFF91EE01F2070A1EF
:103E200010221346CDE900210290C822BE211E2097
:103E3000FFF768FE70A0FCF7EFF90EE073A0FCF747
:103E4000EBF91F2077A110221346CDE90021029043
:103E5000C822BE211E20FFF755FE0726022C20D1C6
:103E60005448406800F07F40B0F1006F09D16FA066
:103E7000FCF7D2F90A20FCF76BFB4E48FCF7A4FBD9
:103E80000EE071A0FCF7C8F91F2066A110221346AE
:103E9000CDE900210290C822BE211E20FFF732FE8C
:103EA0000726012C20D16EA0FCF7B6F90A20FCF7FA
:103EB0004FFB3E48406800F07F40B0F1005F03D107
:103EC0003A48FCF781FB0EE06CA0FCF7A5F91F2037
:103ED00071A110221346CDE900210290C822BE2113
:103EE0001E20FFF70FFE07262FE7000053544D3327
:103EF0003200000049415020544553540000000056
:103F000041544F4D40414C49454E54454B000000F3
:103F10004B45595F55503A20436F707920415050BE
:103F200032464C41534821004B4559313A20527595
:103F30006E20464C41534820415050004B4559306B
:103F40003A2052756E205352414D2041505000008E
:103F500010000020D3C3BBA7B3CCD0F2BDD3CAD5C9
:103F6000CDEAB3C9210D0A00B4FAC2EBB3A4B6C8B6
:103F70003A256442797465730D0A00000C0C014007
:103F8000BFAACABCB8FCD0C2B9CCBCFE2E2E2E0D26
:103F90000A000000436F7079696E6720415050320B
:103FA000464C4153482E2E2E0000000000100020E9
:103FB0000010002000900008436F7079204150509D
:103FC00020537563636573736564212100000000ED
:103FD000B9CCBCFEB8FCD0C2CDEAB3C9210D0A00F1
:103FE000496C6C6567616C20464C415348204150D8
:103FF0005021202000000000B7C7464C415348D351
:10400000A6D3C3B3CCD0F2210D0A0000C3BBD3D0DA
:10401000BFC9D2D4B8FCD0C2B5C4B9CCBCFE210D46
:104020000A0000004E6F204150502100BFAACABCB8
:10403000D6B4D0D0464C415348D3C3BBA7B4FAC280
:10404000EB21210D0A0D0A00C3BBD3D0BFC9D2D4C6
:10405000D4CBD0D0B5C4B9CCBCFE210D0A00000031
:10406000BFAACABCD6B4D0D05352414DD3C3BBA70C
:10407000B4FAC2EB21210D0A0D0A0000B7C7535252
:10408000414DD3A6D3C3B3CCD0F22CCEDEB7A8D645
:10409000B4D0D0210D0A0000496C6C6567616C20BA
:1040A0005352414D204150502100000070B504464C
:1040B00000254FF0006000EBC4240F4800F050F8DA
:1040C0000546BDB90D48006940F002000B49086182
:1040D00008464461006940F040000861064800F06D
:1040E0003FF80546012D05D00448006920F0020084
:1040F00002490861284670BDFFFF5F0000200240B2
:104100000948C16801F0010008B10120704701F0C1
:10411000040008B10220F9E701F0100008B1032003
:10412000F4E70020F2E700000020024003480069A5
:1041300040F0800001490861704700000020024003
:104140000146088870470000024803494860034858
:10415000486070472301674500200240AB89EFCDDE
:1041600010B5044600BFFFF7CBFF012800D002E0E6
:10417000641E002CF7D100BF04B9FF2010BD000061
:104180002DE9F04704460E4617464FF00008C24698
:104190000025A946B4F1006F05D304F0010010B961
:1041A0001948844201D9BDE8F087FFF7CDFF2546C5
:1041B00004EB470911E0C5F3CF2A2846FFF7C0FFFB
:1041C0004FF6FF71884207D05046FFF76FFF8046D9
:1041D000B8F1000F01D002E02D1D4D45EBD300BF1B
:1041E000B8F1000F0BD107E03188204600F00EF83F
:1041F00000B103E0A41CB61C4C45F5D300BFFFF78B
:1042000095FF00BFCFE700000000080870B5054625
:104210000E460D48FFF7A4FF044694B90B48006909
:1042200040F00100094908612E800748FFF798FF18
:104230000446012C05D00548006920F0010003491F
:104240000861204670BD0000FFFF5F0000200240B3
:1042500010B5024600210020264B1B6843F4803332
:10426000244C23600AE000BF224B1B6803F4003398
:104270001BB1B1F5004F00D904E0491C4FF6F073B3
:104280009942F0D300BF4FF6F073994201D3012059
:104290002FE04FF48063174C6360921E23465B68E7
:1042A00043EA8243636023465B6843F48033636080
:1042B0001023114C236023461B6843F00203236044
:1042C0000C4B1B6843F080730A4C236000BF094B02
:1042D0001B685B0E002BFAD0064B5B6843F00203B1
:1042E000044C636000BF034B5B68C3F38103022B84
:1042F000F9D110BD00100240002002400246906833
:10430000084008B1012070470020FCE702F00103DB
:104310001BB103690B43036103E0036943EA0143F3
:10432000036170472DE9F04F0E461D46DDE909C4D3
:10433000002100278846002300BF64E04FF00109F8
:1043400009FA01F706EA0708B8455BD10023012AFC
:1043500001D0022A0AD10CF0030305F0010943EA57
:104360008903A2F1010943EAC90318E0BAB90CB9FB
:10437000042314E00823D0F80C904FF0010A0AFA45
:1043800001FA29EA0A09C0F80C90D0F80CA004F050
:10439000010909FA01F94AEA090AC0F80CA007293B
:1043A00016D8D0F800904FEA810B4FF00F0A0AFAA6
:1043B0000BFA29EA0A09C0F80090D0F800904FEAF9
:1043C000810A03FA0AFA49EA0A09C0F8009019E0DA
:1043D000D0F80490A1F1080A4FEA8A0B4FF00F0AB7
:1043E0000AFA0BFA29EA0A09C0F80490D0F80490F6
:1043F000A1F1080A4FEA8A0A03FA0AFA49EA0A0905
:10440000C0F80490491C102998D3BDE8F08F00BF74
:1044100080F3088800BF70472DE9F04107468846C1
:1044200014461D46284600F033F8C5F1040007FA8B
:1044300000F60F20284100EA0800064306F00F06A8
:10444000E21704EBD2625211920002F1E022D2F89C
:1044500000212146E31704EBD3635B11A4EB431C5B
:10446000012303FA0CF31A432046E31704EBD3634A
:104470005B119B0003F1E023C3F800210348005DBA
:1044800040EA061001490855BDE8F08100E400E06B
:104490000146072323EA01021202054B18684FF672
:1044A000FF031840034B18431043014B186070473B
:1044B0000CED00E00000FA054A0A52020243014BEB
:1044C0001A60704708ED00E010B504460020174957
:1044D0000861C8601420486100208861C8610846EE
:1044E000006840F001000860084640681049084034
:1044F0000E494860084600680E4908400B490860AC
:104500000846006820F4802008600846406820F4CF
:10451000FE0048604FF41F0088602046FFF798FEB9
:1045200000214FF00060FFF7C7FF10BD00100240F0
:104530000000FFF8FFFFF6FE7CB506460C4600BF04
:104540002A48806940F004002849886100BF00BF04
:104550000846806940F00400886100BF00BF08463B
:10456000806940F48040886100BF0120032100235E
:104570000222CDE9001041021D48FFF7D3FE0120C1
:10458000032100231A46CDE9001081021848FFF7E5
:10459000C9FE1848704300EB5400B0FBF4F5164810
:1045A000056000201449091D08600846006808607D
:1045B0000846006840F0080008600846006840F0BF
:1045C000040008600846006840F0200008600223EC
:1045D000252203210846FFF71FFF0748001D00683A
:1045E00040F400500449091D08607CBD00100240E1
:1045F0000008014040420F00083801404FEA1153C3
:10460000A3F58063D3F11E03A8BFD3F1200C08DB10
:104610004FF0004242EAC12252EA505232FA03F00D
:10462000704709420BD4102BC4BF0020704703F51C
:10463000787CBCF1FF3F05D04FF0FF3070474FF062
:104640000000704770B500F0C3F800BF49922480A5
:1046500000207047F0E7B0FA80F310FA03F10AD0B7
:10466000C3F11D0303F580634FEA41504FEA035243
:1046700002EBD12170474FF000007047DFF848C1CE
:1046800070B51CEA111E1EBF1CEA13159EEA0C0F22
:1046900095EA0C0F00F06F8081EA030423EA4C13C3
:1046A0004EEAD47E21EA4C1141F4801143F4801388
:1046B000AE44A1FB024CA0FB0365AEF17F7E361930
:1046C00055EB0C05A1FB034C4CF10003A0FB021CB5
:1046D00016EB0C06654153F10003094218BF46F082
:1046E000010613F4007F0BD14FEA03314FEA053086
:1046F000340341EA155140EA16506FF003020AE014
:104700004FEAC3214FEAC520F40241EA555140EA7D
:1047100056506FF0020202EB2E4201EB025585EA81
:10472000CE710AD05FEA440C18BF24F0004450F167
:10473000000041F1000120EAD47040F2FE7C6245A5
:1047400000D270BDA84214BF4FF080444FF04044E7
:10475000002E08BF0024BEF1806FA8BFA1F1C041A8
:10476000BDE8704080F282804FF0000001F1C0414E
:1047700001F0004170479EEA0C0F0CEA131518BFB8
:1047800095EA0C0F06D04FF0000081EA030E0EF000
:10479000004170BD00F01CF88900013E00F007B830
:1047A00000F009B84FEA430C5FEA5C5C08D081EA8C
:1047B000030100F05BB84FEA410C5FEA5C5CF6D1A4
:1047C0004FF00000014970470000FF070000F87F2C
:1047D0000EF1020E2EF0030E5EF8046B364205D485
:1047E000012A43EB030515F5001F12D8012841EB00
:1047F000010C1CF5001F0CD80ED14FEAD17C15F529
:10480000001F0CEB4C0C0CF1020C08BF4CEBD37CE2
:1048100004E04FF0080C01E04FEAD37C0CEB4C05B0
:1048200026FA05F606F00706B6F1040C06D20EEBE2
:10483000860CBDE870404CF0010C6047DFE80CF0DE
:10484000090B02024FF000414FF00000A1F50021DA
:1048500070BD19461046012851EB010418BFD4F56C
:10486000001484BF002001F0004170BD0808A0F5CD
:1048700000114FEA31017047000000000000000005
:1048800000000000000000003F40000000000000A9
:1048900000003000400030004000000009000BC064
:1048A0003D000BC03D00090018C024407FE02240BD
:1048B00031800000180024C01B000D8032400180B0
:1048C00003801C4027401C8007400040100060000F
:1048D00000000000000000000000000000001F8039
:1048E000204040200000402020401F8000000000A9
:1048F000090006001F8006000900000004000400F3
:104900003F80040004000000001000600000000070
:104910000000000004000400040004000400000083
:10492000000000400000000000000000002001C066
:1049300006003800400000001F802040204020403A
:104940001F800000000010403FC000400000000039
:1049500018C0214022402440184000001080204010
:10496000244024401B80000002000D0011003FC0C5
:10497000014000003C80244024402440238000006B
:104980001F80244024403440038000003000200079
:1049900027C03800200000001B8024402440244011
:1049A0001B8000001C0022C0224022401F8000000B
:1049B00000000000084000000000000000000000AF
:1049C0000460000000000000000004000A00110064
:1049D000208040400900090009000900090000008A
:1049E00000004040208011000A0004001800200050
:1049F00023402400180000001F8020402740294049
:104A00001F400000004007C039000F0001C00040F7
:104A100020403FC0244024401B8000001F802040D5
:104A2000204020403080000020403FC020402040F7
:104A30001F80000020403FC024402E4030C00000B6
:104A400020403FC024402E00300000000F001080A6
:104A5000204022403380020020403FC00400040078
:104A60003FC02040204020403FC020402040000068
:104A70000060202020203FC02000200020403FC0B8
:104A800024400B0030C0204020403FC02040004068
:104A9000004000C03FC03C0003C03C003FC00000DD
:104AA00020403FC00C4023003FC020001F8020401A
:104AB000204020401F80000020403FC024402400B0
:104AC000180000001F802140214020E01FA00000AE
:104AD00020403FC02440260019C0004018C0244098
:104AE0002440224031800000300020403FC0204060
:104AF0003000000020003F80004000403F80200048
:104B000020003E0001C0070038002000380007C028
:104B10003C0007C038000000204039C0060039C002
:104B2000204000002000384007C03840200000002E
:104B3000304021C02640384020C000000000000066
:104B40007FE0402040200000000070000C00038047
:104B5000004000000000402040207FE000000000F6
:104B600000002000400020000000000000100010A5
:104B700000100010001000100000000040000000B5
:104B800000000000000002800540054003C0004016
:104B900020003FC004400440038000000000038068
:104BA000044004400640000000000380044024400C
:104BB0003FC0004000000380054005400340000066
:104BC000000004401FC0244024402000000002E0F8
:104BD000055005500650042020403FC0044004000A
:104BE00003C000400000044027C000400000000057
:104BF00000100010041027E00000000020403FC01B
:104C00000140070004C00440204020403FC0004055
:104C10000040000007C0040007C0040003C00000FB
:104C2000044007C00440040003C0004000000380AB
:104C30000440044003800000041007F004500440C6
:104C400003800000000003800440045007F00010BF
:104C5000044007C0024004000400000000000640B9
:104C60000540054004C00000000004001F8004400F
:104C700000400000040007800040044007C00040DE
:104C80000400070004C0018006000400060001C003
:104C9000070001C006000000044006C0010006C075
:104CA000044000000410071004E001800600040026
:104CB0000000044005C00640044000000000000061
:104CC00004007BE040200000000000000000FFF036
:104CD00000000000000040207BE004000000000015
:104CE0004000800040002000200040000000000044
:104CF00000000000000000000000000000000000B4
:104D000000001FCC000C00000000000000000800A4
:104D1000300060000800300060000000022003FC4A
:104D20001E20022003FC1E200220000000000E189E
:104D300011043FFF10840C78000000000F00108465
:104D40000F3800C0077818840078000000780F84BE
:104D500010C411240E9800E40084000808006800C4
:104D600070000000000000000000000000000000D3
:104D7000000007E018182004400200000000400274
:104D80002004181807E00000000000000240024064
:104D900001800FF00180024002400000008000808E
:104DA00000800FF800800080008000000001000DEE
:104DB000000E000000000000000000000000008065
:104DC0000080008000800080008000800000000CD7
:104DD000000C0000000000000000000000000006C1
:104DE000001800600180060018002000000007F095
:104DF000080810041004080807F000000000080468
:104E000008041FFC000400040000000000000E0C59
:104E100010141024104411840E0C000000000C1813
:104E200010041104110412880C700000000000E04E
:104E30000320042408241FFC0024000000001F9805
:104E4000108411041104108810700000000007F095
:104E500008881104110418880070000000001C006C
:104E6000100010FC13001C001000000000000E38A1
:104E700011441084108411440E3800000000070013
:104E8000088C10441044088807F00000000000005F
:104E90000000030C030C00000000000000000000F4
:104EA000000101060000000000000000000000807A
:104EB0000140022004100808100400000220022013
:104EC0000220022002200220022000000000100424
:104ED00008080410022001400080000000000E00BD
:104EE0001200100C106C10800F00000003E00C1872
:104EF00013E4142417C4082807D000000004003C61
:104F000003C41C40074000E4001C000410041FFC04
:104F10001104110411040E880070000003E00C1845
:104F200010041004100410081C10000010041FFCD2
:104F3000100410041004080807F0000010041FFCFF
:104F40001104110417C410040818000010041FFCF9
:104F50001104110017C010000800000003E00C1835
:104F60001004100410441C780040000010041FFCC2
:104F700010840080008010841FFC100400001004C6
:104F800010041FFC100410040000000000030001C6
:104F9000100110011FFE10001000000010041FFC83
:104FA000110403801464181C1004000010041FFC7A
:104FB0001004000400040004000C000010041FFC96
:104FC0001F0000FC1F001FFC1004000010041FFC49
:104FD0000C04030000E010181FFC100007F0080884
:104FE000100410041004080807F0000010041FFC4F
:104FF00010841080108010800F00000007F0081847
:1050000010241024101C080A07F2000010041FFCD2
:105010001104110011C011300E0C000400000E1C10
:1050200011041084108410441C3800001800100073
:1050300010041FFC100410001800000010001FF8DE
:1050400010040004000410041FF8100010001E00DB
:1050500011E0001C007013801C0010001FC0103CE9
:1050600000E01F0000E0103C1FC000001004180CFE
:10507000163401C001C01634180C100410001C00B6
:10508000130400FC13041C00100000000804101C92
:105090001064108413041C041018000000000000A9
:1050A00000007FFE4002400240020000000030008D
:1050B0000C0003800060001C0003000000004002A0
:1050C000400240027FFE00000000000000000000DF
:1050D00020004000400040002000000000010001CE
:1050E000000100010001000100010001000040007A
:1050F00040002000000000000000000000000098B8
:10510000012401440144014400FC000410001FFC80
:105110000088010401040088007000000000007095
:1051200000880104010401040088000000000070F0
:1051300000880104010411081FFC0004000000F8AD
:10514000014401440144014400C80000000001047E
:1051500001040FFC1104110411001800000000D616
:1051600001290129012901C90106000010041FFCC1
:10517000008401000100010400FC0004000001049F
:10518000190419FC000400040000000000000003E2
:1051900000010101190119FE0000000010041FFCAC
:1051A0000024004001B4010C0104000000001004C0
:1051B00010041FFC0004000400000000010401FCB6
:1051C0000104010001FC0104010000FC010401FCD8
:1051D000008401000100010400FC0004000000F84C
:1051E000010401040104010400F80000010101FFB1
:1051F00000850104010400880070000000000070B8
:10520000008801040104010501FF000101040104FB
:1052100001FC00840104010001800000000000CCBA
:105220000124012401240124019800000000010050
:10523000010007F80104010400000000010001F86A
:10524000000400040004010801FC000401000180C6
:105250000170000C001001600180010001F0010CE0
:10526000003001C00030010C01F001000000010419
:10527000018C00740170018C0104000001010181A6
:105280000171000E0018016001800100000001841E
:10529000010C013401440184010C000000000000F5
:1052A0000000000001003EFC40024002000000003F
:1052B00000000000FFFF00000000000000004002AE
:1052C00040023EFC01000000000000000000600001
:1052D000800080004000400020002000000000000E
:1052E00000000000000000000000000000000000BE
:1052F00000000000000000000000000000000000AE
:105300000000000000000000000000000000000F8E
:1053100080380FFE380F80380000000000000000C9
:105320000000000000000000000001000006000076
:105330000C00003800003100000600000C000038AE
:1053400000003000000000000000000061800067E5
:10535000F807F98000618000618000618000618051
:105360000067F807F980006180000000000000007D
:10537000000001C0E003E0F00630080418081FFF39
:10538000FE040E080787F00381E000000000000023
:1053900001F000060C00040408060C7001F9C000BE
:1053A0000E00003BE000EC18070808040C1800038E
:1053B000E00000000001E00007F003F818041C08FA
:1053C00004170807E1D003C0E00023B0003C080048
:1053D0002008000010000000000000010000310063
:1053E000003200001C00000000000000000000006F
:1053F00000000000000000000000000000000000AD
:105400000000000000000000000000007F0001FF1D
:10541000C00780F00C0018100004200002000000FB
:105420000000002000021000040C00180780F001AA
:10543000FFC0007F0000000000000000000000002E
:10544000000000000000000042000066000066004E
:10545000003C0000180003FFC0001800003C0000E2
:10546000660000660000420000000000080000081E
:105470000000080000080000080001FFC00008004C
:1054800000080000080000080000080000000000FC
:10549000000100003100003200001C00000000008C
:1054A00000000000000000000000000000000000FC
:1054B00000000000080000080000080000080000CC
:1054C00008000008000008000008000008000008AC
:1054D000000000000000000000000000380000385C
:1054E0000000380000000000000000000000000084
:1054F00000000000000000000000000000060000A6
:105500001C000070000180000E0000380000C00088
:105510000700001C00003000000000000000000038
:105520007F8001FFE003807006001804000804007B
:105530000806001803807001FFE0007F8000000073
:10554000000000000000010008010008010008033D
:10555000FFF807FFF800000800000800000800003E
:105560000000000000000001C03802C0580400988C
:10557000040118040218040418061C1803F8180182
:10558000E0F800000000000000000001C0E003C0DF
:10559000F004000804080804080806180803F418B2
:1055A00001E7F00001E00000000000000000000042
:1055B0000300000D000011000061000081080301DC
:1055C0000807FFF80FFFF8000108000108000000BD
:1055D0000000000000E007FCD006080806100806DE
:1055E0001008061008061838060FF00607C000005D
:1055F00000000000000000003F8001FFE003843055
:1056000002081804100804100804100807181003F2
:105610000FF00007C000000000000000000003C001
:10562000000700000600000600F80607F80618004C
:1056300006E0000700000600000000000000000176
:10564000E1E003F7F0063410041808041808040C0D
:1056500008040C0806161803F3F001C1E00000006E
:1056600000000000F80003FC3003063804020804C0
:1056700002080402080404100308F001FFC0007FC0
:10568000000000000000000000000000000000001A
:105690000000000070380070380070380000000012
:1056A00000000000000000000000000000000000FA
:1056B0000000000000000000301A00301C00000054
:1056C00000000000000000000000000000000000DA
:1056D00000000008000014000022000041000080CB
:1056E00080010040020020040010080008000000B3
:1056F0000000000021000021000021000021000026
:1057000021000021000021000021000021000021D3
:105710000000000000000000000008000804001065
:1057200002002001004000808000410000220000B3
:10573000140000080000000000000003C00004C0C6
:1057400000040000080038080F3808083808100066
:105750000C300007E00003C0000000000000000063
:105760003F8000FFE0038070020F1006708804C0C5
:1057700088048308047F8802C09003012000FE4053
:105780000000080000180001F8003E0801C20007F0
:10579000020007E20000FE00001FC80001F8000040
:1057A0003800000804000807FFF807FFF80408089D
:1057B00004080804080804080806180803F4180177
:1057C000E7F00001E0000000000000003F8001FF62
:1057D000E0038070020018040008040008040008B8
:1057E0000400100600200780C00000000400080725
:1057F000FFF807FFF804000804000804000804008C
:105800001802001003807001FFE0007F800000009C
:1058100004000807FFF807FFF80408080408080454
:105820000808040808043E080400080600180100DF
:105830006000000004000807FFF807FFF8040808EC
:10584000040800040800040800043E0006000006E6
:105850000000018000000000000000003F8001FF08
:10586000E00380700600180400080402080402081F
:105870000203F00783F000020000020004000807A2
:10588000FFF807FFF80408080008000008000008F7
:105890000000080004080807FFF807FFF8040008E4
:1058A00000000000000004000804000804000807CD
:1058B000FFF807FFF80400080400080400080000CF
:1058C00000000000000000000006000007000001CA
:1058D00004000104000104000307FFFE07FFFC04AD
:1058E000000004000004000004000807FFF807FFA0
:1058F000F8040C08001800003E0004C7800503C827
:105900000600F80400380400180000080400080726
:10591000FFF807FFF8040008000008000008000076
:1059200008000008000008000018000060000000E7
:1059300004000807FFF807800807FC00007FC0008C
:1059400003F80007C000780007800807FFF807FF8A
:10595000F804000804000807FFF807000803C00067
:1059600000E000003800001E000007000001C00435
:1059700000F007FFF8040000000000007F8001FF36
:10598000E0038070060018040008040008060018F0
:1059900003003001FFE0007F8000000004000807E2
:1059A000FFF807FFF80404080404000404000404DA
:1059B00000040400060C0003F80001F000000000E1
:1059C000000000007F8001FFE00380700600880473
:1059D00000880400C806003C03003E01FFE6007F8B
:1059E0008400000004000807FFF807FFF804080817
:1059F000040800040C00040F00040BC00610F003A0
:105A0000F03801E00800000800000001E0F803F0B1
:105A100030063010041808041808040C08040C0898
:105A20000206180207F00781E0000000018000066E
:105A3000000004000004000004000807FFF807FF4E
:105A4000F8040008040000040000060000018000C3
:105A500004000007FFE007FFF00400180000080042
:105A6000000800000800000800000804001007FFFC
:105A7000E004000004000006000007E00007FE004C
:105A8000041FE00001F80000380001E0043E0007B8
:105A9000C00006000004000004000007E00007FF4B
:105AA000C0041FF80007C007F80007FF80043FF894
:105AB0000007C004F8000700000400000000000414
:105AC000000806001807C07805F1C8003E00001F56
:105AD000800463E80780F80600180400080000004E
