:020000040800F2
:10000000F0C90020D5010008FD1900088F1900086B
:1000100093190008C9050008154B000800000000EE
:100020000000000000000000000000007948000807
:100030007506000800000000490500087D4800081A
:10004000EF010008EF010008EF010008EF010008D0
:10005000EF010008EF010008EF010008EF010008C0
:10006000EF010008EF010008EF010008EF010008B0
:10007000EF010008EF010008EF010008EF010008A0
:10008000EF010008EF010008EF010008EF01000890
:10009000EF010008EF010008EF010008EF01000880
:1000A000EF010008EF010008EF010008EF01000870
:1000B000EF010008EF010008EF010008EF01000860
:1000C000EF010008EF010008EF010008EF01000850
:1000D000EF010008E94A0008EF010008EF010008FD
:1000E000EF010008EF010008EF010008EF01000830
:1000F000EF010008EF010008EF010008EF01000820
:10010000EF010008EF010008EF010008EF0100080F
:10011000EF010008EF010008EF010008EF010008FF
:10012000EF010008EF010008EF010008EF010008EF
:1001300000F002F800F03FF80AA090E8000C8244BA
:100140008344AAF10107DA4501D100F034F8AFF297
:10015000090EBAE80F0013F0010F18BFFB1A43F0A5
:1001600001031847C0B40000E0B40000103A24BFF7
:1001700078C878C1FAD8520724BF30C830C144BF0C
:1001800004680C607047000000230024002500264E
:10019000103A28BF78C1FBD8520728BF30C148BFEA
:1001A0000B607047782900F0A180002070471FB5D0
:1001B0001FBD10B510BD00F051F91146FFF7F7FF54
:1001C00007F0E6FD00F06FF903B4FFF7F2FF03BCA0
:1001D00004F0BEFC0948804709480047FEE7FEE7F7
:1001E000FEE7FEE7FEE7FEE7FEE7FEE7FEE7FEE7E7
:1001F00004480549054A064B704700009548000829
:1002000031010008F0C30020F0C90020F0C5002033
:10021000F0C5002072B6704762B6704772B602B47D
:10022000EFF3118180F31188BFF34F8FBFF36F8F0E
:10023000084602BC62B6704772B680F31188BFF3FD
:100240004F8FBFF36F8F62B6704730BF704720BFCC
:100250007047B0FA80F0704790FAA0F0B0FA80F0E2
:10026000704790FAA0F07047704700000FB404493F
:1002700010B503AA029800F0C3F810BC5DF814FB97
:10028000240000202DE9F0410E46044600202062A3
:100290002046E168884730B3252805D0D4E90121FC
:1002A0009047206A401CF2E7E16820460027884713
:1002B000050018D0A5F14100192802D820354FF4C7
:1002C00000673246294620462760FFF76BFF40B1A2
:1002D000012804D0F61D26F007060836D8E7361D9B
:1002E000D6E72846DAE7206ABDE8F08170B5044613
:1002F0000D4621461068AFF300802188090502D51C
:100300000F4A7A4402E00E4A7A440E32002104F188
:10031000240305E000F00F060009965D5E54491CB9
:100320000028F7D120780023000704D5702D02D0D3
:1003300009B1022311322046BDE8704000F006B832
:10034000F6B2000070477047704770472DE9F047DC
:100350000D4699469246044600F124080168880635
:1003600004D5E06921F01001216000E00120A842DD
:1003700001DD471B00E00027A1697A1902EB0900A3
:10038000081AA0612078C00602D42046AFF300808E
:10039000002608E0D4E901211AF806009047206AF7
:1003A000401C761C20624E45F4DB2078C0060AD53E
:1003B0002046AFF3008006E0D4E9012130209047C9
:1003C000206A401C2062381EA7F10107F4DC07E018
:1003D000D4E9012118F805009047206A401C2062EA
:1003E000281EA5F10105F3DC2046AFF3008020783C
:1003F000000602D50220BDE8F0870120FBE70000DF
:10040000074B70B50D467B4400F011F804462846B2
:1004100000F020F810B14FF0FF3070BD204670BDE5
:100420000F48000001694A1C02610878704700B556
:100430008FB0CDE901310021059105497944CDE91D
:10044000031011466846FFF71DFF0FB000BD000006
:10045000E5FFFFFF007B00F080007047754600F06D
:100460002BF8AE4605006946534620F00700854646
:1004700018B020B5FFF7BCFEBDE820404FF00006E5
:100480004FF000074FF000084FF0000B21F007017C
:10049000AC46ACE8C009ACE8C009ACE8C009ACE8BF
:1004A000C0098D46704710B50446AFF30080204662
:1004B000BDE81040FFF788BE004870478CC300209D
:1004C00072B64EF62250CEF2000040F2FF01C0F2AA
:1004D00000010170002080F3098840F26400C2F23C
:1004E0000000016881F3088802F072FB40F292007C
:1004F000C2F2000040F29301C2F200010A780270D9
:1005000040F20C10C2F2000040F21011C2F20001E1
:100510000A680260106880F30988EFF3148040F0E5
:10052000020020F0040080F31488BFF36F8FBDE851
:10053000F04F0FBCBDE8005006BC62B6084721482A
:100540004FF080510160704772B640F26802C2F20B
:100550000002116881F31188BFF34F8FBFF36F8FD3
:1005600062B6EFF3098020E9F04F40F20C15C2F2B9
:10057000000529680860744602F02AFB40F29200E8
:10058000C2F2000040F29301C2F200010A78027048
:1005900040F21011C2F200010A682A6044F0040E11
:1005A0001068B0E8F04F80F3098840F20002C0F212
:1005B000000272B682F31188BFF34F8FBFF36F8FC3
:1005C00062B6704704ED00E000BFFEE710B500F032
:1005D00021F800F019F810BD10B5002400BF00BFCD
:1005E0004020FFF71BFE044600BF00BF1021054856
:1005F00001F0D1F900BF00BF2046FFF71DFE00BF8C
:1006000000BF10BDC0B6002010B5FFF7E5FF10BD5C
:1006100000BFFEE710B500200249086000F00AF8AC
:1006200010BD000060000020014908607047000014
:100630006000002010B50A48006840F0807008494A
:1006400008600020074948600846006840F0010043
:10065000086000F0B9FC0446FFF7E6FF10BD00009B
:10066000FCED00E0001000E0014840687047000029
:10067000001000E07047000070B50446B3F5804FED
:1006800013D1D1E9000540EA05108D6840EA052044
:100690008D6928438D8940EA054054F82250064E62
:1006A0003540284344F8220003E06FF0704044F8DE
:1006B0002200002070BD00000000F0CF70B502469F
:1006C000086852F8200020F001000E6842F8260069
:1006D0008868082801D1402300E0002348681843B7
:1006E0008E683043CE6830430E6930434E693043E4
:1006F000CE6930430E6A30434E6A30438E6A3043CF
:10070000CE6A30430E6B40EA060488690443486BA6
:100710000443074D45F4806545F4E025086852F828
:100720002000A84320430E6842F82600002070BD38
:100730007FFB080010B50346D1E9000440EA04102D
:100740008C6840EA04208C8940EA0444088A401EF0
:1007500044EA0054087D801E44EA00608C6920430E
:10076000541C53F8244004F040442043541C43F8E4
:100770002400002010BD000070B50446002594F848
:100780002100022803D00420A0630125C1E02068D5
:10079000006820F00E00216808602068006820F0E2
:1007A0000100216808605C492068884252D95A4992
:1007B00078392068884201D1012047E056496439E0
:1007C0002068884201D1102040E053495039206808
:1007D000884201D1801539E04F493C392068884270
:1007E00001D1801432E04C4928392068884202D176
:1007F0004FF480302AE0484914392068884202D1F9
:100800004FF4801022E044492068884201D140041E
:100810001CE042492068884201D1012016E03F498E
:1008200014312068884201D110200FE03B49283163
:100830002068884201D1801508E038493C312068A1
:10084000884201D1801401E04FF480303349091F00
:10085000086051E0304978392068884201D1012090
:1008600047E02D4964392068884201D1102040E0DA
:10087000294950392068884201D1801539E026493C
:100880003C392068884201D1801432E0224928395D
:100890002068884202D14FF480302AE01E49143982
:1008A0002068884202D14FF4801022E01A49206863
:1008B000884201D140041CE018492068884201D1D7
:1008C000012016E0154914312068884201D110201A
:1008D0000FE0124928312068884201D1801508E0D4
:1008E0000E493C312068884201D1801401E04FF468
:1008F0008030094980394860012084F8210000BF18
:10090000002084F8200000BF606B10B12046616BAE
:100910008847284670BD000080000240080402405D
:100920002DE9F847024600239C467BE14FF0010881
:1009300008FA03F4D1F8008008EA0400A0427DD14F
:10094000DFF8F4A2D1F80480A8EB0A09D0453AD028
:1009500014DCB8F1030F50D009DCB8F1000F31D02E
:10096000B8F1010F1CD0B8F1020F49D120E0B8F165
:10097000110F18D0B8F1120F42D11EE0B9F5881F3F
:1009800025D006DCB9F5803F20D0B9F5801F37D1DE
:100990001AE0B9F5001F18D0B9F5041F30D117E0DF
:1009A000D1F80CC02DE0D1F80C8008F1040C28E03F
:1009B000D1F80C8008F1080C23E0D1F80C8008F184
:1009C0000C0C1EE000BF00BF00BF00BF00BF00BF97
:1009D000D1F80880B8F1000F02D14FF0040C0BE001
:1009E000D1F80880B8F1010F03D14FF0080C146161
:1009F00002E04FF0080C546103E04FF0000C00E0FF
:100A000000BF00BFFF2801D8904601E002F10408B2
:100A10004646FF2802D84FEA830803E0A3F10808FE
:100A20004FEA88084746D6F800804FF00F0909FAC8
:100A300007F928EA09080CFA07F900E07AE048EA21
:100A40000908C6F80080D1F8048008F08058B8F191
:100A5000805F6FD100BFDFF8E481D8F8188048F0DC
:100A60000108DFF8D891C9F81880C846D8F818806E
:100A700008F00108CDF8008000BF00BF4FEAB93888
:100A80004FEA930958F829504FEA83784FEA1879CA
:100A90004FF00F0808FA09F825EA0805DFF8A081E9
:100AA000424502D14FF0000824E0DFF8988142452A
:100AB00002D14FF001081DE0DFF88C81424502D1E0
:100AC0004FF0020816E0DFF88481424502D14FF072
:100AD00003080FE0DFF87881424502D14FF00408A7
:100AE00008E0DFF87081424502D14FF0050801E0CF
:100AF0004FF006084FEA83794FEA197908FA09F8A6
:100B000048EA0505DFF850814FEA930948F8295073
:100B1000D1F8048008F48038B8F5803F0BD1DFF8B5
:100B20003C81D8F8008048EA0008DFF83091C9F825
:100B300000800AE075E0DFF82481D8F8008028EA18
:100B40000008DFF81891C9F80080D1F8048008F493
:100B50000038B8F5003F0ED1DFF8008108F1040835
:100B6000D8F8008048EA0008DFF8F09009F104099D
:100B7000C9F800800DE0DFF8E48008F10408D8F837
:100B8000008028EA0008DFF8D49009F10409C9F8C8
:100B90000080D1F8048008F48018B8F5801F0ED1C9
:100BA000DFF8B88008F10808D8F8008048EA0008A3
:100BB000DFF8A89009F10809C9F800800DE0DFF816
:100BC0009C8008F10808D8F8008028EA0008DFF8BF
:100BD0008C9009F10809C9F80080D1F8048008F464
:100BE0000018B8F5001F0ED1DFF8708008F10C086E
:100BF000D8F8008048EA0008DFF8609009F10C0995
:100C0000C9F800800DE0DFF8548008F10C08D8F82E
:100C1000008028EA0008DFF8449009F10C09C9F8BF
:100C200000805B1CD1F8008028FA03F8B8F1000FAF
:100C30007FF47CAEBDE8F887000011100010024080
:100C400000080140000C0140001001400014014068
:100C500000180140001C0140080001400004014050
:100C6000024693680B400BB1012000E00020704762
:100C700010B5C26821EA020302EA010443EA044310
:100C8000036110BD0AB1016101E00B04036170470B
:100C900001480068704700002C00002003480068ED
:100CA0000349097808440149086070472C00002076
:100CB0003400002010B50848006840F010000649D4
:100CC0000860032000F080F80F2000F007F800F023
:100CD0002BF8002010BD00000020024070B5044633
:100CE0000E4800784FF47A71B1FBF0F00C490968B6
:100CF000B1FBF0F5284600F073FC08B1012070BD8F
:100D0000102C07D200222146501E00F01EF8054884
:100D1000046001E00120F2E70020F0E73400002049
:100D200000000020300000207047014608460028DF
:100D300009DB00F01F0301229A4043099B0003F1E5
:100D4000E023C3F8002100BF70472DE9F05F804623
:100D50000D461646002703F0DFFE074639462A46B1
:100D6000334601F00700C0F1070ABAF1040F02D9B7
:100D70004FF0040A01E0C0F1070AD14600F1040A6D
:100D8000BAF1070F02D24FF0000A01E0A0F1030A06
:100D9000D4464FF0010A0AFA09FAAAF1010A0AEA4E
:100DA000020A0AFA0CFA4FF0010B0BFA0CFBABF13A
:100DB000010B0BEA030B4AEA0B042146404603F001
:100DC000B3FEBDE8F09F000000BF00F00702064B35
:100DD00019684FF6FF031940044B0B4343EA022105
:100DE000014B196000BF70470CED00E00000FA05F0
:100DF00070B504460D460CB9012070BD5A48006814
:100E000000F00700A8420ED25748006820F0070003
:100E10002843554908600846006800F00700A842CA
:100E200001D00120E9E7207800F0020002281DD15E
:100E3000207800F00400042805D14C48406840F4B4
:100E4000E0604A494860207800F00800082805D191
:100E50004648406840F46050444948604348406810
:100E600020F0F000A168084340494860207800F075
:100E7000010078B36068012806D13C48006800F49E
:100E8000003090B90120B8E76068022806D13748E1
:100E9000006800F0007040B90120AEE733480068F8
:100EA00000F0020008B90120A7E73048406820F0B0
:100EB0000300616808432D494860FFF7E9FE0646D4
:100EC00009E0FFF7E5FE801B41F28831884202D934
:100ED000032092E707E02548406800F00C006168B5
:100EE000B0EB810FEDD12048006800F00700A84268
:100EF0000ED91D48006820F0070028431A490860F1
:100F00000846006800F00700A84201D0012074E7FD
:100F1000207800F00400042807D11448406820F429
:100F2000E060E168084311494860207800F008005B
:100F3000082808D10D48406820F46050216940EA33
:100F4000C1000A49486000F03FF808494968C1F308
:100F50000311074A515CC84006490860064800680A
:100F6000FFF7BCFE002048E70020024000100240CE
:100F70008084000800000020300000200148006844
:100F8000704700000000002000B5FFF7F7FF04499C
:100F90004968C1F30221034A515CC84000BD00000A
:100FA000001002409084000800B5FFF7E7FF0449F5
:100FB0004968C1F3C221034A515CC84000BD00002A
:100FC0000010024090840008F0B585B00FF26C0C60
:100FD0009CE8E01001A8A0E8E0101CA52D68009591
:100FE00000210022002300240020194D696801F02F
:100FF0000C05F5B1042D02D0082D19D101E01548DA
:1010000019E001ADC1F38346AC5D01F4803555B103
:101010000F4D6D68C5F340451DF805200D4D654326
:10102000B5FBF2F302E00C4D04FB05F3184602E0B9
:1010300000BF084800BF00BF05B0F0BD02030405B3
:10104000060708090A0B0C0D0E0F10100102000014
:101050000010024000127A0000093D00F8B5044675
:101060000CB90120F8BD207800F00100002878D0EC
:10107000F848406800F00C0004280CD0F54840689F
:1010800000F00C00082811D1F248406800F48030CC
:10109000B0F5803F0AD1EF48006800F40030002826
:1010A0005FD0606800285CD10120DBE700BF60688A
:1010B000B0F5803F06D1E748006840F48030E5494C
:1010C000086028E0606858B9E248006820F4803081
:1010D000E04908600846006820F4802008601AE0B3
:1010E0006068B0F5A02F0BD1DA48006840F480208A
:1010F000D84908600846006840F4803008600AE07B
:10110000D448006820F48030D2490860084600685E
:1011100020F48020086000BF606888B1FFF7B8FD48
:10112000054606E0FFF7B4FD401B642801D9032003
:1011300098E7C848006800F400300028F2D010E0BA
:10114000FFF7A6FD054606E0FFF7A2FD401B642859
:1011500001D9032086E7BF48006800F4003000286A
:10116000F2D1207800F00200022857D1B948406837
:1011700000F00C0050B1B748406800F00C0008289F
:1011800018D1B448406800F4803098B9B14800687C
:1011900000F0020020B12069012801D0012061E7A0
:1011A000AC48006820F0F800616940EAC100A94934
:1011B000086033E02069E8B10120A7490860FFF723
:1011C00067FD054606E0FFF763FD401B022801D9D5
:1011D000032047E79F48006800F002000028F2D093
:1011E0009C48006820F0F800616940EAC100994914
:1011F000086013E0002098490860FFF749FD0546A4
:1012000006E0FFF745FD401B022801D9032029E72E
:101210009048006800F002000028F2D1207800F029
:10122000080008282DD1A069B8B101208B490860B9
:10123000FFF72EFD054606E0FFF72AFD401B0228BA
:1012400001D903200EE78348406A00F0020000281D
:10125000F2D0012003F0FCFA13E000207F4908607F
:10126000FFF716FD054606E0FFF712FD401B0228BA
:1012700001D90320F6E67748406A00F00200002812
:10128000F2D1207800F00400042873D100277148BF
:10129000C06900F0805070B900BF6E48C06940F06E
:1012A00080506C49C8610846C06900F080500090C9
:1012B00000BF00BF01276A48006800F48070B0B921
:1012C0006748006840F4807065490860FFF7E0FCFB
:1012D000054606E0FFF7DCFC401B642801D903202B
:1012E000C0E65F48006800F480700028F2D000BFBC
:1012F000E068012806D15748006A40F001005549CE
:10130000086227E0E06858B95248006A20F00100FE
:10131000504908620846006A20F00400086219E09B
:10132000E06805280BD14B48006A40F004004949A9
:1013300008620846006A40F0010008620AE0454879
:10134000006A20F00100434908620846006A20F064
:101350000400086200BFE068A0B1FFF799FC0546F1
:1013600009E0FFF795FC401B41F28831884202D921
:10137000032077E622E03748006A00F002000028E8
:10138000EFD012E0FFF784FC054608E0FFF780FC91
:10139000401B41F28831884201D9032062E62D4882
:1013A000006A00F002000028F0D1012F05D1294881
:1013B000C06920F080502749C86100BFE069C8B308
:1013C0002448406800F00C00082860D0E06902283A
:1013D00048D1002020490866FFF75AFC054606E080
:1013E000FFF756FC401B022801D903203AE61948B2
:1013F000006800F000700028F2D1206AB0F5803F4C
:1014000007D11448406820F40030A168084311490E
:101410004860D4E9080108430E49496821F4741171
:1014200008430C49486001200B490866FFF730FC6F
:10143000054607E03DE0FFF72BFC401B022801D9E1
:1014400003200FE60348006800F000700028F2D087
:101450002FE000000010024000004242800442429F
:1014600000700040002014490866FFF711FC054693
:1014700006E0FFF70DFC401B022801D90320F1E52F
:101480000E48006800F000700028F2D111E0E06919
:10149000012800D1E6E50948466806F48031206A53
:1014A000814204D106F47011606A814201D00120AA
:1014B000D8E50020D6E500000000424200100240BE
:1014C00070B504460E4615461CB1A069B0F5807F84
:1014D00001D1012070BD94F8410028B9002084F8A2
:1014E0004000204600F020F804F108012068FFF7D2
:1014F000E5F83146A2682068FFF71CF92946236BFE
:10150000D4E90102FFF7B8F8A168206850F821007B
:1015100040F00100A268216841F82200012084F80F
:1015200041000020D6E7000010B586B0044600BF99
:101530001E48406940F480701C4948610846406973
:1015400000F48070019000BF00BF00BF08468069B2
:1015500040F0200088610846806900F0200001907A
:1015600000BF00BF00BF0846806940F040008861AE
:101570000846806900F04000019000BF00BF4CF2B7
:101580000370029002200390012004900320059034
:1015900002A90748FFF7C4F94FF68070029002A92C
:1015A0000448FFF7BDF906B010BD0000001002406E
:1015B0000014014000180140042808D14FF0E02138
:1015C000096941F004014FF0E022116107E04FF09A
:1015D000E021096921F004014FF0E0221161704718
:1015E00070B504462546681EB0F1807F01D3012006
:1015F0000FE0681E4FF0E02148610F214FF0FF30EF
:1016000003F092FA00204FF0E02188610720086182
:10161000002070BD704700002DE9F04704462068A7
:1016200005682068C668206847694FF00008C14611
:1016300005F00F08B8F1000F0AD105F0200038B10D
:1016400006F0200020B1204603F04FF9BDE8F087F6
:10165000B8F1000F71D007F0010018B906F49070CE
:1016600000286AD005F0010030B106F4807018B18E
:10167000E06B40F00100E06305F0040030B107F0DA
:10168000010018B1E06B40F00200E06305F00200D9
:1016900030B107F0010018B1E06B40F00400E063E6
:1016A00005F0080048B106F0200010B907F001006D
:1016B00018B1E06B40F00800E063E06B68B305F040
:1016C000200028B106F0200010B1204603F00DF9EB
:1016D00020684069C0F38019E06B00F0080010B981
:1016E000B9F1000F22D0204603F0DFF820684069EE
:1016F00000F04000B0B12068406920F0400021684F
:101700004861606B50B11848616B4863606BFFF7CC
:1017100033F810B1606B416B88470CE02046FFF74F
:1017200079FF08E02046FFF775FF04E02046FFF749
:1017300071FF0020E06389E7FFE705F0800030B12A
:1017400006F0800018B1204603F09EF97EE705F010
:10175000400030B106F0400018B1204603F0B5F863
:1017600074E700BF72E700009748000810B5044610
:101770000CB9012010BDA06900B100E000BF94F8D1
:10178000390028B9002084F83800204600F028F8F5
:10179000242084F839002068C06820F400502168B3
:1017A000C860204603F0F2F82068006920F49040F9
:1017B000216808612068406920F02A00216848619A
:1017C0002068C06840F400502168C8600020E063D1
:1017D000202084F8390084F83A000020CAE700008D
:1017E00010B586B004462849206888424AD100BF17
:1017F00000BF2648806940F00400244988610846FB
:10180000806900F00400019000BF00BF00BF00BF6E
:1018100000BF0846806940F004008861084680697E
:1018200000F00400019000BF00BF00BF00BF00BF78
:101830000846806940F4804088610846806900F469
:101840008040019000BF00BF00BF481502900220F9
:101850000390012004900320059002A90C48FFF793
:101860005FF84FF4806002900020039002A90848BE
:10187000FFF756F82520FFF758FA032211462520D6
:10188000FFF763FA06B010BD0038014000100240B7
:101890000008014010B5034693F83A0020282FD1E4
:1018A00001B10AB9012010BD00BF93F8380001282A
:1018B00001D10220F7E7012083F8380000BF9962C8
:1018C0009A85DA850020D863222083F83A0000BF89
:1018D000002083F8380000BF1868C06840F48070AA
:1018E0001C68E0601868406940F001001C68606195
:1018F0001868C06840F020001C68E0600020D2E753
:101900000220D0E71D4A0168914236D11C4909885E
:1019100001F4004189BB1A49098801F4804171B181
:10192000184909780A2903D00021154A118024E0BA
:101930001349098841F40041114A11801DE0114901
:1019400009780D2906D10E49098841F480410C4AD5
:10195000118012E00B490978094A1288C2F30D027E
:10196000094B995406490988491C054A11801146BA
:101970000988C72901DD0021118070470038014026
:10198000280000202A000020600B0020704700BFC4
:10199000FEE700BFFEE730B505460C4622460021B3
:1019A000284600F001F830BD2DE9F04105460B4610
:1019B00094460027002402E03F021F43641C042CCD
:1019C000FAD3604605F00306294646B1344603E0E3
:1019D00001F8013B401E641C08B1042CF8D30A46F0
:1019E00001E080C2001F0428FBD2114602E001F88A
:1019F000013B401E0028FAD1BDE8F08170477047D6
:101A000070B5044600F09EF8002039490870394945
:101A100008703949087039490860394908603949FE
:101A200008703949087039490870394800680A2136
:101A3000B0FBF1F0374908603748056845B13748D1
:101A4000066803E0761E002028602D1D002EF9D1C7
:101A5000324801683048006802F074FA01F0D0FDA5
:101A600001F0F2FD00202E4908602E490880204632
:101A700001F002FB208800B170BD204601F008FB98
:101A8000208800B1F8E7002027490860274908802E
:101A900027490860274908802749086027490880A6
:101AA000204602F0C9F9208800B1E5E7204601F0A0
:101AB000ABFA208800B1DFE7204602F04FFA208819
:101AC00000B1D9E7204602F083F8208800B1D3E7BF
:101AD000204602F0D5FC208800B1CDE701F05CF98A
:101AE000FFF78DFF01201649087000BFC4E7000012
:101AF00070000020710000209E0000200C010020DA
:101B0000100100209200002093000020A40000207B
:101B100074B40008A000002040B4000844B40008D9
:101B20007C000020800000208C000020900000201D
:101B3000980000209C000020A8000020AC0000209D
:101B400072000020084800680849096800EB81001D
:101B5000074908600846006820F007000860402038
:101B6000044908607047000040B4000844B400080D
:101B7000640000206800002008480078012800D098
:101B8000704707480078FA2800D3F9E7044800783E
:101B9000401C0349087000BFF2E7000071000020FC
:101BA0007000002070B5002538480078012800D06A
:101BB00070BD00BF4020FEF731FB054600BF344832
:101BC000007828B900BF2846FEF736FB00BFEFE7D4
:101BD0002F480078401E2E4908700846007828B12A
:101BE00000BF2846FEF728FB00BFE1E72948007840
:101BF00028B100BF2846FEF71FFB00BFD8E72648E4
:101C000001682648006802F089F90446012C02D0D8
:101C1000002000F0ABF901F0E9FC2149087008460A
:101C2000007800EB40001F4951F820001E49086071
:101C3000084600681D49096888420FD1002000F05D
:101C4000ABFF0446012C03D01848006800F08EF961
:101C500000BF2846FEF7F0FA00BFA9E71248006867
:101C6000D0F89400401C10490968C1F8940010484D
:101C70000068401C0E490860FEF761FC00BF284662
:101C8000FEF7DAFA00BF00BF92E700007100002003
:101C9000700000209E00002044B4000840B40008FA
:101CA0009300002030C00020100100200C01002013
:101CB000CC0000202DE9F04104460E4615460027D1
:101CC0002148007820B142F6E1602880BDE8F0812B
:101CD0001CB945F6C3502880F8E700BF00BF40207C
:101CE000FEF79CFA074600BF00BF184920688842EB
:101CF0000AD100BF00BF3846FEF79EFA00BF00BF02
:101D000045F6C1502880E1E7104820606660002059
:101D10002062606284F82800E06204F1080001F0AB
:101D2000B0FB204601F0D0FA09480088401C084961
:101D3000088000BF00BF3846FEF77EFA00BF00BF34
:101D40000020288000BFC1E7700000204D55545886
:101D5000900000202DE9F0470646894617461C46AC
:101D6000089D4FF0000A7C48007820B146F2AE1082
:101D70002880BDE8F08779480078012803D045F62F
:101D800089602880F5E71EB945F6C3502880F0E742
:101D90001FB1B7F5004F02D100E000BF03E045F6E8
:101DA00025602880E5E700BF6D493068884203D090
:101DB00045F6C4502880DCE700BF00BF4020FEF796
:101DC0002DFA824600BF00BF96F82800B8B96548D2
:101DD00000687062012086F828000CB1F06A20606B
:101DE00031466048006801F087FA00BF00BF5046E6
:101DF000FEF722FA00BF00BF00202880B9E759494A
:101E0000706A0968884221D196F82800FF280AD113
:101E100000BF00BF5046FEF70FFA00BF00BF45F2FB
:101E200084702880A5E796F82800401C86F82800D2
:101E30000CB1F06A206000BF00BF5046FEF7FCF90D
:101E400000BF00BF45F28270288092E707F400408F
:101E500068B100BF00BF5046FEF7EEF900BF00BFFB
:101E60000CB10020206046F2B010288081E73E4887
:101E7000007868B100BF00BF5046FEF7DDF900BF33
:101E800000BF0CB10020206046F66350288070E748
:101E9000D6F8248098F83B003249096891F83B1045
:101EA000884206DD2F48006890F83B10404601F05C
:101EB00015FF4B4604222B480168304601F072FAA8
:101EC00000BF00BF5046FEF7B7F900BF00BF00F0EB
:101ED00055F800BF00BF4020FEF7A0F9824600BFC2
:101EE00000BF2048006890F8390030B101280CD0BC
:101EF00002281AD0032821D110E01CB1194800682B
:101F0000C06C2060002028801CE01CB115480068CF
:101F1000C06C206046F2A910288013E00CB10020AC
:101F2000206047F2D92028800CE01CB10D480068E1
:101F3000C06C206045F6C250288003E046F62E6053
:101F4000288000BF00BF00BF00BF5046FEF774F9F5
:101F500000BF00BF00BF0CE7700000207100002030
:101F60004D5554580C0100209E00002010B5044629
:101F700000BFFEF74DFB00BF10BD000010B50024F0
:101F800022480078012800D010BD2148007800B117
:101F9000FAE72048007800B1F6E700BF4020FEF7DE
:101FA0003DF9044600BF01F021FB1B4908700846BB
:101FB000007800EB4000194951F8200018490860EA
:101FC0000846006817490968884205D100BF2046C5
:101FD000FEF732F900BFD7E711480068D0F8940047
:101FE000401C0F490968C1F894000F480068401C64
:101FF0000D490860FEF7A3FA00BF2046FEF71CF962
:1020000000BFBFF36F8F00BFBEE70000710000206C
:10201000700000209E0000209300002030C00020AF
:10202000100100200C010020CC00002070B50446F7
:1020300000251748007818B146F66250208070BD20
:1020400014480078012803D045F689602080F6E71F
:1020500011480078FA2803D345F209202080EEE7E2
:1020600000BF00BF4020FEF7D9F8054600BF00BF03
:1020700009480078401C0849087000BF00BF284686
:10208000FEF7DAF800BF00BF0020208000BFD6E7CF
:1020900070000020710000209E0000202DE9F0411A
:1020A00005460C461646002700BF00BF4020FEF73D
:1020B000B5F8074600BF00BF1DB900200D490870E4
:1020C00002E001200B49087014B10B48046006E0DF
:1020D0000A4800680A21B0FBF1F00749086000BF18
:1020E00000BF3846FEF7A8F800BF00BF00203080D0
:1020F000BDE8F081A4000020A000002074B4000816
:1021000070B5044600251F48007818B146F66550A2
:10211000208070BD1C480078012803D045F68960F6
:102120002080F6E71948007818B946F664502080F8
:10213000EFE700BF00BF4020FEF770F8054600BF84
:1021400000BF12480078401E104908700846007809
:1021500050B100BF00BF2846FEF76EF800BF00BFB9
:1021600046F663502080D4E700BF00BF2846FEF744
:1021700063F800BF00BFFFF701FF0020208000BF11
:10218000C7E7000070000020710000209E000020C2
:1021900070B504461C480078012803D045F68B60D2
:1021A000208070BD00256D1C6D1C6D1C17480088BB
:1021B000A84203DC45F68C602080F2E714480078E2
:1021C000E8B901F013FA134908700846007812497B
:1021D00008701048007800EB4000104951F82000CA
:1021E0000F490860084600680E4908600120084948
:1021F0000870FEF765F943F69920208002E045F665
:102200008A60208000BFCCE772000020D40000204C
:1022100071000020930000209200002030C00020B8
:10222000100100200C0100202DE9F04107464FF07D
:10223000000800BF00BF4020FDF7F0FF804600BF50
:1022400000BF00203B4908803B4908603B490860CB
:102250003B4908603B4908603B4908603B490881AD
:1022600000BF00BF4046FDF7E7FF00BF00BF00BF53
:1022700000BF4020FDF7D2FF804600BF00BF3448BA
:10228000046800BF00BF4046FDF7D6FF00BF00BF97
:1022900021E000BF00BF4020FDF7C0FF804600BF27
:1022A00000BF002044F8800FE062606120826082FD
:1022B00020626062FEF7D8F9E061803C04F16C06B0
:1022C0000020B081D4F8BC4000BF00BF4046FDF7FD
:1022D000B3FF00BF00BF002CDBD100BF00BF402018
:1022E000FDF79CFF804600BF00BF1A48056800BF8D
:1022F00000BF4046FDF7A0FF00BF00BF13E000BFD6
:1023000000BF4020FDF78AFF804600BF00BF05F1F7
:1023100020060020B081AD6900BF00BF4046FDF738
:102320008BFF00BF00BF002DE9D100203880BDE841
:10233000F0810000B2000020C8000020E40000206E
:10234000E8000020FC0000200001002024C0002044
:10235000D000002098000020704700002DE9FF4FBA
:1023600085B004469346DDE91995DDE91286159F8F
:10237000002002906248007828B147F24A10288075
:1023800009B0BDE8F08F1CB947F2AD102880F7E71F
:10239000BBF1000F03D147F24F102880F0E71EB9C0
:1023A00046F62F602880EBE756480068874203D244
:1023B00046F630602880E3E71498B84203D346F627
:1023C00031602880DCE7B8F11E0F06D9B8F11F0F85
:1023D00003D046F273202880D2E7B8F11F0F06D150
:1023E0004948844203D046F273202880C8E720463B
:1023F00001F032FD0020288009F0010010B909F039
:10240000020088B109F0020070B1B24600200490C9
:1024100007E00020CAF800000AF1040A0498401CF2
:1024200004900498B842F4D3149806EB800003900B
:10243000CDE9007932465846039B089900F044FBE9
:102440008246B24503D246F63260288098E7394684
:10245000304601F077FDC4F824B00898A0620698D1
:10246000E06084F83B8084F83C80C4F800A00398C6
:10247000A0601798E065179818B92448006820668E
:1024800001E0179820661898606026626764A4F8D7
:10249000489004F16C00169900F08CFE204600F084
:1024A0003BF800BF00BF4020FDF7B8FE029000BF20
:1024B00000BF94F83B0001F0AFF8204601F00CF9A2
:1024C000204601F07FFC12480088401C104908801B
:1024D00010480078012807D000BF00BF0298FDF720
:1024E000ABFE00BF00BF4BE700BF00BF0298FDF787
:1024F000A3FE00BF00BFFFF741FD00BF40E70000A3
:102500007000002070B4000860BF0020A000002010
:10251000D400002071000020704700002DE9F04138
:1025200004460E464FF000086148007820B147F29B
:102530004E103080BDE8F0815E480078012803D05D
:1025400045F689603080F5E75B48844203D147F265
:102550004C103080EEE784B900BF00BF4020FDF78B
:102560005DFE804600BF00BF5448046800BF00BF46
:102570004046FDF761FE00BF00BF00BF00BF402026
:10258000FDF74CFE804600BF00BF94F83A000828D3
:102590005ED2DFE800F004090E10080A0F11204691
:1025A00001F0D8F85FE05EE000BF204601F080FD5A
:1025B00059E000BF00BF00BF94F83800082839D2A6
:1025C000DFE800F0040705380D08090600BF00BF6A
:1025D00031E000BF00BF204600F08BFF2BE0606BB6
:1025E000456A15F83B7F204600F083FF287869781C
:1025F0003B3D884212D095F83B0094F83B1088424E
:102600000CD1284600F0ABFE074695F83C00B842D6
:1026100002DA95F83C0000E038460746002084F8CE
:10262000380095F83B00B84203D03946284601F0FF
:1026300055FB00E000BF00BF94F83A00032803D028
:1026400094F83A00072802D1204601F031FD0AE053
:1026500000BF00BF4046FDF7EFFD00BF00BF46F6DC
:102660002D60308066E700BF206C10B1204600F07E
:1026700047FE04F16C0000F049FD204600F022F80E
:10268000204601F0B7FB0E480088401E0C49088028
:10269000FF2084F83A000020308000BF00BF404691
:1026A000FDF7CAFD00BF00BFFFF768FC00BF41E7B0
:1026B000700000207100002060BF00200C0100208D
:1026C000D4000020704700002DE9F05F80460F46DF
:1026D00016461C460A9D4FF0000B7548007828B13D
:1026E00046F2AE1028800020BDE8F09F71480078C7
:1026F000012804D045F6896028800020F4E726B937
:1027000046F2D52028800020EEE71FB1B7F5004F34
:1027100002D100E000BF04E045F6256028800020DB
:10272000E2E700BF0CB10020206000BF00BF4020E6
:10273000FDF774FD834600BF00BF5F48006800F1ED
:102740006C092B4622463146484600F0FFFC824683
:10275000288800BBB4B1FDF787FF2168401A5649AD
:102760000968C86754480068D0F880005249096871
:10277000C96F884206D250480068C06F4E49096848
:10278000C1F8800000BF00BF5846FDF755FD00BFEF
:1027900000BF5046A8E707F4004058B146F2B01019
:1027A000288000BF00BF5846FDF746FD00BF00BFB0
:1027B000002099E74148007858B100BF00BF584653
:1027C000FDF73AFD00BF00BF46F6635028800020A9
:1027D0008AE74346022238480168002000F0E2FD03
:1027E00000BF00BF5846FDF727FD00BF00BFFFF741
:1027F000C5FB00BF00BF4020FDF710FD834600BFB2
:1028000000BF2D48006890F8390020B101282CD075
:10281000032834D134E028480068D0F864A0264862
:102820000068B0F868003080E4B123480068C06CEC
:102830002060FDF719FF20490968C96C401A1E493C
:102840000968C8671C480068D0F880001A49096800
:10285000C96F884206D218480068C06F16490968D7
:10286000C1F880000020288017E04FF0000A002007
:10287000308004B1206046F2A91028800DE000BF2E
:102880004FF0000A002030801CB10B480068C06C7B
:10289000206047F2D920288000BF00BF00BF00BFE2
:1028A0005846FDF7C9FC00BF00BF50461CE70000BA
:1028B00070000020710000200C0100209E0000200C
:1028C0002DE9FC470446884691461F460A9D4FF075
:1028D000000A42480078012804D045F68960288023
:1028E000BDE8FC874FB1102F08D0B7F5004F06D0D8
:1028F000A7F50040103820B902E000BF00BF00BFBC
:1029000003E045F625602880EAE700BFFDF7ACFE4E
:1029100006460020288000BF00BF4020FDF77EFC57
:10292000824600BF00BF0CB92D48046894F83A00F5
:10293000082845D2DFE800F00405181906071A1B1D
:1029400000BF00BF00BF3B464A46414604F16C0051
:10295000CDE9006500F036FC00BF00BF5046FDF732
:102960006BFC00BF00BF36E000BF00BF00BF94F8A3
:102970003800022813D14B464246214600200096DB
:1029800000F0DEFD00BF00BF5046FDF755FC00BF64
:1029900000BF07F4004090B9FFF7F0FA0FE03B46A4
:1029A0004A46414604F16C00CDE9006500F00AFC9E
:1029B00000BF00BF5046FDF73FFC00BF00BF0AE06C
:1029C00000BF00BF5046FDF737FC00BF00BF46F612
:1029D0002D60288000BF00BF00BF81E7710000208C
:1029E0000C010020704700002DE9F05F05460E46FF
:1029F00017461C464FF0000B3148007820B147F2D3
:102A000059102080BDE8F09F1EB946F2D5202080E5
:102A1000F8E71FB946F2D5202080F3E700BF00BFDA
:102A20004020FDF7FBFB834600BF00BF0DB92548E2
:102A30000568286868B900BF00BF5846FDF7FCFB71
:102A400000BF00BF00203060386047F25210208085
:102A5000D8E795F8480000F0010068B900BF00BF52
:102A60005846FDF7E9FB00BF00BF0020306038602A
:102A700047F254102080C5E7D5F820A00AF1200ABB
:102A8000D5F8449000BF00BF5846FDF7D5FB00BF06
:102A900000BF4FF0000803E00AF1040A08F1010842
:102AA000C84503D2DAF800000028F5D0C6F8008047
:102AB000A9EB080038600020208000BFA2E70000DA
:102AC000700000200C010020F0B50446DDE9055639
:102AD00002EB850020F007004FF0807C071F38468E
:102AE000C7F800C0071F38463C60DFF8A8C0071FC2
:102AF0003846C7F800C04FF0123C071F3846C7F8E9
:102B000000C04FF0033C071F3846C7F800C04FF025
:102B1000023C071F3846C7F800C0071F38463B6015
:102B2000071F384639606FF0020C071F3846C7F898
:102B300000C04FF0113C071F3846C7F800C04FF0E7
:102B4000103C071F3846C7F800C04FF0093C071F6C
:102B50003846C7F800C04FF0083C071F3846C7F892
:102B600000C04FF0073C071F3846C7F800C04FF0C1
:102B7000063C071F3846C7F800C04FF0053C071F4A
:102B80003846C7F800C04FF0043C071F3846C7F866
:102B900000C0F0BD053F000830B504460CB90B4835
:102BA0000468216A2068884206D3616C206A00EBC1
:102BB00081002168884201D8002030BD616C206A04
:102BC00001F0ACF905462846F7E700000C010020AB
:102BD00070B5FDF749FD05461548006815490968B7
:102BE000884215D012480068D0F89C00281A104975
:102BF0000968C1F898000E480068D0F8A0000C4998
:102C00000968D1F89810084409490968C1F8A0007A
:102C100008480068C0F89C500020FFF7BDFF04463C
:102C2000012C03D002480068FFF7A0F970BD000036
:102C30000C010020100100202DE9F04106460D4650
:102C4000144600272748007820B147F275202080DD
:102C5000BDE8F08124480078012803D045F689605A
:102C60002080F5E72148007818B146F663502080AF
:102C7000EEE735B1022D05D0042D05D0082D04D185
:102C800001E000BF00BF00BF03E045F625602080E3
:102C9000DEE700BF00BF00BF4020FDF7BFFA0746D8
:102CA00000BF00BF23462A4631461148006801F0A4
:102CB000B9F9208838B100BF00BF3846FDF7BCFA2B
:102CC00000BF00BFC4E70A48006800F043FD00BF32
:102CD00000BF3846FDF7B0FA00BF00BFFFF74EF95E
:102CE00000BFB5E770000020710000209E000020AA
:102CF0000C01002010B50A480078012800D010BD52
:102D000000F014F80749097801EB4101064A02EB8B
:102D1000810000F04DFD012001F094FA00BFEEE7C4
:102D2000710000209200002030C00020704710B5D4
:102D3000002400BF00BF4020FDF770FA044600BF2A
:102D400000BFFEF719FF00BF00BF2046FDF774FA71
:102D500000BF00BFFFF7CEFFFEF724FF10BD00004D
:102D600010B5014640224B1E4FF0E0246361094B31
:102D7000186820F07F4040EA0260186023461B6913
:102D800043F00503236123461B6943F002032361DB
:102D900010BD000020ED00E00EB547480290474806
:102DA00000904748029047480290474800904748A3
:102DB0000290474801904748029047480290474890
:102DC0000290474802904748019047480190474881
:102DD0000190474802904748019047480290474871
:102DE0000190474801904748019047480190474863
:102DF0000290474802904748029047480190474850
:102E00000290474802904748019047480190474840
:102E10000190474801904748019047480190474832
:102E2000029047480290474802904748029047481E
:102E30000190474801904748019047480290474811
:102E40000290474802904748019047480190474800
:102E500001904748009047480190474802904748F2
:102E600002904748029047480290474802904748DE
:102E700002904748029047480190474802904748CF
:102E800002904748019047480190474802904748C0
:102E900002904748019047480190474802904748B0
:102EA000029047480190474801900298029001988B
:102EB0000190009800900EBD94B40008F8B5000889
:102EC00095B4000896B4000898B400089CB40008B3
:102ED000A0B400089DB40008C8B40008C9B4000834
:102EE000CAB40008CCB40008CEB40008D0B40008BE
:102EF000F0B40008F2B40008F4B40008F6B4000816
:102F0000F8B40008FAB40008FCB400082CB50008B6
:102F10002DB500082EB5000830B5000832B5000800
:102F200033B5000834B5000836B5000838B50008D8
:102F30003AB500083CB5000840B5000870B5000877
:102F400071B5000872B5000873B5000874B50008C3
:102F500076B5000878B50008A0B50008A1B500084E
:102F6000A2B50008A3B50008A4B50008A6B50008DE
:102F7000A8B50008ACB50008ADB50008AEB50008AE
:102F8000AFB50008B0B50008B1B50008B2B500088B
:102F9000B3B50008B4B50008B6B50008B7B5000869
:102FA000B8B50008BAB50008BCB50008BDB5000842
:102FB000BEB50008C0B50008F0B50008F1B50008BE
:102FC000F2B50008F4B50008002400BF00BF00BF40
:102FD0004020FDF723F9044600BF00BF0848006801
:102FE000401C0749086007480068401C0549086004
:102FF00000BF00BF2046FDF71FF900BFE6E7000055
:103000006C000020B400002010B58AB004460020F7
:103010000E4908600B2000210591CDE907040691B7
:1030200008460B4909680B4A12680B4B1B68CDE92F
:103030000132CDE903101F200023084A08A10090A7
:103040000C48FFF78BF90AB010BD00006C0000209F
:1030500038B4000834B4000830B40008C92F0008A0
:1030600075432F4F532D4949492049646C652054BD
:1030700061736B0060BF00200021034A1160034AA6
:10308000118001807047000084000020880000202B
:1030900070B501461A4D2D681DB945F21E750D809B
:1030A00070BD184D2D881DB945F21D750D80F7E7CF
:1030B000134D28682A681032124D2D886D1EACB24F
:1030C000002308E00260002545600581C5601030DE
:1030D00010325D1CABB2A342F4DB002505604560F5
:1030E0000581C560064D2D68074E3560054D2D885C
:1030F000B5800025F58035810D8000BFD0E7000048
:1031000054B400084CB4000824C0002010B5014697
:1031100048894B89BBB10A680B4B1B6813600A4C8A
:103120004B6823602346DB884C891B1B064CE380DD
:1031300023469B884C892344034CA38000234B8166
:103140008B810B604B6010BD24C00020F0B504469D
:103150000D46608940B90020288002B1106046F217
:10316000925018800020F0BD61684E680889288060
:103170000AB1C868106008686060606818B900200B
:103180002060608102E06089401E6081084800681C
:103190000860074801608088401C054FB8803846A9
:1031A000C088401EF880002018803046DBE7000011
:1031B00024C000200181002242818281026042609D
:1031C000704700002DE9F0410D46DDE90674B0F8C6
:1031D0000AC0B0F80880C44505DB46F2935CA4F849
:1031E00000C0BDE8F081DFF8DCC0BCF804C0BCF171
:1031F000000F04D145F21D7CA4F800C0F1E7DFF810
:10320000C4C0DCF80010DFF8BC80D1F800C0C8F8FA
:1032100000C0C446BCF804C0ACF1010CA8F804C05E
:10322000C446BCF806C00CF1010CA8F806C0C446A0
:10323000BCF808C0B8F80680C44507DADFF884C0D7
:10324000BCF806C0DFF87C80A8F808C0B0F80AC057
:10325000BCF1000F0AD1016041604FF0010CA0F8F1
:103260000AC04FF0000CC1F800C017E003F0100CCA
:10327000BCF1000F07D10668316001604FF0000C0F
:10328000C1F800C004E0D0F804C0C1F800C041603B
:10329000B0F80AC00CF1010CA0F80AC0B0F80CC0DC
:1032A000B0F80A80C44503DAB0F80AC0A0F80CC030
:1032B0004D600A81CF604FF0000CA4F800C000BF41
:1032C0008FE7000024C0002009A1C16100214161F5
:1032D0000849096811B90021816105E005490968BB
:1032E000816104490968486102490860704700002B
:1032F000200000008C000020026C0A62016470470C
:103300002DE9F84305462C6C25E0D4F82090FDF714
:10331000ABF98046C4F82C802146284600F034F8EA
:1033200004F10806306820B9002084F828006062A3
:1033300010E037686562012084F82800214638468D
:10334000FFF7DAFF00231A4639462046CDF8008001
:1033500000F0F6F84C46002CD7D1BDE8F88330B524
:1033600004461F2004F140010AE00D68AB6823B158
:1033700093F83B20824200DA10460D6805F12001E7
:103380000D68002DF1D130BD024602F1400002E08F
:10339000036803F1200003688B42F9D103681B6ABC
:1033A000036070472DE9F04105460C4616461F465E
:1033B00084F83860002084F839003946204600F04F
:1033C00075FC3DB105F1080865632146404600F0F3
:1033D0005DF801E0002060632146284600F002F815
:1033E000BDE8F08110B540B14468C1F8C04000F1BB
:1033F00008031A68D468C46113E091F83840022CBD
:1034000002D0072C08D103E006A4C1F8C04007E0B1
:1034100006A4C1F8C04003E007A4C1F8C04000BF43
:1034200000BF10BD5461736B205100005461736B79
:103430002053656D000000002000000010B50A4612
:1034400006A4C2F8C04040B100F10803196811B1E8
:10345000CC68C46101E001A4C46110BD200000007B
:1034600070B50446666B06F108052868C06A38B175
:10347000204600F03EF866632146284600F006F834
:1034800070BD0021016041600181704710B591F865
:103490003B3004683CB9012404810024CC620C63F5
:1034A0000160416024E00489641C0481026805E035
:1034B00092F83B409C4200DD02E0D26A002AF7D13C
:1034C00000BF3AB90024CC6244680C630C6BE16223
:1034D00041600DE0146B2CB9CA6200240C631163C7
:1034E000016005E0CA62146B0C630C6BE16211634E
:1034F00010BD10B5446B14B3446B04F108010C68A3
:10350000E46A1CB900240C604C6011E0046B24B91F
:10351000C26A002414630A600AE0C46A24B9036B17
:103520000024DC624B6003E0036BC26ADA6213635F
:103530000C89641E0C810024C4620463446310BDC2
:103540002DE9F04105460C4616461F46DDF8188069
:1035500094F83A00082845D2DFE800F0040508098D
:103560000607272800BF00BF00BF3CE000BF66661B
:10357000A4F86870C4F84C8015B12046FFF7B9FF75
:1035800021462846FFF75AFF94F83A00032802D153
:10359000204600F08DFD204600F068F80020383409
:1035A000A070607004F838091DE000BF6666A4F8DA
:1035B0006870C4F84C8015B12046FFF79AFF214689
:1035C0002846FFF73BFF94F83A00072802D120462F
:1035D00000F06EFD04203834A0700020607004F804
:1035E000380900E000BF00BFBDE8F08110B5034915
:1035F0000868FCF72EFEC0B210BD00009400002049
:10360000002004E00021034A42F82010401C00285A
:10361000F8D070479400002004490968C0F11F03E6
:1036200001229A401143014A116070479400002022
:1036300004490968C0F11F0301229A409143014ADD
:103640001160704794000020002109E001EB410265
:10365000054B03EB82000022028102604260491C9C
:103660002029F3D37047000030C0002010B5044675
:1036700094F83B00FFF7D0FF94F83B000549097828
:10368000884203D1204600F027F802E0204600F0EF
:1036900003F810BD9200002010B590F83B3003EB0A
:1036A00043030C4C04EB83010B683BB901230B81F2
:1036B0000023036143610860486009E00B895B1CDB
:1036C0000B810B680361002343610A685061086045
:1036D00010BD000030C0002010B590F83B3003EB67
:1036E00043030B4C04EB83010B683BB901230B81B3
:1036F0000023036143610860486008E00B895B1C9C
:103700000B81002303614A6842611061486010BD6B
:1037100030C0002030B5D0E90045AC4218D0046874
:1037200024694568AC4209D1016842684A610024B5
:103730000C61546111610260416009E001684268F6
:103740000B6900245C610C614A6111610360416096
:1037500030BD00002DE9F041054695F83B0000EB37
:103760004000124901EB80046F692E6987B946B9A0
:10377000002020812060606095F83B00FFF758FF33
:103780000EE02089401E208100207061266007E045
:103790002089401E20813E610EB9676000E077619C
:1037A000002068612861BDE8F081000030C0002081
:1037B00070B5054600262E480078012800D070BD5F
:1037C00000BF00BF4020FCF729FD064600BF00BF38
:1037D0002C683CB900BF00BF3046FCF72DFD00BF90
:1037E00000BFECE72348844207D100BF00BF30464A
:1037F000FCF722FD00BF00BFE1E7206E10B1206E94
:10380000401E2066206E38B100BF00BF3046FCF776
:1038100013FD00BF00BFD2E7D5E90001884207D100
:1038200000BF00BF3046FCF707FD00BF00BFC6E782
:103830001148007838B100BF00BF3046FCF7FCFCEF
:1038400000BF00BFBBE72846FFF764FF2C68E06DB0
:1038500018B90A480068206601E0E06D206600BFE4
:1038600000BF3046FCF7E8FC00BF00BF00BFA6E782
:10387000A400002060BF00209E000020A0000020C7
:1038800088B00020009006E0BD490968480002AAFF
:103890000021FFF7D1F9BB4800780128F4D102A834
:1038A000FEF7C2FC4FF00008B7480068B449096849
:1038B000884205D9B4480068B1490968B0FBF1F8FD
:1038C000B8F1000F04D1B04800680A21B0FBF1F84C
:1038D00000BFFCF7C9FE814600BF00BF4020FCF7D7
:1038E0009DFC009000BF00BFA8480068A849086080
:1038F0000020A649086000BF00BF0098FCF79CFCB0
:1039000000BF00BFA3480068A1490968884248D9A0
:10391000A0480068A049884205D242F21070049085
:103920000120039023E09B4800689C49884205D20F
:103930004FF47A7004900A20039018E095480068CC
:103940009749884203D26420049003900FE0914885
:1039500000689449884205D20A2004904FF47A7096
:10396000039004E00120049042F210700390894813
:1039700001680398B1FBF0FB854904980968484346
:10398000B0FBFBF042F21071081A874908808748A3
:1039900000880988884207DA8348008883490880BC
:1039A00002E0002080490880FEF7D6FC002500BF19
:1039B00000BF4020FCF732FC009000BF00BF7C48F5
:1039C000046800BF00BF0098FCF736FC00BF00BFD2
:1039D00028E000BF00BF4020FCF720FC009000BFA3
:1039E00000BF54F8A00F6060002044F8A00900BF99
:1039F00000BF0098FCF720FC00BF00BFD4F8A40073
:103A0000054400BF00BF4020FCF708FC009000BF49
:103A100000BFD4F8BC4000BF00BF0098FCF70CFC0E
:103A200000BF00BF002CD4D15DB35B48854205D2F6
:103A300042F210700690012007901DE05748854221
:103A400005D24FF47A7006900A20079014E054488B
:103A5000854203D26420069007900DE051488542CC
:103A600005D20A2006904FF47A70079004E00120F6
:103A7000069042F2107007900798B5FBF0F00590A1
:103A800003E0002006900120059000BF00BF402009
:103A9000FCF7C4FB009000BF00BF4548046800BFAE
:103AA00000BF0098FCF7C8FB00BF00BF2CE0D4F8B3
:103AB000A400069948430599B0FBF1F086B242F2A2
:103AC0001070864200D90646A4F89060B4F89200BF
:103AD000B04201DAA4F8926002AB04F1B002111D09
:103AE0002046FEF781FF00BF00BF4020FCF796FB99
:103AF000009000BF00BFD4F8BC4000BF00BF0098DA
:103B0000FCF79AFB00BF00BF002CD0D1002729484A
:103B1000D0F800A00AF1200A274800680838019070
:103B200002E00AF1040A7F1CDAF8000010B90198DB
:103B30008742F6D3214807601F480068C01B204910
:103B4000086020480078012805D100201D49087030
:103B500002A8FEF769FBFCF787FDA0EB09001A49F4
:103B600008601A4800680968884203D2164800684D
:103B70001649086002AA00214046FFF75DF8A8E652
:103B80005CB40008C000002074B40008B400002039
:103B9000BC000020B8000020801A060000093D008B
:103BA000005A62020084D717B0000020B200002043
:103BB000D000002040B4000844B400087400002085
:103BC00078000020AE000020C4000020C8000020C3
:103BD00010B58AB0044600202149086021490860D8
:103BE000214908602149087021490870214908606D
:103BF000214908602148006820B946F62B602080E2
:103C00000AB010BD1E4800681E490968884203D2E8
:103C100046F62C602080F3E71B4800781F2803D36A
:103C200046F62A602080EBE7032000210591CDE9CC
:103C300007040691084612490A68144909680F4B9F
:103C40001B68CDE90131CDE903200F48007800233E
:103C50000F4A10A100901448FEF780FB00BFCFE789
:103C6000B4000020BC000020B8000020C0000020EC
:103C7000AE000020740000207800002060B400082E
:103C800068B4000870B4000858B4000864B40008B0
:103C90008138000875432F4F532D494949205374EB
:103CA0006174205461736B00B0C1002070B504468C
:103CB0000D4655B12B46084800210268204600F009
:103CC0005BF9032084F83A0002E0022084F83A000D
:103CD0002046FFF73FFD70BDD80000202DE9F041E0
:103CE00004460D4600BF002694F83B7094F83A0055
:103CF00008285DD2DFE800F004191E1F1A1B2021DE
:103D00002046FFF727FD84F83B5094F83B00FFF76F
:103D100083FC2B480068844203D12046FFF7BCFC9B
:103D200002E02046FFF7D8FC44E000BF00BF84F863
:103D30003B503FE000BF00BF00BF84F83B5094F809
:103D4000380008282FD2DFE800F02E042F2E0A05B5
:103D5000063000BF00BF2046FFF782FB26E020466A
:103D6000FFF77EFB606B466AAF4205DD96F83B00CD
:103D7000A84217DC002615E096F83B00B84211D1A6
:103D80003046FFF7ECFA054696F83C00A84202DA06
:103D900096F83C0000E02846054696F83B00A8420D
:103DA00000D1002602E000BF00BF00BF00BF01E05D
:103DB000BDE8F08100BF3446002C94D100BFF7E786
:103DC0000C0100200021C0F8B8100949096819B990
:103DD0000021C0F8BC1007E005490968C0F8BC1014
:103DE00003490968C1F8B80001490860704700003C
:103DF000D0000020D0F8B820D0F8BC104AB90D4B44
:103E0000196011B10023C1F8B8300023C0F8BC30EC
:103E10000FE029B90023C2F8BC30C0F8B83008E080
:103E2000C2F8BC10C1F8B8200023C0F8BC30C0F8FC
:103E3000B8307047D00000200021044A1160044AC5
:103E40001180044A1160018070470000D0000020FA
:103E5000D4000020CC00002010B5044600202060D3
:103E6000A060606020616061A061E06122A0E0600C
:103E7000002020626062A062E0646066A4F86800CE
:103E8000002104F16C00FFF795F900202C34206527
:103E90006065A065A4F86000E0656062E067C4F852
:103EA0008000A06184F86200C4F88800C4F884002F
:103EB000A083A062E06220636063A4F86400A4F8B9
:103EC0006600A066E066FCF7CFFB20670020606715
:103ED00020606060A06020736073A0732020E07396
:103EE000207400206061C4F88C00C4F8900004A025
:103EF000C4F894002C3C10BD3F5461736B0000006B
:103F00002000000008B504480068FEF76BFD694614
:103F10000020FEF703FB08BD0C01002010B502468F
:103F20000B46002107E0064C1068A04201D000209B
:103F300010BD121D491C0829F5D30120F8E7000027
:103F40004523CDAB0246002003E0034B42F820306E
:103F5000401C0828F9D370474523CDAB00210180D0
:103F6000034A1160034A11609180D18070470000BC
:103F7000D8000020DC0000202DE9F04304460F4665
:103F80009446984608EB0C00DFF89090D9F8009022
:103F9000B944A0EB09021AB900206065BDE8F083BE
:103FA0001F4B186838B962650020A061E0611C6091
:103FB00001209880F2E79888401C98801968486D25
:103FC000C61BB2420BD2C86948B96265B01A4865CF
:103FD0000020E061A161CC611C600120DEE7921B42
:103FE0000D46A96903E0486D121A0D46896911B1A1
:103FF000486D9042F7D949B1CD696265E561A1612B
:10400000486D801A4865CC61AC6104E06265E56189
:104010000020A061AC610120C0E70000D8000020B2
:10402000DC0000202DE9F04F06460C4691461F4665
:104030004FF0000BB9F1040F01D1002520E0B9F1D8
:10404000080F1BD124B947F27E203880BDE8F08FDD
:10405000B56D16480068A0EB0508A0450AD3B8FB6B
:10406000F4F004FB0055B8FBF4F004FB108000B141
:104070002544B565B06D2044B06501E00B48056886
:1040800023462A4659463046FFF776FF8246BAF164
:10409000010F05D1012086F83A000020388002E0A7
:1040A00047F27E20388000BFD0E70000D800002013
:1040B00030B5C3698169134A9BB921B900241460E2
:1040C000948044651CE00024CC614C6D456D2C440B
:1040D0004C6511609488641E94800024846144655A
:1040E0000EE0996121B1CB614C6D456D2C444C655E
:1040F0000024C4619488641E948000248461446513
:1041000030BD0000DC0000202DE9F04706464FF0EE
:1041100000094B4F3C68002C77D0606DB04204D84A
:10412000606D361A0020606502E0606D801B60657E
:104130007CE009F101001FFA80F994F83A000128A7
:1041400002D005280BD106E0002084F83A00204672
:10415000FFF78CFA51E0042084F83A004DE0002586
:1041600094F83800042801D1606B456A002060662D
:10417000A4F86800FCF778FAE0642046FFF7B9F984
:1041800094F83A00032802D007280BD106E0204615
:10419000FFF76CFA002084F83A0004E0042084F869
:1041A0003A0000E000BF00BF032084F8390000207F
:1041B00084F8380005B395F83B0095F83C10884228
:1041C0001AD095F83B0094F83B10884214D1284649
:1041D000FFF7C5F8804695F83C00404502DA95F8AF
:1041E0003C0000E04046804695F83B00404503D047
:1041F00041462846FFF772FD00BF00BFA069386046
:104200003C681CB90020B88014E014E0B888401E57
:10421000B8800020E061606DB04204D8606D361A4D
:104220000020606502E0606D801B6065606D0028A5
:104230003FF47FAF00BFA7F80690BDE8F08700000D
:10424000DC00002070B50446002600BF00BF4020FF
:10425000FBF7E4FF064600BF00BF1048006820449B
:104260000E490860FCF700FA05462046FFF74CFFB0
:10427000FCF7FAF9401B0A4908600A480068096817
:10428000884203D2064800680649086000BF00BFA4
:104290003046FBF7D1FF00BF00BF70BDD800002043
:1042A000E4000020E800002010B5002400BF00BF9B
:1042B0004020FBF7B3FF044600BF00BF0848094990
:1042C00008600948086201F10800FFF7DAF800BF4A
:1042D00000BF2046FBF7B0FF00BF00BF10BD0000CD
:1042E000434F4E4474C2002098C20020F8B5002607
:1042F00000BF00BF4020FBF791FF064600BF00BF94
:10430000FCF7B2F904460F48C4620F4D286838B96B
:1043100000BF00BF3046FBF78FFF00BF00BFF8BDF6
:1043200000231A460949084808380094FFF708F99D
:1043300000BF00BF3046FBF77FFF00BF00BF00BFDC
:10434000EDE7000098C200207CC20020C8C2002017
:104350002DE9F84307464FF0000800BF00BF40209A
:10436000FBF75CFF804600BF00BFFCF77DF9064607
:104370003F48C66201463F48FFF706F83C4D083506
:104380003C4890F83B003B4991F83C1088420AD0E9
:10439000384890F83C00374981F83B00084690F8CF
:1043A0003C0035490870286828B900203049486227
:1043B00081F8280010E02C682D48446201202C4927
:1043C00081F828002046FEF797FF00231A46214671
:1043D00027480096FFF7B4F83B46032225492748B3
:1043E000FEF7E0FF00BF00BF4046FBF725FF00BF20
:1043F00000BFFDF7C3FD00BF00BF4020FBF70EFF6D
:10440000804600BF00BF1A48406A80B91849194861
:10441000FEF772FF174816494862012081F828000C
:1044200000BF00BF4046FBF707FF00BF1DE010487C
:10443000446A94F83B000F4991F83B10884205DD2F
:104440000C4890F83B102046FFF748FC002304225C
:1044500008490748FEF7A6FF00BF00BF4046FBF72C
:10446000EBFE00BF00BFFDF789FDBDE8F88300004B
:1044700098C20020C8C200209200002074C2002010
:1044800010B58AB0044600202A4908802A490860ED
:104490002A4908602A4908802A4800682A49096888
:1044A000B0FBF1F02949086000202949086029493A
:1044B0000860224628A12C48FDF7FCFB208808B1A3
:1044C0000AB010BDFFF7F0FE2848006818B947F29F
:1044D00047302080F4E7264800682649096888426A
:1044E00003D247F248302080EAE7234800781F28AB
:1044F00003D347F246302080E2E70B2000210591EC
:104500000A46CDE907040691194800681B49096865
:10451000164B1B68CDE90131CDE90302164800783E
:104520000023174A17A100901C48FDF717FF00BF92
:10453000C6E70000F8000020EC000020F400002096
:10454000F000002074B400087CB4000808010020CA
:10455000FC000020000100204F5320546D72204DBC
:10456000757465780000000098C2002080B40008CF
:1045700088B4000870B4000878B4000884B4000857
:104580007146000875432F4F532D494949205469FE
:104590006D6572205461736B00000000C8C200207A
:1045A0002DE9F047054688462848006870B9002084
:1045B0002861686125480560012025490880254853
:1045C000C0F80080FFF792FEBDE8F0872048008821
:1045D000401C1F490880A86940441E490968461AC2
:1045E0001A480468D4F818904E4510D2606970B922
:1045F000A9EB0600A061002068612C616561134889
:1046000005601448C0F80080FFF770FEDCE7A6EBF9
:10461000090627463C6903E0A069361A2746246943
:1046200014B1A069B042F7D94CB16769AE616F614E
:104630002C61A069801BA06165613D6104E0AE61F1
:104640006F61002028613D6100BFBDE7F4000020DC
:10465000F0000020040100201CB501A800231A4628
:10466000194600900148FDF775FB1CBD98C200205B
:104670004FF0000AFFF7F0FF00BF3D48006810B997
:104680004FF0000903E03A480068D0F81890484617
:10469000FFF75EFE3648006800B9EEE7FBF7E4FF7F
:1046A000804600BF00BF4020FBF7B8FD824600BF38
:1046B00000BF3048076800BF00BF5046FBF7BCFD95
:1046C00000BF00BF2C4800683D1A2B4807602848EF
:1046D00004680CE0A069A84204D2A0692D1A002049
:1046E000A06103E0A069401BA061002524690DB111
:1046F000002CEFD11E48046826E0042084F8260030
:10470000A66816B12046E168B04794F82600042850
:1047100018D119480168204600F034F8A08C02280E
:1047200009D184F82600206AA06113480168204658
:10473000FFF736FF06E0002060612061A0610320E2
:1047400084F826000A48046814B1A0690028D4D06F
:10475000FBF78AFFA0EB08000849086008480068DA
:104760000968884203D2054800680549086084E763
:10477000F4000020D800002004010020FC000020EC
:10478000000100202DE9F04105460F46D5F81480C0
:104790002C69B8F1000F40D154B9002029490860B4
:1047A00029490880A86129480760FFF79FFD46E076
:1047B00025480088401E24490880244800683E1A85
:1047C00000206061A069A9690844A0611D480460D7
:1047D0000EE0A069B04204D2A069361A0020A061A0
:1047E00003E0A069801BA0610026A046D8F8104015
:1047F0000EB1002CEDD1134800688069A969884288
:1048000003D110480068806918B910480760FFF7A5
:104810006DFD00202861A86111E00B480088401E52
:1048200009490880C8F810402CB1C4F81480A06968
:10483000A9690844A061002068612861A861BDE8F9
:10484000F0810000F4000020F000002004010020AE
:1048500008B508490968C9084FF47A72B1FBF2F14A
:104860004143009100BF00BF00994A1E00920029F9
:10487000F9D108BD000000207047000010B50448C1
:104880000078012801D1FEF752FAFCF707FA10BDB3
:1048900071000020704770B505466C6A0020E08505
:1048A000E0842046FCF7B6FE70BD0168C96821F4BB
:1048B00090710268D1600168496921F001010268C4
:1048C0005161202180F83A10704710B504462068E5
:1048D000C06820F040002168C860202084F83900BA
:1048E0002046FDF753F8002010BD70B5044694F83B
:1048F0003A00222847D1A068B0F5805F0CD120692A
:1049000050B90025A66A20684068C0F308003080CE
:10491000A06A801CA06215E0A56A0026A068B0F518
:10492000805F03D0A06828B9206918B92068406862
:10493000287004E02068406800F07F002870A06ABA
:10494000401CA062E08D401E80B2E085C8B920689E
:10495000C06820F020002168C8602068C06820F48A
:1049600080702168C8602068406920F001002168DB
:104970004861202084F83A002046FCF7C3FF00205D
:1049800070BD0020FCE70220FAE7000070B5044685
:104990002168096921F44051E268114322681161DC
:1049A0002269A1681143626941EA02052168C96868
:1049B00041F20C62914329432268D1602168496920
:1049C00021F44071A2691143226851612D4A216886
:1049D000914202D1FCF7E8FA01E0FCF7D5FA00EBCE
:1049E000C00101EB001162689200B1FBF2F100EB33
:1049F000C00202EB001263689B00B2FBF3F2642377
:104A0000B2FBF3F202EBC20303EB0212A1EB820151
:104A1000322202EB01116422B1FBF2F101F0F0014C
:104A200000EBC00202EB001263689B00B2FBF3F2E2
:104A30006423B2FBF3F201EB021200EBC00101EBC5
:104A4000001163689B00B1FBF3F100EBC00303EBC3
:104A500000136668B600B3FBF6F36426B3FBF6F307
:104A600003EBC30606EB0313A1EB8301322303EB35
:104A700001116423B1FBF3F101F00F01114422682D
:104A8000916070BD00380140014691F8390021283D
:104A900028D18868B0F5805F0BD1086948B90A6AE7
:104AA0001088C0F308000B685860086A801C086210
:104AB00005E00B6A581C086218780B685860C88CAF
:104AC000401E80B2C88458B90868C06820F08000D1
:104AD0000B68D8600868C06840F040000B68D86078
:104AE000002070470220FCE710B5FDF745F80748A5
:104AF000FCF792FD00BF012205490448FCF7CAFEFD
:104B00000028F8D1FDF74EF810BD0000280C002059
:104B10002A00002000BFFEE702480068C0F3022020
:104B2000704700000CED00E010B5002804DB0A0718
:104B3000130E054A135406E00A07140E034A00F048
:104B40000F031B1FD45410BD00E400E018ED00E07B
:104B500000BF704770B5044600204FF0E0210861A7
:104B60000420FCF729FD0C48048025460B4800680A
:104B70000B49B1FBF0F045434FF0E020006940F0F5
:104B800002004FF0E021086108464561006940F0ED
:104B90000100086170BD00002200002074B400080C
:104BA00040420F0070B50446002504E04FF47A70CF
:104BB00000F004F86D1CA542F8D370BD2DE9F84350
:104BC000074600264FF0E020D0F8149011480088E6
:104BD00007FB00F86846FDF729FA4FF0E0208569E9
:104BE00011E04FF0E0208469AC420CD0AC4202D21C
:104BF000281B064403E0A9EB04002844064425468C
:104C0000464500D300E0ECE700BF6846FDF778FAC0
:104C1000BDE8F8832200002000BF054A126802F0B8
:104C20004002002AF9D0C2B2014B1B1D1A60704726
:104C30000038014000B585B000BF00BF284880693A
:104C400040F04000264988610846806900F0400035
:104C5000009000BF00BF00BF00BF00BF08468069D2
:104C600040F0400088610846806900F040000090F4
:104C700000BF00BF00BF00BF00BF0846806940F012
:104C8000040088610846806900F00400009000BFBD
:104C900000BF00BF1020019000200290012003906F
:104CA0000320049001A90F48FBF73AFE0820019069
:104CB00000200290012003900320049001A90948DC
:104CC000FBF72EFE012001900020029002200390AD
:104CD0000320049001A90448FBF722FE05B000BDA3
:104CE00000100240001801400008014070B5044661
:104CF000002514B10120224908702148007848B3EA
:104D000010212048FBF7ACFF50B108211D48FBF7EC
:104D1000A7FF28B101211C48FBF7A2FF012819D1E8
:104D20000A20FFF73FFF00201549087010211548A1
:104D3000FBF796FF00B9012508211248FBF790FF09
:104D400000B9022501211048FBF78AFF012815D17F
:104D5000032513E010210B48FBF782FF01280DD13A
:104D600008210848FBF77CFF012807D101210648EC
:104D7000FBF776FF10B9012001490870284670BD85
:104D800040000020001801400008014070B50446B2
:104D9000002609480588408845430021084602F05E
:104DA000F5FD02F09BFF00BF02E004480480761C82
:104DB000AE42FAD370BD0000B00C00200008006CB9
:104DC00010B5044649488471002C45D1F02047496C
:104DD00008804FF4A07048800846808845F2105142
:104DE000884210D14FF43050404908814FF4285088
:104DF00048814FF42C5088814FF4F07008804FF4B4
:104E0000487048801AE03948808841F6631188422A
:104E10000DD12C20354908812B2048812A208881FA
:104E20004FF4F07008804FF44870488006E02C2062
:104E30002E4908812A2048812B2088812B48808890
:104E400045F2103188424CD14FF4A07027490880B8
:104E50004FF4F070488044E04FF4A070234908807C
:104E6000F02048800846808845F21051884210D1D1
:104E70004FF430501D4908814FF4285048814FF4B9
:104E80002C5088814FF4487008804FF4F0704880AF
:104E90001AE01648808841F6631188420DD12C2013
:104EA000124908812A2048812B2088814FF44870BC
:104EB00008804FF4F070488006E02C200B490881F0
:104EC0002A2048812B2088810848808845F21031AB
:104ED000884206D14FF4F070044908804FF4A07066
:104EE0004880002002F03AFC10BD0000B00C002009
:104EF0002DE9FF4F84B081468A4600200290834608
:104F00000698A0EB09050798A0EB0A06CDF80490D7
:104F1000CDF800A0002D01DD012705E00DB9002727
:104F200002E04FF0FF376D42002E02DD4FF0010826
:104F300006E016B94FF0000802E04FF0FF38764265
:104F4000B54201DD2C4600E03446002003901EE00F
:104F5000009A91B2019A90B2119A00F01FF802984B
:104F600028440290B3440298A04205DD0298001B39
:104F70000290019838440190A34504DDABEB040B8B
:104F80000098404400900398401C80B20390611C3C
:104F900003988842DCDD08B0BDE8F08F70B50546A7
:104FA0000E4614463146284602F0F0FC02F096FE0A
:104FB00001490C8070BD00000008006C2DE9F8412B
:104FC00005460E4617469846079C33463A463146F4
:104FD00028460094FFF78CFF43462A463146284670
:104FE0000094FFF785FF43463A4641462846009421
:104FF000FFF77EFF43463A46314638460094FFF7B6
:1050000077FFBDE8F88110B5CF2002F05BFE0020ED
:1050100002F04CFEC12002F049FE302002F046FEB4
:10502000ED2002F04FFE642002F040FE032002F06B
:105030003DFE122002F03AFE812002F037FEE82009
:1050400002F040FE852002F031FE102002F02EFE1C
:105050007A2002F02BFECB2002F034FE392002F041
:1050600025FE2C2002F022FE002002F01FFE34203C
:1050700002F01CFE022002F019FEF72002F022FED0
:10508000202002F013FEEA2002F01CFE002002F0B5
:105090000DFE002002F00AFEC02002F013FE1B20CD
:1050A00002F004FEC12002F00DFE012002F0FEFD20
:1050B000C52002F007FE302002F0F8FD302002F09B
:1050C000F5FDC72002F0FEFDB72002F0EFFD36200F
:1050D00002F0F8FD482002F0E9FD3A2002F0F2FD6E
:1050E000552002F0E3FDB12002F0ECFD002002F0BB
:1050F000DDFD1A2002F0DAFDB62002F0E3FD0A2001
:1051000002F0D4FDA22002F0D1FDF22002F0DAFD7F
:10511000002002F0CBFD262002F0D4FD012002F099
:10512000C5FDE02002F0CEFD0F2002F0BFFD2A20D9
:1051300002F0BCFD282002F0B9FD082002F0B6FD07
:105140000E2002F0B3FD082002F0B0FD542002F062
:10515000ADFDA92002F0AAFD432002F0A7FD0A2020
:1051600002F0A4FD0F2002F0A1FD002002F09EFD40
:10517000002002F09BFD002002F098FD002002F0CC
:1051800095FDE12002F09EFD002002F08FFD15202C
:1051900002F08CFD172002F089FD072002F086FD49
:1051A000112002F083FD062002F080FD2B2002F08A
:1051B0007DFD562002F07AFD3C2002F077FD0520AF
:1051C00002F074FD102002F071FD0F2002F06EFD60
:1051D0003F2002F06BFD3F2002F068FD0F2002F03F
:1051E00065FD2B2002F06EFD002002F05FFD002027
:1051F00002F05CFD012002F059FD3F2002F056FD57
:105200002A2002F05FFD002002F050FD002002F095
:105210004DFD002002F04AFDEF2002F047FD112075
:1052200002F050FD7820FFF7BDFC292002F04AFD76
:1052300010BD10B5ED2002F045FD012002F036FD55
:10524000FE2002F033FDEE2002F03CFDDE2002F0F5
:105250002DFD212002F02AFDF12002F033FD012076
:1052600002F024FDDF2002F02DFD102002F01EFDD3
:10527000C42002F027FD8F2002F018FDC62002F0A6
:1052800021FD002002F012FDE22002F00FFDE220DD
:1052900002F00CFDE22002F009FDBF2002F012FD39
:1052A000AA2002F003FDB02002F00CFD0D2002F058
:1052B000FDFC002002F0FAFC0D2002F0F7FC0020BB
:1052C00002F0F4FC112002F0F1FC002002F0EEFCF0
:1052D000192002F0EBFC002002F0E8FC212002F093
:1052E000E5FC002002F0E2FC2D2002F0DFFC0020B3
:1052F00002F0DCFC3D2002F0D9FC002002F0D6FCDC
:105300005D2002F0D3FC002002F0D0FC5D2002F012
:10531000CDFC002002F0CAFCB12002F0D3FC8020BA
:1053200002F0C4FC002002F0C1FC8B2002F0BEFCA5
:10533000002002F0BBFC962002F0B8FC002002F036
:10534000B5FCB22002F0BEFC002002F0AFFC002051
:1053500002F0ACFC022002F0A9FC002002F0A6FC46
:10536000032002F0A3FC002002F0A0FCB32002F016
:10537000A9FC002002F09AFC002002F097FC00201B
:1053800002F094FC002002F091FC002002F08EFC60
:10539000002002F08BFC002002F088FC002002F0CC
:1053A00085FC002002F082FC002002F07FFC00203F
:1053B00002F07CFC002002F079FC002002F076FC78
:1053C000002002F073FC002002F070FC002002F0CC
:1053D0006DFC002002F06AFC002002F067FC002057
:1053E00002F064FC002002F061FC002002F05EFC90
:1053F000002002F05BFC002002F058FC002002F0CC
:1054000055FCB42002F05EFC8B2002F04FFC002023
:1054100002F04CFC962002F049FC002002F046FC11
:10542000A12002F043FC002002F040FCB52002F075
:1054300049FC022002F03AFC002002F037FC032075
:1054400002F034FC002002F031FC042002F02EFCBB
:10545000002002F02BFCB62002F034FC002002F009
:1054600025FC002002F022FCB72002F02BFC0020DB
:1054700002F01CFC002002F019FC3F2002F016FC98
:10548000002002F013FC5E2002F010FC002002F06D
:105490000DFC642002F00AFC002002F007FC8C20C6
:1054A00002F004FC002002F001FCAC2002F0FEFB44
:1054B000002002F0FBFBDC2002F0F8FB002002F0F1
:1054C000F5FB702002F0F2FB002002F0EFFB9020D1
:1054D00002F0ECFB002002F0E9FBEB2002F0E6FB1F
:1054E000002002F0E3FBDC2002F0E0FB002002F0F1
:1054F000DDFBB82002F0E6FB002002F0D7FB002025
:1055000002F0D4FB002002F0D1FB002002F0CEFB21
:10551000002002F0CBFB002002F0C8FB002002F0CC
:10552000C5FB002002F0C2FBBA2002F0CBFB242016
:1055300002F0BCFB002002F0B9FB002002F0B6FB39
:10554000002002F0B3FBC12002F0BCFB202002F0DF
:10555000ADFB002002F0AAFB542002F0A7FB0020C4
:1055600002F0A4FBFF2002F0A1FB002002F09EFB52
:10557000C22002F0A7FB0A2002F098FB002002F0F4
:1055800095FB042002F092FB002002F08FFBC32069
:1055900002F098FB3C2002F089FB002002F086FB21
:1055A0003A2002F083FB002002F080FB392002F059
:1055B0007DFB002002F07AFB372002F077FB002011
:1055C00002F074FB3C2002F071FB002002F06EFB45
:1055D000362002F06BFB002002F068FB322002F064
:1055E00065FB002002F062FB2F2002F05FFB002031
:1055F00002F05CFB2C2002F059FB002002F056FB6D
:10560000292002F053FB002002F050FB262002F07C
:105610004DFB002002F04AFB242002F047FB002053
:1056200002F044FB242002F041FB002002F03EFB8C
:10563000232002F03BFB002002F038FB3C2002F06C
:1056400035FB002002F032FB362002F02FFB002059
:1056500002F02CFB322002F029FB002002F026FB96
:105660002F2002F023FB002002F020FB2C2002F070
:105670001DFB002002F01AFB292002F017FB00207E
:1056800002F014FB262002F011FB002002F00EFBBA
:10569000242002F00BFB002002F008FB242002F083
:1056A00005FB002002F002FB232002F0FFFA00209D
:1056B00002F0FCFAC42002F005FB622002F0F6FAC8
:1056C000002002F0F3FA052002F0F0FA002002F0C8
:1056D000EDFA842002F0EAFA002002F0E7FAF02066
:1056E00002F0E4FA002002F0E1FA182002F0DEFAFB
:1056F000002002F0DBFAA42002F0D8FA002002F029
:10570000D5FA182002F0D2FA002002F0CFFA502089
:1057100002F0CCFA002002F0C9FA0C2002F0C6FA1E
:10572000002002F0C3FA172002F0C0FA002002F0B5
:10573000BDFA952002F0BAFA002002F0B7FAF32081
:1057400002F0B4FA002002F0B1FAE62002F0AEFA5C
:10575000002002F0ABFAC52002F0B4FA322002F0C9
:10576000A5FA002002F0A2FA442002F09FFA0020DD
:1057700002F09CFA652002F099FA002002F096FAF5
:10578000762002F093FA002002F090FA882002F0CE
:105790008DFA002002F08AFAC62002F093FA202047
:1057A00002F084FA002002F081FA172002F07EFA5B
:1057B000002002F07BFA012002F078FA002002F0CB
:1057C00075FAC72002F07EFA002002F06FFA00207E
:1057D00002F06CFA002002F069FA002002F066FA8A
:1057E000C82002F06FFA002002F060FA002002F0F8
:1057F0005DFA002002F05AFA002002F057FAC920A0
:1058000002F060FA002002F051FA002002F04EFA95
:10581000002002F04BFA002002F048FA002002F0CB
:1058200045FA002002F042FA002002F03FFA002080
:1058300002F03CFA002002F039FA002002F036FAB9
:10584000002002F033FA002002F030FA002002F0CB
:105850002DFA002002F02AFA002002F027FA002098
:1058600002F024FAE02002F02DFA162002F01EFACF
:10587000002002F01BFA1C2002F018FA002002F0AF
:1058800015FA212002F012FA002002F00FFA362059
:1058900002F00CFA002002F009FA462002F006FAA3
:1058A000002002F003FA522002F000FA002002F079
:1058B000FDF9642002F0FAF9002002F0F7F97A20ED
:1058C00002F0F4F9002002F0F1F98B2002F0EEF979
:1058D000002002F0EBF9992002F0E8F9002002F034
:1058E000E5F9A82002F0E2F9002002F0DFF9B92082
:1058F00002F0DCF9002002F0D9F9C42002F0D6F958
:10590000002002F0D3F9CA2002F0D0F9002002F002
:10591000CDF9D22002F0CAF9002002F0C7F9D9204F
:1059200002F0C4F9002002F0C1F9E02002F0BEF953
:10593000002002F0BBF9F32002F0B8F9002002F0D9
:10594000B5F9E12002F0BEF9162002F0AFF900200F
:1059500002F0ACF91C2002F0A9F9002002F0A6F92F
:10596000222002F0A3F9002002F0A0F9362002F074
:105970009DF9002002F09AF9452002F097F90020E5
:1059800002F094F9522002F091F9002002F08EF911
:10599000642002F08BF9002002F088F97A2002F0EE
:1059A00085F9002002F082F98B2002F07FF90020B7
:1059B00002F07CF9992002F079F9002002F076F9E2
:1059C000A82002F073F9002002F070F9B92002F06B
:1059D0006DF9002002F06AF9C42002F067F9002096
:1059E00002F064F9CA2002F061F9002002F05EF9C9
:1059F000D22002F05BF9002002F058F9D82002F022
:105A000055F9002002F052F9E02002F04FF9002091
:105A100002F04CF9F32002F049F9002002F046F9B7
:105A2000E22002F04FF9052002F040F9002002F0D8
:105A30003DF90B2002F03AF9002002F037F91B2063
:105A400002F034F9002002F031F9342002F02EF98E
:105A5000002002F02BF9442002F028F9002002F087
:105A600025F94F2002F022F9002002F01FF96120F1
:105A700002F01CF9002002F019F9792002F016F961
:105A8000002002F013F9882002F010F9002002F043
:105A90000DF9972002F00AF9002002F007F9A6207C
:105AA00002F004F9002002F001F9B72002F0FEF83C
:105AB000002002F0FBF8C22002F0F8F8002002F00B
:105AC000F5F8C72002F0F2F8002002F0EFF8D1203C
:105AD00002F0ECF8002002F0E9F8D62002F0E6F837
