:020000040800F2
:10000000F0C90020D5010008D91900086B190008B3
:100010006F190008C90500086546000800000000C7
:10002000000000000000000000000000C9430008BC
:10003000750600080000000049050008CD430008CF
:10004000EF010008EF010008EF010008EF010008D0
:10005000EF010008EF010008EF010008EF010008C0
:10006000EF010008EF010008EF010008EF010008B0
:10007000EF010008EF010008EF010008EF010008A0
:10008000EF010008EF010008EF010008EF01000890
:10009000EF010008EF010008EF010008EF01000880
:1000A000EF010008EF010008EF010008EF01000870
:1000B000EF010008EF010008EF010008EF01000860
:1000C000EF010008EF010008EF010008EF01000850
:1000D000EF01000839460008EF010008EF010008B1
:1000E000EF010008EF010008EF010008EF01000830
:1000F000EF010008EF010008EF010008EF01000820
:10010000EF010008EF010008EF010008EF0100080F
:10011000EF010008EF010008EF010008EF010008FF
:10012000EF010008EF010008EF010008EF010008EF
:1001300000F002F800F03FF80AA090E8000C8244BA
:100140008344AAF10107DA4501D100F034F8AFF297
:10015000090EBAE80F0013F0010F18BFFB1A43F0A5
:1001600001031847BCAD0000DCAD0000103A24BF0D
:1001700078C878C1FAD8520724BF30C830C144BF0C
:1001800004680C607047000000230024002500264E
:10019000103A28BF78C1FBD8520728BF30C148BFEA
:1001A0000B607047782900F0A180002070471FB5D0
:1001B0001FBD10B510BD00F051F91146FFF7F7FF54
:1001C00007F098FA00F06FF903B4FFF7F2FF03BCF1
:1001D00004F066FA0948804709480047FEE7FEE751
:1001E000FEE7FEE7FEE7FEE7FEE7FEE7FEE7FEE7E7
:1001F00004480549054A064B70470000E5430008DE
:1002000031010008F0C30020F0C90020F0C5002033
:10021000F0C5002072B6704762B6704772B602B47D
:10022000EFF3118180F31188BFF34F8FBFF36F8F0E
:10023000084602BC62B6704772B680F31188BFF3FD
:100240004F8FBFF36F8F62B6704730BF704720BFCC
:100250007047B0FA80F0704790FAA0F0B0FA80F0E2
:10026000704790FAA0F07047704700000FB404493F
:1002700010B503AA029800F0C3F810BC5DF814FB97
:10028000240000202DE9F0410E46044600202062A3
:100290002046E168884730B3252805D0D4E90121FC
:1002A0009047206A401CF2E7E16820460027884713
:1002B000050018D0A5F14100192802D820354FF4C7
:1002C00000673246294620462760FFF76BFF40B1A2
:1002D000012804D0F61D26F007060836D8E7361D9B
:1002E000D6E72846DAE7206ABDE8F08170B5044613
:1002F0000D4621461068AFF300802188090502D51C
:100300000F4A7A4402E00E4A7A440E32002104F188
:10031000240305E000F00F060009965D5E54491CB9
:100320000028F7D120780023000704D5702D02D0D3
:1003300009B1022311322046BDE8704000F006B832
:10034000F2AB000070477047704770472DE9F047E7
:100350000D4699469246044600F124080168880635
:1003600004D5E06921F01001216000E00120A842DD
:1003700001DD471B00E00027A1697A1902EB0900A3
:10038000081AA0612078C00602D42046AFF300808E
:10039000002608E0D4E901211AF806009047206AF7
:1003A000401C761C20624E45F4DB2078C0060AD53E
:1003B0002046AFF3008006E0D4E9012130209047C9
:1003C000206A401C2062381EA7F10107F4DC07E018
:1003D000D4E9012118F805009047206A401C2062EA
:1003E000281EA5F10105F3DC2046AFF3008020783C
:1003F000000602D50220BDE8F0870120FBE70000DF
:10040000074B70B50D467B4400F011F804462846B2
:1004100000F020F810B14FF0FF3070BD204670BDE5
:100420005F43000001694A1C02610878704700B50B
:100430008FB0CDE901310021059105497944CDE91D
:10044000031011466846FFF71DFF0FB000BD000006
:10045000E5FFFFFF007B00F080007047754600F06D
:100460002BF8AE4605006946534620F00700854646
:1004700018B020B5FFF7BCFEBDE820404FF00006E5
:100480004FF000074FF000084FF0000B21F007017C
:10049000AC46ACE8C009ACE8C009ACE8C009ACE8BF
:1004A000C0098D46704710B50446AFF30080204662
:1004B000BDE81040FFF788BE004870478CC300209D
:1004C00072B64EF62250CEF2000040F2FF01C0F2AA
:1004D00000010170002080F3098840F26000C2F240
:1004E0000000016881F3088802F0D0F940F28E0024
:1004F000C2F2000040F28F01C2F200010A780270DD
:1005000040F20810C2F2000040F20C11C2F20001E9
:100510000A680260106880F30988EFF3148040F0E5
:10052000020020F0040080F31488BFF36F8FBDE851
:10053000F04F0FBCBDE8005006BC62B6084721482A
:100540004FF080510160704772B640F26402C2F20F
:100550000002116881F31188BFF34F8FBFF36F8FD3
:1005600062B6EFF3098020E9F04F40F20815C2F2BD
:10057000000529680860744602F088F940F28E0090
:10058000C2F2000040F28F01C2F200010A7802704C
:1005900040F20C11C2F200010A682A6044F0040E15
:1005A0001068B0E8F04F80F3098840F20002C0F212
:1005B000000272B682F31188BFF34F8FBFF36F8FC3
:1005C00062B6704704ED00E000BFFEE710B500F032
:1005D00021F800F019F810BD10B5002400BF00BFCD
:1005E0004020FFF71BFE044600BF00BF1021054856
:1005F00001F0BFF900BF00BF2046FFF71DFE00BF9E
:1006000000BF10BDC0B6002010B5FFF7E5FF10BD5C
:1006100000BFFEE710B500200249086000F00AF8AC
:1006200010BD00005C000020014908607047000018
:100630005C00002010B50A48006840F0807008494E
:1006400008600020074948600846006840F0010043
:10065000086000F0A7FC0446FFF7E6FF10BD0000AD
:10066000FCED00E0001000E0014840687047000029
:10067000001000E07047000070B50446B3F5804FED
:1006800013D1D1E9000540EA05108D6840EA052044
:100690008D6928438D8940EA054054F82250064E62
:1006A0003540284344F8220003E06FF0704044F8DE
:1006B0002200002070BD00000000F0CF70B502469F
:1006C000086852F8200020F001000E6842F8260069
:1006D0008868082801D1402300E0002348681843B7
:1006E0008E683043CE6830430E6930434E693043E4
:1006F000CE6930430E6A30434E6A30438E6A3043CF
:10070000CE6A30430E6B40EA060488690443486BA6
:100710000443074D45F4806545F4E025086852F828
:100720002000A84320430E6842F82600002070BD38
:100730007FFB080010B50346D1E9000440EA04102D
:100740008C6840EA04208C8940EA0444088A401EF0
:1007500044EA0054087D801E44EA00608C6920430E
:10076000541C53F8244004F040442043541C43F8E4
:100770002400002010BD000070B50446002594F848
:100780002100022803D00420A0630125C1E02068D5
:10079000006820F00E00216808602068006820F0E2
:1007A0000100216808605C492068884252D95A4992
:1007B00078392068884201D1012047E056496439E0
:1007C0002068884201D1102040E053495039206808
:1007D000884201D1801539E04F493C392068884270
:1007E00001D1801432E04C4928392068884202D176
:1007F0004FF480302AE0484914392068884202D1F9
:100800004FF4801022E044492068884201D140041E
:100810001CE042492068884201D1012016E03F498E
:1008200014312068884201D110200FE03B49283163
:100830002068884201D1801508E038493C312068A1
:10084000884201D1801401E04FF480303349091F00
:10085000086051E0304978392068884201D1012090
:1008600047E02D4964392068884201D1102040E0DA
:10087000294950392068884201D1801539E026493C
:100880003C392068884201D1801432E0224928395D
:100890002068884202D14FF480302AE01E49143982
:1008A0002068884202D14FF4801022E01A49206863
:1008B000884201D140041CE018492068884201D1D7
:1008C000012016E0154914312068884201D110201A
:1008D0000FE0124928312068884201D1801508E0D4
:1008E0000E493C312068884201D1801401E04FF468
:1008F0008030094980394860012084F8210000BF18
:10090000002084F8200000BF606B10B12046616BAE
:100910008847284670BD000080000240080402405D
:100920002DE9F847024600239C467BE14FF0010881
:1009300008FA03F4D1F8008008EA0400A0427DD14F
:10094000DFF8F4A2D1F80480A8EB0A09D0453AD028
:1009500014DCB8F1030F50D009DCB8F1000F31D02E
:10096000B8F1010F1CD0B8F1020F49D120E0B8F165
:10097000110F18D0B8F1120F42D11EE0B9F5881F3F
:1009800025D006DCB9F5803F20D0B9F5801F37D1DE
:100990001AE0B9F5001F18D0B9F5041F30D117E0DF
:1009A000D1F80CC02DE0D1F80C8008F1040C28E03F
:1009B000D1F80C8008F1080C23E0D1F80C8008F184
:1009C0000C0C1EE000BF00BF00BF00BF00BF00BF97
:1009D000D1F80880B8F1000F02D14FF0040C0BE001
:1009E000D1F80880B8F1010F03D14FF0080C146161
:1009F00002E04FF0080C546103E04FF0000C00E0FF
:100A000000BF00BFFF2801D8904601E002F10408B2
:100A10004646FF2802D84FEA830803E0A3F10808FE
:100A20004FEA88084746D6F800804FF00F0909FAC8
:100A300007F928EA09080CFA07F900E07AE048EA21
:100A40000908C6F80080D1F8048008F08058B8F191
:100A5000805F6FD100BFDFF8E481D8F8188048F0DC
:100A60000108DFF8D891C9F81880C846D8F818806E
:100A700008F00108CDF8008000BF00BF4FEAB93888
:100A80004FEA930958F829504FEA83784FEA1879CA
:100A90004FF00F0808FA09F825EA0805DFF8A081E9
:100AA000424502D14FF0000824E0DFF8988142452A
:100AB00002D14FF001081DE0DFF88C81424502D1E0
:100AC0004FF0020816E0DFF88481424502D14FF072
:100AD00003080FE0DFF87881424502D14FF00408A7
:100AE00008E0DFF87081424502D14FF0050801E0CF
:100AF0004FF006084FEA83794FEA197908FA09F8A6
:100B000048EA0505DFF850814FEA930948F8295073
:100B1000D1F8048008F48038B8F5803F0BD1DFF8B5
:100B20003C81D8F8008048EA0008DFF83091C9F825
:100B300000800AE075E0DFF82481D8F8008028EA18
:100B40000008DFF81891C9F80080D1F8048008F493
:100B50000038B8F5003F0ED1DFF8008108F1040835
:100B6000D8F8008048EA0008DFF8F09009F104099D
:100B7000C9F800800DE0DFF8E48008F10408D8F837
:100B8000008028EA0008DFF8D49009F10409C9F8C8
:100B90000080D1F8048008F48018B8F5801F0ED1C9
:100BA000DFF8B88008F10808D8F8008048EA0008A3
:100BB000DFF8A89009F10809C9F800800DE0DFF816
:100BC0009C8008F10808D8F8008028EA0008DFF8BF
:100BD0008C9009F10809C9F80080D1F8048008F464
:100BE0000018B8F5001F0ED1DFF8708008F10C086E
:100BF000D8F8008048EA0008DFF8609009F10C0995
:100C0000C9F800800DE0DFF8548008F10C08D8F82E
:100C1000008028EA0008DFF8449009F10C09C9F8BF
:100C200000805B1CD1F8008028FA03F8B8F1000FAF
:100C30007FF47CAEBDE8F887000011100010024080
:100C400000080140000C0140001001400014014068
:100C500000180140001C0140080001400004014050
:100C60000AB1016101E00B040361704701480068AB
:100C7000704700002C0000200348006803490978F1
:100C800008440149086070472C000020340000200F
:100C900010B50848006840F01000064908600320BD
:100CA00000F080F80F2000F007F800F02BF800208B
:100CB00010BD00000020024070B504460E480078C8
:100CC0004FF47A71B1FBF0F00C490968B1FBF0F513
:100CD000284600F073FC08B1012070BD102C07D22B
:100CE00000222146501E00F01EF80548046001E075
:100CF0000120F2E70020F0E734000020000000208F
:100D000030000020704701460846002809DB00F04B
:100D10001F0301229A4043099B0003F1E023C3F81B
:100D2000002100BF70472DE9F05F80460D46164652
:100D3000002703F099FC074639462A46334601F05E
:100D40000700C0F1070ABAF1040F02D94FF0040AF4
:100D500001E0C0F1070AD14600F1040ABAF1070F19
:100D600002D24FF0000A01E0A0F1030AD4464FF08E
:100D7000010A0AFA09FAAAF1010A0AEA020A0AFAB7
:100D80000CFA4FF0010B0BFA0CFBABF1010B0BEA69
:100D9000030B4AEA0B042146404603F06DFCBDE814
:100DA000F09F000000BF00F00702064B19684FF6E5
:100DB000FF031940044B0B4343EA0221014B196026
:100DC00000BF70470CED00E00000FA0570B5044666
:100DD0000D460CB9012070BD5A48006800F00700AC
:100DE000A8420ED25748006820F007002843554912
:100DF00008600846006800F00700A84201D0012002
:100E0000E9E7207800F0020002281DD1207800F0E8
:100E10000400042805D14C48406840F4E0604A4989
:100E20004860207800F00800082805D1464840684E
:100E300040F46050444948604348406820F0F00066
:100E4000A168084340494860207800F0010078B369
:100E50006068012806D13C48006800F4003090B971
:100E60000120B8E76068022806D13748006800F022
:100E7000007040B90120AEE73348006800F002007E
:100E800008B90120A7E73048406820F003006168F6
:100E900008432D494860FFF7E9FE064609E0FFF7E1
:100EA000E5FE801B41F28831884202D9032092E797
:100EB00007E02548406800F00C006168B0EB810F46
:100EC000EDD12048006800F00700A8420ED91D4867
:100ED000006820F0070028431A49086008460068A7
:100EE00000F00700A84201D0012074E7207800F04C
:100EF0000400042807D11448406820F4E060E16849
:100F0000084311494860207800F00800082808D1FB
:100F10000D48406820F46050216940EAC1000A4948
:100F2000486000F03FF808494968C1F30311074AD7
:100F3000515CC8400649086006480068FFF7BCFEDF
:100F4000002048E700200240001002407C7D00089D
:100F500000000020300000200148006870470000B9
:100F60000000002000B5FFF7F7FF04494968C1F30E
:100F70000221034A515CC84000BD0000001002403D
:100F80008C7D000800B5FFF7E7FF04494968C1F30D
:100F9000C221034A515CC84000BD0000001002405D
:100FA0008C7D0008F0B585B00FF26C0C9CE8E01069
:100FB00001A8A0E8E0101CA52D68009500210022E2
:100FC000002300240020194D696801F00C05F5B1DB
:100FD000042D02D0082D19D101E0154819E001AD0A
:100FE000C1F38346AC5D01F4803555B10F4D6D689A
:100FF000C5F340451DF805200D4D6543B5FBF2F3E3
:1010000002E00C4D04FB05F3184602E000BF08485F
:1010100000BF00BF05B0F0BD0203040506070809C4
:101020000A0B0C0D0E0F1010010200000010024000
:1010300000127A0000093D00F8B504460CB9012001
:10104000F8BD207800F00100002878D0F84840680A
:1010500000F00C0004280CD0F548406800F00C00AB
:10106000082811D1F248406800F48030B0F5803F84
:101070000AD1EF48006800F4003000285FD06068B3
:1010800000285CD10120DBE700BF6068B0F5803F3D
:1010900006D1E748006840F48030E549086028E060
:1010A000606858B9E248006820F48030E049086080
:1010B0000846006820F4802008601AE06068B0F5F7
:1010C000A02F0BD1DA48006840F48020D84908608E
:1010D0000846006840F4803008600AE0D4480068A0
:1010E00020F48030D24908600846006820F480204F
:1010F000086000BF606888B1FFF7B8FD054606E0EC
:10110000FFF7B4FD401B642801D9032098E7C848C5
:10111000006800F400300028F2D010E0FFF7A6FDD0
:10112000054606E0FFF7A2FD401B642801D9032015
:1011300086E7BF48006800F400300028F2D120782C
:1011400000F00200022857D1B948406800F00C00B6
:1011500050B1B748406800F00C00082818D1B448D6
:10116000406800F4803098B9B148006800F002008F
:1011700020B12069012801D0012061E7AC48006856
:1011800020F0F800616940EAC100A949086033E035
:101190002069E8B10120A7490860FFF767FD05460F
:1011A00006E0FFF763FD401B022801D9032047E753
:1011B0009F48006800F002000028F2D09C480068B8
:1011C00020F0F800616940EAC1009949086013E025
:1011D000002098490860FFF749FD054606E0FFF743
:1011E00045FD401B022801D9032029E790480068EB
:1011F00000F002000028F2D1207800F00800082852
:101200002DD1A069B8B101208B490860FFF72EFDF0
:10121000054606E0FFF72AFD401B022801D90320FE
:101220000EE78348406A00F002000028F2D0012057
:1012300003F0B6F813E000207F490860FFF716FDC1
:10124000054606E0FFF712FD401B022801D90320E6
:10125000F6E67748406A00F002000028F2D12078D4
:1012600000F00400042873D100277148C06900F021
:10127000805070B900BF6E48C06940F080506C4922
:10128000C8610846C06900F08050009000BF00BFF0
:1012900001276A48006800F48070B0B967480068A8
:1012A00040F4807065490860FFF7E0FC054606E001
:1012B000FFF7DCFC401B642801D90320C0E65F482F
:1012C000006800F480700028F2D000BFE0680128B8
:1012D00006D15748006A40F001005549086227E0EE
:1012E000E06858B95248006A20F00100504908628D
:1012F0000846006A20F00400086219E0E06805284A
:101300000BD14B48006A40F0040049490862084686
:10131000006A40F0010008620AE04548006A20F0D7
:101320000100434908620846006A20F00400086290
:1013300000BFE068A0B1FFF799FC054609E0FFF7A0
:1013400095FC401B41F28831884202D9032077E6A0
:1013500022E03748006A00F002000028EFD012E0D7
:10136000FFF784FC054608E0FFF780FC401B41F2D4
:101370008831884201D9032062E62D48006A00F0D6
:1013800002000028F0D1012F05D12948C06920F0C2
:1013900080502749C86100BFE069C8B3244840684D
:1013A00000F00C00082860D0E069022848D1002035
:1013B00020490866FFF75AFC054606E0FFF756FC91
:1013C000401B022801D903203AE61948006800F0C2
:1013D00000700028F2D1206AB0F5803F07D1144890
:1013E000406820F40030A168084311494860D4E9FE
:1013F000080108430E49496821F4741108430C4957
:10140000486001200B490866FFF730FC054607E0FD
:101410003DE0FFF72BFC401B022801D903200FE61B
:101420000348006800F000700028F2D02FE00000B0
:10143000001002400000424280044242007000401E
:10144000002014490866FFF711FC054606E0FFF787
:101450000DFC401B022801D90320F1E50E4800686D
:1014600000F000700028F2D111E0E069012800D1FD
:10147000E6E50948466806F48031206A814204D1D5
:1014800006F47011606A814201D00120D8E5002085
:10149000D6E50000000042420010024070B504464C
:1014A0000E4615461CB1A069B0F5807F01D1012020
:1014B00070BD94F8410028B9002084F8400020460F
:1014C00000F020F804F108012068FFF7F7F8314632
:1014D000A2682068FFF72EF92946236BD4E90102A0
:1014E000FFF7CAF8A168206850F8210040F0010019
:1014F000A268216841F82200012084F84100002000
:10150000D6E7000010B586B0044600BF1E4840690B
:1015100040F480701C4948610846406900F48070BE
:10152000019000BF00BF00BF0846806940F0200066
:1015300088610846806900F02000019000BF00BF6C
:1015400000BF0846806940F0400088610846806915
:1015500000F04000019000BF00BF4CF20370029009
:1015600002200390012004900320059002A907485F
:10157000FFF7D6F94FF68070029002A90448FFF7F2
:10158000CFF906B010BD0000001002400014014069
:1015900000180140042808D14FF0E021096941F00A
:1015A00004014FF0E022116107E04FF0E0210969EA
:1015B00021F004014FF0E0221161704770B504463C
:1015C0002546681EB0F1807F01D301200FE0681E20
:1015D0004FF0E02148610F214FF0FF3003F04CF84D
:1015E00000204FF0E021886107200861002070BDD5
:1015F000704700002DE9F047044620680568206820
:10160000C668206847694FF00008C14605F00F081A
:10161000B8F1000F0AD105F0200038B106F0200023
:1016200020B1204602F009FFBDE8F087B8F1000FB5
:1016300071D007F0010018B906F4907000286AD044
:1016400005F0010030B106F4807018B1E06B40F095
:101650000100E06305F0040030B107F0010018B1AB
:10166000E06B40F00200E06305F0020030B107F0EB
:10167000010018B1E06B40F00400E06305F00800E1
:1016800048B106F0200010B907F0010018B1E06B76
:1016900040F00800E063E06B68B305F0200028B17B
:1016A00006F0200010B1204602F0C7FE2068406915
:1016B000C0F38019E06B00F0080010B9B9F1000F19
:1016C00022D0204602F099FE2068406900F04000D8
:1016D000B0B12068406920F0400021684861606B2B
:1016E00050B11848616B4863606BFFF745F810B163
:1016F000606B416B88470CE02046FFF779FF08E0FC
:101700002046FFF775FF04E02046FFF771FF002039
:10171000E06389E7FFE705F0800030B106F0800064
:1017200018B1204602F058FF7EE705F0400030B1C6
:1017300006F0400018B1204602F06FFE74E700BFCB
:1017400072E70000E743000810B504460CB9012019
:1017500010BDA06900B100E000BF94F8390028B9BD
:10176000002084F83800204600F028F8242084F86F
:1017700039002068C06820F400502168C860204605
:1017800002F0ACFE2068006920F4904021680861F6
:101790002068406920F02A00216848612068C068FC
:1017A00040F400502168C8600020E063202084F8E5
:1017B000390084F83A000020CAE7000010B586B06E
:1017C00004462849206888424AD100BF00BF264805
:1017D000806940F00400244988610846806900F06F
:1017E0000400019000BF00BF00BF00BF00BF08465B
:1017F000806940F0040088610846806900F00400B8
:10180000019000BF00BF00BF00BF00BF0846806955
:1018100040F4804088610846806900F4804001906F
:1018200000BF00BF00BF48150290022003900120B6
:1018300004900320059002A90C48FFF771F84FF4BB
:10184000806002900020039002A90848FFF768F822
:101850002520FFF758FA032211462520FFF763FAE7
:1018600006B010BD003801400010024000080140E1
:1018700010B5034693F83A0020282FD101B10AB9D8
:10188000012010BD00BF93F83800012801D10220CB
:10189000F7E7012083F8380000BF99629A85DA855E
:1018A0000020D863222083F83A0000BF002083F88C
:1018B000380000BF1868C06840F480701C68E060A1
:1018C0001868406940F001001C6860611868C068D1
:1018D00040F020001C68E0600020D2E70220D0E742
:1018E0001D4A0168914236D11C49098801F4004122
:1018F00089BB1A49098801F4804171B118490978F6
:101900000A2903D00021154A118024E013490988CF
:1019100041F40041114A11801DE0114909780D2957
:1019200006D10E49098841F480410C4A118012E029
:101930000B490978094A1288C2F30D02094B9954E0
:1019400006490988491C054A118011460988C7299A
:1019500001DD00211180704700380140280000207F
:101960002A0000205C0B0020704700BFFEE700BF8C
:10197000FEE730B505460C4622460021284600F019
:1019800001F830BD2DE9F04105460B46944600278D
:10199000002402E03F021F43641C042CFAD360467B
:1019A00005F00306294646B1344603E001F8013B41
:1019B000401E641C08B1042CF8D30A4601E080C222
:1019C000001F0428FBD2114602E001F8013B401E33
:1019D0000028FAD1BDE8F0817047704770B5044621
:1019E00000F09EF8002039490870394908703949DB
:1019F000087039490860394908603949087039491F
:101A0000087039490870394800680A21B0FBF1F0C4
:101A1000374908603748056845B13748066803E02C
:101A2000761E002028602D1D002EF9D13248016855
:101A30003048006802F02EF801F08AFB01F0ACFBA0
:101A400000202E4908602E490880204601F072F9D6
:101A5000208800B170BD204601F078F9208800B1DF
:101A6000F8E70020274908602749088027490860CF
:101A7000274908802749086027490880204601F047
:101A800083FF208800B1E5E7204601F01BF920889C
:101A900000B1DFE7204602F009F8208800B1D9E75D
:101AA000204601F03DFE208800B1D3E7204602F039
:101AB0008FFA208800B1CDE700F0CCFFFFF78DFF53
:101AC00001201649087000BFC4E700006C00002028
:101AD0006D0000209A000020080100200C01002069
:101AE0008E0000208F000020A000002070AD0008B4
:101AF0009C0000203CAD000840AD000878000020AC
:101B00007C000020880000208C0000209400002031
:101B100098000020A4000020A80000206E000020F3
:101B2000084800680849096800EB81000749086017
:101B30000846006820F0070008604020044908605B
:101B4000704700003CAD000840AD00086000002078
:101B50006400002008480078012800D0704707483A
:101B60000078FA2800D3F9E704480078401C0349BC
:101B7000087000BFF2E700006D0000206C0000203C
:101B800070B5002538480078012800D070BD00BF2E
:101B90004020FEF743FB054600BF3448007828B9D3
:101BA00000BF2846FEF748FB00BFEFE72F4800784C
:101BB000401E2E4908700846007828B100BF28460C
:101BC000FEF73AFB00BFE1E72948007828B100BFE3
:101BD0002846FEF731FB00BFD8E7264801682648B3
:101BE000006801F043FF0446012C02D0002000F001
:101BF000ABF901F0A3FA214908700846007800EB20
:101C000040001F4951F820001E490860084600683E
:101C10001D49096888420FD1002000F01BFE0446D0
:101C2000012C03D01848006800F08EF900BF284648
:101C3000FEF702FB00BFA9E712480068D0F8940045
:101C4000401C10490968C1F8940010480068401C05
:101C50000E490860FEF773FC00BF2846FEF7ECFA59
:101C600000BF00BF92E700006D0000206C00002064
:101C70009A00002040AD00083CAD00088F00002015
:101C800030C000200C01002008010020C800002006
:101C90002DE9F04104460E461546002721480078FC
:101CA00020B142F6E1602880BDE8F0811CB945F61C
:101CB000C3502880F8E700BF00BF4020FEF7AEFA0F
:101CC000074600BF00BF1849206888420AD100BFFC
:101CD00000BF3846FEF7B0FA00BF00BF45F6C1505E
:101CE0002880E1E710482060666000202062606282
:101CF00084F82800E06204F1080001F06AF9204647
:101D000001F08AF809480088401C0849088000BF93
:101D100000BF3846FEF790FA00BF00BF00202880C1
:101D200000BFC1E76C0000204D5554588C000020C6
:101D30002DE9F0470646894617461C46089D4FF098
:101D4000000A7C48007820B146F2AE102880BDE839
:101D5000F08779480078012803D045F6896028800B
:101D6000F5E71EB945F6C3502880F0E71FB1B7F577
:101D7000004F02D100E000BF03E045F62560288057
:101D8000E5E700BF6D493068884203D045F6C4508E
:101D90002880DCE700BF00BF4020FEF73FFA824604
:101DA00000BF00BF96F82800B8B9654800687062A7
:101DB000012086F828000CB1F06A206031466048A6
:101DC000006801F041F800BF00BF5046FEF734FA4A
:101DD00000BF00BF00202880B9E75949706A096830
:101DE000884221D196F82800FF280AD100BF00BF01
:101DF0005046FEF721FA00BF00BF45F284702880EC
:101E0000A5E796F82800401C86F828000CB1F06A77
:101E1000206000BF00BF5046FEF70EFA00BF00BFB3
:101E200045F28270288092E707F4004068B100BF55
:101E300000BF5046FEF700FA00BF00BF0CB1002003
:101E4000206046F2B010288081E73E48007868B1F3
:101E500000BF00BF5046FEF7EFF900BF00BF0CB156
:101E60000020206046F66350288070E7D6F8248072
:101E700098F83B003249096891F83B10884206DD2A
:101E80002F48006890F83B10404601F0CFFC4B46CD
:101E900004222B480168304601F02CF800BF00BF37
:101EA0005046FEF7C9F900BF00BF00F055F800BF6B
:101EB00000BF4020FEF7B2F9824600BF00BF2048B5
:101EC000006890F8390030B101280CD002281AD0EF
:101ED000032821D110E01CB119480068C06C2060B3
:101EE000002028801CE01CB115480068C06C2060F0
:101EF00046F2A910288013E00CB10020206047F2C0
:101F0000D92028800CE01CB10D480068C06C20600E
:101F100045F6C250288003E046F62E60288000BFB8
:101F200000BF00BF00BF5046FEF786F900BF00BFEC
:101F300000BF0CE76C0000206D0000204D55545888
:101F4000080100209A00002010B5044600BFFEF7EB
:101F50005FFB00BF10BD000010B5002422480078D0
:101F6000012800D010BD2148007800B1FAE72048D0
:101F7000007800B1F6E700BF4020FEF74FF90446B5
:101F800000BF01F0DBF81B4908700846007800EB41
:101F90004000194951F820001849086008460068B7
:101FA00017490968884205D100BF2046FEF744F969
:101FB00000BFD7E711480068D0F89400401C0F49D3
:101FC0000968C1F894000F480068401C0D4908607A
:101FD000FEF7B5FA00BF2046FEF72EF900BFBFF3AB
:101FE0006F8F00BFBEE700006D0000206C00002076
:101FF0009A0000208F00002030C000200C0100203B
:1020000008010020C800002070B5044600251748CC
:10201000007818B146F66250208070BD14480078F0
:10202000012803D045F689602080F6E71148007842
:10203000FA2803D345F209202080EEE700BF00BF55
:102040004020FEF7EBF8054600BF00BF09480078C6
:10205000401C0849087000BF00BF2846FEF7ECF896
:1020600000BF00BF0020208000BFD6E76C0000202A
:102070006D0000209A0000202DE9F04105460C4635
:102080001646002700BF00BF4020FEF7C7F80746EE
:1020900000BF00BF1DB900200D49087002E00120FB
:1020A0000B49087014B10B48046006E00A48006848
:1020B0000A21B0FBF1F00749086000BF00BF3846B5
:1020C000FEF7BAF800BF00BF00203080BDE8F08105
:1020D000A00000209C00002070AD000870B50446F0
:1020E00000251F48007818B146F66550208070BD65
:1020F0001C480078012803D045F689602080F6E767
:102100001948007818B946F664502080EFE700BF00
:1021100000BF4020FEF782F8054600BF00BF12480E
:102120000078401E104908700846007850B100BF82
:1021300000BF2846FEF780F800BF00BF46F6635098
:102140002080D4E700BF00BF2846FEF775F800BF27
:1021500000BFFFF701FF0020208000BFC7E700009D
:102160006C0000206D0000209A00002070B504462D
:102170001C480078012803D045F68B60208070BD94
:1021800000256D1C6D1C6D1C17480088A84203DCDF
:1021900045F68C602080F2E714480078E8B900F03A
:1021A000CDFF13490870084600781249087010489E
:1021B000007800EB4000104951F820000F490860FA
:1021C000084600680E490860012008490870FEF7BB
:1021D00077F943F69920208002E045F68A60208056
:1021E00000BFCCE76E000020D00000206D00002072
:1021F0008F0000208E00002030C000200C01002045
:10220000080100202DE9F04107464FF0000800BF0B
:1022100000BF4020FEF702F8804600BF00BF00204C
:102220003B4908803B4908603B4908603B490860DE
:102230003B4908603B4908603B49088100BF00BF3B
:102240004046FDF7F9FF00BF00BF00BF00BF4020C0
:10225000FDF7E4FF804600BF00BF3448046800BFBC
:1022600000BF4046FDF7E8FF00BF00BF21E000BF10
:1022700000BF4020FDF7D2FF804600BF00BF002016
:1022800044F8800FE06260612082608220626062B8
:10229000FEF7EAF9E061803C04F16C060020B081B1
:1022A000D4F8BC4000BF00BF4046FDF7C5FF00BFEB
:1022B00000BF002CDBD100BF00BF4020FDF7AEFF08
:1022C000804600BF00BF1A48056800BF00BF4046F7
:1022D000FDF7B2FF00BF00BF13E000BF00BF40200A
:1022E000FDF79CFF804600BF00BF05F120060020DF
:1022F000B081AD6900BF00BF4046FDF79DFF00BF44
:1023000000BF002DE9D100203880BDE8F081000039
:10231000AE000020C4000020E0000020E400002007
:10232000F8000020FC00002024C00020CC00002089
:1023300094000020704700002DE9FF4F85B004464F
:102340009346DDE91995DDE91286159F002002907C
:102350006248007828B147F24A10288009B0BDE8E9
:10236000F08F1CB947F2AD102880F7E7BBF1000FE2
:1023700003D147F24F102880F0E71EB946F62F60D0
:102380002880EBE756480068874203D246F6306063
:102390002880E3E71498B84203D346F631602880DA
:1023A000DCE7B8F11E0F06D9B8F11F0F03D046F2D3
:1023B00073202880D2E7B8F11F0F06D14948844224
:1023C00003D046F273202880C8E7204601F0ECFADB
:1023D0000020288009F0010010B909F0020088B13E
:1023E00009F0020070B1B2460020049007E000201E
:1023F000CAF800000AF1040A0498401C04900498EA
:10240000B842F4D3149806EB80000390CDE900792C
:1024100032465846039B089900F0B4F98246B2450B
:1024200003D246F63260288098E73946304601F0FC
:1024300031FBC4F824B00898A0620698E06084F8E4
:102440003B8084F83C80C4F800A00398A0601798F3
:10245000E065179818B924480068206601E01798CD
:1024600020661898606026626764A4F8489004F1BA
:102470006C00169900F0C8FC204600F03BF800BF45
:1024800000BF4020FDF7CAFE029000BF00BF94F8D5
:102490003B0000F069FE204600F0C6FE204601F039
:1024A00039FA12480088401C10490880104800780A
:1024B000012807D000BF00BF0298FDF7BDFE00BF96
:1024C00000BF4BE700BF00BF0298FDF7B5FE00BF9D
:1024D00000BFFFF741FD00BF40E700006C00002097
:1024E0006CAD000860BF00209C000020D0000020E0
:1024F0006D000020704700002DE9F04104460E46B3
:102500004FF000086148007820B147F24E1030804B
:10251000BDE8F0815E480078012803D045F6896067
:102520003080F5E75B48844203D147F24C1030809D
:10253000EEE784B900BF00BF4020FDF76FFE804684
:1025400000BF00BF5448046800BF00BF4046FDF70D
:1025500073FE00BF00BF00BF00BF4020FDF75EFE5E
:10256000804600BF00BF94F83A0008285ED2DFE83A
:1025700000F004090E10080A0F11204600F092FE28
:102580005FE05EE000BF204601F03AFB59E000BF8B
:1025900000BF00BF94F83800082839D2DFE800F007
:1025A000040705380D08090600BF00BF31E000BF71
:1025B00000BF204600F045FD2BE0606B456A15F832
:1025C0003B7F204600F03DFD287869783B3D8842FE
:1025D00012D095F83B0094F83B1088420CD1284665
:1025E00000F065FC074695F83C00B84202DA95F821
:1025F0003C0000E038460746002084F8380095F893
:102600003B00B84203D03946284601F00FF900E0FC
:1026100000BF00BF94F83A00032803D094F83A00B2
:10262000072802D1204601F0EBFA0AE000BF00BF04
:102630004046FDF701FE00BF00BF46F62D6030802A
:1026400066E700BF206C10B1204600F001FC04F1E9
:102650006C0000F0B9FB204600F022F8204601F0A3
:1026600071F90E480088401E0C490880FF2084F84C
:102670003A000020308000BF00BF4046FDF7DCFD7F
:1026800000BF00BFFFF768FC00BF41E76C000020FF
:102690006D00002060BF002008010020D000002055
:1026A000704770472DE9F05F05460E4617461C46F9
:1026B0004FF0000B3148007820B147F259102080CC
:1026C000BDE8F09F1EB946F2D5202080F8E71FB97B
:1026D00046F2D5202080F3E700BF00BF4020FDF781
:1026E0009DFD834600BF00BF0DB9254805682868D9
:1026F00068B900BF00BF5846FDF79EFD00BF00BF90
:1027000000203060386047F252102080D8E795F8FA
:10271000480000F0010068B900BF00BF5846FDF74F
:102720008BFD00BF00BF00203060386047F25410BE
:102730002080C5E7D5F820A00AF1200AD5F84490FA
:1027400000BF00BF5846FDF777FD00BF00BF4FF048
:10275000000803E00AF1040A08F10108C84503D2A1
:10276000DAF800000028F5D0C6F80080A9EB0800D0
:1027700038600020208000BFA2E700006C0000202D
:1027800008010020F0B50446DDE9055602EB85009E
:1027900020F007004FF0807C071F3846C7F800C0C4
:1027A000071F38463C60DFF8A8C0071F3846C7F847
:1027B00000C04FF0123C071F3846C7F800C04FF06A
:1027C000033C071F3846C7F800C04FF0023C071F04
:1027D0003846C7F800C0071F38463B60071F384619
:1027E00039606FF0020C071F3846C7F800C04FF081
:1027F000113C071F3846C7F800C04FF0103C071FB8
:102800003846C7F800C04FF0093C071F3846C7F8E4
:1028100000C04FF0083C071F3846C7F800C04FF013
:10282000073C071F3846C7F800C04FF0063C071F9B
:102830003846C7F800C04FF0053C071F3846C7F8B8
:1028400000C04FF0043C071F3846C7F800C0F0BD79
:10285000553A000830B504460CB90B480468216AA3
:102860002068884206D3616C206A00EB81002168F1
:10287000884201D8002030BD616C206A01F0F6F872
:1028800005462846F7E700000801002070B5FDF76F
:10289000EBFE05461548006815490968884215D0C1
:1028A00012480068D0F89C00281A10490968C1F83D
:1028B00098000E480068D0F8A0000C490968D1F8CB
:1028C0009810084409490968C1F8A0000848006840
:1028D000C0F89C500020FFF7BDFF0446012C03D038
:1028E00002480068FFF730FB70BD000008010020BF
:1028F0000C0100202DE9F04106460D461446002744
:102900002748007820B147F275202080BDE8F0818B
:1029100024480078012803D045F689602080F5E737
:102920002148007818B146F663502080EEE735B1B3
:10293000022D05D0042D05D0082D04D101E000BFE3
:1029400000BF00BF03E045F625602080DEE700BF42
:1029500000BF00BF4020FDF761FC074600BF00BF7D
:1029600023462A4631461148006801F003F92088C1
:1029700038B100BF00BF3846FDF75EFC00BF00BFA6
:10298000C4E70A48006800F08DFC00BF00BF38466D
:10299000FDF752FC00BF00BFFFF7DEFA00BFB5E74E
:1029A0006C0000206D0000209A000020080100202B
:1029B00010B50A480078012800D010BD00F014F8C6
:1029C0000749097801EB4101064A02EB810000F05A
:1029D00097FC012001F0DEF900BFEEE76D0000205A
:1029E0008E00002030C00020704710B5002400BFCA
:1029F00000BF4020FDF712FC044600BF00BFFFF7F8
:102A0000A9F800BF00BF2046FDF716FC00BF00BFBD
:102A1000FFF7CEFFFFF7B4F810BD000010B5014678
:102A200040224B1E4FF0E0246361094B186820F0F0
:102A30007F4040EA0260186023461B6943F00503AB
:102A4000236123461B6943F00203236110BD00008C
:102A500020ED00E00EB547480290474800904748F7
:102A600002904748029047480090474802904748E4
:102A700001904748029047480290474802904748D3
:102A800002904748019047480190474801904748C5
:102A900002904748019047480290474801904748B4
:102AA00001904748019047480190474802904748A5
:102AB0000290474802904748019047480290474893
:102AC0000290474801904748019047480190474885
:102AD0000190474801904748019047480290474875
:102AE0000290474802904748029047480190474863
:102AF0000190474801904748029047480290474854
:102B00000290474801904748019047480190474844
:102B10000090474801904748029047480290474834
:102B20000290474802904748029047480290474821
:102B30000290474801904748029047480290474812
:102B40000190474801904748029047480290474803
:102B500001904748019047480290474802904748F3
:102B600001904748019002980290019801900098C6
:102B700000900EBD90AD0008F4AE000891AD0008C5
:102B800092AD000894AD000898AD00089CAD000817
:102B900099AD0008C4AD0008C5AD0008C6AD000879
:102BA000C8AD0008CAAD0008CCAD0008ECAD000807
:102BB000EEAD0008F0AD0008F2AD0008F4AD00087D
:102BC000F6AD0008F8AD000828AE000829AE0008F0
:102BD0002AAE00082CAE00082EAE00082FAE00086A
:102BE00030AE000832AE000834AE000836AE000841
:102BF00038AE00083CAE00086CAE00086DAE0008B0
:102C00006EAE00086FAE000870AE000872AE00082D
:102C100074AE00089CAE00089DAE00089EAE000891
:102C20009FAE0008A0AE0008A2AE0008A4AE000847
:102C3000A8AE0008A9AE0008AAAE0008ABAE000816
:102C4000ACAE0008ADAE0008AEAE0008AFAE0008F6
:102C5000B0AE0008B2AE0008B3AE0008B4AE0008D3
:102C6000B6AE0008B8AE0008B9AE0008BAAE0008AB
:102C7000BCAE0008ECAE0008EDAE0008EEAE0008F9
:102C8000F0AE0008002400BF00BF00BF4020FDF7E9
:102C9000C5FA044600BF00BF08480068401C074949
:102CA000086007480068401C0549086000BF00BF75
:102CB0002046FDF7C1FA00BFE6E7000068000020EB
:102CC000B000002010B58AB0044600200E4908600C
:102CD0000B2000210591CDE90704069108460B4918
:102CE00009680B4A12680B4B1B68CDE90132CDE92C
:102CF00003101F200023084A08A100900C48FFF78A
:102D00001BFB0AB010BD00006800002034AD0008B5
:102D100030AD00082CAD0008852C000875432F4FFE
:102D2000532D4949492049646C65205461736B00F7
:102D300060BF00200021034A1160034A1180018016
:102D400070470000800000208400002070B501461C
:102D50001A4D2D681DB945F21E750D8070BD184DB8
:102D60002D881DB945F21D750D80F7E7134D2868B4
:102D70002A681032124D2D886D1EACB2002308E077
:102D80000260002545600581C560103010325D1C71
:102D9000ABB2A342F4DB0025056045600581C56048
:102DA000064D2D68074E3560054D2D88B5800025F0
:102DB000F58035810D8000BFD0E7000050AD0008E0
:102DC00048AD000824C0002010B5014648894B8951
:102DD000BBB10A680B4B1B6813600A4C4B6823603D
:102DE0002346DB884C891B1B064CE38023469B88CB
:102DF0004C892344034CA38000234B818B810B60BF
:102E00004B6010BD24C000200181002242818281DC
:102E1000026042607047000009A1C1610021416168
:102E20000849096811B90021816105E0054909686F
:102E300081610449096848610249086070470000DF
:102E40002000000088000020026C0A6201647047C4
:102E50002DE9F84305462C6C25E0D4F82090FDF7C9
:102E600003FC8046C4F82C802146284600F034F844
:102E700004F10806306820B9002084F82800606258
:102E800010E037686562012084F828002146384642
:102E9000FFF7DAFF00231A4639462046CDF80080B6
:102EA00000F0F6F84C46002CD7D1BDE8F88330B5D9
:102EB00004461F2004F140010AE00D68AB6823B10D
:102EC00093F83B20824200DA10460D6805F120019C
:102ED0000D68002DF1D130BD024602F1400002E044
:102EE000036803F1200003688B42F9D103681B6A71
:102EF000036070472DE9F04105460C4616461F4613
:102F000084F83860002084F839003946204600F003
:102F100075FC3DB105F1080865632146404600F0A7
:102F20005DF801E0002060632146284600F002F8C9
:102F3000BDE8F08110B540B14468C1F8C04000F16F
:102F400008031A68D468C46113E091F83840022C71
:102F500002D0072C08D103E006A4C1F8C04007E066
:102F600006A4C1F8C04003E007A4C1F8C04000BFF8
:102F700000BF10BD5461736B205100005461736B2E
:102F80002053656D000000002000000010B50A46C7
:102F900006A4C2F8C04040B100F10803196811B19D
:102FA000CC68C46101E001A4C46110BD2000000030
:102FB00070B50446666B06F108052868C06A38B12A
:102FC000204600F03EF866632146284600F006F8E9
:102FD00070BD0021016041600181704710B591F81A
:102FE0003B3004683CB9012404810024CC620C63AA
:102FF0000160416024E00489641C0481026805E0EA
:1030000092F83B409C4200DD02E0D26A002AF7D1F0
:1030100000BF3AB90024CC6244680C630C6BE162D7
:1030200041600DE0146B2CB9CA6200240C6311637B
:10303000016005E0CA62146B0C630C6BE162116302
:1030400010BD10B5446B14B3446B04F108010C6857
:10305000E46A1CB900240C604C6011E0046B24B9D4
:10306000C26A002414630A600AE0C46A24B9036BCC
:103070000024DC624B6003E0036BC26ADA62136314
:103080000C89641E0C810024C4620463446310BD77
:103090002DE9F04105460C4616461F46DDF818801E
:1030A00094F83A00082845D2DFE800F00405080942
:1030B0000607272800BF00BF00BF3CE000BF6666D0
:1030C000A4F86870C4F84C8015B12046FFF7B9FF2A
:1030D00021462846FFF75AFF94F83A00032802D108
:1030E000204600F08DFD204600F068F800203834BE
:1030F000A070607004F838091DE000BF6666A4F88F
:103100006870C4F84C8015B12046FFF79AFF21463D
:103110002846FFF73BFF94F83A00072802D12046E3
:1031200000F06EFD04203834A0700020607004F8B8
:10313000380900E000BF00BFBDE8F08110B50349C9
:103140000868FDF786F8C0B210BD000090000020AE
:10315000002004E00021034A42F82010401C00280F
:10316000F8D070479000002004490968C0F11F039F
:1031700001229A401143014A1160704790000020DB
:1031800004490968C0F11F0301229A409143014A92
:103190001160704790000020002109E001EB41021E
:1031A000054B03EB82000022028102604260491C51
:1031B0002029F3D37047000030C0002010B504462A
:1031C00094F83B00FFF7D0FF94F83B0005490978DD
:1031D000884203D1204600F027F802E0204600F0A4
:1031E00003F810BD8E00002010B590F83B3003EBC3
:1031F00043030C4C04EB83010B683BB901230B81A7
:103200000023036143610860486009E00B895B1C8F
:103210000B810B680361002343610A6850610860F9
:1032200010BD000030C0002010B590F83B3003EB1B
:1032300043030B4C04EB83010B683BB901230B8167
:103240000023036143610860486008E00B895B1C50
:103250000B81002303614A6842611061486010BD20
:1032600030C0002030B5D0E90045AC4218D0046829
:1032700024694568AC4209D1016842684A6100246A
:103280000C61546111610260416009E001684268AB
:103290000B6900245C610C614A611161036041604B
:1032A00030BD00002DE9F041054695F83B0000EBEC
:1032B0004000124901EB80046F692E6987B946B955
:1032C000002020812060606095F83B00FFF758FFE8
:1032D0000EE02089401E208100207061266007E0FA
:1032E0002089401E20813E610EB9676000E0776151
:1032F000002068612861BDE8F081000030C0002036
:1033000070B5054600262E480078012800D070BD13
:1033100000BF00BF4020FCF781FF064600BF00BF92
:103320002C683CB900BF00BF3046FCF785FF00BFEA
:1033300000BFECE72348844207D100BF00BF3046FE
:10334000FCF77AFF00BF00BFE1E7206E10B1206EEE
:10335000401E2066206E38B100BF00BF3046FCF72B
:103360006BFF00BF00BFD2E7D5E90001884207D15B
:1033700000BF00BF3046FCF75FFF00BF00BFC6E7DD
:103380001148007838B100BF00BF3046FCF754FF49
:1033900000BF00BFBBE72846FFF764FF2C68E06D65
:1033A00018B90A480068206601E0E06D206600BF99
:1033B00000BF3046FCF740FF00BF00BF00BFA6E7DC
:1033C000A000002060BF00209A0000209C00002088
:1033D00088B00020009006E0BD490968480002AAB4
:1033E0000021FFF787FABB4800780128F4D102A832
:1033F000FEF708FF4FF00008B7480068B4490968B5
:10340000884205D9B4480068B1490968B0FBF1F8B1
:10341000B8F1000F04D1B04800680A21B0FBF1F800
:1034200000BFFDF721F9814600BF00BF4020FCF737
:10343000F5FE009000BF00BFA8480068A8490860DA
:103440000020A649086000BF00BF0098FCF7F4FE0A
:1034500000BF00BFA3480068A1490968884248D955
:10346000A0480068A049884205D242F2107004903A
:103470000120039023E09B4800689C49884205D2C4
:103480004FF47A7004900A20039018E09548006881
:103490009749884203D26420049003900FE091483A
:1034A00000689449884205D20A2004904FF47A704B
:1034B000039004E00120049042F2107003908948C8
:1034C00001680398B1FBF0FB8549049809684843FB
:1034D000B0FBFBF042F21071081A87490880874858
:1034E00000880988884207DA834800888349088071
:1034F00002E0002080490880FEF71CFF002500BF85
:1035000000BF4020FCF78AFE009000BF00BF7C484F
:10351000046800BF00BF0098FCF78EFE00BF00BF2C
:1035200028E000BF00BF4020FCF778FE009000BFFD
:1035300000BF54F8A00F6060002044F8A00900BF4D
:1035400000BF0098FCF778FE00BF00BFD4F8A400CD
:10355000054400BF00BF4020FCF760FE009000BFA4
:1035600000BFD4F8BC4000BF00BF0098FCF764FE69
:1035700000BF00BF002CD4D15DB35B48854205D2AB
:1035800042F210700690012007901DE057488542D6
:1035900005D24FF47A7006900A20079014E0544840
:1035A000854203D26420069007900DE05148854281
:1035B00005D20A2006904FF47A70079004E00120AB
:1035C000069042F2107007900798B5FBF0F0059056
:1035D00003E0002006900120059000BF00BF4020BE
:1035E000FCF71CFE009000BF00BF4548046800BF08
:1035F00000BF0098FCF720FE00BF00BF2CE0D4F80D
:10360000A400069948430599B0FBF1F086B242F256
:103610001070864200D90646A4F89060B4F8920073
:10362000B04201DAA4F8926002AB04F1B002111DBD
:103630002046FFF737F800BF00BF4020FCF7EEFD43
:10364000009000BF00BFD4F8BC4000BF00BF00988E
:10365000FCF7F2FD00BF00BF002CD0D100272948A5
:10366000D0F800A00AF1200A274800680838019025
:1036700002E00AF1040A7F1CDAF8000010B9019890
:103680008742F6D3214807601F480068C01B2049C5
:10369000086020480078012805D100201D490870E5
:1036A00002A8FEF7AFFDFCF7DFFFA0EB09001A4907
:1036B00008601A4800680968884203D21648006802
:1036C0001649086002AA00214046FFF713F9A8E650
:1036D00058AD0008BC00002070AD0008B00000200C
:1036E000B8000020B4000020801A060000093D0048
:1036F000005A62020084D717AC000020AE00002000
:10370000CC0000203CAD000840AD00087000002057
:1037100074000020AA000020C0000020C400002087
:1037200010B58AB00446002021490860214908608C
:103730002149086021490870214908702149086021
:10374000214908602148006820B946F62B60208096
:103750000AB010BD1E4800681E490968884203D29D
:1037600046F62C602080F3E71B4800781F2803D31F
:1037700046F62A602080EBE7032000210591CDE981
:1037800007040691084612490A68144909680F4B54
:103790001B68CDE90131CDE903200F4800780023F3
:1037A0000F4A10A100901448FEF7C6FD00BFCFE7F6
:1037B000B0000020B8000020B4000020BC000020B1
:1037C000AA00002070000020740000205CAD0008FA
:1037D00064AD00086CAD000854AD000860AD000891
:1037E000D133000875432F4F532D49494920537455
:1037F0006174205461736B00B0C1002070B5044641
:103800000D4655B12B46084800210268204600F0BD
:103810005BF9032084F83A0002E0022084F83A00C1
:103820002046FFF73FFD70BDD40000202DE9F04198
:1038300004460D4600BF002694F83B7094F83A0009
:1038400008285DD2DFE800F004191E1F1A1B202192
:103850002046FFF727FD84F83B5094F83B00FFF724
:1038600083FC2B480068844203D12046FFF7BCFC50
:1038700002E02046FFF7D8FC44E000BF00BF84F818
:103880003B503FE000BF00BF00BF84F83B5094F8BE
:10389000380008282FD2DFE800F02E042F2E0A056A
:1038A000063000BF00BF2046FFF782FB26E020461F
:1038B000FFF77EFB606B466AAF4205DD96F83B0082
:1038C000A84217DC002615E096F83B00B84211D15B
:1038D0003046FFF7ECFA054696F83C00A84202DABB
:1038E00096F83C0000E02846054696F83B00A842C2
:1038F00000D1002602E000BF00BF00BF00BF01E012
:10390000BDE8F08100BF3446002C94D100BFF7E73A
:10391000080100200021C0F8B8100949096819B948
:103920000021C0F8BC1007E005490968C0F8BC10C8
:1039300003490968C1F8B8000149086070470000F0
:10394000CC000020D0F8B820D0F8BC104AB90D4BFC
:10395000196011B10023C1F8B8300023C0F8BC30A1
:103960000FE029B90023C2F8BC30C0F8B83008E035
:10397000C2F8BC10C1F8B8200023C0F8BC30C0F8B1
:10398000B8307047CC0000200021044A1160044A7E
:103990001180044A1160018070470000CC000020B3
:1039A000D0000020C800002010B504460020206090
:1039B000A060606020616061A061E06122A0E060C1
:1039C000002020626062A062E0646066A4F8680083
:1039D000002104F16C00FFF717FA00202C34206559
:1039E0006065A065A4F86000E0656062E067C4F807
:1039F0008000A06184F86200C4F88800C4F88400E4
:103A0000A083A062E06220636063A4F86400A4F86D
:103A10006600A066E066FCF727FE2067002060676E
:103A200020606060A06020736073A0732020E0734A
:103A3000207400206061C4F88C00C4F8900004A0D9
:103A4000C4F894002C3C10BD3F5461736B0000001F
:103A50002000000008B504480068FEF722FE694611
:103A60000020FEF749FD08BD0801002010B5024600
:103A70000B46002107E0064C1068A04201D0002050
:103A800010BD121D491C0829F5D30120F8E70000DC
:103A90004523CDAB0246002003E0034B42F8203023
:103AA000401C0828F9D370474523CDAB0021018085
:103AB000034A1160034A11609180D1807047000071
:103AC000D4000020D80000202DE9F04304460F4622
:103AD0009446984608EB0C00DFF89090D9F80090D7
:103AE000B944A0EB09021AB900206065BDE8F08373
:103AF0001F4B186838B962650020A061E0611C6046
:103B000001209880F2E79888401C98801968486DD9
:103B1000C61BB2420BD2C86948B96265B01A486583
:103B20000020E061A161CC611C600120DEE7921BF6
:103B30000D46A96903E0486D121A0D46896911B155
:103B4000486D9042F7D949B1CD696265E561A161DF
:103B5000486D801A4865CC61AC6104E06265E5613E
:103B60000020A061AC610120C0E70000D40000206B
:103B7000D80000202DE9F04F06460C4691461F461E
:103B80004FF0000BB9F1040F01D1002520E0B9F18D
:103B9000080F1BD124B947F27E203880BDE8F08F92
:103BA000B56D16480068A0EB0508A0450AD3B8FB20
:103BB000F4F004FB0055B8FBF4F004FB108000B1F6
:103BC0002544B565B06D2044B06501E00B4805683B
:103BD00023462A4659463046FFF776FF8246BAF119
:103BE000010F05D1012086F83A000020388002E05C
:103BF00047F27E20388000BFD0E70000D4000020CC
:103C000030B5C3698169134A9BB921B90024146096
:103C1000948044651CE00024CC614C6D456D2C44BF
:103C20004C6511609488641E94800024846144650E
:103C30000EE0996121B1CB614C6D456D2C444C6512
:103C40000024C4619488641E9480002484614465C7
:103C500030BD0000D80000202DE9F04706464FF0A7
:103C600000094B4F3C68002C77D0606DB04204D8FF
:103C7000606D361A0020606502E0606D801B606533
:103C80007CE009F101001FFA80F994F83A0001285C
:103C900002D005280BD106E0002084F83A00204627
:103CA000FFF78CFA51E0042084F83A004DE000253B
:103CB00094F83800042801D1606B456A00206066E2
:103CC000A4F86800FCF7D0FCE0642046FFF7B9F9DF
:103CD00094F83A00032802D007280BD106E02046CA
:103CE000FFF76CFA002084F83A0004E0042084F81E
:103CF0003A0000E000BF00BF032084F83900002034
:103D000084F8380005B395F83B0095F83C108842DC
:103D10001AD095F83B0094F83B10884214D12846FD
:103D2000FFF7C5F8804695F83C00404502DA95F863
:103D30003C0000E04046804695F83B00404503D0FB
:103D400041462846FFF772FD00BF00BFA0693860FA
:103D50003C681CB90020B88014E014E0B888401E0C
:103D6000B8800020E061606DB04204D8606D361A02
:103D70000020606502E0606D801B6065606D00285A
:103D80003FF47FAF00BFA7F80690BDE8F0870000C2
:103D9000D800002070B50446002600BF00BF4020B8
:103DA000FCF73CFA064600BF00BF104800682044FC
:103DB0000E490860FCF758FC05462046FFF74CFF0B
:103DC000FCF752FC401B0A4908600A480068096871
:103DD000884203D2064800680649086000BF00BF59
:103DE0003046FCF729FA00BF00BF70BDD4000020A8
:103DF000E0000020E400002010B5002400BF00BF58
:103E00004020FCF70BFA044600BF00BF08480949F0
:103E100008600948086201F10800FFF7DAF800BFFE
:103E200000BF2046FCF708FA00BF00BF10BD00002D
:103E3000434F4E4474C2002098C20020F8B50026BB
:103E400000BF00BF4020FCF7E9F9064600BF00BFF5
:103E5000FCF70AFC04460F48C4620F4D286838B9C5
:103E600000BF00BF3046FCF7E7F900BF00BFF8BD58
:103E700000231A460949084808380094FFF708F952
:103E800000BF00BF3046FCF7D7F900BF00BF00BF3E
:103E9000EDE7000098C200207CC20020C8C20020CC
:103EA0002DE9F84307464FF0000800BF00BF40204F
:103EB000FCF7B4F9804600BF00BFFCF7D5FB06460F
:103EC0003F48C66201463F48FFF706F83C4D0835BB
:103ED0003C4890F83B003B4991F83C1088420AD09E
:103EE000384890F83C00374981F83B00084690F884
:103EF0003C0035490870286828B9002030494862DC
:103F000081F8280010E02C682D48446201202C49DB
:103F100081F828002046FEF797FF00231A46214625
:103F200027480096FFF7B4F83B4603222549274867
:103F3000FEF7E0FF00BF00BF4046FCF77DF900BF81
:103F400000BFFEF709F800BF00BF4020FCF766F98C
:103F5000804600BF00BF1A48406A80B91849194816
:103F6000FEF772FF174816494862012081F82800C1
:103F700000BF00BF4046FCF75FF900BF1DE01048DE
:103F8000446A94F83B000F4991F83B10884205DDE4
:103F90000C4890F83B102046FFF748FC0023042211
:103FA00008490748FEF7A6FF00BF00BF4046FCF7E0
:103FB00043F900BF00BFFDF7CFFFBDE8F883000065
:103FC00098C20020C8C200208E00002074C20020C9
:103FD00010B58AB0044600202A4908802A490860A2
:103FE0002A4908602A4908802A4800682A4909683D
:103FF000B0FBF1F0294908600020294908602949EF
:104000000860224628A12C48FDF742FE208808B10E
:104010000AB010BDFFF7F0FE2848006818B947F253
:1040200047302080F4E7264800682649096888421E
:1040300003D247F248302080EAE7234800781F285F
:1040400003D347F246302080E2E70B2000210591A0
:104050000A46CDE907040691194800681B4909681A
:10406000164B1B68CDE90131CDE9030216480078F3
:104070000023174A17A100901C48FEF75DF900BF06
:10408000C6E70000F4000020E8000020F000002057
:10409000EC00002070AD000878AD0008040100209D
:1040A000F8000020FC0000204F5320546D72204D7A
:1040B000757465780000000098C200207CAD00088F
:1040C00084AD00086CAD000874AD000880AD000838
:1040D000C141000875432F4F532D49494920546968
:1040E0006D6572205461736B00000000C8C200202F
:1040F0002DE9F047054688462848006870B9002039
:104100002861686125480560012025490880254807
:10411000C0F80080FFF792FEBDE8F08720480088D5
:10412000401C1F490880A86940441E490968461A76
:104130001A480468D4F818904E4510D2606970B9D6
:10414000A9EB0600A061002068612C61656113483D
:1041500005601448C0F80080FFF770FEDCE7A6EBAE
:10416000090627463C6903E0A069361A27462469F8
:1041700014B1A069B042F7D94CB16769AE616F6103
:104180002C61A069801BA06165613D6104E0AE61A6
:104190006F61002028613D6100BFBDE7F000002095
:1041A000EC000020000100201CB501A800231A46E5
:1041B000194600900148FDF7BBFD1CBD98C20020C8
:1041C0004FF0000AFFF7F0FF00BF3D48006810B94C
:1041D0004FF0000903E03A480068D0F818904846CC
:1041E000FFF75EFE3648006800B9EEE7FCF73CFAE0
:1041F000804600BF00BF4020FCF710F8824600BF99
:1042000000BF3048076800BF00BF5046FCF714F8F5
:1042100000BF00BF2C4800683D1A2B4807602848A3
:1042200004680CE0A069A84204D2A0692D1A0020FD
:10423000A06103E0A069401BA061002524690DB1C5
:10424000002CEFD11E48046826E0042084F82600E4
:10425000A66816B12046E168B04794F82600042805
:1042600018D119480168204600F034F8A08C0228C3
:1042700009D184F82600206AA0611348016820460D
:10428000FFF736FF06E0002060612061A061032097
:1042900084F826000A48046814B1A0690028D4D024
:1042A000FCF7E2F9A0EB080008490860084800683C
:1042B0000968884203D2054800680549086084E718
:1042C000F0000020D400002000010020F8000020B1
:1042D000FC0000202DE9F04105460F46D5F814807A
:1042E0002C69B8F1000F40D154B900202949086069
:1042F00029490880A86129480760FFF79FFD46E02B
:1043000025480088401E24490880244800683E1A39
:1043100000206061A069A9690844A0611D4804608B
:104320000EE0A069B04204D2A069361A0020A06154
:1043300003E0A069801BA0610026A046D8F81040C9
:104340000EB1002CEDD1134800688069A96988423C
:1043500003D110480068806918B910480760FFF75A
:104360006DFD00202861A86111E00B480088401E07
:1043700009490880C8F810402CB1C4F81480A0691D
:10438000A9690844A061002068612861A861BDE8AE
:10439000F0810000F0000020EC000020000100206F
:1043A00008B508490968C9084FF47A72B1FBF2F1FF
:1043B0004143009100BF00BF00994A1E00920029AE
:1043C000F9D108BD000000207047000010B5044876
:1043D0000078012801D1FEF708FBFCF74DFC10BD69
:1043E0006D000020704770B505466C6A0020E085BE
:1043F000E0842046FDF7FCF870BD0168C96821F42F
:1044000090710268D1600168496921F00101026878
:104410005161202180F83A10704710B50446206899
:10442000C06820F040002168C860202084F839006E
:104430002046FDF799FA002010BD70B5044694F8A7
:104440003A00222847D1A068B0F5805F0CD12069DE
:1044500050B90025A66A20684068C0F30800308083
:10446000A06A801CA06215E0A56A0026A068B0F5CD
:10447000805F03D0A06828B9206918B92068406817
:10448000287004E02068406800F07F002870A06A6F
:10449000401CA062E08D401E80B2E085C8B9206853
:1044A000C06820F020002168C8602068C06820F43F
:1044B00080702168C8602068406920F00100216890
:1044C0004861202084F83A002046FDF709FA0020D0
:1044D00070BD0020FCE70220FAE7000070B504463A
:1044E0002168096921F44051E26811432268116191
:1044F0002269A1681143626941EA02052168C9681D
:1045000041F20C62914329432268D16021684969D4
:1045100021F44071A2691143226851612D4A21683A
:10452000914202D1FCF72EFD01E0FCF71BFD00EBF0
:10453000C00101EB001162689200B1FBF2F100EBE7
:10454000C00202EB001263689B00B2FBF3F264232B
:10455000B2FBF3F202EBC20303EB0212A1EB820106
:10456000322202EB01116422B1FBF2F101F0F00101
:1045700000EBC00202EB001263689B00B2FBF3F297
:104580006423B2FBF3F201EB021200EBC00101EB7A
:10459000001163689B00B1FBF3F100EBC00303EB78
:1045A00000136668B600B3FBF6F36426B3FBF6F3BC
:1045B00003EBC30606EB0313A1EB8301322303EBEA
:1045C00001116423B1FBF3F101F00F0111442268E2
:1045D000916070BD00380140014691F839002128F2
:1045E00028D18868B0F5805F0BD1086948B90A6A9C
:1045F0001088C0F308000B685860086A801C0862C5
:1046000005E00B6A581C086218780B685860C88C63
:10461000401E80B2C88458B90868C06820F0800085
:104620000B68D8600868C06840F040000B68D8602C
:10463000002070470220FCE710B5FDF78BFA074811
:10464000FCF7D8FF00BF012205490448FDF710F927
:104650000028F8D1FDF794FA10BD0000240C0020CA
:104660002A00002000BFFEE702480068C0F30220D5
:10467000704700000CED00E010B5002804DB0A07CD
:10468000130E054A135406E00A07140E034A00F0FD
:104690000F031B1FD45410BD00E400E018ED00E030
:1046A00000BF704770B5044600204FF0E02108615C
:1046B0000420FCF76FFF0C48048025460B48006877
:1046C0000B49B1FBF0F045434FF0E020006940F0AA
:1046D00002004FF0E021086108464561006940F0A2
:1046E0000100086170BD00002200002070AD0008CC
:1046F00040420F0070B50446002504E04FF47A7084
:1047000000F004F86D1CA542F8D370BD2DE9F84304
:10471000074600264FF0E020D0F81490114800889A
:1047200007FB00F86846FDF76FFC4FF0E020856955
:1047300011E04FF0E0208469AC420CD0AC4202D2D0
:10474000281B064403E0A9EB040028440644254640
:10475000464500D300E0ECE700BF6846FDF7BEFC2D
:10476000BDE8F8832200002000BF054A126802F06D
:104770004002002AF9D0C2B2014B1B1D1A607047DB
:104780000038014000B585B000BF00BF28488069EF
:1047900040F04000264988610846806900F04000EA
:1047A000009000BF00BF00BF00BF00BF0846806987
:1047B00040F0400088610846806900F040000090A9
:1047C00000BF00BF00BF00BF00BF0846806940F0C7
:1047D000040088610846806900F00400009000BF72
:1047E00000BF00BF10200190002002900120039024
:1047F0000320049001A90F48FCF792F808200190CB
:1048000000200290012003900320049001A9094890
:10481000FCF786F80120019000200290022003900E
:104820000320049001A90448FCF77AF805B000BD04
:1048300000100240001801400008014070B5044615
:10484000002609480588408845430021084602F0B3
:104850004FFD02F0F5FE00BF02E004480480761C24
:10486000AE42FAD370BD0000AC0C00200008006C12
:1048700010B5044649488471002C45D1F0204749C1
:1048800008804FF4A07048800846808845F2105197
:10489000884210D14FF43050404908814FF42850DD
:1048A00048814FF42C5088814FF4F07008804FF409
:1048B000487048801AE03948808841F66311884280
:1048C0000DD12C20354908812B2048812A20888150
:1048D0004FF4F07008804FF44870488006E02C20B8
:1048E0002E4908812A2048812B2088812B488088E6
:1048F00045F2103188424CD14FF4A070274908800E
:104900004FF4F070488044E04FF4A07023490880D1
:10491000F02048800846808845F21051884210D126
:104920004FF430501D4908814FF4285048814FF40E
:104930002C5088814FF4487008804FF4F070488004
:104940001AE01648808841F6631188420DD12C2068
:10495000124908812A2048812B2088814FF4487011
:1049600008804FF4F070488006E02C200B49088145
:104970002A2048812B2088810848808845F2103100
:10498000884206D14FF4F070044908804FF4A070BB
:104990004880002002F094FB10BD0000AC0C002009
:1049A00070B505460E4614463146284602F0A0FC76
:1049B00002F046FE01490C8070BD00000008006C4A
:1049C00010B5CF2002F030FE002002F021FEC12001
:1049D00002F01EFE302002F01BFEED2002F024FE4D
:1049E000642002F015FE032002F012FE122002F0F5
:1049F0000FFE812002F00CFEE82002F015FE85205B
:104A000002F006FE102002F003FE7A2002F000FE03
:104A1000CB2002F009FE392002F0FAFD2C2002F032
:104A2000F7FD002002F0F4FD342002F0F1FD022039
:104A300002F0EEFDF72002F0F7FD202002F0E8FD85
:104A4000EA2002F0F1FD002002F0E2FD002002F079
:104A5000DFFDC02002F0E8FD1B2002F0D9FDC120DF
:104A600002F0E2FD012002F0D3FDC52002F0DCFDE2
:104A7000302002F0CDFD302002F0CAFDC72002F048
:104A8000D3FDB72002F0C4FD362002F0CDFD482052
:104A900002F0BEFD3A2002F0C7FD552002F0B8FD3D
:104AA000B12002F0C1FD002002F0B2FD1A2002F098
:104AB000AFFDB62002F0B8FD0A2002F0A9FDA22049
:104AC00002F0A6FDF22002F0AFFD002002F0A0FDF2
:104AD000262002F0A9FD012002F09AFDE02002F05C
:104AE000A3FD0F2002F094FD2A2002F091FD282062
:104AF00002F08EFD082002F08BFD0E2002F088FDF2
:104B0000082002F085FD542002F082FDA92002F069
:104B10007FFD432002F07CFD0A2002F079FD0F208A
:104B200002F076FD002002F073FD002002F070FD1F
:104B3000002002F06DFD002002F06AFDE12002F08D
:104B400073FD002002F064FD152002F061FD1720C6
:104B500002F05EFD072002F05BFD112002F058FD1F
:104B6000062002F055FD2B2002F052FD562002F0E7
:104B70004FFD3C2002F04CFD052002F049FD1020C5
:104B800002F046FD0F2002F043FD3F2002F040FD01
:104B90003F2002F03DFD0F2002F03AFD2B2002F0F5
:104BA00043FD002002F034FD002002F031FD012021
:104BB00002F02EFD3F2002F02BFD2A2002F034FDF2
:104BC000002002F025FD002002F022FD002002F06E
:104BD0001FFDEF2002F01CFD112002F025FD7820C2
:104BE000FFF788FD292002F01FFD10BD10B5ED2054
:104BF00002F01AFD012002F00BFDFE2002F008FD7C
:104C0000EE2002F011FDDE2002F002FD212002F074
:104C1000FFFCF12002F008FD012002F0F9FCDF208A
:104C200002F002FD102002F0F3FCC42002F0FCFCB4
:104C30008F2002F0EDFCC62002F0F6FC002002F00E
:104C4000E7FCE22002F0E4FCE22002F0E1FCE220DA
:104C500002F0DEFCBF2002F0E7FCAA2002F0D8FC44
:104C6000B02002F0E1FC0D2002F0D2FC002002F0A6
:104C7000CFFC0D2002F0CCFC002002F0C9FC11207A
:104C800002F0C6FC002002F0C3FC192002F0C0FCB8
:104C9000002002F0BDFC212002F0BAFC002002F04E
:104CA000B7FC2D2002F0B4FC002002F0B1FC3D2046
:104CB00002F0AEFC002002F0ABFC5D2002F0A8FC8C
:104CC000002002F0A5FC5D2002F0A2FC002002F012
:104CD0009FFCB12002F0A8FC802002F099FC00208B
:104CE00002F096FC8B2002F093FC002002F090FC76
:104CF000962002F08DFC002002F08AFCB22002F027
:104D000093FC002002F084FC002002F081FC0220D1
:104D100002F07EFC002002F07BFC032002F078FC15
:104D2000002002F075FCB32002F07EFC002002F0AF
:104D30006FFC002002F06CFC002002F069FC0020F7
:104D400002F066FC002002F063FC002002F060FC30
:104D5000002002F05DFC002002F05AFC002002F06E
:104D600057FC002002F054FC002002F051FC00200F
:104D700002F04EFC002002F04BFC002002F048FC48
:104D8000002002F045FC002002F042FC002002F06E
:104D90003FFC002002F03CFC002002F039FC002027
:104DA00002F036FC002002F033FC002002F030FC60
:104DB000002002F02DFC002002F02AFCB42002F0BA
:104DC00033FC8B2002F024FC002002F021FC962012
:104DD00002F01EFC002002F01BFCA12002F018FCD7
:104DE000002002F015FCB52002F01EFC022002F0AB
:104DF0000FFC002002F00CFC032002F009FC002054
:104E000002F006FC042002F003FC002002F000FC8B
:104E1000B62002F009FC002002F0FAFB002002F0AC
:104E2000F7FBB72002F000FC002002F0F1FB0020AD
:104E300002F0EEFB3F2002F0EBFB002002F0E8FB6B
:104E40005E2002F0E5FB002002F0E2FB642002F0AD
:104E5000DFFB002002F0DCFB8C2002F0D9FB0020FD
:104E600002F0D6FBAC2002F0D3FB002002F0D0FB16
:104E7000DC2002F0CDFB002002F0CAFB702002F023
:104E8000C7FB002002F0C4FB902002F0C1FB002011
:104E900002F0BEFBEB2002F0BBFB002002F0B8FBEF
:104EA000DC2002F0B5FB002002F0B2FBB82002F0DB
:104EB000BBFB002002F0ACFB002002F0A9FB0020AD
:104EC00002F0A6FB002002F0A3FB002002F0A0FBF2
:104ED000002002F09DFB002002F09AFB002002F06F
:104EE00097FBBA2002F0A0FB242002F091FB0020E7
:104EF00002F08EFB002002F08BFB002002F088FB0A
:104F0000C12002F091FB202002F082FB002002F081
:104F10007FFB542002F07CFB002002F079FBFF2095
:104F200002F076FB002002F073FBC22002F07CFB53
:104F30000A2002F06DFB002002F06AFB042002F060
:104F400067FB002002F064FBC32002F06DFB3C20F5
:104F500002F05EFB002002F05BFB3A2002F058FBFF
:104F6000002002F055FB392002F052FB002002F035
:104F70004FFB372002F04CFB002002F049FB3C20A5
:104F800002F046FB002002F043FB362002F040FB1B
:104F9000002002F03DFB322002F03AFB002002F03C
:104FA00037FB2F2002F034FB002002F031FB2C20D5
:104FB00002F02EFB002002F02BFB292002F028FB40
:104FC000002002F025FB262002F022FB002002F048
:104FD0001FFB242002F01CFB002002F019FB242000
:104FE00002F016FB002002F013FB232002F010FB5E
:104FF000002002F00DFB3C2002F00AFB002002F032
:1050000007FB362002F004FB002002F001FB3220F7
:1050100002F0FEFA002002F0FBFA2F2002F0F8FA6C
:10502000002002F0F5FA2C2002F0F2FA002002F043
:10503000EFFA292002F0ECFA002002F0E9FA26202B
:1050400002F0E6FA002002F0E3FA242002F0E0FA8F
:10505000002002F0DDFA242002F0DAFA002002F04B
:10506000D7FA232002F0D4FA002002F0D1FAC420AB
:1050700002F0DAFA622002F0CBFA002002F0C8FA5D
:10508000052002F0C5FA002002F0C2FA842002F0E6
:10509000BFFA002002F0BCFAF02002F0B9FA0020BA
:1050A00002F0B6FA182002F0B3FA002002F0B0FACB
:1050B000A42002F0ADFA002002F0AAFA182002F0B3
:1050C000A7FA002002F0A4FA502002F0A1FA002072
:1050D00002F09EFA0C2002F09BFA002002F098FAEF
:1050E000172002F095FA002002F092FA952002F0C3
:1050F0008FFA002002F08CFAF32002F089FA0020E7
:1051000002F086FAE62002F083FA002002F080FA2C
:10511000C52002F089FA322002F07AFA002002F06B
:1051200077FA442002F074FA002002F071FA652048
:1051300002F06EFA002002F06BFA762002F068FAB4
:10514000002002F065FA882002F062FA002002F0E6
:105150005FFAC62002F068FA202002F059FA002017
:1051600002F056FA172002F053FA002002F050FA2B
:10517000012002F04DFA002002F04AFAC72002F0A6
:1051800053FA002002F044FA002002F041FA002015
:1051900002F03EFA002002F03BFAC82002F044FA86
:1051A000002002F035FA002002F032FA002002F06E
:1051B0002FFA002002F02CFAC92002F035FA002064
:1051C00002F026FA002002F023FA002002F020FA72
:1051D000002002F01DFA002002F01AFA002002F06E
:1051E00017FA002002F014FA002002F011FA002051
:1051F00002F00EFA002002F00BFA002002F008FA8A
:10520000002002F005FA002002F002FA002002F06D
:10521000FFF9002002F0FCF9002002F0F9F9E0208B
:1052200002F002FA162002F0F3F9002002F0F0F981
:105230001C2002F0EDF9002002F0EAF9212002F032
:10524000E7F9002002F0E4F9362002F0E1F900204D
:1052500002F0DEF9462002F0DBF9002002F0D8F976
:10526000522002F0D5F9002002F0D2F9642002F0B9
:10527000CFF9002002F0CCF97A2002F0C9F9002021
:1052800002F0C6F98B2002F0C3F9002002F0C0F949
:10529000992002F0BDF9002002F0BAF9A82002F02E
:1052A000B7F9002002F0B4F9B92002F0B1F90020FA
:1052B00002F0AEF9C42002F0ABF9002002F0A8F928
:1052C000CA2002F0A5F9002002F0A2F9D22002F0D3
:1052D0009FF9002002F09CF9D92002F099F90020F2
:1052E00002F096F9E02002F093F9002002F090F924
:1052F000F32002F08DF9002002F08AF9E12002F09B
:1053000093F9162002F084F9002002F081F91C20A4
:1053100002F07EF9002002F07BF9222002F078F9F9
:10532000002002F075F9362002F072F9002002F038
:105330006FF9452002F06CF9002002F069F9522063
:1053400002F066F9002002F063F9642002F060F9CF
:10535000002002F05DF97A2002F05AF9002002F0F4
:1053600057F98B2002F054F9002002F051F99920EE
:1053700002F04EF9002002F04BF9A82002F048F9A3
:10538000002002F045F9B92002F042F9002002F0B5
:105390003FF9C42002F03CF9002002F039F9CA209C
:1053A00002F036F9002002F033F9D22002F030F991
:1053B000002002F02DF9D82002F02AF9002002F096
:1053C00027F9E02002F024F9002002F021F9F3206F
:1053D00002F01EF9002002F01BF9E22002F024F98D
:1053E000052002F015F9002002F012F90B2002F05E
:1053F0000FF9002002F00CF91B2002F009F900203F
:1054000002F006F9342002F003F9002002F000F95E
:10541000442002F0FDF8002002F0FAF84F2002F0DC
:10542000F7F8002002F0F4F8612002F0F1F8002013
:1054300002F0EEF8792002F0EBF8002002F0E8F834
:10544000882002F0E5F8002002F0E2F8972002F050
:10545000DFF8002002F0DCF8A62002F0D9F80020E6
:1054600002F0D6F8B72002F0D3F8002002F0D0F80E
:10547000C22002F0CDF8002002F0CAF8C72002F0E6
:10548000C7F8002002F0C4F8D12002F0C1F80020D3
:1054900002F0BEF8D62002F0BBF8002002F0B8F807
:1054A000DD2002F0B5F8002002F0B2F8F32002F09F
:1054B000AFF8002002F0ACF8E32002F0B5F80520C8
:1054C00002F0A6F8002002F0A3F80A2002F0A0F8EB
:1054D000002002F09DF81C2002F09AF8002002F053
:1054E00097F8332002F094F8002002F091F844205D
:1054F00002F08EF8002002F08BF8502002F088F8BD
:10550000002002F085F8622002F082F8002002F00C
:105510007FF8782002F07CF8002002F079F88820EB
:1055200002F076F8002002F073F8972002F070F88D
:10553000002002F06DF8A62002F06AF8002002F0C8
:1055400067F8B72002F064F8002002F061F8C2208A
:1055500002F05EF8002002F05BF8C72002F058F875
:10556000002002F055F8D12002F052F8002002F09D
:105570004FF8D52002F04CF8002002F049F8DD2069
:1055800002F046F8002002F043F8F32002F040F861
:10559000002002F03DF8E42002F046F8012002F07D
:1055A00037F8002002F034F8012002F031F8002032
:1055B00002F02EF8022002F02BF8002002F028F86A
:1055C0002A2002F025F8002002F022F83C2002F008
:1055D0001FF8002002F01CF84B2002F019F8002000
:1055E00002F016F85D2002F013F8002002F010F827
:1055F000742002F00DF8002002F00AF8842002F076
:1056000007F8002002F004F8932002F001F80020CF
:1056100001F0FEFFA22001F0FBFF002001F0F8FFE7
:10562000B32001F0F5FF002001F0F2FFBE2001F0F1
:10563000EFFF002001F0ECFFC42001F0E9FF0020A3
:1056400001F0E6FFCD2001F0E3FF002001F0E0FFD4
:10565000D32001F0DDFF002001F0DAFFDD2001F0B2
:10566000D7FF002001F0D4FFF32001F0D1FF00208C
:1056700001F0CEFFE52001F0D7FF002001F0C8FFC8
:10568000002001F0C5FF002001F0C2FF002001F062
:10569000BFFF022001F0BCFF002001F0B9FF29206C
:1056A00001F0B6FF002001F0B3FF3C2001F0B0FF95
:1056B000002001F0ADFF4B2001F0AAFF002001F017
:1056C000A7FF5D2001F0A4FF002001F0A1FF7420DE
:1056D00001F09EFF002001F09BFF842001F098FF65
:1056E000002001F095FF932001F092FF002001F0CF
:1056F0008FFFA22001F08CFF002001F089FFB32072
:1057000001F086FF002001F083FFBE2001F080FF42
:10571000002001F07DFFC42001F07AFF002001F09D
:1057200077FFCD2001F074FF002001F071FFD3203E
:1057300001F06EFF002001F06BFFDC2001F068FF3C
:10574000002001F065FFF32001F062FF002001F06E
:105750005FFFE62001F068FF112001F059FF0020F3
:1057600001F056FF342001F053FF002001F050FFFC
:10577000562001F04DFF002001F04AFF762001F095
:1057800047FF002001F044FF772001F041FF002097
:1057900001F03EFF662001F03BFF002001F038FFE2
:1057A000882001F035FF002001F032FF992001F040
:1057B0002FFF002001F02CFFBB2001F029FF00206B
:1057C00001F026FF992001F023FF002001F020FFC7
:1057D000662001F01DFF002001F01AFF552001F0A6
:1057E00017FF002001F014FF552001F011FF0020E9
:1057F00001F00EFF452001F00BFF002001F008FF33
:10580000432001F005FF002001F002FF442001F0D9
:10581000FFFE002001F0FCFEE72001F005FF322032
:1058200001F0F6FE002001F0F3FE552001F0F0FE3D
:10583000002001F0EDFE762001F0EAFE002001F0EC
:10584000E7FE662001F0E4FE002001F0E1FE6720A3
:1058500001F0DEFE002001F0DBFE672001F0D8FE43
:10586000002001F0D5FE872001F0D2FE002001F0DB
:10587000CFFE992001F0CCFE002001F0C9FEBB2034
:1058800001F0C6FE002001F0C3FE992001F0C0FE29
:10589000002001F0BDFE772001F0BAFE002001F0EB
:1058A000B7FE442001F0B4FE002001F0B1FE562006
:1058B00001F0AEFE002001F0ABFE232001F0A8FEB7
:1058C000002001F0A5FE332001F0A2FE002001F02F
:1058D0009FFE452001F09CFE002001F099FEE8208B
:1058E00001F0A2FE002001F093FE002001F090FEE6
:1058F000992001F08DFE002001F08AFE872001F042
:1059000087FE002001F084FE882001F081FE002047
:1059100001F07EFE772001F07BFE002001F078FE92
:10592000662001F075FE002001F072FE882001F073
:105930006FFE002001F06CFEAA2001F069FE00203D
:1059400001F066FEBB2001F063FE002001F060FE66
:10595000992001F05DFE002001F05AFE662001F062
:1059600057FE002001F054FE552001F051FE0020AA
:1059700001F04EFE552001F04BFE002001F048FEE4
:10598000442001F045FE002001F042FE442001F0D9
:105990003FFE002001F03CFE552001F039FE0020C2
:1059A00001F036FEE92001F03FFEAA2001F030FEB2
:1059B000002001F02DFE002001F02AFE002001F061
:1059C00027FE002001F030FEAA2001F021FECF20AA
:1059D00001F02AFE002001F01BFE002001F018FE5D
:1059E000002001F015FE002001F012FE002001F061
:1059F0000FFE002001F00CFE002001F009FE002047
:105A000001F006FE002001F003FE002001F000FE80
:105A1000002001F0FDFD002001F0FAFD002001F062
:105A2000F7FD002001F0F4FD002001F0F1FD002061
:105A300001F0EEFD002001F0EBFDF02001F0F4FD9F
:105A4000002001F0E5FD502001F0E2FD002001F012
:105A5000DFFD002001F0DCFD002001F0D9FDF32086
:105A600001F0E2FD002001F0D3FDF92001F0DCFDA2
:105A7000062001F0CDFD102001F0CAFD292001F023
:105A8000C7FD002001F0C4FD3A2001F0CDFD5520F6
:105A900001F0BEFD112001F0C7FD6420FEF72AFED3
:105AA000292001F0C1FD352001F0BEFD002001F0EC
:105AB000AFFD512001F0B8FDFF2001F0A9FD5320FA
:105AC00001F0B2FD2C2001F0A3FD552001F0ACFD4A
:105AD000822001F09DFD2C2001F0A6FD10BD10B527
