:020000040800F2
:10000000F0B30020790200087F1C0008771C00086C
:100010007B1C000899070008451F0008000000002D
:10002000000000000000000000000000E1010008E6
:100030009D0700080000000025020008A91C000818
:10004000930200089302000893020008930200083C
:10005000930200089302000893020008930200082C
:10006000930200089302000893020008930200081C
:10007000930200089302000893020008930200080C
:1000800093020008930200089302000893020008FC
:1000900093020008930200089302000893020008EC
:1000A00093020008930200089302000893020008DC
:1000B00093020008930200089302000893020008CC
:1000C00093020008930200089302000893020008BC
:1000D00093020008211F0008930200089302000801
:1000E000930200089302000893020008930200089C
:1000F000930200089302000893020008930200088C
:10010000930200089302000893020008930200087B
:100110009302000893020008C11C00089302000823
:10012000930200089302000893020008930200085B
:1001300000F002F800F045F80AA090E8000C8244B4
:100140008344AAF10107DA4501D100F03AF8AFF291
:10015000090EBAE80F0013F0010F18BFFB1A43F0A5
:100160000103184758AA000078AA0000103A24BFDB
:1001700078C878C1FAD8520724BF30C830C144BF0C
:1001800004680C607047000000230024002500264E
:10019000103A28BF78C1FBD8520728BF30C148BFEA
:1001A0000B607047642900F0F380782900F02C81FF
:1001B000732900F05182002070471FB51FBD10B594
:1001C00010BD00F0B7FA1146FFF7F7FF05F0CCF8C5
:1001D00000F0D5FA03B4FFF7F2FF03BC01F0D0FE44
:1001E000224B19680868B0E8F00F80F30988BFF364
:1001F0006F8F4FF0000080F311884EF00D0E7047A6
:100200000000000006480068006880F3088862B6B5
:1002100061B6BFF34F8FBFF36F8F00DF00BF00BF2A
:1002200008ED00E0EFF30980BFF36F8F0F4B1A6802
:1002300020E9F00F106008B54FF0500080F31188EE
:10024000BFF34F8FBFF36F8F06F020FC4FF000001D
:1002500080F31188BDE8084019680868B0E8F00F1D
:1002600080F30988BFF36F8F704700BF64000020E0
:10027000EFF30580704700000948804709480047B0
:10028000FEE7FEE7FEE7FEE7FEE7FEE7FEE7FEE746
:10029000FEE7FEE704480549054A064B70470000A3
:1002A000BD1C000831010008F0AD0020F0B30020B3
:1002B000F0AF0020F0AF0020704700000FB40449F9
:1002C00010B503AA029800F0CBF910BC5DF814FB3E
:1002D000280000202DE9F0410E460446002020624F
:1002E0002046E168884730B3252805D0D4E90121AC
:1002F0009047206A401CF2E7E168204600278847C3
:10030000050018D0A5F14100192802D820354FF476
:1003100000673246294620462760FFF743FF40B179
:10032000012804D0F61D26F007060836D8E7361D4A
:10033000D6E72846DAE7206ABDE8F08170B50C46BA
:100340000546012A05D02878800600D5EA690023F1
:1003500002E0012305E05B1C934202D2E05C00282E
:10036000F9D1A869E618C01AA861286A1844286259
:100370002846AFF3008004E0D5E9012114F8010B11
:100380009047B442F8D32846AFF3008070BD000018
:100390002DE9F0410646002410687529314616A55E
:1003A00010D0AFF30080002802DA404213A507E026
:1003B00031688A0701D512A502E0490704D511A5C5
:1003C000012401E0AFF3008000210A2206F1240796
:1003D00009E0B0FBF2FCB0FBF2F302FB1C00303092
:1003E00078541846491C0028F3D123462A46304643
:1003F000BDE8F04100F0ACB8000000002D000000A6
:100400002B0000002000000070B504460D46214678
:100410001068AFF300802188090502D50F4A7A449D
:1004200002E00E4A7A440E32002104F1240305E072
:1004300000F00F060009965D5E54491C0028F7D1B4
:1004400020780023000704D5702D02D009B10223C3
:1004500011322046BDE8704000F07AB872A7000063
:10046000032A40F2308010F0030C00F0158011F8E0
:10047000013BBCF1020F624498BF11F801CB00F8B8
:10048000013B38BF11F8013BA2F1040298BF00F80C
:1004900001CB38BF00F8013B11F0030300F0F280FC
:1004A000083AC0F0088051F8043B083A51F804CBF0
:1004B000A0E80810F5E7121D5CBF51F8043B40F8B6
:1004C000043BAFF30080D20724BF11F8013B11F8C1
:1004D00001CB48BF11F8012B24BF00F8013B00F805
:1004E00001CB48BF00F8012B704702F0FF0343EA3D
:1004F000032242EA024200F0F9B84FF0000200B5D0
:10050000134694469646203922BFA0E80C50A0E836
:100510000C50B1F12001BFF4F7AF090728BFA0E8E4
:100520000C5048BF0CC05DF804EB890028BF40F8B0
:10053000042B08BF704748BF20F8022B11F0804FF2
:1005400018BF00F8012B704770477047704770471D
:100550002DE9F0470D4699469246044600F12408DD
:100560000168880604D5E06921F01001216000E0EF
:100570000120A84201DD471B00E00027A1697A198C
:1005800002EB0900081AA0612078C00602D42046B8
:10059000AFF30080002608E0D4E901211AF8060034
:1005A0009047206A401C761C20624E45F4DB207880
:1005B000C0060AD52046AFF3008006E0D4E9012149
:1005C00030209047206A401C2062381EA7F10107A6
:1005D000F4DC07E0D4E9012118F805009047206A0F
:1005E000401C2062281EA5F10105F3DC2046AFF374
:1005F00000802078000602D50220BDE8F0870120A7
:10060000FBE7000001694A1C02610878704700B5E9
:100610008FB0CDE901310021059105497944CDE93B
:10062000031011466846FFF755FE0FB000BD0000ED
:10063000E5FFFFFF10B5436913B1AFF3008001E0A0
:10064000FFF77CFE012010BD127800F124010A7032
:1006500000224A700122EDE711684FF0FF32E9E70E
:10066000074B70B50D467B44FFF7D1FF0446284683
:1006700000F05CF810B14FF0FF3070BD204670BD47
:10068000CB19000010B5203AC0F00B80B1E818502B
:10069000203AA0E81850B1E81850A0E81850BFF46C
:1006A000F5AF5FEA027C24BFB1E81850A0E818500B
:1006B00044BF18C918C0BDE810405FEA827C24BF5F
:1006C00051F8043B40F8043B08BF7047D20728BFED
:1006D00031F8023B48BF11F8012B28BF20F8023B3C
:1006E00048BF00F8012B70474FF000020429C0F00A
:1006F000128010F0030C3FF402AFCCF1040CBCF1FB
:10070000020F18BF00F8012BA8BF20F8022BA1EBA5
:100710000C01FFF7F4BE5FEAC17C24BF00F8012B97
:1007200000F8012B48BF00F8012B7047007B00F058
:1007300080007047754600F02BF8AE46050069460C
:10074000534620F00700854618B020B5FFF7A2FDFC
:10075000BDE820404FF000064FF000074FF00008C2
:100760004FF0000B21F00701AC46ACE8C009ACE843
:10077000C009ACE8C009ACE8C0098D46704710B5A7
:100780000446AFF300802046BDE81040FFF722BDCD
:10079000004870478CAD002000BFFEE770470000A6
:1007A00070B50446B3F5804F13D1D1E9000540EA96
:1007B00005108D6840EA05208D6928438D8940EA3F
:1007C000054054F82250064E3540284344F8220094
:1007D00003E06FF0704044F82200002070BD00007C
:1007E0000000F0CF70B50246086852F8200020F0F3
:1007F00001000E6842F826008868082801D14023CD
:1008000000E00023486818438E683043CE683043C8
:100810000E6930434E693043CE6930430E6A30432F
:100820004E6A30438E6A3043CE6A30430E6B40EAE4
:10083000060488690443486B0443074D45F480650A
:1008400045F4E025086852F82000A84320430E68CC
:1008500042F82600002070BD7FFB080010B503465B
:10086000D1E9000440EA04108C6840EA04208C8935
:1008700040EA0444088A401E44EA0054087D801E71
:1008800044EA00608C692043541C53F8244004F06F
:1008900040442043541C43F82400002010BD0000B5
:1008A00070B50446002594F82100022803D00420E6
:1008B000A0630125C1E02068006820F00E002168D7
:1008C00008602068006820F00100216808605C4929
:1008D0002068884252D95A4978392068884201D123
:1008E000012047E0564964392068884201D1102030
:1008F00040E0534950392068884201D1801539E0E1
:100900004F493C392068884201D1801432E04C497B
:1009100028392068884202D14FF480302AE04849C3
:1009200014392068884202D14FF4801022E04449F3
:100930002068884201D140041CE042492068884276
:1009400001D1012016E03F4914312068884201D1CD
:1009500010200FE03B4928312068884201D18015E2
:1009600008E038493C312068884201D1801401E018
:100970004FF480303349091F086051E0304978391D
:100980002068884201D1012047E02D496439206860
:10099000884201D1102040E029495039206888421E
:1009A00001D1801539E026493C392068884201D1BF
:1009B000801432E0224928392068884202D14FF45D
:1009C00080302AE01E4914392068884202D14FF451
:1009D000801022E01A492068884201D140041CE0BE
:1009E00018492068884201D1012016E015491431C8
:1009F0002068884201D110200FE012492831206878
:100A0000884201D1801508E00E493C3120688842B7
:100A100001D1801401E04FF48030094980394860E9
:100A2000012084F8210000BF002084F8200000BFCE
:100A3000606B10B12046616B8847284670BD00008E
:100A400080000240080402402DE9F84702460023D6
:100A50009C467BE14FF0010808FA03F4D1F80080CE
:100A600008EA0400A0427DD1DFF8F4A2D1F80480A6
:100A7000A8EB0A09D0453AD014DCB8F1030F50D0E6
:100A800009DCB8F1000F31D0B8F1010F1CD0B8F17A
:100A9000020F49D120E0B8F1110F18D0B8F1120FB0
:100AA00042D11EE0B9F5881F25D006DCB9F5803F9C
:100AB00020D0B9F5801F37D11AE0B9F5001F18D042
:100AC000B9F5041F30D117E0D1F80CC02DE0D1F8F2
:100AD0000C8008F1040C28E0D1F80C8008F1080C17
:100AE00023E0D1F80C8008F10C0C1EE000BF00BF21
:100AF00000BF00BF00BF00BFD1F80880B8F1000FF1
:100B000002D14FF0040C0BE0D1F80880B8F1010FCE
:100B100003D14FF0080C146102E04FF0080C54614F
:100B200003E04FF0000C00E000BF00BFFF2801D839
:100B3000904601E002F104084646FF2802D84FEA39
:100B4000830803E0A3F108084FEA88084746D6F86F
:100B500000804FF00F0909FA07F928EA09080CFA92
:100B600007F900E07AE048EA0908C6F80080D1F801
:100B7000048008F08058B8F1805F6FD100BFDFF8C3
:100B8000E481D8F8188048F00108DFF8D891C9F856
:100B90001880C846D8F8188008F00108CDF8008001
:100BA00000BF00BF4FEAB9384FEA930958F82950FF
:100BB0004FEA83784FEA18794FF00F0808FA09F8DE
:100BC00025EA0805DFF8A081424502D14FF0000870
:100BD00024E0DFF89881424502D14FF001081DE082
:100BE000DFF88C81424502D14FF0020816E0DFF8B1
:100BF0008481424502D14FF003080FE0DFF878818D
:100C0000424502D14FF0040808E0DFF87081424508
:100C100002D14FF0050801E04FF006084FEA837952
:100C20004FEA197908FA09F848EA0505DFF8508112
:100C30004FEA930948F82950D1F8048008F4803825
:100C4000B8F5803F0BD1DFF83C81D8F8008048EA46
:100C50000008DFF83091C9F800800AE075E0DFF89D
:100C60002481D8F8008028EA0008DFF81891C9F834
:100C70000080D1F8048008F40038B8F5003F0ED1A8
:100C8000DFF8008108F10408D8F8008048EA00087D
:100C9000DFF8F09009F10409C9F800800DE0DFF8F1
:100CA000E48008F10408D8F8008028EA0008DFF89A
:100CB000D49009F10409C9F80080D1F8048008F43F
:100CC0008018B8F5801F0ED1DFF8B88008F1080849
:100CD000D8F8008048EA0008DFF8A89009F1080970
:100CE000C9F800800DE0DFF89C8008F10808D8F80A
:100CF000008028EA0008DFF88C9009F10809C9F89B
:100D00000080D1F8048008F40018B8F5001F0ED157
:100D1000DFF8708008F10C08D8F8008048EA000875
:100D2000DFF8609009F10C09C9F800800DE0DFF8E8
:100D3000548008F10C08D8F8008028EA0008DFF891
:100D4000449009F10C09C9F800805B1CD1F80080BF
:100D500028FA03F8B8F1000F7FF47CAEBDE8F887FD
:100D6000000011100010024000080140000C01407A
:100D7000001001400014014000180140001C014017
:100D80000800014000040140024693680B400BB18B
:100D9000012000E00020704710B5C26821EA02037C
:100DA00002EA010443EA0443036110BD0AB1016190
:100DB00001E00B04036170470148006870470000C0
:100DC00030000020034800680349097808440149BD
:100DD00008607047300000203800002010B5084837
:100DE000006840F0100006490860032000F080F819
:100DF0000F2000F007F800F02BF8002010BD0000D5
:100E00000020024070B504460E4800784FF47A7115
:100E1000B1FBF0F00C490968B1FBF0F5284600F091
:100E200073FC08B1012070BD102C07D200222146AE
:100E3000501E00F01EF80548046001E00120F2E7B2
:100E40000020F0E7380000200000002034000020DF
:100E5000704701460846002809DB00F01F03012205
:100E60009A4043099B0003F1E023C3F8002100BF2F
:100E700070472DE9F05F80460D461646002701F0C9
:100E800063F8074639462A46334601F00700C0F1A9
:100E9000070ABAF1040F02D94FF0040A01E0C0F1C9
:100EA000070AD14600F1040ABAF1070F02D24FF047
:100EB000000A01E0A0F1030AD4464FF0010A0AFA41
:100EC00009FAAAF1010A0AEA020A0AFA0CFA4FF030
:100ED000010B0BFA0CFBABF1010B0BEA030B4AEA1B
:100EE0000B042146404601F037F8BDE8F09F0000B2
:100EF00000BF00F00702064B19684FF6FF031940C8
:100F0000044B0B4343EA0221014B196000BF7047B9
:100F10000CED00E00000FA0570B504460D460CB972
:100F2000012070BD5A48006800F00700A8420ED2A8
:100F30005748006820F007002843554908600846D4
:100F4000006800F00700A84201D00120E9E72078FE
:100F500000F0020002281DD1207800F004000428CF
:100F600005D14C48406840F4E0604A494860207828
:100F700000F00800082805D14648406840F4605059
:100F8000444948604348406820F0F000A1680843A5
:100F900040494860207800F0010078B3606801287B
:100FA00006D13C48006800F4003090B90120B8E751
:100FB0006068022806D13748006800F0007040B928
:100FC0000120AEE73348006800F0020008B90120B4
:100FD000A7E73048406820F00300616808432D49C6
:100FE0004860FFF7E9FE064609E0FFF7E5FE801BD3
:100FF00041F28831884202D9032092E707E0254870
:10100000406800F00C006168B0EB810FEDD1204822
:10101000006800F00700A8420ED91D48006820F0C3
:10102000070028431A4908600846006800F00700D6
:10103000A84201D0012074E7207800F004000428C1
:1010400007D11448406820F4E060E1680843114982
:101050004860207800F00800082808D10D48406852
:1010600020F46050216940EAC1000A49486000F05C
:101070003FF808494968C1F30311074A515CC84069
:101080000649086006480068FFF7BCFE002048E7F4
:101090000020024000100240E47B00080000002015
:1010A0003400002001480068704700000000002064
:1010B00000B5FFF7F7FF04494968C1F30221034A6D
:1010C000515CC84000BD000000100240F47B0008E5
:1010D00000B5FFF7E7FF04494968C1F3C221034A9D
:1010E000515CC84000BD000000100240F47B0008C5
:1010F000F0B585B00FF26C0C9CE8E01001A8A0E8F8
:10110000E0101CA52D68009500210022002300247A
:101110000020194D696801F00C05F5B1042D02D0CD
:10112000082D19D101E0154819E001ADC1F383463E
:10113000AC5D01F4803555B10F4D6D68C5F3404588
:101140001DF805200D4D6543B5FBF2F302E00C4D93
:1011500004FB05F3184602E000BF084800BF00BFCB
:1011600005B0F0BD02030405060708090A0B0C0DC3
:101170000E0F1010010200000010024000127A0051
:1011800000093D00F8B504460CB90120F8BD2078EF
:1011900000F00100002878D0F848406800F00C000A
:1011A00004280CD0F548406800F00C00082811D144
:1011B000F248406800F48030B0F5803F0AD1EF4833
:1011C000006800F4003000285FD0606800285CD11F
:1011D0000120DBE700BF6068B0F5803F06D1E7483B
:1011E000006840F48030E549086028E0606858B93C
:1011F000E248006820F48030E04908600846006852
:1012000020F4802008601AE06068B0F5A02F0BD1B0
:10121000DA48006840F48020D84908600846006831
:1012200040F4803008600AE0D448006820F4803040
:10123000D24908600846006820F48020086000BF9A
:10124000606888B1FFF7B8FD054606E0FFF7B4FD1A
:10125000401B642801D9032098E7C848006800F4BF
:1012600000300028F2D010E0FFF7A6FD054606E0AA
:10127000FFF7A2FD401B642801D9032086E7BF4881
:10128000006800F400300028F2D1207800F002005D
:10129000022857D1B948406800F00C0050B1B74857
:1012A000406800F00C00082818D1B448406800F4E9
:1012B000803098B9B148006800F0020020B1206980
:1012C000012801D0012061E7AC48006820F0F80057
:1012D000616940EAC100A949086033E02069E8B1CA
:1012E0000120A7490860FFF767FD054606E0FFF704
:1012F00063FD401B022801D9032047E79F4800688F
:1013000000F002000028F2D09C48006820F0F800AD
:10131000616940EAC1009949086013E000209849DA
:101320000860FFF749FD054606E0FFF745FD401B55
:10133000022801D9032029E79048006800F0020044
:101340000028F2D1207800F0080008282DD1A069EB
:10135000B8B101208B490860FFF72EFD054606E075
:10136000FFF72AFD401B022801D903200EE783481E
:10137000406A00F002000028F2D0012000F080FC5A
:1013800013E000207F490860FFF716FD054606E0E0
:10139000FFF712FD401B022801D90320F6E677482B
:1013A000406A00F002000028F2D1207800F004002A
:1013B000042873D100277148C06900F0805070B9CB
:1013C00000BF6E48C06940F080506C49C861084653
:1013D000C06900F08050009000BF00BF01276A483C
:1013E000006800F48070B0B96748006840F480700D
:1013F00065490860FFF7E0FC054606E0FFF7DCFC06
:10140000401B642801D90320C0E65F48006800F44F
:1014100080700028F2D000BFE068012806D157484C
:10142000006A40F001005549086227E0E06858B9B9
:101430005248006A20F00100504908620846006ADC
:1014400020F00400086219E0E06805280BD14B4841
:10145000006A40F00400494908620846006A40F00A
:10146000010008620AE04548006A20F00100434993
:1014700008620846006A20F00400086200BFE068C5
:10148000A0B1FFF799FC054609E0FFF795FC401B6A
:1014900041F28831884202D9032077E622E03748BA
:1014A000006A00F002000028EFD012E0FFF784FC91
:1014B000054608E0FFF780FC401B41F28831884276
:1014C00001D9032062E62D48006A00F002000028DE
:1014D000F0D1012F05D12948C06920F0805027495B
:1014E000C86100BFE069C8B32448406800F00C0040
:1014F000082860D0E069022848D100202049086609
:10150000FFF75AFC054606E0FFF756FC401B022891
:1015100001D903203AE61948006800F0007000285D
:10152000F2D1206AB0F5803F07D11448406820F41A
:101530000030A168084311494860D4E90801084314
:101540000E49496821F4741108430C494860012090
:101550000B490866FFF730FC054607E03DE0FFF762
:101560002BFC401B022801D903200FE6034800682A
:1015700000F000700028F2D02FE0000000100240C0
:1015800000004242800442420070004000201449A2
:101590000866FFF711FC054606E0FFF70DFC401B4F
:1015A000022801D90320F1E50E48006800F0007020
:1015B0000028F2D111E0E069012800D1E6E50948F0
:1015C000466806F48031206A814204D106F4701125
:1015D000606A814201D00120D8E50020D6E50000F4
:1015E000000042420010024070B504460E46154607
:1015F0001CB1A069B0F5807F01D1012070BD94F8C5
:10160000410028B9002084F84000204600F020F86E
:1016100004F108012068FFF7E5F83146A268206868
:10162000FFF71CF92946236BD4E90102FFF7B8F84C
:10163000A168206850F8210040F00100A2682168EC
:1016400041F82200012084F841000020D6E7000084
:1016500010B586B0044600BF1E48406940F4807053
:101660001C4948610846406900F48070019000BF41
:1016700000BF00BF0846806940F02000886108462E
:10168000806900F02000019000BF00BF00BF084645
:10169000806940F0400088610846806900F04000A1
:1016A000019000BF00BF4CF2037002900220039033
:1016B000012004900320059002A90748FFF7C4F910
:1016C0004FF68070029002A90448FFF7BDF906B0FA
:1016D00010BD00000010024000140140001801403D
:1016E000042808D14FF0E021096941F004014FF0CE
:1016F000E022116107E04FF0E021096921F00401C7
:101700004FF0E0221161704770B504462546681E0F
:10171000B0F1807F01D301200FE0681E4FF0E0217F
:1017200048610F214FF0FF3000F016FC00204FF011
:10173000E021886107200861002070BD7047704774
:10174000704710B5044620680069C0F34000D8B166
:101750002068C068C0F34000B0B16FF0020021689B
:101760000861012020772068806900F0030018B12B
:101770002046FFF7E5FF05E0204600F0ADF82046E3
:1017800000F0ABF80020207720680069C0F38000EB
:10179000D8B12068C068C0F38000B0B16FF0040019
:1017A00021680861022020772068806900F4407079
:1017B00018B12046FFF7C4FF05E0204600F08CF882
:1017C000204600F08AF80020207720680069C0F3E6
:1017D000C000D8B12068C068C0F3C000B0B16FF0DD
:1017E000080021680861042020772068C06900F0A3
:1017F000030018B12046FFF7A3FF05E0204600F0E4
:101800006BF8204600F069F8002020772068006916
:10181000C0F30010D8B12068C068C0F30010B0B1A8
:101820006FF0100021680861082020772068C069E7
:1018300000F4407018B12046FFF782FF05E0204613
:1018400000F04AF8204600F048F800202077206891
:10185000006900F0010058B12068C06800F0010084
:1018600030B16FF0010021680861204600F036F8C1
:1018700020680069C0F3C01058B12068C068C0F388
:10188000C01030B16FF08000216808612046FFF77A
:1018900055FF20680069C0F3801058B12068C06807
:1018A000C0F3801030B16FF040002168086120461D
:1018B00000F024F820680069C0F3401058B1206897
:1018C000C068C0F3401030B16FF02000216808619B
:1018D0002046FFF734FF10BD7047704710B504462F
:1018E0000448844205D100BF20210348FFF754FA81
:1018F00000BF10BD4402002000180140704770472F
:101900002DE9F0470446206805682068C66820680D
:1019100047694FF00008C14605F00F08B8F1000F05
:101920000AD105F0200038B106F0200020B1204691
:1019300000F0F8F9BDE8F087B8F1000F71D007F0BA
:10194000010018B906F4907000286AD005F0010073
:1019500030B106F4807018B1E06B40F00100E06334
:1019600005F0040030B107F0010018B1E06B40F061
:101970000200E06305F0020030B107F0010018B189
:10198000E06B40F00400E06305F0080048B106F0A9
:10199000200010B907F0010018B1E06B40F008001A
:1019A000E063E06B68B305F0200028B106F020008A
:1019B00010B1204600F0B6F920684069C0F38019E4
:1019C000E06B00F0080010B9B9F1000F22D02046FA
:1019D00000F088F92068406900F04000B0B120684C
:1019E000406920F0400021684861606B50B11848A0
:1019F000616B4863606BFEF753FF10B1606B416B26
:101A000088470CE02046FFF77AFF08E02046FFF702
:101A100076FF04E02046FFF772FF0020E06389E7CD
:101A2000FFE705F0800030B106F0800018B12046D5
:101A300000F046FA7EE705F0400030B106F04000C5
:101A400018B1204600F05EF974E700BF72E70000AD
:101A5000D11C000810B504460CB9012010BDA069C6
:101A600000B100E000BF94F8390028B9002084F8E4
:101A70003800204600F028F8242084F83900206837
:101A8000C06820F400502168C860204600F09AF930
:101A90002068006920F4904021680861206840694E
:101AA00020F02A00216848612068C06840F4005096
:101AB0002168C8600020E063202084F8390084F8A1
:101AC0003A000020CAE7000010B586B00446284955
:101AD000206888424AD100BF00BF2648806940F094
:101AE0000400244988610846806900F004000190E0
:101AF00000BF00BF00BF00BF00BF0846806940F0C4
:101B0000040088610846806900F00400019000BF6D
:101B100000BF00BF00BF00BF0846806940F480409E
:101B200088610846806900F48040019000BF00BFD2
:101B300000BF48150290022003900120049003206A
:101B4000059002A90C48FEF77FFF4FF480600290D9
:101B50000020039002A90848FEF776FF2520FFF732
:101B600078F9032211462520FFF783F906B010BD4E
:101B700000380140001002400008014010B5034643
:101B800093F83A0020282FD101B10AB9012010BDE5
:101B900000BF93F83800012801D10220F7E70120A7
:101BA00083F8380000BF99629A85DA850020D863EF
:101BB000222083F83A0000BF002083F8380000BFDD
:101BC0001868C06840F480701C68E060186840695C
:101BD00040F001001C6860611868C06840F0200097
:101BE0001C68E0600020D2E70220D0E71D4A0168AF
:101BF000914236D11C49098801F4004189BB1A4938
:101C0000098801F4804171B1184909780A2903D083
:101C10000021154A118024E01349098841F400414C
:101C2000114A11801DE0114909780D2906D10E498C
:101C3000098841F480410C4A118012E00B4909786F
:101C4000094A1288C2F30D02094B995406490988C2
:101C5000491C054A118011460988C72901DD002168
:101C600011807047003801402C0000202E00002019
:101C7000E4000020704700BFFEE700BFFEE77047AA
:101C800008B508490968C9084FF47A72B1FBF2F146
:101C90004143009100BF00BF00994A1E00920029F5
:101CA000F9D108BD0000002010B5FFF78BF805F052
:101CB00013FB012801D004F0EBFF10BD70470000BA
:101CC00010B50248FFF73DFD10BD000044020020A2
:101CD00070B505466C6A0020E085E0842046FFF779
:101CE0000EFE70BD0168C96821F490710268D16070
:101CF0000168496921F0010102685161202180F8E1
:101D00003A10704710B504462068C06820F04000C3
:101D10002168C860202084F839002046FFF7AAFF18
:101D2000002010BD70B5044694F83A00222847D12F
:101D3000A068B0F5805F0CD1206950B90025A66A73
:101D400020684068C0F308003080A06A801CA06250
:101D500015E0A56A0026A068B0F5805F03D0A068F2
:101D600028B9206918B920684068287004E0206804
:101D7000406800F07F002870A06A401CA062E08DDF
:101D8000401E80B2E085C8B92068C06820F02000FD
:101D90002168C8602068C06820F480702168C8602D
:101DA0002068406920F0010021684861202084F803
:101DB0003A002046FFF71AFF002070BD0020FCE724
:101DC0000220FAE770B504462168096921F4405100
:101DD000E2681143226811612269A16811436269B6
:101DE00041EA02052168C96841F20C629143294326
:101DF0002268D1602168496921F44071A2691143C8
:101E0000226851612D4A2168914202D1FFF760F9A1
:101E100001E0FFF74DF900EBC00101EB0011626832
:101E20009200B1FBF2F100EBC00202EB001263681A
:101E30009B00B2FBF3F26423B2FBF3F202EBC203AA
:101E400003EB0212A1EB8201322202EB01116422A8
:101E5000B1FBF2F101F0F00100EBC00202EB001265
:101E600063689B00B2FBF3F26423B2FBF3F201EB75
:101E7000021200EBC00101EB001163689B00B1FB93
:101E8000F3F100EBC00303EB00136668B600B3FB8D
:101E9000F6F36426B3FBF6F303EBC30606EB03137A
:101EA000A1EB8301322303EB01116423B1FBF3F1B6
:101EB00001F00F0111442268916070BD00380140AB
:101EC000014691F83900212828D18868B0F5805F53
:101ED0000BD1086948B90A6A1088C0F308000B687A
:101EE0005860086A801C086205E00B6A581C08628A
:101EF00018780B685860C88C401E80B2C88458B9E6
:101F00000868C06820F080000B68D8600868C06866
:101F100040F040000B68D860002070470220FCE7CA
:101F200010B50648FFF7ECFC00BF01220449034846
:101F3000FFF724FE0028F8D110BD0000AC010020FE
:101F40002E00002000BFFEE702480068C0F3022018
:101F5000704700000CED00E010B5002804DB0A0714
:101F6000130E054A135406E00A07140E034A00F044
:101F70000F031B1FD45410BD00E400E018ED00E077
:101F800000BF704770B5044600204FF0E0210861A3
:101F9000FFF7A6FBE11704EB5171C1F3CF010C4A27
:101FA0001180E11704EB5171CD104FF47A70454365
:101FB0004FF0E020006940F002004FF0E02108619E
:101FC00008464561006940F00100086170BD0000ED
:101FD0002600002030B50446002504E04FF47A7056
:101FE00000F004F86D1CA542F8D330BD70B503466F
:101FF00000224FF0E02675690D4E368803FB06F48B
:102000004FF0E026B16910E04FF0E026B069884259
:102010000BD0884202D20E1A324402E02E1A0E442D
:1020200032440146A24200D300E0EDE700BF70BD9C
:102030002600002000BF054A126802F04002002A74
:10204000F9D0C2B2014B1B1D1A6070470038014025
:102050000EB54FF4784027A120221346CDE9002188
:102060000290DC220A21084603F04AF84FF4784037
:1020700022A118221346CDE900210290DC222F2153
:102080000A2003F03DF84FF4784021A110221346B6
:10209000CDE900210290DC224C210A2003F030F827
:1020A0001F201FA110221346CDE900210290C82253
:1020B0006F21362003F024F800204FF49D73EA22AC
:1020C0006E210090052000F003FA00208223EA220E
:1020D00019460090052000F095F9164801210023CB
:1020E0008022CDE9001014A1164804F0D7FF04F0B7
:1020F00063FC0EBD53544D33320000004E6F7469C3
:10210000667920436F756E742053656D0000000082
:1021100041544F4D40414C49454E54454B00000001
:102120004E6F746966792056616C75653A2020306F
:10213000000000000400002073746172745F746119
:10214000736B00001961000800B585B000BF00BFC7
:102150002848806940F04000264988610846806927
:1021600000F04000009000BF00BF00BF00BF00BFF4
:102170000846806940F0400088610846806900F0A8
:102180004000009000BF00BF00BF00BF00BF084676
:10219000806940F0040088610846806900F004000E
:1021A000009000BF00BF00BF1020019000200290EF
:1021B000012003900320049001A90F48FEF744FC7E
:1021C0000820019000200290012003900320049039
:1021D00001A90948FEF738FC012001900020029077
:1021E000022003900320049001A90448FEF72CFC70
:1021F00005B000BD00100240001801400008014079
:1022000070B50446002514B1012022490870214808
:10221000007848B310212048FEF7B6FD50B10821E0
:102220001D48FEF7B1FD28B101211C48FEF7ACFDA9
:10223000012819D10A20FFF7CDFE002015490870AA
:1022400010211548FEF7A0FD00B90125082112480C
:10225000FEF79AFD00B9022501211048FEF794FD12
:10226000012815D1032513E010210B48FEF78CFD42
:1022700001280DD108210848FEF786FD012807D165
:1022800001210648FEF780FD10B9012001490870C0
:10229000284670BD4400002000180140000801409D
:1022A00070B504460026094805884088454300214A
:1022B000084602F0F5FD02F0FDFF00BF02E0044811
:1022C0000480761CAE42FAD370BD000034020020B8
:1022D0000008006C10B5044649488471002C45D1B3
:1022E000F020474908804FF4A07048800846808855
:1022F00045F21051884210D14FF4305040490881C6
:102300004FF4285048814FF42C5088814FF4F070DE
:1023100008804FF4487048801AE03948808841F6B8
:10232000631188420DD12C20354908812B2048812A
:102330002A2088814FF4F07008804FF4487048805C
:1023400006E02C202E4908812A2048812B208881F4
:102350002B48808845F2103188424CD14FF4A07050
:10236000274908804FF4F070488044E04FF4A07093
:1023700023490880F02048800846808845F21051A3
:10238000884210D14FF430501D4908814FF4285035
:1023900048814FF42C5088814FF4487008804FF4E6
:1023A000F07048801AE01648808841F66311884230
:1023B0000DD12C20124908812A2048812B208881A8
:1023C0004FF4487008804FF4F070488006E02C20ED
:1023D0000B4908812A2048812B2088810848808861
:1023E00045F21031884206D14FF4F070044908805C
:1023F0004FF4A0704880002002F03AFC10BD0000AD
:10240000340200202DE9FF4F84B081468A46002027
:10241000029083460698A0EB09050798A0EB0A06F0
:10242000CDF80490CDF800A0002D01DD012705E0D6
:102430000DB9002702E04FF0FF376D42002E02DD9C
:102440004FF0010806E016B94FF0000802E04FF027
:10245000FF387642B54201DD2C4600E034460020CC
:1024600003901EE0009A91B2019A90B2119A00F086
:102470001FF8029828440290B3440298A04205DD58
:102480000298001B0290019838440190A34504DD96
:10249000ABEB040B0098404400900398401C80B2C2
:1024A0000390611C03988842DCDD08B0BDE8F08F22
:1024B00070B505460E4614463146284602F0F0FC3B
:1024C00002F0F8FE01490C8070BD00000008006CAD
:1024D0002DE9F84105460E4617469846079C3346B7
:1024E0003A46314628460094FFF78CFF43462A4679
:1024F000314628460094FFF785FF43463A46414659
:1025000028460094FFF77EFF43463A463146384658
:102510000094FFF777FFBDE8F88110B5CF2002F0F7
:10252000BDFE002002F0AEFEC12002F0ABFE302066
:1025300002F0A8FEED2002F0B1FE642002F0A2FE3F
:10254000032002F09FFE122002F09CFE812002F088
:1025500099FEE82002F0A2FE852002F093FE1020F2
:1025600002F090FE7A2002F08DFECB2002F096FE63
:10257000392002F087FE2C2002F084FE002002F0B9
:1025800081FE342002F07EFE022002F07BFEF72066
:1025900002F084FE202002F075FEEA2002F07EFEAA
:1025A000002002F06FFE002002F06CFEC02002F05E
:1025B00075FE1B2002F066FEC12002F06FFE0120B6
:1025C00002F060FEC52002F069FE302002F05AFEE3
:1025D000302002F057FEC72002F060FEB72002F064
:1025E00051FE362002F05AFE482002F04BFE3A20FF
:1025F00002F054FE552002F045FEB12002F04EFEDE
:10260000002002F03FFE1A2002F03CFEB62002F04D
:1026100045FE0A2002F036FEA22002F033FEF22030
:1026200002F03CFE002002F02DFE262002F036FED5
:10263000012002F027FEE02002F030FE0F2002F021
:1026400021FE2A2002F01EFE282002F01BFE082098
:1026500002F018FE0E2002F015FE082002F012FE15
:10266000542002F00FFEA92002F00CFE432002F0DD
:1026700009FE0A2002F006FE0F2002F003FE0020F1
:1026800002F000FE002002F0FDFD002002F0FAFD45
:10269000002002F0F7FDE12002F000FE002002F031
:1026A000F1FD152002F0EEFD172002F0EBFD0720F2
:1026B00002F0E8FD112002F0E5FD062002F0E2FD47
:1026C0002B2002F0DFFD562002F0DCFD3C2002F062
:1026D000D9FD052002F0D6FD102002F0D3FD0F2019
:1026E00002F0D0FD3F2002F0CDFD3F2002F0CAFDF8
:1026F0000F2002F0C7FD2B2002F0D0FD002002F0D9
:10270000C1FD002002F0BEFD012002F0BBFD3F2014
:1027100002F0B8FD2A2002F0C1FD002002F0B2FD57
:10272000002002F0AFFD002002F0ACFDEF2002F02F
:10273000A9FD112002F0B2FD7820FFF74BFC292003
:1027400002F0ACFD10BD10B5ED2002F0A7FD012098
:1027500002F098FDFE2002F095FDEE2002F09EFDB5
:10276000DE2002F08FFD212002F08CFDF12002F02E
:1027700095FD012002F086FDDF2002F08FFD102084
:1027800002F080FDC42002F089FD8F2002F07AFD66
:10279000C62002F083FD002002F074FDE22002F06A
:1027A00071FDE22002F06EFDE22002F06BFDBF2021
:1027B00002F074FDAA2002F065FDB02002F06EFD6B
:1027C0000D2002F05FFD002002F05CFD0D2002F004
:1027D00059FD002002F056FD112002F053FD0020AB
:1027E00002F050FD192002F04DFD002002F04AFDDC
:1027F000212002F047FD002002F044FD2D2002F0D0
:1028000041FD002002F03EFD3D2002F03BFD002096
:1028100002F038FD5D2002F035FD002002F032FDAF
:102820005D2002F02FFD002002F02CFDB12002F00F
:1028300035FD802002F026FD002002F023FD8B20D4
:1028400002F020FD002002F01DFD962002F01AFD8E
:10285000002002F017FDB22002F020FD002002F05F
:1028600011FD002002F00EFD022002F00BFD002001
:1028700002F008FD032002F005FD002002F002FD39
:10288000B32002F00BFD002002F0FCFC002002F05F
:10289000F9FC002002F0F6FC002002F0F3FC00201E
:1028A00002F0F0FC002002F0EDFC002002F0EAFC57
:1028B000002002F0E7FC002002F0E4FC002002F01F
:1028C000E1FC002002F0DEFC002002F0DBFC002036
:1028D00002F0D8FC002002F0D5FC002002F0D2FC6F
:1028E000002002F0CFFC002002F0CCFC002002F01F
:1028F000C9FC002002F0C6FC002002F0C3FC00204E
:1029000002F0C0FC002002F0BDFC002002F0BAFC86
:10291000002002F0B7FCB42002F0C0FC8B2002F0D3
:10292000B1FC002002F0AEFC962002F0ABFC0020CF
:1029300002F0A8FCA12002F0A5FC002002F0A2FCFD
:10294000B52002F0ABFC022002F09CFC002002F05B
:1029500099FC032002F096FC002002F093FC042076
:1029600002F090FC002002F08DFCB62002F096FCF4
:10297000002002F087FC002002F084FCB72002F067
:102980008DFC002002F07EFC002002F07BFC3F204A
:1029900002F078FC002002F075FC5E2002F072FC70
:1029A000002002F06FFC642002F06CFC002002F0BA
:1029B00069FC8C2002F066FC002002F063FCAC2075
:1029C00002F060FC002002F05DFCDC2002F05AFC0A
:1029D000002002F057FC702002F054FC002002F0AE
:1029E00051FC902002F04EFC002002F04BFCEB204A
:1029F00002F048FC002002F045FCDC2002F042FC22
:102A0000002002F03FFCB82002F048FC002002F059
:102A100039FC002002F036FC002002F033FC0020DC
:102A200002F030FC002002F02DFC002002F02AFC15
:102A3000002002F027FC002002F024FCBA2002F063
:102A40002DFC242002F01EFC002002F01BFC0020C4
:102A500002F018FC002002F015FCC12002F01EFC60
:102A6000202002F00FFC002002F00CFC542002F0A9
:102A700009FC002002F006FCFF2002F003FC00200D
:102A800002F000FCC22002F009FC0A2002F0FAFB6E
:102A9000002002F0F7FB042002F0F4FB002002F01B
:102AA000F1FBC32002F0FAFB3C2002F0EBFB00201C
:102AB00002F0E8FB3A2002F0E5FB002002F0E2FB26
:102AC000392002F0DFFB002002F0DCFB372002F0AF
:102AD000D9FB002002F0D6FB3C2002F0D3FB002003
:102AE00002F0D0FB362002F0CDFB002002F0CAFB42
:102AF000322002F0C7FB002002F0C4FB2F2002F0BE
:102B0000C1FB002002F0BEFB2C2002F0BBFB00202A
:102B100002F0B8FB292002F0B5FB002002F0B2FB66
:102B2000262002F0AFFB002002F0ACFB242002F0D4
:102B3000A9FB002002F0A6FB242002F0A3FB00204A
:102B400002F0A0FB232002F09DFB002002F09AFB84
:102B50003C2002F097FB002002F094FB362002F0AC
:102B600091FB002002F08EFB322002F08BFB002054
:102B700002F088FB2F2002F085FB002002F082FB90
:102B80002C2002F07FFB002002F07CFB292002F0C9
:102B900079FB002002F076FB262002F073FB002078
:102BA00002F070FB242002F06DFB002002F06AFBB3
:102BB000242002F067FB002002F064FB232002F0D7
:102BC00061FB002002F05EFBC42002F067FB622084
:102BD00002F058FB002002F055FB052002F052FBEA
:102BE000002002F04FFB842002F04CFB002002F09A
:102BF00049FBF02002F046FB002002F043FB1820C6
:102C000002F040FB002002F03DFBA42002F03AFB62
:102C1000002002F037FB182002F034FB002002F005
:102C200031FB502002F02EFB002002F02BFB0C2089
:102C300002F028FB002002F025FB172002F022FB07
:102C4000002002F01FFB952002F01CFB002002F088
:102C500019FBF32002F016FB002002F013FBE62024
:102C600002F010FB002002F00DFBC52002F016FB65
:102C7000322002F007FB002002F004FB442002F0A7
:102C800001FB002002F0FEFA652002F0FBFA0020B2
:102C900002F0F8FA762002F0F5FA002002F0F2FADB
:102CA000882002F0EFFA002002F0ECFAC62002F0D1
:102CB000F5FA202002F0E6FA002002F0E3FA1720ED
:102CC00002F0E0FA002002F0DDFA012002F0DAFA68
:102CD000002002F0D7FAC72002F0E0FA002002F04C
:102CE000D1FA002002F0CEFA002002F0CBFA002048
:102CF00002F0C8FAC82002F0D1FA002002F0C2FAAD
:102D0000002002F0BFFA002002F0BCFA002002F01E
:102D1000B9FAC92002F0C2FA002002F0B3FA00208A
:102D200002F0B0FA002002F0ADFA002002F0AAFA98
:102D3000002002F0A7FA002002F0A4FA002002F01E
:102D4000A1FA002002F09EFA002002F09BFA002077
:102D500002F098FA002002F095FA002002F092FAB0
:102D6000002002F08FFA002002F08CFA002002F01E
:102D700089FA002002F086FAE02002F08FFA16208D
:102D800002F080FA002002F07DFA1C2002F07AFAAC
:102D9000002002F077FA212002F074FA002002F0FD
:102DA00071FA362002F06EFA002002F06BFA46202B
:102DB00002F068FA002002F065FA522002F062FA8E
:102DC000002002F05FFA642002F05CFA002002F0BA
:102DD00059FA7A2002F056FA002002F053FA8B20BA
:102DE00002F050FA002002F04DFA992002F04AFA5F
:102DF000002002F047FAA82002F044FA002002F076
:102E000041FAB92002F03EFA002002F03BFAC42059
:102E100002F038FA002002F035FACA2002F032FA45
:102E2000002002F02FFAD22002F02CFA002002F04B
:102E300029FAD92002F026FA002002F023FAE02035
:102E400002F020FA002002F01DFAF32002F01AFA34
:102E5000002002F017FAE12002F020FA162002F01A
:102E600011FA002002F00EFA1C2002F00BFA0020EA
:102E700002F008FA222002F005FA002002F002FA1D
:102E8000362002F0FFF9002002F0FCF9452002F0A4
:102E9000F9F9002002F0F6F9522002F0F3F90020CF
:102EA00002F0F0F9642002F0EDF9002002F0EAF9F6
:102EB0007A2002F0E7F9002002F0E4F98B2002F01A
:102EC000E1F9002002F0DEF9992002F0DBF90020A0
:102ED00002F0D8F9A82002F0D5F9002002F0D2F9CA
:102EE000B92002F0CFF9002002F0CCF9C42002F0A2
:102EF000C9F9002002F0C6F9CA2002F0C3F9002087
:102F000002F0C0F9D22002F0BDF9002002F0BAF9B7
:102F1000D82002F0B7F9002002F0B4F9E02002F066
:102F2000B1F9002002F0AEF9F32002F0ABF9002075
:102F300002F0A8F9E22002F0B1F9052002F0A2F9AE
:102F4000002002F09FF90B2002F09CF9002002F013
:102F500099F91B2002F096F9002002F093F9342031
:102F600002F090F9002002F08DF9442002F08AF975
:102F7000002002F087F94F2002F084F9002002F0CF
:102F800081F9612002F07EF9002002F07BF97920BE
:102F900002F078F9002002F075F9882002F072F949
:102FA000002002F06FF9972002F06CF9002002F087
:102FB00069F9A62002F066F9002002F063F9B72053
:102FC00002F060F9002002F05DF9C22002F05AF927
:102FD000002002F057F9C72002F054F9002002F057
:102FE00051F9D12002F04EF9002002F04BF9D62021
:102FF00002F048F9002002F045F9DD2002F042F924
:10300000002002F03FF9F32002F03CF9002002F02A
:1030100039F9E32002F042F9052002F033F90020EB
:1030200002F030F90A2002F02DF9002002F02AF90E
:103030001C2002F027F9002002F024F9332002F0CE
:1030400021F9002002F01EF9442002F01BF90020B3
:1030500002F018F9502002F015F9002002F012F9E0
:10306000622002F00FF9002002F00CF9782002F043
:1030700009F9002002F006F9882002F003F9002087
:1030800002F000F9972002F0FDF8002002F0FAF8B3
:10309000A62002F0F7F8002002F0F4F8B72002F0C2
:1030A000F1F8002002F0EEF8C22002F0EBF8002068
:1030B00002F0E8F8C72002F0E5F8002002F0E2F89C
:1030C000D12002F0DFF8002002F0DCF8D52002F079
:1030D000D9F8002002F0D6F8DD2002F0D3F8002065
:1030E00002F0D0F8F32002F0CDF8002002F0CAF888
:1030F000E42002F0D3F8012002F0C4F8002002F02E
:10310000C1F8012002F0BEF8002002F0BBF8022056
:1031100002F0B8F8002002F0B5F82A2002F0B2F868
:10312000002002F0AFF83C2002F0ACF8002002F0E2
:10313000A9F84B2002F0A6F8002002F0A3F85D20C9
:1031400002F0A0F8002002F09DF8742002F09AF836
:10315000002002F097F8842002F094F8002002F09A
:1031600091F8932002F08EF8002002F08BF8A22054
:1031700002F088F8002002F085F8B32002F082F80F
:10318000002002F07FF8BE2002F07CF8002002F060
:1031900079F8C42002F076F8002002F073F8CD2010
:1031A00002F070F8002002F06DF8D32002F06AF807
:1031B000002002F067F8DD2002F064F8002002F041
:1031C00061F8F32002F05EF8002002F05BF8E520E1
:1031D00002F064F8002002F055F8002002F052F8E6
:1031E000002002F04FF8002002F04CF8022002F01C
:1031F00049F8002002F046F8292002F043F80020A8
:1032000002F040F83C2002F03DF8002002F03AF8CD
:103210004B2002F037F8002002F034F85D2002F075
:1032200031F8002002F02EF8742002F02BF8002074
:1032300002F028F8842002F025F8002002F022F89D
:10324000932002F01FF8002002F01CF8A22002F0E8
:1032500019F8002002F016F8B32002F013F800204D
:1032600002F010F8BE2002F00DF8002002F00AF87B
:10327000C42002F007F8002002F004F8CD2002F08C
:1032800001F8002001F0FEFFD32001F0FBFF002039
:1032900001F0F8FFDC2001F0F5FF002001F0F2FF63
:1032A000F32001F0EFFF002001F0ECFFE62001F039
:1032B000F5FF112001F0E6FF002001F0E3FF3420CC
:1032C00001F0E0FF002001F0DDFF562001F0DAFF01
:1032D000002001F0D7FF762001F0D4FF002001F09C
:1032E000D1FF772001F0CEFF002001F0CBFF662058
:1032F00001F0C8FF002001F0C5FF882001F0C2FFE7
:10330000002001F0BFFF992001F0BCFF002001F078
:10331000B9FFBB2001F0B6FF002001F0B3FF9920F8
:1033200001F0B0FF002001F0ADFF662001F0AAFF20
:10333000002001F0A7FF552001F0A4FF002001F0BC
:10334000A1FF552001F09EFF002001F09BFF4520CA
:1033500001F098FF002001F095FF432001F092FF5B
:10336000002001F08FFF442001F08CFF002001F0CD
:1033700089FFE72001F092FF322001F083FF002057
:1033800001F080FF552001F07DFF002001F07AFF61
:10339000762001F077FF002001F074FF662001F035
:1033A00071FF002001F06EFF672001F06BFF00202D
:1033B00001F068FF672001F065FF002001F062FF67
:1033C000872001F05FFF002001F05CFF992001F0F1
:1033D00059FF002001F056FFBB2001F053FF0020F1
:1033E00001F050FF992001F04DFF002001F04AFF4D
:1033F000772001F047FF002001F044FF442001F056
:1034000041FF002001F03EFF562001F03BFF00206D
:1034100001F038FF232001F035FF002001F032FFDA
:10342000332001F02FFF002001F02CFF452001F098
:1034300029FF002001F026FFE82001F02FFF0020E7
:1034400001F020FF002001F01DFF992001F01AFF7C
:10345000002001F017FF872001F014FF002001F089
:1034600011FF882001F00EFF002001F00BFF7720F4
:1034700001F008FF002001F005FF662001F002FFC7
:10348000002001F0FFFE882001F0FCFE002001F08A
:10349000F9FEAA2001F0F6FE002001F0F3FEBB20A9
:1034A00001F0F0FE002001F0EDFE992001F0EAFEAF
:1034B000002001F0E7FE662001F0E4FE002001F0AC
:1034C000E1FE552001F0DEFE002001F0DBFE55207C
:1034D00001F0D8FE002001F0D5FE442001F0D2FE1C
:1034E000002001F0CFFE442001F0CCFE002001F0CE
:1034F000C9FE552001F0C6FE002001F0C3FEE92000
:1035000001F0CCFEAA2001F0BDFE002001F0BAFEC1
:10351000002001F0B7FE002001F0B4FE002001F011
:10352000BDFEAA2001F0AEFECF2001F0B7FE0020C4
:1035300001F0A8FE002001F0A5FE002001F0A2FE8F
:10354000002001F09FFE002001F09CFE002001F011
:1035500099FE002001F096FE002001F093FE00206D
:1035600001F090FE002001F08DFE002001F08AFEA7
:10357000002001F087FE002001F084FE002001F011
:1035800081FE002001F07EFE002001F07BFE002085
:1035900001F078FEF02001F081FE002001F072FEC3
:1035A000502001F06FFE002001F06CFE002001F0C1
:1035B00069FE002001F066FEF32001F06FFE00209E
:1035C00001F060FEF92001F069FE062001F05AFECC
:1035D000102001F057FE292001F054FE002001F0D8
:1035E00051FE3A2001F05AFE552001F04BFE112009
:1035F00001F054FE6420FEF7EDFC292001F04EFEA0
:10360000352001F04BFE002001F03CFE512001F07E
:1036100045FEFF2001F036FE532001F03FFE2C2036
:1036200001F030FE552001F039FE822001F02AFE23
:103630002C2001F033FE10BD10B555214FF4704021
:1036400001F042FEAA214FF2010001F03DFE52219D
:103650004FF2020001F038FE08214FF2030001F0A2
:1036600033FE01214FF2040001F02EFE0D214FF434
:10367000304001F029FE0D214BF2010001F024FE43
:103680000D214BF2020001F01FFE34214FF43640B1
:1036900001F01AFE34214BF2016001F015FE3421D5
:1036A0004BF2026001F010FE0D214FF4314001F0A9
:1036B0000BFE0D214BF2011001F006FE0D214BF225
:1036C000021001F001FE34214FF4374001F0FCFDFF
:1036D00034214BF2017001F0F7FD34214BF20270FE
:1036E00001F0F2FD00214FF4324001F0EDFD002128
:1036F0004BF2012001F0E8FD00214BF2022001F025
:10370000E3FD24214FF4384001F0DEFD24214BF687
:10371000010001F0D9FD24214BF6020001F0D4FD97
:1037200001214FF43F4001F0CFFD0F214FF4334012
:1037300001F0CAFD0F214BF2013001F0C5FD0F2150
:103740004BF2023001F0C0FD34214FF4394001F05A
:10375000BBFD34214BF6011001F0B6FD34214BF6D0
:10376000021001F0B1FD08214FF4354001F0ACFD2D
:1037700008214BF2015001F0A7FD08214BF2025045
:1037800001F0A2FD03214FF4424001F09DFD2421F0
:103790004FF43A4001F098FD24214BF6012001F04E
:1037A00093FD24214BF6022001F08EFD00214FF401
:1037B0003C4001F089FD78214BF6014001F084FD89
:1037C00000214BF6024001F07FFD00214FF43D4007
:1037D00001F07AFD78214BF6015001F075FD0021D2
:1037E0004BF6025001F070FD00214FF43E4001F015
:1037F0006BFD64214BF6016001F066FD00214FF482
:10380000514001F061FD33214DF2011001F05CFDEA
:1038100000214DF2021001F057FD34214DF203104A
:1038200001F052FD00214DF2041001F04DFD3A214E
:103830004DF2051001F048FD00214DF2061001F097
:1038400043FD4A214DF2071001F03EFD00214DF2EB
:10385000081001F039FD5C214DF2091001F034FD32
:1038600000214DF20A1001F02FFD81214DF20B10C5
:1038700001F02AFD00214DF20C1001F025FDA621DA
:103880004DF20D1001F020FD00214DF20E1001F05F
:103890001BFDE5214DF20F1001F016FD01214DF247
:1038A000101001F011FD13214DF2111001F00CFD6B
:1038B00001214DF2121001F007FD54214DF21310B9
:1038C00001F002FD01214DF2141001F0FDFC8221F6
:1038D0004DF2151001F0F8FC01214DF2161001F027
:1038E000F3FCCA214DF2171001F0EEFC02214DF25B
:1038F000181001F0E9FC00214DF2191001F0E4FC70
:1039000002214DF21A1001F0DFFC01214DF21B10D3
:1039100001F0DAFC02214DF21C1001F0D5FC34213B
:103920004DF21D1001F0D0FC02214DF21E1001F0ED
:10393000CBFC67214DF21F1001F0C6FC02214DF2B5
:10394000201001F0C1FC84214DF2211001F0BCFCDB
:1039500002214DF2221001F0B7FCA4214DF22310F8
:1039600001F0B2FC02214DF2241001F0ADFCB721B0
:103970004DF2251001F0A8FC02214DF2261001F0B5
:10398000A3FCCF214DF2271001F09EFC02214DF245
:10399000281001F099FCDE214DF2291001F094FC71
:1039A00002214DF22A1001F08FFCF2214DF22B1072
:1039B00001F08AFC02214DF22C1001F085FCFE2161
:1039C0004DF22D1001F080FC03214DF22E1001F07C
:1039D0007BFC10214DF22F1001F076FC03214DF2FB
:1039E000301001F071FC33214DF2311001F06CFC0C
:1039F00003214DF2321001F067FC6D214DF23310BE
:103A000001F062FC00214FF4524001F05DFC3321D3
:103A10004DF2012001F058FC00214DF2022001F08E
:103A200053FC34214DF2032001F04EFC00214DF2F5
:103A3000042001F049FC3A214DF2052001F044FC3C
:103A400000214DF2062001F03FFC4A214DF20720F3
:103A500001F03AFC00214DF2082001F035FC5C2118
:103A60004DF2092001F030FC00214DF20A2001F056
:103A70002BFC81214DF20B2001F026FC00214DF2A0
:103A80000C2001F021FCA6214DF20D2001F01CFCC0
:103A900000214DF20E2001F017FCE5214DF20F2020
:103AA00001F012FC01214DF2102001F00DFC132158
:103AB0004DF2112001F008FC01214DF2122001F01D
:103AC00003FC54214DF2132001F0FEFB01214DF2C5
:103AD000142001F0F9FB82214DF2152001F0F4FBD6
:103AE00001214DF2162001F0EFFBCA214DF2172003
:103AF00001F0EAFB02214DF2182001F0E5FB002164
:103B00004DF2192001F0E0FB02214DF21A2001F0E4
:103B1000DBFB01214DF21B2001F0D6FB02214DF20F
:103B20001C2001F0D1FB34214DF21D2001F0CCFB13
:103B300002214DF21E2001F0C7FB67214DF21F202C
:103B400001F0C2FB02214DF2202001F0BDFB8421D7
:103B50004DF2212001F0B8FB02214DF2222001F0AC
:103B6000B3FBA4214DF2232001F0AEFB02214DF264
:103B7000242001F0A9FBB7214DF2252001F0A4FB80
:103B800002214DF2262001F09FFBCF214DF227208C
:103B900001F09AFB02214DF2282001F095FBDE2175
:103BA0004DF2292001F090FB02214DF22A2001F074
:103BB0008BFBF2214DF22B2001F086FB02214DF20E
:103BC0002C2001F081FBFE214DF22D2001F07CFB29
:103BD00003214DF22E2001F077FB10214DF22F2012
:103BE00001F072FB03214DF2302001F06DFB332117
:103BF0004DF2312001F068FB03214DF2322001F03B
:103C000063FB6D214DF2332001F05EFB00214FF488
:103C1000534001F059FB33214DF2013001F054FBC8
:103C200000214DF2023001F04FFB34214DF2033000
:103C300001F04AFB00214DF2043001F045FB3A212E
:103C40004DF2053001F040FB00214DF2063001F04D
:103C50003BFB4A214DF2073001F036FB00214DF2CB
:103C6000083001F031FB5C214DF2093001F02CFBF2
:103C700000214DF20A3001F027FB81214DF20B307B
:103C800001F022FB00214DF20C3001F01DFBA621BA
:103C90004DF20D3001F018FB00214DF20E3001F015
:103CA00013FBE5214DF20F3001F00EFB01214DF227
:103CB000103001F009FB13214DF2113001F004FB2B
:103CC00001214DF2123001F0FFFA54214DF2133070
:103CD00001F0FAFA01214DF2143001F0F5FA8221D7
:103CE0004DF2153001F0F0FA01214DF2163001F0DD
:103CF000EBFACA214DF2173001F0E6FA02214DF23B
:103D0000183001F0E1FA00214DF2193001F0DCFA2F
:103D100002214DF21A3001F0D7FA01214DF21B3089
:103D200001F0D2FA02214DF21C3001F0CDFA34211B
:103D30004DF21D3001F0C8FA02214DF21E3001F0A3
:103D4000C3FA67214DF21F3001F0BEFA02214DF295
:103D5000203001F0B9FA84214DF2213001F0B4FA9B
:103D600002214DF2223001F0AFFAA4214DF22330AE
:103D700001F0AAFA02214DF2243001F0A5FAB72190
:103D80004DF2253001F0A0FA02214DF2263001F06B
:103D90009BFACF214DF2273001F096FA02214DF225
:103DA000283001F091FADE214DF2293001F08CFA31
:103DB00002214DF22A3001F087FAF2214DF22B3028
:103DC00001F082FA02214DF22C3001F07DFAFE2141
:103DD0004DF22D3001F078FA03214DF22E3001F032
:103DE00073FA10214DF22F3001F06EFA03214DF2DB
:103DF000303001F069FA33214DF2313001F064FACC
:103E000003214DF2323001F05FFA6D214DF2333073
:103E100001F05AFA00214FF4544001F055FA3321D1
:103E20004DF2014001F050FA00214DF2024001F044
:103E30004BFA34214DF2034001F046FA00214DF2D5
:103E4000044001F041FA3A214DF2054001F03CFAFC
:103E500000214DF2064001F037FA4A214DF20740A9
:103E600001F032FA00214DF2084001F02DFA5C21F8
:103E70004DF2094001F028FA00214DF20A4001F00C
:103E800023FA81214DF20B4001F01EFA00214DF280
:103E90000C4001F019FAA6214DF20D4001F014FA80
:103EA00000214DF20E4001F00FFAE5214DF20F40D6
:103EB00001F00AFA01214DF2104001F005FA132138
:103EC0004DF2114001F000FA01214DF2124001F0D3
:103ED000FBF954214DF2134001F0F6F901214DF2A6
:103EE000144001F0F1F982214DF2154001F0ECF996
:103EF00001214DF2164001F0E7F9CA214DF21740B9
:103F000001F0E2F902214DF2184001F0DDF9002143
:103F10004DF2194001F0D8F902214DF21A4001F09A
:103F2000D3F901214DF21B4001F0CEF902214DF2EF
:103F30001C4001F0C9F934214DF21D4001F0C4F9D3
:103F400002214DF21E4001F0BFF967214DF21F40E2
:103F500001F0BAF902214DF2204001F0B5F98421B7
:103F60004DF2214001F0B0F902214DF2224001F062
:103F7000ABF9A4214DF2234001F0A6F902214DF244
:103F8000244001F0A1F9B7214DF2254001F09CF940
:103F900002214DF2264001F097F9CF214DF2274042
:103FA00001F092F902214DF2284001F08DF9DE2155
:103FB0004DF2294001F088F902214DF22A4001F02A
:103FC00083F9F2214DF22B4001F07EF902214DF2EE
:103FD0002C4001F079F9FE214DF22D4001F074F9E9
:103FE00003214DF22E4001F06FF910214DF22F40C8
:103FF00001F06AF903214DF2304001F065F93321F7
:104000004DF2314001F060F903214DF2324001F0F0
:104010005BF96D214DF2334001F056F900214FF468
:10402000554001F051F933214DF2015001F04CF9A6
:1040300000214DF2025001F047F934214DF20350B6
:1040400001F042F900214DF2045001F03DF93A210E
:104050004DF2055001F038F900214DF2065001F003
:1040600033F94A214DF2075001F02EF900214DF2AB
:10407000085001F029F95C214DF2095001F024F9B2
:1040800000214DF20A5001F01FF981214DF20B5031
:1040900001F01AF900214DF20C5001F015F9A6219A
:1040A0004DF20D5001F010F900214DF20E5001F0CB
:1040B0000BF9E5214DF20F5001F006F901214DF207
:1040C000105001F001F913214DF2115001F0FCF8EC
:1040D00001214DF2125001F0F7F854214DF2135026
:1040E00001F0F2F801214DF2145001F0EDF88221B7
:1040F0004DF2155001F0E8F801214DF2165001F093
:10410000E3F8CA214DF2175001F0DEF802214DF21A
:10411000185001F0D9F800214DF2195001F0D4F8EF
:1041200002214DF21A5001F0CFF801214DF21B503F
:1041300001F0CAF802214DF21C5001F0C5F83421FB
:104140004DF21D5001F0C0F802214DF21E5001F059
:10415000BBF867214DF21F5001F0B6F802214DF275
:10416000205001F0B1F884214DF2215001F0ACF85B
:1041700002214DF2225001F0A7F8A4214DF2235064
:1041800001F0A2F802214DF2245001F09DF8B72170
:104190004DF2255001F098F802214DF2265001F021
:1041A00093F8CF214DF2275001F08EF802214DF205
:1041B000285001F089F8DE214DF2295001F084F8F1
:1041C00002214DF22A5001F07FF8F2214DF22B50DE
:1041D00001F07AF802214DF22C5001F075F8FE2121
:1041E0004DF22D5001F070F803214DF22E5001F0E8
:1041F0006BF810214DF22F5001F066F803214DF2BB
:10420000305001F061F833214DF2315001F05CF88B
:1042100003214DF2325001F057F86D214DF2335029
:1042200001F052F800214FF4564001F04DF83321CF
:104230004DF2016001F048F800214DF2026001F0FA
:1042400043F834214DF2036001F03EF800214DF2B5
:10425000046001F039F83A214DF2056001F034F8BC
:1042600000214DF2066001F02FF84A214DF207605F
:1042700001F02AF800214DF2086001F025F85C21D8
:104280004DF2096001F020F800214DF20A6001F0C2
:104290001BF881214DF20B6001F016F800214DF260
:1042A0000C6001F011F8A6214DF20D6001F00CF840
:1042B00000214DF20E6001F007F8E5214DF20F608C
:1042C00001F002F801214DF2106000F0FDFF132112
:1042D0004DF2116000F0F8FF01214DF2126000F084
:1042E000F3FF54214DF2136000F0EEFF01214DF277
:1042F000146000F0E9FF82214DF2156000F0E4FF48
:1043000001214DF2166000F0DFFFCA214DF2176067
:1043100000F0DAFF02214DF2186000F0D5FF002115
:104320004DF2196000F0D0FF02214DF21A6000F04A
:10433000CBFF01214DF21B6000F0C6FF02214DF2C0
:104340001C6000F0C1FF34214DF21D6000F0BCFF85
:1043500002214DF21E6000F0B7FF67214DF21F6091
:1043600000F0B2FF02214DF2206000F0ADFF842189
:104370004DF2216000F0A8FF02214DF2226000F012
:10438000A3FFA4214DF2236000F09EFF02214DF215
:10439000246000F099FFB7214DF2256000F094FFF2
:1043A00002214DF2266000F08FFFCF214DF22760F1
:1043B00000F08AFF02214DF2286000F085FFDE2127
:1043C0004DF2296000F080FF02214DF22A6000F0DA
:1043D0007BFFF2214DF22B6000F076FF02214DF2BF
:1043E0002C6000F071FFFE214DF22D6000F06CFF9B
:1043F00003214DF22E6000F067FF10214DF22F6077
:1044000000F062FF03214DF2306000F05DFF3321C8
:104410004DF2316000F058FF03214DF2326000F0A0
:1044200053FF6D214DF2336000F04EFF55214FF4E4
:10443000704000F049FFAA214FF2010000F044FF54
:1044400052214FF2020000F03FFF08214FF203001B
:1044500000F03AFF00214FF2040000F035FFCC21BC
:104460004FF4314000F030FF00214BF2011000F01A
:104470002BFF05214FF4364000F026FF70214FF44A
:10448000374000F021FF70214BF2017000F01CFF5B
:1044900001214FF4384000F017FF03214BF60100D3
:1044A00000F012FF03214BF6020000F00DFF032184
:1044B0004BF6030000F008FF02214FF43C4000F0EF
:1044C00003FF00214BF6014000F0FEFE00214BF6F9
:1044D000024000F0F9FED0214FF4494000F0F4FE14
:1044E00002214CF6011000F0EFFE50214CF60210B4
:1044F00000F0EAFE50214CF6031000F0E5FE5021DA
:104500004CF6041000F0E0FE00214FF4545000F08F
:10451000DBFE55214FF4685000F0D6FE4FF4885072
:1045200000F0BCFE7820FDF761FD4FF4245000F050
:10453000B5FE10BD10B5E22000F0B0FE1D2000F069
:10454000A1FE022000F09EFE042000F09BFE6420ED
:10455000FDF74CFDE02000F0A1FE012000F092FEEE
:104560000A20FDF737FDE02000F098FE032000F060
:1045700089FE0C20FDF72EFD012000F08FFE0A20A1
:10458000FDF728FDE62000F089FE2F2000F07AFEDE
:10459000FF2000F077FEFF2000F074FEB02000F056
:1045A0007DFE202000F06EFE002000F06BFE032058
:1045B00000F068FE40F21F3000F064FE012000F0C1
:1045C00061FE40F2DF1000F05DFE002000F05AFEB8
:1045D000B42000F063FE042000F054FE40F21F40BF
:1045E00000F050FE002000F04DFE2E2000F04AFEAC
:1045F000002000F047FE002000F044FE002000F004
:1046000041FE002000F03EFEB62000F047FE0220F2
:1046100000F038FE4FF4037000F034FE002000F08C
:1046200031FE172000F02EFE152000F02BFE00209A
:1046300000F028FE002000F025FEF02000F02EFE05
:10464000032000F01FFE292000F028FED02000F0FB
:1046500025FE002000F016FEBE2000F01FFE052003
:1046600000F010FEFE2000F00DFE012000F00AFE1A
:10467000002000F007FE002000F004FE002000F003
:1046800001FEB82000F00AFE032000F0FBFD01202F
:1046900000F0F8FDBA2000F001FE012000F0F2FD6C
:1046A00010BD10B5112000F0F9FD7820FDF792FC47
:1046B000362000F0F3FD002000F0E4FD3A2000F089
:1046C000EDFD052000F0DEFDB22000F0E7FD0C203E
:1046D00000F0D8FD0C2000F0D5FD002000F0D2FD48
:1046E000332000F0CFFD332000F0CCFDB72000F0E8
:1046F000D5FD352000F0C6FDBB2000F0CFFD3220F7
:1047000000F0C0FDC02000F0C9FD0C2000F0BAFD93
:10471000C22000F0C3FD012000F0B4FDC32000F072
:10472000BDFD102000F0AEFDC42000F0B7FD20203C
:1047300000F0A8FDC62000F0B1FD0F2000F0A2FDA2
:10474000D02000F0ABFDA42000F09CFDA12000F0E3
:1047500099FDE02000F0A2FDD02000F093FD0020A4
:1047600000F090FD022000F08DFD072000F08AFD92
:104770000A2000F087FD282000F084FD322000F0A0
:1047800081FD442000F07EFD422000F07BFD0620EC
:1047900000F078FD0E2000F075FD122000F072FD93
:1047A000142000F06FFD172000F06CFDE12000F0F8
:1047B00075FDD02000F066FD002000F063FD0220B2
:1047C00000F060FD072000F05DFD0A2000F05AFDBA
:1047D000282000F057FD312000F054FD542000F057
:1047E00051FD472000F04EFD0E2000F04BFD1C2037
:1047F00000F048FD172000F045FD1B2000F042FDB1
:104800001E2000F03FFD2A2000F048FD002000F0AF
:1048100039FD002000F036FD002000F033FDEF20D0
:1048200000F030FD2B2000F039FD002000F02AFDC3
:10483000002000F027FD012000F024FD3F2000F0C3
:1048400021FD292000F02AFD10BD00002DE9F04FC8
:1048500005460E4617469846DDF824A04FF0000B9B
:10486000781B401C1FFA80FB344613E02146284683
:1048700000F016FB00F01EFD4FF0000906E00749AE
:10488000A1F800A009F101001FFA80F9D945F6DB73
:10489000601C84B24445E9DDBDE8F08F0008006C7F
:1048A00000B593B000BF00BFDC48806940F4807061
:1048B000DA4988610846806900F48070009000BF82
:1048C00000BF00BF00BF00BF0846806940F0200065
:1048D00088610846806900F02000009000BF00BF9A
:1048E00000BF00BF00BF0846806940F0200088611B
:1048F0000846806900F02000009000BF00BF00BFA4
:1049000000BF00BF0846806940F480708861084697
:10491000806900F48070009000BF00BF00BF00BF3E
:1049200000BF0846806940F0080088610846806939
:1049300000F00800009000BF00BF00BF88140F9077
:104940000220109001201190032012900FA9B4486A
:10495000FCF77AF820200F900FA9B248FCF774F802
:1049600010200F900FA9AF48FCF76EF801200F90B0
:104970000FA9AB48FCF768F801200F9010900FA921
:10498000A948FCF761F84FF02040A8490860A84802
:104990004860062088600021A448C1601021416160
:1049A00000218161C16141624FF480518162002127
:1049B000C1624FF4804101630021416381630020A3
:1049C000089009900F200A9000200E90019002900C
:1049D000012003900020079001AA08A99348FCF742
:1049E00003FE3220FDF7F6FAD32000F057FC00F06A
:1049F00035F99049888000F031F98E49888000F0BF
:104A00002DF98C498880084680884FF6FF7101EAAD
:104A100000208849888000F021F986498988084368
:104A2000844988800846808849F2413188427DD097
:104A3000042000F033FC00F011F97E49888000F07A
:104A40000DF97C49888000F009F97A498880084688
:104A500080884FF6FF7101EA00207649888000F0D7
:104A6000FDF874498988084372498880084680881F
:104A700048F25251884203D147F289706D498880CB
:104A80006C48808847F289718842D0D0D42000F0E9
:104A900005FC00F0E3F86749888000F0DFF865491D
:104AA000888000F0DBF863498880084680884FF6EC
:104AB000FF7101EA00205F49888000F0CFF85D496E
:104AC000898808435B4988800846808845F2103110
:104AD00088425FD055214FF4704000F0F5FBAA21C9
:104AE0004FF2010000F0F0FB52214FF2020000F003
:104AF000EBFB08214FF2030000F0E6FB01214FF22F
:104B0000040000F0E1FB4FF4454000F0C7FB00F06B
:104B1000A5F848498880084680884FF6FF7101EA69
:104B20000020444988804CF2015000E032E000F05F
:104B3000B5FB00F093F83F49898808433D498880D8
:104B40000846808845F21051884223D0A12000F009
:104B5000A5FB00F083F83749888000F07FF83549DD
:104B60008880084680884FF6FF7101EA00203149AD
:104B7000888000F073F82F49898808432D49888080
:104B80000846808845F26171884203D141F663107E
:104B9000284988802748818827A0FBF78FFB254874
:104BA000808847F28971884202D1FFF77AFD25E0BB
:104BB0002048808849F24131884202D1FDF7ADFC9E
:104BC0001CE01C48808845F21031884202D1FDF774
:104BD000BAFD13E01748808845F21051884202D18F
:104BE000FEF72AFD0AE01348808841F663118842E7
:104BF00004D1FFF79FFC642000F01AFB0020FDF7B2
:104C000069FB00BF012211460748FCF7CFF800BF3F
:104C10004FF6FF70FDF744FB13B000BD00100240DB
:104C20000020014000140140000C0140EC01002074
:104C3000040100A0340200204C43442049443A259A
:104C4000780D0A0010B50246012000E050430B1E0B
:104C5000A1F10104E1B2F9D110BD000008B503488B
:104C600000880090BDF8000008BD00000008006C3E
:104C7000F0B505460024002788488079012805D131
:104C80008648808841F66311884208D1834880793C
:104C9000F0B98248808841F66311884218D1082D06
:104CA00015D2DFE805F00406080A0C0E10120625DE
:104CB0000DE007250BE0042509E0052507E00125A7
:104CC00005E0002503E0032501E0022500BF00BF49
:104CD000082D1CD2DFE805F00406090C0F12151888
:104CE00000BF14E044F0800411E044F040040EE002
:104CF00044F0C0040BE044F0200408E044F06004F9
:104D000005E044F0A00402E044F0E00400BF00BF6E
:104D100036276248808845F21051884200D13F0210
:104D20005E48808849F24131884205D05B488088DE
:104D300047F28971884201D144F00804214638467F
:104D400000F0C2FA5548808841F6631188421DD0B0
:104D500004F0200068B151480088504949888842D1
:104D600014DA4E48068840884C4908800846468038
:104D70000CE04A48008849494988884206DD47488E
:104D80000688408845490880084646804348808810
:104D900045F21051884252D14049488900F07EFACC
:104DA000002000F06FFA3D494989491C88B200F0A3
:104DB00075FA002000F066FA38494989891C88B2E2
:104DC00000F06CFA35490988491EC1F30F2000F044
:104DD00059FA32494989C91C88B200F05FFA2F4953
:104DE0000978491EC8B200F04DFA2C49888900F0B4
:104DF00055FA002000F046FA28498989491C88B2F2
:104E000000F04CFA002000F03DFA24498989891C01
:104E100088B200F043FA21494988491EC1F30F20A6
:104E200000F030FA1D498989C91C88B200F036FAB1
:104E30001A498978491EC8B200F024FA2DE01749B2
:104E4000488900F02BFA002000F01CFA002000F046
:104E500019FA12490988491EC1F30F2000F012FA0D
:104E60000E490978491EC8B200F00CFA0B4988892E
:104E700000F014FA002000F005FA002000F002FA19
:104E800006494988491EC1F30F2000F0FBF9034988
:104E90008978491EC8B200F0F5F9F0BD340200204F
:104EA00010B502460C464548808841F66311884299
:104EB00047D142488079A8B940480088401E801AEE
:104EC00082B23E49488900F0E9F9002000F0DAF9A1
:104ED000002000F0D7F9101200F0D4F9D0B200F0A1
:104EE000D1F916E03549488900F0D8F9101200F0E0
:104EF000C9F9D0B200F0C6F930490988491EC1F39A
:104F00000F2000F0BFF92D490978491EC8B200F002
:104F1000B9F92A49888900F0C1F9201200F0B2F9E4
:104F2000E0B200F0AFF925494988491EC1F30F20CE
:104F300000F0A8F921498978491EC8B200F0A2F909
:104F40003AE01E48808845F21051884220D11B4922
:104F5000488900F0A3F9101200F094F91749498923
:104F6000491C88B200F09AF9D0B200F08BF91349CD
:104F7000888900F093F9201200F084F90F4989899B
:104F8000491C88B200F08AF9E0B200F07BF913E026
:104F90000A49488900F082F9101200F073F9D0B282
:104FA00000F070F90549888900F078F9201200F0C6
:104FB00069F9E0B200F066F910BD0000340200208B
:104FC0002DE9FC4F80460E4615461C46B346002090
:104FD000019000902046E31704EB5373DB10214649
:104FE0004FEAE47C04EB5C7C4FEAEC0CA4EBCC0CC9
:104FF000BCF1000F02D04FF0010C01E04FF0000CAB
:105000006344224604EBD27C4FEA6C0C03FB0CF3A6
:10501000DBB20193A5F12000C5B20C2C06D0102CF8
:105020000BD0182C0ED0202C18D112E005EB450027
:105030002D4901EB8000009012E02C4800EB051098
:1050400000900DE005EBC500294901EB80000090C0
:1050500006E0284800EB8510009001E0BDE8FC8FD9
:1050600000BF00273AE0009810F807904FF0000AC0
:105070002EE009F0800028B1314640460C9AFDF739
:1050800017FA07E00B9828B91B48314602684046DA
:10509000FDF70EFA4FEA49604FEA1069701C86B2BC
:1050A00016484088B04200DCD8E7A6EB0B00A042CF
:1050B0000AD15E4608F101001FFA80F80F48008807
:1050C000404500DCCAE706E00AF1010000F0FF0AF3
:1050D000BAF1080FCDDB00BF781CC7B20198874238
:1050E000C1DB00BFBAE70000FC7B0008708000084D
:1050F00060860008BC9300084000002034020020B5
:105100002DE9FC4F04460D4690469946DDE90C7AA0
:105110000B9E04F0FF0B08EB04001FFA80F809EB6C
:1051200005001FFA80F917E0444502DB5C46A81928
:1051300085B24D4500DB15E00020CDE9000A3A7844
:10514000334629462046FFF73BFF304606EBD07139
:1051500004EB61018CB27F1C38787E2802DC387841
:105160002028E1DA00BFBDE8FC8F2DE9FF4F85B0B4
:10517000064693461F46DDE91389129C00200490E1
:10518000002550E0781B401EC1B20A20FFF75AFDEF
:10519000BBFBF0F00A21B0FBF1F201FB120A04980C
:1051A00060BB781EA84229DDBAF1000F24D108F0B7
:1051B000800080B108F0010004EBD471491001FBBC
:1051C0000561CDE90009039488B22346302206998F
:1051D000FFF7F6FE0FE008F0010004EBD471491070
:1051E00001FB0561CDE90009039488B22346202222
:1051F0000699FFF7E5FE14E00120049008F0010095
:1052000004EBD471491001FB0561CDE90009039459
:1052100088B20AF13001CAB223460699FFF7D0FEE0
:1052200000BF681CC5B2BD42ACDB09B0BDE8F08F61
:105230002DE9F0470446BE2000F030F8052000F0CC
:1052400021F8204602F0BDFB07464FF066320C4BBA
:1052500002F0CAFB054602F087FB1FFA80F94846B8
:1052600000F010F8012000F00DF8FF2000F00AF81F
:10527000002000F007F8002000F004F8BDE8F087F7
:105280006666044001B5BDF800000090BDF800005E
:105290000149088008BD00000008006C01B5BDF898
:1052A00000000090BDF800000149088008BD000022
:1052B000FE07006C02480089024908807047000020
:1052C00034020020FE07006C024A1080921C1180FC
:1052D00070470000FE07006C00B585B000BF00BF3E
:1052E0001E48806940F008001C49886108468069B2
:1052F00000F00800009000BF00BF00BF00BF00BF6B
:105300000846806940F0400088610846806900F0E6
:105310004000009000BF00BF00BF2020019001208E
:10532000029003900320049001A90D48FBF78CFB29
:105330002020019001A90B48FBF786FB00BF01224A
:1053400020210748FBF732FD00BF00BF01222021CA
:105350000448FBF72BFD00BF05B000BD0010024064
:10536000000C01400018014010B5FBF737FD4FF469
:10537000E01000F003FF4820FCF704FE4FF4E1309A
:1053800000F0E0FFFFF7A8FFFFF78AFAFCF7DCFE6A
:10539000002000F005F8FCF75BFE002010BD0000C7
:1053A00030B504460225084951F8241001FB05F2E6
:1053B000064951F82400002100F02AF80121034891
:1053C0000830015530BD00007CAB000858000020BB
:1053D00010B501460023002207E00B4850F82100D9
:1053E00030F8120000B15B1C521C084850F8210034
:1053F0009042F2D84FF47A705843044C54F821404C
:10540000B0FBF4F080B210BD580000207CAB000867
:1054100030B5034601E003F8011B141EA2F101029E
:10542000F9D130BD2DE9F04105460E4629480768FF
:1054300000202949096881F8590027480068001DA3
:1054400000F09CFF50B92448006890F82C1001200F
:10545000884022490968814320480160681CD8B906
:10546000D6B11F4948681C49096888601A49826892
:105470000968CA6018490968091D8268516016499F
:105480000968091D8160164A134909684A61114675
:105490000968491C11601AE07C190F4800684460D3
:1054A000BC4207D20C480168091D0E48006800F094
:1054B00089FF0CE008480168091D0B48006800F0EE
:1054C00081FF0A480068844201D208480460BDE8B0
:1054D000F081000078000020640000207C000020A3
:1054E000508500206C0000206800002094000020FF
:1054F00010B5044600F08CFF31480068401C30496C
:1055000008603048006840B92E48046008460068CA
:1055100001280DD100F016FA0AE02B48006838B9CE
:1055200028480068C06AE16A884201D825480460BA
:1055300026480068401C25490860084600686064E9
:1055400094F82C100120884021490968084320491B
:105550000860E16A01EB81011E4A02EB81014868A3
:10556000A0608268E260211D826851608160E16A0A
:1055700001EB8101174A02EB81026261E16A01EBF2
:105580008101144A52F82110491CE26A02EB82029E
:10559000104B43F8221000F085FF0B48006868B1FB
:1055A00008480068C06AE16A884207D24FF080501C
:1055B00009490860BFF34F8FBFF36F8F10BD000024
:1055C0007400002064000020800000209000002073
:1055D0007C0000208082002004ED00E010B500F087
:1055E00017FF10480068D0B90F4800F0DBFE0F48E5
:1055F00000F0D8FE0C480E4908600C480D490860C0
:1056000000221021052001F05DFB064908600846D4
:10561000006820B108A10348006801F003F800F019
:1056200041FF10BDAC00002064850020788500207B
:10563000A4000020A8000020546D7251000000005A
:1056400010B516E000F0E4FE0C48C068C468201DE8
:1056500000F094FE0A480068401E094908600948A5
:105660000068401E0749086000F01CFF204600F05B
:105670005FF8044800680028E4D110BD3C85002094
:10568000740000207000002070B504460D46206CA8
:1056900070B1216CE0680144E160D4E902108842F5
:1056A00001D32168E1602846226CE168FAF7D8FE50
:1056B00070BD2DE9F04104460F4615464FF0000835
:1056C000A66B206C48B9206800282CD1A06801F096
:1056D0000DFF80460020A06025E07DB93946226C90
:1056E0006068FAF7BDFE216C606808446060D4E928
:1056F0000101884217D32068606014E03946226CAB
:10570000E068FAF7ADFE216CE068411AE1602168BB
:10571000E068884203D2216CA068411AE160022D42
:1057200001D106B1761E701CA0634046BDE8F08131
:1057300010B50446206B00F0F3FE204600F0F0FEAA
:1057400010BD00000146084A126812680AB9012219
:1057500000E000220A600A6822B9034A1268D2688F
:10576000106800E000207047A400002030B54FF41E
:105770002053174800F007042CB1C01D20F007008B
:10578000134C041B1B1B0246124C22600024114DBB
:105790006C60D018083820F007000F4C20600024FF
:1057A0000D4D2D686C600C4D2D682C601146441A0F
:1057B0004C60094C24680C60084D4C682C60084D06
:1057C0004C682C604FF00044064D2C6030BD00004A
:1057D0008C850020B8000020C0000020C8000020F8
:1057E000C4000020D400002000BFFFF729FF0648B6
:1057F00000680128F9D94FF0805004490860BFF3D0
:105800004F8FBFF36F8FF0E78082002004ED00E040
:105810002DE9F04106460D4617469846069C0DB9FF
:10582000246000E02760E66325640121204601F042
:1058300091FA84F850800020A064BDE8F081000057
:105840002DE9F05F82460F4690469B460A9E0C9CCF
:105850004FEA8801A522206BFAF747FEA8F1010064
:10586000216B01EB800929F0070909F0070008B94D
:10587000012000E0002028B94FF4587224A12DA087
:10588000FAF71CFD87B1002507E0795D04F13400CB
:105890004155785D00B902E06D1C102DF5D300BFB5
:1058A00000214320015502E0002084F83400202E1E
:1058B00001D2012000E0002028B940F2973214A163
:1058C0001CA0FAF7FBFC202E00D31F26E662E6643C
:1058D00000202065201D00F072FD04F1180000F08A
:1058E0006EFD2461C6F12000A06164620020606545
:1058F00084F8580084F859005A465146484600F04A
:10590000F9FB20600B9808B10B980460BDE8F09F8C
:105910002E2E5C2E2E5C4D6964646C657761726519
:10592000735C4672656552544F535C7461736B735C
:105930002E6300004572726F723A2025732C202569
:10594000640D0A0010B5002407E004EB84010F4A3F
:1059500002EB810000F026FD641C202CF5D30C48DE
:1059600000F020FD0B4800F01DFD0B4800F01AFD73
:105970000A4800F017FD0A4800F014FD04480949E0
:10598000086004480849086010BD000080820020BB
:105990000085002014850020288500203C850020FB
:1059A00050850020680000206C00002010B50146E2
:1059B000164800E0006803688B42FBD30246436848
:1059C00013448B4204D143684C682344436001462E
:1059D0000A464B6813440468A34211D10C4C036877
:1059E0002468A34208D04B680468646823444B6071
:1059F00003681B680B6005E0054B1B680B6001E04A
:105A000003680B60884200D0016010BDB800002020
:105A1000C00000202DE9F04104460D4616461F4601
:105A20004FF0000865602461B5420CD8F01BA169F5
:105A3000884202D34FF0010811E0211D0948006897
:105A400000F0C0FC0BE0BE4204D2BD4202D34FF0D6
:105A5000010804E0211D0448006800F0B3FC404642
:105A6000BDE8F081A8000020A400002070B5054624
:105A700000F0CEFCA86B08B9012400E0002400F07F
:105A800011FD204670BD0000F1B50098846C002621
:105A90002CB940F6D53220A128A0FAF70FFCA06B54
:105AA000E16B884201D2012000E0002028B940F6D5
:105AB000D63219A121A0FAF701FCA06BE16B884254
:105AC00027D294F94550002269462046FFF7F1FDA0
:105AD0000646681C60B9606A08B9012000E0002031
