:020000040800F2
:10000000F0B3002079020008731D00086B1D000882
:100010006F1D000899070008E52000080000000097
:10002000000000000000000000000000E1010008E6
:100030009D07000800000000250200089D1D000823
:10004000930200089302000893020008930200083C
:10005000930200089302000893020008930200082C
:10006000930200089302000893020008930200081C
:10007000930200089302000893020008930200080C
:1000800093020008930200089302000893020008FC
:1000900093020008930200089302000893020008EC
:1000A00093020008930200089302000893020008DC
:1000B00093020008B51D000893020008930200088F
:1000C00093020008930200089302000893020008BC
:1000D00093020008C1200008930200089302000860
:1000E000930200089302000893020008930200089C
:1000F000930200089302000893020008930200088C
:100100009302000893020008C51D0008930200082E
:10011000930200089302000893020008930200086B
:10012000930200089302000893020008930200085B
:1001300000F002F800F045F80AA090E8000C8244B4
:100140008344AAF10107DA4501D100F03AF8AFF291
:10015000090EBAE80F0013F0010F18BFFB1A43F0A5
:1001600001031847B4A60000D4A60000103A24BF2B
:1001700078C878C1FAD8520724BF30C830C144BF0C
:1001800004680C607047000000230024002500264E
:10019000103A28BF78C1FBD8520728BF30C148BFEA
:1001A0000B607047642900F0F380782900F02C81FF
:1001B000732900F05182002070471FB51FBD10B594
:1001C00010BD00F0B7FA1146FFF7F7FF05F06EF823
:1001D00000F0D5FA03B4FFF7F2FF03BC01F0A0FF73
:1001E000224B19680868B0E8F00F80F30988BFF364
:1001F0006F8F4FF0000080F311884EF00D0E7047A6
:100200000000000006480068006880F3088862B6B5
:1002100061B6BFF34F8FBFF36F8F00DF00BF00BF2A
:1002200008ED00E0EFF30980BFF36F8F0F4B1A6802
:1002300020E9F00F106008B54FF0500080F31188EE
:10024000BFF34F8FBFF36F8F06F03CFB4FF0000002
:1002500080F31188BDE8084019680868B0E8F00F1D
:1002600080F30988BFF36F8F704700BF48000020FC
:10027000EFF30580704700000948804709480047B0
:10028000FEE7FEE7FEE7FEE7FEE7FEE7FEE7FEE746
:10029000FEE7FEE704480549054A064B70470000A3
:1002A000B11D000831010008F0AD0020F0B30020BE
:1002B000F0AF0020F0AF0020704700000FB40449F9
:1002C00010B503AA029800F0CBF910BC5DF814FB3E
:1002D000100000202DE9F0410E4604460020206267
:1002E0002046E168884730B3252805D0D4E90121AC
:1002F0009047206A401CF2E7E168204600278847C3
:10030000050018D0A5F14100192802D820354FF476
:1003100000673246294620462760FFF743FF40B179
:10032000012804D0F61D26F007060836D8E7361D4A
:10033000D6E72846DAE7206ABDE8F08170B50C46BA
:100340000546012A05D02878800600D5EA690023F1
:1003500002E0012305E05B1C934202D2E05C00282E
:10036000F9D1A869E618C01AA861286A1844286259
:100370002846AFF3008004E0D5E9012114F8010B11
:100380009047B442F8D32846AFF3008070BD000018
:100390002DE9F0410646002410687529314616A55E
:1003A00010D0AFF30080002802DA404213A507E026
:1003B00031688A0701D512A502E0490704D511A5C5
:1003C000012401E0AFF3008000210A2206F1240796
:1003D00009E0B0FBF2FCB0FBF2F302FB1C00303092
:1003E00078541846491C0028F3D123462A46304643
:1003F000BDE8F04100F0ACB8000000002D000000A6
:100400002B0000002000000070B504460D46214678
:100410001068AFF300802188090502D50F4A7A449D
:1004200002E00E4A7A440E32002104F1240305E072
:1004300000F00F060009965D5E54491C0028F7D1B4
:1004400020780023000704D5702D02D009B10223C3
:1004500011322046BDE8704000F07AB8CEA300000B
:10046000032A40F2308010F0030C00F0158011F8E0
:10047000013BBCF1020F624498BF11F801CB00F8B8
:10048000013B38BF11F8013BA2F1040298BF00F80C
:1004900001CB38BF00F8013B11F0030300F0F280FC
:1004A000083AC0F0088051F8043B083A51F804CBF0
:1004B000A0E80810F5E7121D5CBF51F8043B40F8B6
:1004C000043BAFF30080D20724BF11F8013B11F8C1
:1004D00001CB48BF11F8012B24BF00F8013B00F805
:1004E00001CB48BF00F8012B704702F0FF0343EA3D
:1004F000032242EA024200F0F9B84FF0000200B5D0
:10050000134694469646203922BFA0E80C50A0E836
:100510000C50B1F12001BFF4F7AF090728BFA0E8E4
:100520000C5048BF0CC05DF804EB890028BF40F8B0
:10053000042B08BF704748BF20F8022B11F0804FF2
:1005400018BF00F8012B704770477047704770471D
:100550002DE9F0470D4699469246044600F12408DD
:100560000168880604D5E06921F01001216000E0EF
:100570000120A84201DD471B00E00027A1697A198C
:1005800002EB0900081AA0612078C00602D42046B8
:10059000AFF30080002608E0D4E901211AF8060034
:1005A0009047206A401C761C20624E45F4DB207880
:1005B000C0060AD52046AFF3008006E0D4E9012149
:1005C00030209047206A401C2062381EA7F10107A6
:1005D000F4DC07E0D4E9012118F805009047206A0F
:1005E000401C2062281EA5F10105F3DC2046AFF374
:1005F00000802078000602D50220BDE8F0870120A7
:10060000FBE7000001694A1C02610878704700B5E9
:100610008FB0CDE901310021059105497944CDE93B
:10062000031011466846FFF755FE0FB000BD0000ED
:10063000E5FFFFFF10B5436913B1AFF3008001E0A0
:10064000FFF77CFE012010BD127800F124010A7032
:1006500000224A700122EDE711684FF0FF32E9E70E
:10066000074B70B50D467B44FFF7D1FF0446284683
:1006700000F05CF810B14FF0FF3070BD204670BD47
:100680002B1C000010B5203AC0F00B80B1E81850C8
:10069000203AA0E81850B1E81850A0E81850BFF46C
:1006A000F5AF5FEA027C24BFB1E81850A0E818500B
:1006B00044BF18C918C0BDE810405FEA827C24BF5F
:1006C00051F8043B40F8043B08BF7047D20728BFED
:1006D00031F8023B48BF11F8012B28BF20F8023B3C
:1006E00048BF00F8012B70474FF000020429C0F00A
:1006F000128010F0030C3FF402AFCCF1040CBCF1FB
:10070000020F18BF00F8012BA8BF20F8022BA1EBA5
:100710000C01FFF7F4BE5FEAC17C24BF00F8012B97
:1007200000F8012B48BF00F8012B7047007B00F058
:1007300080007047754600F02BF8AE46050069460C
:10074000534620F00700854618B020B5FFF7A2FDFC
:10075000BDE820404FF000064FF000074FF00008C2
:100760004FF0000B21F00701AC46ACE8C009ACE843
:10077000C009ACE8C009ACE8C0098D46704710B5A7
:100780000446AFF300802046BDE81040FFF722BDCD
:10079000004870478CAD002000BFFEE770470000A6
:1007A00070B50446B3F5804F13D1D1E9000540EA96
:1007B00005108D6840EA05208D6928438D8940EA3F
:1007C000054054F82250064E3540284344F8220094
:1007D00003E06FF0704044F82200002070BD00007C
:1007E0000000F0CF70B50246086852F8200020F0F3
:1007F00001000E6842F826008868082801D14023CD
:1008000000E00023486818438E683043CE683043C8
:100810000E6930434E693043CE6930430E6A30432F
:100820004E6A30438E6A3043CE6A30430E6B40EAE4
:10083000060488690443486B0443074D45F480650A
:1008400045F4E025086852F82000A84320430E68CC
:1008500042F82600002070BD7FFB080010B503465B
:10086000D1E9000440EA04108C6840EA04208C8935
:1008700040EA0444088A401E44EA0054087D801E71
:1008800044EA00608C692043541C53F8244004F06F
:1008900040442043541C43F82400002010BD0000B5
:1008A00070B50446002594F82100022803D00420E6
:1008B000A0630125C1E02068006820F00E002168D7
:1008C00008602068006820F00100216808605C4929
:1008D0002068884252D95A4978392068884201D123
:1008E000012047E0564964392068884201D1102030
:1008F00040E0534950392068884201D1801539E0E1
:100900004F493C392068884201D1801432E04C497B
:1009100028392068884202D14FF480302AE04849C3
:1009200014392068884202D14FF4801022E04449F3
:100930002068884201D140041CE042492068884276
:1009400001D1012016E03F4914312068884201D1CD
:1009500010200FE03B4928312068884201D18015E2
:1009600008E038493C312068884201D1801401E018
:100970004FF480303349091F086051E0304978391D
:100980002068884201D1012047E02D496439206860
:10099000884201D1102040E029495039206888421E
:1009A00001D1801539E026493C392068884201D1BF
:1009B000801432E0224928392068884202D14FF45D
:1009C00080302AE01E4914392068884202D14FF451
:1009D000801022E01A492068884201D140041CE0BE
:1009E00018492068884201D1012016E015491431C8
:1009F0002068884201D110200FE012492831206878
:100A0000884201D1801508E00E493C3120688842B7
:100A100001D1801401E04FF48030094980394860E9
:100A2000012084F8210000BF002084F8200000BFCE
:100A3000606B10B12046616B8847284670BD00008E
:100A400080000240080402402DE9F84702460023D6
:100A50009C467BE14FF0010808FA03F4D1F80080CE
:100A600008EA0400A0427DD1DFF8F4A2D1F80480A6
:100A7000A8EB0A09D0453AD014DCB8F1030F50D0E6
:100A800009DCB8F1000F31D0B8F1010F1CD0B8F17A
:100A9000020F49D120E0B8F1110F18D0B8F1120FB0
:100AA00042D11EE0B9F5881F25D006DCB9F5803F9C
:100AB00020D0B9F5801F37D11AE0B9F5001F18D042
:100AC000B9F5041F30D117E0D1F80CC02DE0D1F8F2
:100AD0000C8008F1040C28E0D1F80C8008F1080C17
:100AE00023E0D1F80C8008F10C0C1EE000BF00BF21
:100AF00000BF00BF00BF00BFD1F80880B8F1000FF1
:100B000002D14FF0040C0BE0D1F80880B8F1010FCE
:100B100003D14FF0080C146102E04FF0080C54614F
:100B200003E04FF0000C00E000BF00BFFF2801D839
:100B3000904601E002F104084646FF2802D84FEA39
:100B4000830803E0A3F108084FEA88084746D6F86F
:100B500000804FF00F0909FA07F928EA09080CFA92
:100B600007F900E07AE048EA0908C6F80080D1F801
:100B7000048008F08058B8F1805F6FD100BFDFF8C3
:100B8000E481D8F8188048F00108DFF8D891C9F856
:100B90001880C846D8F8188008F00108CDF8008001
:100BA00000BF00BF4FEAB9384FEA930958F82950FF
:100BB0004FEA83784FEA18794FF00F0808FA09F8DE
:100BC00025EA0805DFF8A081424502D14FF0000870
:100BD00024E0DFF89881424502D14FF001081DE082
:100BE000DFF88C81424502D14FF0020816E0DFF8B1
:100BF0008481424502D14FF003080FE0DFF878818D
:100C0000424502D14FF0040808E0DFF87081424508
:100C100002D14FF0050801E04FF006084FEA837952
:100C20004FEA197908FA09F848EA0505DFF8508112
:100C30004FEA930948F82950D1F8048008F4803825
:100C4000B8F5803F0BD1DFF83C81D8F8008048EA46
:100C50000008DFF83091C9F800800AE075E0DFF89D
:100C60002481D8F8008028EA0008DFF81891C9F834
:100C70000080D1F8048008F40038B8F5003F0ED1A8
:100C8000DFF8008108F10408D8F8008048EA00087D
:100C9000DFF8F09009F10409C9F800800DE0DFF8F1
:100CA000E48008F10408D8F8008028EA0008DFF89A
:100CB000D49009F10409C9F80080D1F8048008F43F
:100CC0008018B8F5801F0ED1DFF8B88008F1080849
:100CD000D8F8008048EA0008DFF8A89009F1080970
:100CE000C9F800800DE0DFF89C8008F10808D8F80A
:100CF000008028EA0008DFF88C9009F10809C9F89B
:100D00000080D1F8048008F40018B8F5001F0ED157
:100D1000DFF8708008F10C08D8F8008048EA000875
:100D2000DFF8609009F10C09C9F800800DE0DFF8E8
:100D3000548008F10C08D8F8008028EA0008DFF891
:100D4000449009F10C09C9F800805B1CD1F80080BF
:100D500028FA03F8B8F1000F7FF47CAEBDE8F887FD
:100D6000000011100010024000080140000C01407A
:100D7000001001400014014000180140001C014017
:100D800008000140000401400AB1016101E00B04C8
:100D90000361704701480068704700001800002098
:100DA000034800680349097808440149086070470E
:100DB000180000202000002010B50848006840F00E
:100DC000100006490860032000F080F80F2000F0B2
:100DD00007F800F02BF8002010BD000000200240B2
:100DE00070B504460E4800784FF47A71B1FBF0F00C
:100DF0000C490968B1FBF0F5284600F073FC08B116
:100E0000012070BD102C07D200222146501E00F098
:100E10001EF80548046001E00120F2E70020F0E739
:100E200020000020000000201C0000207047014628
:100E30000846002809DB00F01F0301229A404309FD
:100E40009B0003F1E023C3F8002100BF70472DE9A8
:100E5000F05F80460D461646002701F045F907462B
:100E600039462A46334601F00700C0F1070ABAF1B5
:100E7000040F02D94FF0040A01E0C0F1070AD1467D
:100E800000F1040ABAF1070F02D24FF0000A01E0A4
:100E9000A0F1030AD4464FF0010A0AFA09FAAAF1AE
:100EA000010A0AEA020A0AFA0CFA4FF0010B0BFADD
:100EB0000CFBABF1010B0BEA030B4AEA0B042146D6
:100EC000404601F019F9BDE8F09F000000BF00F0B6
:100ED0000702064B19684FF6FF031940044B0B43FA
:100EE00043EA0221014B196000BF70470CED00E09E
:100EF0000000FA0570B504460D460CB9012070BD1E
:100F00005A48006800F00700A8420ED2574800680F
:100F100020F007002843554908600846006800F0A3
:100F20000700A84201D00120E9E7207800F0020084
:100F300002281DD1207800F00400042805D14C4877
:100F4000406840F4E0604A494860207800F00800BA
:100F5000082805D14648406840F46050444948603C
:100F60004348406820F0F000A168084340494860C9
:100F7000207800F0010078B36068012806D13C4871
:100F8000006800F4003090B90120B8E760680228DA
:100F900006D13748006800F0007040B90120AEE784
:100FA0003348006800F0020008B90120A7E7304884
:100FB000406820F00300616808432D494860FFF74E
:100FC000E9FE064609E0FFF7E5FE801B41F28831A5
:100FD000884202D9032092E707E02548406800F0E4
:100FE0000C006168B0EB810FEDD12048006800F083
:100FF0000700A8420ED91D48006820F007002843CA
:101000001A4908600846006800F00700A84201D0AD
:10101000012074E7207800F00400042807D1144868
:10102000406820F4E060E168084311494860207896
:1010300000F00800082808D10D48406820F46050EE
:10104000216940EAC1000A49486000F03FF80849B8
:101050004968C1F30311074A515CC840064908605A
:1010600006480068FFF7BCFE002048E70020024069
:101070000010024040780008000000201C00002002
:1010800001480068704700000000002000B5FFF72D
:10109000F7FF04494968C1F30221034A515CC84083
:1010A00000BD0000001002405078000800B5FFF7B6
:1010B000E7FF04494968C1F3C221034A515CC840B3
:1010C00000BD00000010024050780008F0B585B067
:1010D0000FF26C0C9CE8E01001A8A0E8E0101CA541
:1010E0002D68009500210022002300240020194DC6
:1010F000696801F00C05F5B1042D02D0082D19D155
:1011000001E0154819E001ADC1F38346AC5D01F47F
:10111000803555B10F4D6D68C5F340451DF805206C
:101120000D4D6543B5FBF2F302E00C4D04FB05F3F6
:10113000184602E000BF084800BF00BF05B0F0BD80
:1011400002030405060708090A0B0C0D0E0F101008
:10115000010200000010024000127A0000093D0068
:10116000F8B504460CB90120F8BD207800F0010064
:10117000002878D0F848406800F00C0004280CD013
:10118000F548406800F00C00082811D1F24840688A
:1011900000F48030B0F5803F0AD1EF48006800F4D9
:1011A000003000285FD0606800285CD10120DBE7B8
:1011B00000BF6068B0F5803F06D1E748006840F4A2
:1011C0008030E549086028E0606858B9E248006866
:1011D00020F48030E04908600846006820F4802050
:1011E00008601AE06068B0F5A02F0BD1DA480068FB
:1011F00040F48020D84908600846006840F48030F8
:1012000008600AE0D448006820F48030D2490860C1
:101210000846006820F48020086000BF606888B13C
:10122000FFF7B8FD054606E0FFF7B4FD401B642854
:1012300001D9032098E7C848006800F4003000286E
:10124000F2D010E0FFF7A6FD054606E0FFF7A2FD8D
:10125000401B642801D9032086E7BF48006800F4DA
:1012600000300028F2D1207800F00200022857D187
:10127000B948406800F00C0050B1B748406800F031
:101280000C00082818D1B448406800F4803098B9A0
:10129000B148006800F0020020B12069012801D0A7
:1012A000012061E7AC48006820F0F800616940EA7D
:1012B000C100A949086033E02069E8B10120A749CD
:1012C0000860FFF767FD054606E0FFF763FD401B7A
:1012D000022801D9032047E79F48006800F0020078
:1012E0000028F2D09C48006820F0F800616940EACC
:1012F000C1009949086013E0002098490860FFF791
:1013000049FD054606E0FFF745FD401B022801D9CF
:10131000032029E79048006800F002000028F2D17D
:10132000207800F0080008282DD1A069B8B101206C
:101330008B490860FFF72EFD054606E0FFF72AFD02
:10134000401B022801D903200EE78348406A00F0C1
:1013500002000028F2D0012000F00CFD13E0002074
:101360007F490860FFF716FD054606E0FFF712FD0E
:10137000401B022801D90320F6E67748406A00F0B6
:1013800002000028F2D1207800F00400042873D174
:1013900000277148C06900F0805070B900BF6E48E6
:1013A000C06940F080506C49C8610846C06900F0CF
:1013B0008050009000BF00BF01276A48006800F419
:1013C0008070B0B96748006840F480706549086073
:1013D000FFF7E0FC054606E0FFF7DCFC401B642855
:1013E00001D90320C0E65F48006800F4807000283F
:1013F000F2D000BFE068012806D15748006A40F0EB
:1014000001005549086227E0E06858B95248006A6F
:1014100020F00100504908620846006A20F00400EC
:10142000086219E0E06805280BD14B48006A40F0DB
:101430000400494908620846006A40F00100086259
:101440000AE04548006A20F0010043490862084666
:10145000006A20F00400086200BFE068A0B1FFF756
:1014600099FC054609E0FFF795FC401B41F28831E5
:10147000884202D9032077E622E03748006A00F06C
:1014800002000028EFD012E0FFF784FC054608E0D8
:10149000FFF780FC401B41F28831884201D90320CC
:1014A00062E62D48006A00F002000028F0D1012F0A
:1014B00005D12948C06920F080502749C86100BF84
:1014C000E069C8B32448406800F00C00082860D0E8
:1014D000E069022848D1002020490866FFF75AFC3D
:1014E000054606E0FFF756FC401B022801D9032001
:1014F0003AE61948006800F000700028F2D1206A2E
:10150000B0F5803F07D11448406820F40030A1684E
:10151000084311494860D4E9080108430E49496865
:1015200021F4741108430C49486001200B490866F6
:10153000FFF730FC054607E03DE0FFF72BFC401BC2
:10154000022801D903200FE60348006800F000706C
:101550000028F2D02FE000000010024000004242BC
:101560008004424200700040002014490866FFF7E2
:1015700011FC054606E0FFF70DFC401B022801D9CF
:101580000320F1E50E48006800F000700028F2D159
:1015900011E0E069012800D1E6E50948466806F453
:1015A0008031206A814204D106F47011606A814260
:1015B00001D00120D8E50020D6E50000000042421D
:1015C0000010024070B504460E4615461CB1A069D5
:1015D000B0F5807F01D1012070BD94F8410028B999
:1015E000002084F84000204600F020F804F10801B3
:1015F0002068FFF7F7F83146A2682068FFF72EF958
:101600002946236BD4E90102FFF7CAF8A1682068D4
:1016100050F8210040F00100A268216841F8220042
:10162000012084F841000020D6E7000010B586B004
:10163000044600BF1E48406940F480701C49486160
:101640000846406900F48070019000BF00BF00BFF1
:101650000846806940F0200088610846806900F0F3
:101660002000019000BF00BF00BF0846806940F025
:10167000400088610846806900F04000019000BF8A
:1016800000BF4CF2037002900220039001200490EE
:101690000320059002A90748FFF7D6F94FF680709E
:1016A000029002A90448FFF7CFF906B010BD000070
:1016B000001002400014014000180140042808D125
:1016C0004FF0E021096941F004014FF0E02211617F
:1016D00007E04FF0E021096921F004014FF0E0221A
:1016E0001161704770B504462546681EB0F1807FD1
:1016F00001D301200FE0681E4FF0E02148610F2167
:101700004FF0FF3000F0F8FC00204FF0E02188613E
:1017100007200861002070BD7047704710B504466F
:101720000CB9012010BD94F83D0028B9002084F8C0
:101730003C00204600F025F8022084F83D00211DE1
:10174000206800F047FB012084F8460000BF84F8C1
:101750003E0001213F200155402001554120015507
:1017600000BF00BF012084F84200432001554420FF
:1017700001554520015500BF012084F83D0000209F
:10178000D0E77047014691F83D00012801D00120C3
:101790007047022081F83D000868C06840F00100F1
:1017A0000B68D860164B0868984213D0154B086830
:1017B00098420FD00868B0F1804F0BD0124B0868E8
:1017C000984207D0114B0868984203D0104B086824
:1017D00098420CD10868806800F00702062A0CD0F5
:1017E0000868006840F001000B68186005E00868B0
:1017F000006840F001000B6818600020C8E7000096
:10180000002C01400034014000040040000800406A
:10181000000C0040704710B5044620680069C0F312
:101820004000D8B12068C068C0F34000B0B16FF08C
:10183000020021680861012020772068806900F09B
:10184000030018B12046FFF7E5FF05E0204600F051
:10185000ADF8204600F0ABF8002020772068006942
:10186000C0F38000D8B12068C068C0F38000B0B178
:101870006FF00400216808610220207720688069E9
:1018800000F4407018B12046FFF7C4FF05E0204681
:1018900000F08CF8204600F08AF8002020772068BD
:1018A0000069C0F3C000D8B12068C068C0F3C000B0
:1018B000B0B16FF00800216808610420207720682B
:1018C000C06900F0030018B12046FFF7A3FF05E050
:1018D000204600F06BF8204600F069F800202077E1
:1018E00020680069C0F30010D8B12068C068C0F358
:1018F0000010B0B16FF01000216808610820207757
:101900002068C06900F4407018B12046FFF782FFDC
:1019100005E0204600F04AF8204600F048F8002094
:1019200020772068006900F0010058B12068C06885
:1019300000F0010030B16FF001002168086120461D
:1019400000F036F820680069C0F3C01058B1206874
:10195000C068C0F3C01030B16FF08000216808612A
:101960002046FFF7D9FE20680069C0F3801058B107
:101970002068C068C0F3801030B16FF0400021686B
:101980000861204600F034F820680069C0F3401078
:1019900058B12068C068C0F3401030B16FF020002B
:1019A000216808612046FFF7B8FE10BD70477047F8
:1019B00010B504460648844203D106A0FEF77EFC1B
:1019C00005E00748844202D106A0FEF777FC10BD6F
:1019D0002802002054494D33CAE4B3F60D0A000032
:1019E0007002002054494D35CAE4B3F60D0A0000D8
:1019F000704770472DE9F047044620680568206865
:101A0000C668206847694FF00008C14605F00F0816
:101A1000B8F1000F0AD105F0200038B106F020001F
:101A200020B1204600F04EFABDE8F087B8F1000F73
:101A300071D007F0010018B906F4907000286AD040
:101A400005F0010030B106F4807018B1E06B40F091
:101A50000100E06305F0040030B107F0010018B1A7
:101A6000E06B40F00200E06305F0020030B107F0E7
:101A7000010018B1E06B40F00400E06305F00800DD
:101A800048B106F0200010B907F0010018B1E06B72
:101A900040F00800E063E06B68B305F0200028B177
:101AA00006F0200010B1204600F00CFA20684069D2
:101AB000C0F38019E06B00F0080010B9B9F1000F15
:101AC00022D0204600F0DEF92068406900F0400096
:101AD000B0B12068406920F0400021684861606B27
:101AE00050B11848616B4863606BFEF7D9FE10B1C6
:101AF000606B416B88470CE02046FFF77AFF08E0F7
:101B00002046FFF776FF04E02046FFF772FF002033
:101B1000E06389E7FFE705F0800030B106F0800060
:101B200018B1204600F09CFA7EE705F0400030B185
:101B300006F0400018B1204600F0B4F974E700BF89
:101B400072E70000711E000810B504460CB90120B0
:101B500010BDA06900B100E000BF94F8390028B9B9
:101B6000002084F83800204600F028F8242084F86B
:101B700039002068C06820F400502168C860204601
:101B800000F0F0F92068006920F4904021680861B5
:101B90002068406920F02A00216848612068C068F8
:101BA00040F400502168C8600020E063202084F8E1
:101BB000390084F83A000020CAE7000010B586B06A
:101BC00004462849206888424AD100BF00BF264801
:101BD000806940F00400244988610846806900F06B
:101BE0000400019000BF00BF00BF00BF00BF084657
:101BF000806940F0040088610846806900F00400B4
:101C0000019000BF00BF00BF00BF00BF0846806951
:101C100040F4804088610846806900F4804001906B
:101C200000BF00BF00BF48150290022003900120B2
:101C300004900320059002A90C48FEF705FF4FF41D
:101C4000806002900020039002A90848FEF7FCFE85
:101C50002520FFF7ECF8032211462520FFF7F7F8BF
:101C600006B010BD003801400010024000080140DD
:101C700010B5034693F83A0020282FD101B10AB9D4
:101C8000012010BD00BF93F83800012801D10220C7
:101C9000F7E7012083F8380000BF99629A85DA855A
:101CA0000020D863222083F83A0000BF002083F888
:101CB000380000BF1868C06840F480701C68E0609D
:101CC0001868406940F001001C6860611868C068CD
:101CD00040F020001C68E0600020D2E70220D0E73E
:101CE0001D4A0168914236D11C49098801F400411E
:101CF00089BB1A49098801F4804171B118490978F2
:101D00000A2903D00021154A118024E013490988CB
:101D100041F40041114A11801DE0114909780D2953
:101D200006D10E49098841F480410C4A118012E025
:101D30000B490978094A1288C2F30D02094B9954DC
:101D400006490988491C054A118011460988C72996
:101D500001DD00211180704700380140140000208F
:101D600016000020C8000020704700BFFEE700BF3B
:101D7000FEE7704708B508490968C9084FF47A7248
:101D8000B1FBF2F14143009100BF00BF00994A1E30
:101D900000920029F9D108BD0000002010B5FEF71F
:101DA000FFFF05F0C7F8012801D004F08DFE10BD3B
:101DB0007047000010B50248FFF72DFD10BD000070
:101DC0002802002010B50248FFF725FD10BD0000D5
:101DD0007002002010B50268204B98420ED0204BB4
:101DE00098420BD0B0F1804F08D01E4B984205D0DE
:101DF0001D4B984202D01D4B984203D122F0700235
:101E00004B681A43154B98420ED0154B98420BD095
:101E1000B0F1804F08D0134B984205D0124B984236
:101E200002D0124B984203D122F44072CB681A437D
:101E300022F080034C6943EA040202608B68C362AB
:101E40000B688362054B984202D0054B984201D142
:101E50000B6903630123436110BD0000002C0140A6
:101E6000003401400004004000080040000C004025
:101E700070B505466C6A0020E085E0842046FFF7D7
:101E8000B8FD70BD0168C96821F490710268D16025
:101E90000168496921F0010102685161202180F83F
:101EA0003A10704710B504462068C06820F0400022
:101EB0002168C860202084F839002046FFF754FFCD
:101EC000002010BD70B5044694F83A00222847D18E
:101ED000A068B0F5805F0CD1206950B90025A66AD2
:101EE00020684068C0F308003080A06A801CA062AF
:101EF00015E0A56A0026A068B0F5805F03D0A06851
:101F000028B9206918B920684068287004E0206862
:101F1000406800F07F002870A06A401CA062E08D3D
:101F2000401E80B2E085C8B92068C06820F020005B
:101F30002168C8602068C06820F480702168C8608B
:101F40002068406920F0010021684861202084F861
:101F50003A002046FFF7C4FE002070BD0020FCE7D9
:101F60000220FAE770B504462168096921F440515E
:101F7000E2681143226811612269A1681143626914
:101F800041EA02052168C96841F20C629143294384
:101F90002268D1602168496921F44071A269114326
:101FA000226851612D4A2168914202D1FFF77EF8E3
:101FB00001E0FFF76BF800EBC00101EB0011626874
:101FC0009200B1FBF2F100EBC00202EB0012636879
:101FD0009B00B2FBF3F26423B2FBF3F202EBC20309
:101FE00003EB0212A1EB8201322202EB0111642207
:101FF000B1FBF2F101F0F00100EBC00202EB0012C4
:1020000063689B00B2FBF3F26423B2FBF3F201EBD3
:10201000021200EBC00101EB001163689B00B1FBF1
:10202000F3F100EBC00303EB00136668B600B3FBEB
:10203000F6F36426B3FBF6F303EBC30606EB0313D8
:10204000A1EB8301322303EB01116423B1FBF3F114
:1020500001F00F0111442268916070BD0038014009
:10206000014691F83900212828D18868B0F5805FB1
:102070000BD1086948B90A6A1088C0F308000B68D8
:102080005860086A801C086205E00B6A581C0862E8
:1020900018780B685860C88C401E80B2C88458B944
:1020A0000868C06820F080000B68D8600868C068C5
:1020B00040F040000B68D860002070470220FCE729
:1020C00010B50648FFF796FC00BF012204490348FB
:1020D000FFF7CEFD0028F8D110BD000090010020D0
:1020E0001600002000BFFEE702480068C0F302208F
:1020F000704700000CED00E010B5002804DB0A0773
:10210000130E054A135406E00A07140E034A00F0A2
:102110000F031B1FD45410BD00E400E018ED00E0D5
:1021200000BF704738B504460D4600BF00BF1248D7
:10213000C06940F002001049C8610846C06900F05B
:102140000200009000BF00BF00BF0C480C490860AF
:102150000846456000218160C4600161FFF7DEFA36
:10216000002204211D20FEF772FE1D20FEF75FFEF7
:102170000348FFF707FB38BD001002400004004091
:102180002802002038B504460D4600BF00BF1248A3
:10219000C06940F008001049C8610846C06900F0F5
:1021A0000800009000BF00BF00BF0C480C49086049
:1021B0000846456000218160C4600161FFF7AEFA06
:1021C000002206213220FEF742FE3220FEF72FFECB
:1021D0000348FFF7D7FA38BD00100240000C00405A
:1021E0007002002070B5044600204FF0E021086125
:1021F000FFF764FAE11704EB5171C1F3CF010C4A08
:102200001180E11704EB5171CD104FF47A70454302
:102210004FF0E020006940F002004FF0E02108613B
:1022200008464561006940F00100086170BD00008A
:102230000C00002030B50446002504E04FF47A700D
:1022400000F004F86D1CA542F8D330BD70B503460C
:1022500000224FF0E02675690D4E368803FB06F428
:102260004FF0E026B16910E04FF0E026B0698842F7
:102270000BD0884202D20E1A324402E02E1A0E44CB
:1022800032440146A24200D300E0EDE700BF70BD3A
:102290000C00002000BF054A126802F04002002A2C
:1022A000F9D0C2B2014B1B1D1A60704700380140C3
:1022B0000EB54FF4784019A120221346CDE9002134
:1022C0000290DC220A21084602F01EFF4FF47840FB
:1022D00014A118221346CDE900210290DC222F21FF
:1022E0000A2002F011FF4FF4784011A1102213468A
:1022F000CDE900210290DC224C210A2002F004FFEB
:102300000F48012100238022CDE900100DA11048C3
:1023100004F0E0FD04F06CFA0EBD000053544D33A0
:1023200032000000496E74657272757074000000AE
:1023300041544F4D40414C49454E54454B000000DF
:102340000400002073746172745F7461736B000029
:102350005D60000800B585B000BF00BF28488069F7
:1023600040F04000264988610846806900F040003E
:10237000009000BF00BF00BF00BF00BF08468069DB
:1023800040F0400088610846806900F040000090FD
:1023900000BF00BF00BF00BF00BF0846806940F01B
:1023A000040088610846806900F00400009000BFC6
:1023B00000BF00BF10200190002002900120039078
:1023C0000320049001A90F48FEF73EFB082001906E
:1023D00000200290012003900320049001A90948E5
:1023E000FEF732FB012001900020029002200390B2
:1023F0000320049001A90448FEF726FB05B000BDA8
:1024000000100240001801400008014070B5044669
:10241000002609480588408845430021084602F007
:1024200043FD02F0E9FE00BF02E004480480761C90
:10243000AE42FAD370BD0000180200200008006C04
:1024400010B5044649488471002C45D1F020474915
:1024500008804FF4A07048800846808845F21051EB
:10246000884210D14FF43050404908814FF4285031
:1024700048814FF42C5088814FF4F07008804FF45D
:10248000487048801AE03948808841F663118842D4
:102490000DD12C20354908812B2048812A208881A4
:1024A0004FF4F07008804FF44870488006E02C200C
:1024B0002E4908812A2048812B2088812B4880883A
:1024C00045F2103188424CD14FF4A0702749088062
:1024D0004FF4F070488044E04FF4A0702349088026
:1024E000F02048800846808845F21051884210D17B
:1024F0004FF430501D4908814FF4285048814FF463
:102500002C5088814FF4487008804FF4F070488058
:102510001AE01648808841F6631188420DD12C20BC
:10252000124908812A2048812B2088814FF4487065
:1025300008804FF4F070488006E02C200B49088199
:102540002A2048812B2088810848808845F2103154
:10255000884206D14FF4F070044908804FF4A0700F
:102560004880002002F088FB10BD00001802002007
:1025700070B505460E4614463146284602F094FCD6
:1025800002F03AFE01490C8070BD00000008006CAA
:1025900010B5CF2002F024FE002002F015FEC1206D
:1025A00002F012FE302002F00FFEED2002F018FEC5
:1025B000642002F009FE032002F006FE122002F061
:1025C00003FE812002F000FEE82002F009FE8520D3
:1025D00002F0FAFD102002F0F7FD7A2002F0F4FD7F
:1025E000CB2002F0FDFD392002F0EEFD2C2002F0A0
:1025F000EBFD002002F0E8FD342002F0E5FD0220B2
:1026000002F0E2FDF72002F0EBFD202002F0DCFDFD
:10261000EA2002F0E5FD002002F0D6FD002002F0E5
:10262000D3FDC02002F0DCFD1B2002F0CDFDC12057
:1026300002F0D6FD012002F0C7FDC52002F0D0FD5A
:10264000302002F0C1FD302002F0BEFDC72002F0B4
:10265000C7FDB72002F0B8FD362002F0C1FD4820CA
:1026600002F0B2FD3A2002F0BBFD552002F0ACFDB5
:10267000B12002F0B5FD002002F0A6FD1A2002F004
:10268000A3FDB62002F0ACFD0A2002F09DFDA220C1
:1026900002F09AFDF22002F0A3FD002002F094FD6A
:1026A000262002F09DFD012002F08EFDE02002F0C8
:1026B00097FD0F2002F088FD2A2002F085FD2820DA
:1026C00002F082FD082002F07FFD0E2002F07CFD6A
:1026D000082002F079FD542002F076FDA92002F0D6
:1026E00073FD432002F070FD0A2002F06DFD0F2003
:1026F00002F06AFD002002F067FD002002F064FD98
:10270000002002F061FD002002F05EFDE12002F0F9
:1027100067FD002002F058FD152002F055FD17203E
:1027200002F052FD072002F04FFD112002F04CFD97
:10273000062002F049FD2B2002F046FD562002F053
:1027400043FD3C2002F040FD052002F03DFD10203D
:1027500002F03AFD0F2002F037FD3F2002F034FD79
:102760003F2002F031FD0F2002F02EFD2B2002F061
:1027700037FD002002F028FD002002F025FD012099
:1027800002F022FD3F2002F01FFD2A2002F028FD6A
:10279000002002F019FD002002F016FD002002F0DA
:1027A00013FDEF2002F010FD112002F019FD78203A
:1027B000FFF740FD292002F013FD10BD10B5ED20FC
:1027C00002F00EFD012002F0FFFCFE2002F0FCFCF6
:1027D000EE2002F005FDDE2002F0F6FC212002F0E2
:1027E000F3FCF12002F0FCFC012002F0EDFCDF2004
:1027F00002F0F6FC102002F0E7FCC42002F0F0FC2E
:102800008F2002F0E1FCC62002F0EAFC002002F07A
:10281000DBFCE22002F0D8FCE22002F0D5FCE22052
:1028200002F0D2FCBF2002F0DBFCAA2002F0CCFCBC
:10283000B02002F0D5FC0D2002F0C6FC002002F012
:10284000C3FC0D2002F0C0FC002002F0BDFC1120F2
:1028500002F0BAFC002002F0B7FC192002F0B4FC30
:10286000002002F0B1FC212002F0AEFC002002F0BA
:10287000ABFC2D2002F0A8FC002002F0A5FC3D20BE
:1028800002F0A2FC002002F09FFC5D2002F09CFC04
:10289000002002F099FC5D2002F096FC002002F07E
:1028A00093FCB12002F09CFC802002F08DFC002003
:1028B00002F08AFC8B2002F087FC002002F084FCEE
:1028C000962002F081FC002002F07EFCB22002F093
:1028D00087FC002002F078FC002002F075FC02204A
:1028E00002F072FC002002F06FFC032002F06CFC8E
:1028F000002002F069FCB32002F072FC002002F01C
:1029000063FC002002F060FC002002F05DFC00206F
:1029100002F05AFC002002F057FC002002F054FCA8
:10292000002002F051FC002002F04EFC002002F0DA
:102930004BFC002002F048FC002002F045FC002087
:1029400002F042FC002002F03FFC002002F03CFCC0
:10295000002002F039FC002002F036FC002002F0DA
:1029600033FC002002F030FC002002F02DFC00209F
:1029700002F02AFC002002F027FC002002F024FCD8
:10298000002002F021FC002002F01EFCB42002F026
:1029900027FC8B2002F018FC002002F015FC96208A
:1029A00002F012FC002002F00FFCA12002F00CFC4F
:1029B000002002F009FCB52002F012FC022002F017
:1029C00003FC002002F000FC032002F0FDFB0020CD
:1029D00002F0FAFB042002F0F7FB002002F0F4FB07
:1029E000B62002F0FDFB002002F0EEFB002002F01A
:1029F000EBFBB72002F0F4FB002002F0E5FB002027
:102A000002F0E2FB3F2002F0DFFB002002F0DCFBE3
:102A10005E2002F0D9FB002002F0D6FB642002F019
:102A2000D3FB002002F0D0FB8C2002F0CDFB002075
:102A300002F0CAFBAC2002F0C7FB002002F0C4FB8E
:102A4000DC2002F0C1FB002002F0BEFB702002F08F
:102A5000BBFB002002F0B8FB902002F0B5FB002089
:102A600002F0B2FBEB2002F0AFFB002002F0ACFB67
:102A7000DC2002F0A9FB002002F0A6FBB82002F047
:102A8000AFFB002002F0A0FB002002F09DFB002025
:102A900002F09AFB002002F097FB002002F094FB6A
:102AA000002002F091FB002002F08EFB002002F0DB
:102AB0008BFBBA2002F094FB242002F085FB00205F
:102AC00002F082FB002002F07FFB002002F07CFB82
:102AD000C12002F085FB202002F076FB002002F0EE
:102AE00073FB542002F070FB002002F06DFBFF200E
:102AF00002F06AFB002002F067FBC22002F070FBCC
:102B00000A2002F061FB002002F05EFB042002F0CC
:102B10005BFB002002F058FBC32002F061FB3C206D
:102B200002F052FB002002F04FFB3A2002F04CFB77
:102B3000002002F049FB392002F046FB002002F0A1
:102B400043FB372002F040FB002002F03DFB3C201D
:102B500002F03AFB002002F037FB362002F034FB93
:102B6000002002F031FB322002F02EFB002002F0A8
:102B70002BFB2F2002F028FB002002F025FB2C204D
:102B800002F022FB002002F01FFB292002F01CFBB8
:102B9000002002F019FB262002F016FB002002F0B4
:102BA00013FB242002F010FB002002F00DFB242078
:102BB00002F00AFB002002F007FB232002F004FBD6
:102BC000002002F001FB3C2002F0FEFA002002F09F
:102BD000FBFA362002F0F8FA002002F0F5FA322073
:102BE00002F0F2FA002002F0EFFA2F2002F0ECFAE5
:102BF000002002F0E9FA2C2002F0E6FA002002F0B0
:102C0000E3FA292002F0E0FA002002F0DDFA2620A3
:102C100002F0DAFA002002F0D7FA242002F0D4FA07
:102C2000002002F0D1FA242002F0CEFA002002F0B7
:102C3000CBFA232002F0C8FA002002F0C5FAC42023
:102C400002F0CEFA622002F0BFFA002002F0BCFAD5
:102C5000052002F0B9FA002002F0B6FA842002F052
:102C6000B3FA002002F0B0FAF02002F0ADFA002032
:102C700002F0AAFA182002F0A7FA002002F0A4FA43
:102C8000A42002F0A1FA002002F09EFA182002F01F
:102C90009BFA002002F098FA502002F095FA0020EA
:102CA00002F092FA0C2002F08FFA002002F08CFA67
:102CB000172002F089FA002002F086FA952002F02F
:102CC00083FA002002F080FAF32002F07DFA00205F
:102CD00002F07AFAE62002F077FA002002F074FAA5
:102CE000C52002F07DFA322002F06EFA002002F0D8
:102CF0006BFA442002F068FA002002F065FA6520C1
:102D000002F062FA002002F05FFA762002F05CFA2C
:102D1000002002F059FA882002F056FA002002F052
:102D200053FAC62002F05CFA202002F04DFA00208F
:102D300002F04AFA172002F047FA002002F044FAA3
:102D4000012002F041FA002002F03EFAC72002F012
:102D500047FA002002F038FA002002F035FA00208D
:102D600002F032FA002002F02FFAC82002F038FAFE
:102D7000002002F029FA002002F026FA002002F0DA
:102D800023FA002002F020FAC92002F029FA0020DC
:102D900002F01AFA002002F017FA002002F014FAEA
:102DA000002002F011FA002002F00EFA002002F0DA
:102DB0000BFA002002F008FA002002F005FA0020C9
:102DC00002F002FA002002F0FFF9002002F0FCF904
:102DD000002002F0F9F9002002F0F6F9002002F0DC
:102DE000F3F9002002F0F0F9002002F0EDF9E02004
:102DF00002F0F6F9162002F0E7F9002002F0E4F9FB
:102E00001C2002F0E1F9002002F0DEF9212002F09E
:102E1000DBF9002002F0D8F9362002F0D5F90020C5
:102E200002F0D2F9462002F0CFF9002002F0CCF9EE
:102E3000522002F0C9F9002002F0C6F9642002F025
:102E4000C3F9002002F0C0F97A2002F0BDF9002099
:102E500002F0BAF98B2002F0B7F9002002F0B4F9C1
:102E6000992002F0B1F9002002F0AEF9A82002F09A
:102E7000ABF9002002F0A8F9B92002F0A5F9002072
:102E800002F0A2F9C42002F09FF9002002F09CF9A0
:102E9000CA2002F099F9002002F096F9D22002F03F
:102EA00093F9002002F090F9D92002F08DF900206A
:102EB00002F08AF9E02002F087F9002002F084F99C
:102EC000F32002F081F9002002F07EF9E12002F007
:102ED00087F9162002F078F9002002F075F91C201D
:102EE00002F072F9002002F06FF9222002F06CF972
:102EF000002002F069F9362002F066F9002002F0A5
:102F000063F9452002F060F9002002F05DF95220DB
:102F100002F05AF9002002F057F9642002F054F947
:102F2000002002F051F97A2002F04EF9002002F060
:102F30004BF98B2002F048F9002002F045F9992066
:102F400002F042F9002002F03FF9A82002F03CF91B
:102F5000002002F039F9B92002F036F9002002F021
:102F600033F9C42002F030F9002002F02DF9CA2014
:102F700002F02AF9002002F027F9D22002F024F909
:102F8000002002F021F9D82002F01EF9002002F002
:102F90001BF9E02002F018F9002002F015F9F320E7
:102FA00002F012F9002002F00FF9E22002F018F905
:102FB000052002F009F9002002F006F90B2002F0CA
:102FC00003F9002002F000F91B2002F0FDF80020B8
:102FD00002F0FAF8342002F0F7F8002002F0F4F8DA
:102FE000442002F0F1F8002002F0EEF84F2002F049
:102FF000EBF8002002F0E8F8612002F0E5F800208C
:1030000002F0E2F8792002F0DFF8002002F0DCF8AC
:10301000882002F0D9F8002002F0D6F8972002F0BC
:10302000D3F8002002F0D0F8A62002F0CDF800205E
:1030300002F0CAF8B72002F0C7F8002002F0C4F886
:10304000C22002F0C1F8002002F0BEF8C72002F052
:10305000BBF8002002F0B8F8D12002F0B5F800204B
:1030600002F0B2F8D62002F0AFF8002002F0ACF87F
:10307000DD2002F0A9F8002002F0A6F8F32002F00B
:10308000A3F8002002F0A0F8E32002F0A9F8052040
:1030900002F09AF8002002F097F80A2002F094F863
:1030A000002002F091F81C2002F08EF8002002F0BF
:1030B0008BF8332002F088F8002002F085F84420D5
:1030C00002F082F8002002F07FF8502002F07CF835
:1030D000002002F079F8622002F076F8002002F079
:1030E00073F8782002F070F8002002F06DF8882064
:1030F00002F06AF8002002F067F8972002F064F806
:10310000002002F061F8A62002F05EF8002002F034
:103110005BF8B72002F058F8002002F055F8C22002
:1031200002F052F8002002F04FF8C72002F04CF8ED
:10313000002002F049F8D12002F046F8002002F009
:1031400043F8D52002F040F8002002F03DF8DD20E1
:1031500002F03AF8002002F037F8F32002F034F8D9
:10316000002002F031F8E42002F03AF8012002F0E9
:103170002BF8002002F028F8012002F025F80020AA
:1031800002F022F8022002F01FF8002002F01CF8E2
:103190002A2002F019F8002002F016F83C2002F074
:1031A00013F8002002F010F84B2002F00DF8002078
:1031B00002F00AF85D2002F007F8002002F004F89F
:1031C000742002F001F8002001F0FEFF842001F0DD
:1031D000FBFF002001F0F8FF932001F0F5FF002035
:1031E00001F0F2FFA22001F0EFFF002001F0ECFF60
:1031F000B32001F0E9FF002001F0E6FFBE2001F05E
:10320000E3FF002001F0E0FFC42001F0DDFF00201B
:1032100001F0DAFFCD2001F0D7FF002001F0D4FF4C
:10322000D32001F0D1FF002001F0CEFFDD2001F01E
:10323000CBFF002001F0C8FFF32001F0C5FF002004
:1032400001F0C2FFE52001F0CBFF002001F0BCFF40
:10325000002001F0B9FF002001F0B6FF002001F0CE
:10326000B3FF022001F0B0FF002001F0ADFF2920E4
:1032700001F0AAFF002001F0A7FF3C2001F0A4FF0D
:10328000002001F0A1FF4B2001F09EFF002001F083
:103290009BFF5D2001F098FF002001F095FF742056
:1032A00001F092FF002001F08FFF842001F08CFFDD
:1032B000002001F089FF932001F086FF002001F03B
:1032C00083FFA22001F080FF002001F07DFFB320EA
:1032D00001F07AFF002001F077FFBE2001F074FFBB
:1032E000002001F071FFC42001F06EFF002001F00A
:1032F0006BFFCD2001F068FF002001F065FFD320B7
:1033000001F062FF002001F05FFFDC2001F05CFFB4
:10331000002001F059FFF32001F056FF002001F0DA
:1033200053FFE62001F05CFF112001F04DFF00206B
:1033300001F04AFF342001F047FF002001F044FF74
:10334000562001F041FF002001F03EFF762001F001
:103350003BFF002001F038FF772001F035FF00200F
:1033600001F032FF662001F02FFF002001F02CFF5A
:10337000882001F029FF002001F026FF992001F0AC
:1033800023FF002001F020FFBB2001F01DFF0020E3
:1033900001F01AFF992001F017FF002001F014FF3F
:1033A000662001F011FF002001F00EFF552001F012
:1033B0000BFF002001F008FF552001F005FF002061
:1033C00001F002FF452001F0FFFE002001F0FCFEAD
:1033D000432001F0F9FE002001F0F6FE442001F048
:1033E000F3FE002001F0F0FEE72001F0F9FE3220AC
:1033F00001F0EAFE002001F0E7FE552001F0E4FEB6
:10340000002001F0E1FE762001F0DEFE002001F058
:10341000DBFE662001F0D8FE002001F0D5FE67201B
:1034200001F0D2FE002001F0CFFE672001F0CCFEBB
:10343000002001F0C9FE872001F0C6FE002001F047
:10344000C3FE992001F0C0FE002001F0BDFEBB20AC
:1034500001F0BAFE002001F0B7FE992001F0B4FEA1
:10346000002001F0B1FE772001F0AEFE002001F057
:10347000ABFE442001F0A8FE002001F0A5FE56207E
:1034800001F0A2FE002001F09FFE232001F09CFE2F
:10349000002001F099FE332001F096FE002001F09B
:1034A00093FE452001F090FE002001F08DFEE82003
:1034B00001F096FE002001F087FE002001F084FE5E
:1034C000992001F081FE002001F07EFE872001F0AE
:1034D0007BFE002001F078FE882001F075FE0020C0
:1034E00001F072FE772001F06FFE002001F06CFE0B
:1034F000662001F069FE002001F066FE882001F0E0
:1035000063FE002001F060FEAA2001F05DFE0020B5
:1035100001F05AFEBB2001F057FE002001F054FEDE
:10352000992001F051FE002001F04EFE662001F0CE
:103530004BFE002001F048FE552001F045FE002022
:1035400001F042FE552001F03FFE002001F03CFE5C
:10355000442001F039FE002001F036FE442001F045
:1035600033FE002001F030FE552001F02DFE00203A
:1035700001F02AFEE92001F033FEAA2001F024FE2A
:10358000002001F021FE002001F01EFE002001F0CD
:103590001BFE002001F024FEAA2001F015FECF2022
:1035A00001F01EFE002001F00FFE002001F00CFED5
:1035B000002001F009FE002001F006FE002001F0CD
:1035C00003FE002001F000FE002001F0FDFD0020C0
:1035D00001F0FAFD002001F0F7FD002001F0F4FDFC
:1035E000002001F0F1FD002001F0EEFD002001F0CF
:1035F000EBFD002001F0E8FD002001F0E5FD0020DA
:1036000001F0E2FD002001F0DFFDF02001F0E8FD17
:10361000002001F0D9FD502001F0D6FD002001F07E
:10362000D3FD002001F0D0FD002001F0CDFDF320FE
:1036300001F0D6FD002001F0C7FDF92001F0D0FD1A
:10364000062001F0C1FD102001F0BEFD292001F08F
:10365000BBFD002001F0B8FD3A2001F0C1FD55206E
:1036600001F0B2FD112001F0BBFD6420FEF7E2FD88
:10367000292001F0B5FD352001F0B2FD002001F058
:10368000A3FD512001F0ACFDFF2001F09DFD532072
:1036900001F0A6FD2C2001F097FD552001F0A0FDC2
:1036A000822001F091FD2C2001F09AFD10BD10B593
:1036B00055214FF4704001F0A9FDAA214FF20100FD
:1036C00001F0A4FD52214FF2020001F09FFD0821FC
:1036D0004FF2030001F09AFD01214FF2040001F0C6
:1036E00095FD0D214FF4304001F090FD0D214BF27E
:1036F000010001F08BFD0D214BF2020001F086FD6F
:1037000034214FF4364001F081FD34214BF2016049
:1037100001F07CFD34214BF2026001F077FD0D21B8
:103720004FF4314001F072FD0D214BF2011001F018
:103730006DFD0D214BF2021001F068FD34214FF4B4
:10374000374001F063FD34214BF2017001F05EFD62
:1037500034214BF2027001F059FD00214FF4324048
:1037600001F054FD00214BF2012001F04FFD00213A
:103770004BF2022001F04AFD24214FF4384001F0C1
:1037800045FD24214BF6010001F040FD24214BF6BC
:10379000020001F03BFD01214FF43F4001F036FDF6
:1037A0000F214FF4334001F031FD0F214BF2013076
:1037B00001F02CFD0F214BF2023001F027FD3421E6
:1037C0004FF4394001F022FD34214BF6011001F095
:1037D0001DFD34214BF6021001F018FD08214FF4B5
:1037E000354001F013FD08214BF2015001F00EFDB0
:1037F00008214BF2025001F009FD03214FF4424031
:1038000001F004FD24214FF43A4001F0FFFC242193
:103810004BF6012001F0FAFC24214BF6022001F0C6
:10382000F5FC00214FF43C4001F0F0FC78214BF610
:10383000014001F0EBFC00214BF6024001F0E6FCF8
:1038400000214FF43D4001F0E1FC78214BF601509E
:1038500001F0DCFC00214BF6025001F0D7FC002106
:103860004FF43E4001F0D2FC64214BF6016001F0C0
:10387000CDFC00214FF4514001F0C8FC33214DF242
:10388000011001F0C3FC00214DF2021001F0BEFC5A
:1038900034214DF2031001F0B9FC00214DF2041067
:1038A00001F0B4FC3A214DF2051001F0AFFC00210B
:1038B0004DF2061001F0AAFC4A214DF2071001F06A
:1038C000A5FC00214DF2081001F0A0FC5C214DF296
:1038D000091001F09BFC00214DF20A1001F096FC4A
:1038E00081214DF20B1001F091FC00214DF20C10E2
:1038F00001F08CFCA6214DF20D1001F087FC002197
:103900004DF20E1001F082FCE5214DF20F1001F096
:103910007DFC01214DF2101001F078FC13214DF2D5
:10392000111001F073FC01214DF2121001F06EFC38
:1039300054214DF2131001F069FC01214DF21410D5
:1039400001F064FC82214DF2151001F05FFC0121B1
:103950004DF2161001F05AFCCA214DF2171001F079
:1039600055FC02214DF2181001F050FC00214DF2DF
:10397000191001F04BFC02214DF21A1001F046FC27
:1039800001214DF21B1001F041FC02214DF21C10EF
:1039900001F03CFC34214DF21D1001F037FC0221F6
:1039A0004DF21E1001F032FC67214DF21F1001F0A4
:1039B0002DFC02214DF2201001F028FC84214DF253
:1039C000211001F023FC02214DF2221001F01EFC17
:1039D000A4214DF2231001F019FC02214DF2241014
:1039E00001F014FCB7214DF2251001F00FFC02216B
:1039F0004DF2261001F00AFCCF214DF2271001F004
:103A000005FC02214DF2281001F000FCDE214DF2F0
:103A1000291001F0FBFB02214DF22A1001F0F6FB08
:103A2000F2214DF22B1001F0F1FB02214DF22C108E
:103A300001F0ECFBFE214DF22D1001F0E7FB03211C
:103A40004DF22E1001F0E2FB10214DF22F1001F08B
:103A5000DDFB03214DF2301001F0D8FB33214DF294
:103A6000311001F0D3FB03214DF2321001F0CEFBF7
:103A70006D214DF2331001F0C9FB00214FF452408B
:103A800001F0C4FB33214DF2012001F0BFFB002106
:103A90004DF2022001F0BAFB34214DF2032001F077
:103AA000B5FB00214DF2042001F0B0FB3A214DF2AC
:103AB000052001F0ABFB00214DF2062001F0A6FB32
:103AC0004A214DF2072001F0A1FB00214DF2082010
:103AD00001F09CFB5C214DF2092001F097FB0021D5
:103AE0004DF20A2001F092FB81214DF20B2001F0F2
:103AF0008DFB00214DF20C2001F088FBA6214DF238
:103B00000D2001F083FB00214DF20E2001F07EFB21
:103B1000E5214DF20F2001F079FB01214DF210203B
:103B200001F074FB13214DF2112001F06FFB012114
:103B30004DF2122001F06AFB54214DF2132001F0E6
:103B400065FB01214DF2142001F060FB82214DF252
:103B5000152001F05BFB01214DF2162001F056FB10
:103B6000CA214DF2172001F051FB02214DF218201D
:103B700001F04CFB00214DF2192001F047FB02211E
:103B80004DF21A2001F042FB01214DF21B2001F001
:103B90003DFB02214DF21C2001F038FB34214DF297
:103BA0001D2001F033FB02214DF21E2001F02EFBFF
:103BB00067214DF21F2001F029FB02214DF2202048
:103BC00001F024FB84214DF2212001F01FFB022192
:103BD0004DF2222001F01AFBA4214DF2232001F026
:103BE00015FB02214DF2242001F010FBB7214DF20C
:103BF000252001F00BFB02214DF2262001F006FBEF
:103C0000CF214DF2272001F001FB02214DF22820A7
:103C100001F0FCFADE214DF2292001F0F7FA022131
:103C20004DF22A2001F0F2FAF2214DF22B2001F0A0
:103C3000EDFA02214DF22C2001F0E8FAFE214DF2BE
:103C40002D2001F0E3FA03214DF22E2001F0DEFADF
:103C500010214DF22F2001F0D9FA03214DF230202E
:103C600001F0D4FA33214DF2312001F0CFFA0321D3
:103C70004DF2322001F0CAFA6D214DF2332001F0ED
:103C8000C5FA00214FF4534001F0C0FA33214DF240
:103C9000013001F0BBFA00214DF2023001F0B6FA1A
:103CA00034214DF2033001F0B1FA00214DF204301D
:103CB00001F0ACFA3A214DF2053001F0A7FA0021EB
:103CC0004DF2063001F0A2FA4A214DF2073001F020
:103CD0009DFA00214DF2083001F098FA5C214DF276
:103CE000093001F093FA00214DF20A3001F08EFA0A
:103CF00081214DF20B3001F089FA00214DF20C3098
:103D000001F084FAA6214DF20D3001F07FFA002176
:103D10004DF20E3001F07AFAE5214DF20F3001F04C
:103D200075FA01214DF2103001F070FA13214DF2B5
:103D3000113001F06BFA01214DF2123001F066FAF8
:103D400054214DF2133001F061FA01214DF214308B
:103D500001F05CFA82214DF2153001F057FA012191
:103D60004DF2163001F052FACA214DF2173001F02F
:103D70004DFA02214DF2183001F048FA00214DF2BF
:103D8000193001F043FA02214DF21A3001F03EFAE7
:103D900001214DF21B3001F039FA02214DF21C30A5
:103DA00001F034FA34214DF21D3001F02FFA0221D6
:103DB0004DF21E3001F02AFA67214DF21F3001F05A
:103DC00025FA02214DF2203001F020FA84214DF233
:103DD000213001F01BFA02214DF2223001F016FAD7
:103DE000A4214DF2233001F011FA02214DF22430CA
:103DF00001F00CFAB7214DF2253001F007FA02214B
:103E00004DF2263001F002FACF214DF2273001F0B9
:103E1000FDF902214DF2283001F0F8F9DE214DF2D2
:103E2000293001F0F3F902214DF22A3001F0EEF9C8
:103E3000F2214DF22B3001F0E9F902214DF22C3044
:103E400001F0E4F9FE214DF22D3001F0DFF90321FC
:103E50004DF22E3001F0DAF910214DF22F3001F041
:103E6000D5F903214DF2303001F0D0F933214DF274
:103E7000313001F0CBF903214DF2323001F0C6F9B7
:103E80006D214DF2333001F0C1F900214FF454405F
:103E900001F0BCF933214DF2014001F0B7F90021E6
:103EA0004DF2024001F0B2F934214DF2034001F02D
:103EB000ADF900214DF2044001F0A8F93A214DF28C
:103EC000054001F0A3F900214DF2064001F09EF9F2
:103ED0004A214DF2074001F099F900214DF20840C6
:103EE00001F094F95C214DF2094001F08FF90021B5
:103EF0004DF20A4001F08AF981214DF20B4001F0A8
:103F000085F900214DF20C4001F080F9A6214DF217
:103F10000D4001F07BF900214DF20E4001F076F9E1
:103F2000E5214DF20F4001F071F901214DF21040F1
:103F300001F06CF913214DF2114001F067F90121F4
:103F40004DF2124001F062F954214DF2134001F09C
:103F50005DF901214DF2144001F058F982214DF232
:103F6000154001F053F901214DF2164001F04EF9D0
:103F7000CA214DF2174001F049F902214DF21840D3
:103F800001F044F900214DF2194001F03FF90221FE
:103F90004DF21A4001F03AF901214DF21B4001F0B7
:103FA00035F902214DF21C4001F030F934214DF277
:103FB0001D4001F02BF902214DF21E4001F026F9BF
:103FC00067214DF21F4001F021F902214DF22040FE
:103FD00001F01CF984214DF2214001F017F9022172
:103FE0004DF2224001F012F9A4214DF2234001F0DC
:103FF0000DF902214DF2244001F008F9B7214DF2EC
:10400000254001F003F902214DF2264001F0FEF8AF
:10401000CF214DF2274001F0F9F802214DF228405E
:1040200001F0F4F8DE214DF2294001F0EFF8022111
:104030004DF22A4001F0EAF8F2214DF22B4001F056
:10404000E5F802214DF22C4001F0E0F8FE214DF29E
:104050002D4001F0DBF803214DF22E4001F0D6F89F
:1040600010214DF22F4001F0D1F803214DF23040E4
:1040700001F0CCF833214DF2314001F0C7F80321B3
:104080004DF2324001F0C2F86D214DF2334001F0A3
:10409000BDF800214FF4554001F0B8F833214DF23E
:1040A000015001F0B3F800214DF2025001F0AEF8DA
:1040B00034214DF2035001F0A9F800214DF20450D3
:1040C00001F0A4F83A214DF2055001F09FF80021CB
:1040D0004DF2065001F09AF84A214DF2075001F0D6
:1040E00095F800214DF2085001F090F85C214DF256
:1040F000095001F08BF800214DF20A5001F086F8CA
:1041000081214DF20B5001F081F800214DF20C504D
:1041100001F07CF8A6214DF20D5001F077F8002156
:104120004DF20E5001F072F8E5214DF20F5001F002
:104130006DF801214DF2105001F068F813214DF295
:10414000115001F063F801214DF2125001F05EF8B8
:1041500054214DF2135001F059F801214DF2145041
:1041600001F054F882214DF2155001F04FF8012171
:104170004DF2165001F04AF8CA214DF2175001F0E5
:1041800045F802214DF2185001F040F800214DF29F
:10419000195001F03BF802214DF21A5001F036F8A7
:1041A00001214DF21B5001F031F802214DF21C505B
:1041B00001F02CF834214DF21D5001F027F80221B6
:1041C0004DF21E5001F022F867214DF21F5001F010
:1041D0001DF802214DF2205001F018F884214DF213
:1041E000215001F013F802214DF2225001F00EF897
:1041F000A4214DF2235001F009F802214DF2245080
:1042000001F004F8B7214DF2255000F0FFFF022124
:104210004DF2265000F0FAFFCF214DF2275000F06A
:10422000F5FF02214DF2285000F0F0FFDE214DF2A3
:10423000295000F0EBFF02214DF22A5000F0E6FF7A
:10424000F2214DF22B5000F0E1FF02214DF22C50F3
:1042500000F0DCFFFE214DF22D5000F0D7FF0321CE
:104260004DF22E5000F0D2FF10214DF22F5000F0F1
:10427000CDFF03214DF2305000F0C8FF33214DF245
:10428000315000F0C3FF03214DF2325000F0BEFF69
:104290006D214DF2335000F0B9FF00214FF456402C
:1042A00000F0B4FF33214DF2016000F0AFFF0021B8
:1042B0004DF2026000F0AAFF34214DF2036000F0DD
:1042C000A5FF00214DF2046000F0A0FF3A214DF25D
:1042D000056000F09BFF00214DF2066000F096FFA4
:1042E0004A214DF2076000F091FF00214DF2086075
:1042F00000F08CFF5C214DF2096000F087FF002187
:104300004DF20A6000F082FF81214DF20B6000F057
:104310007DFF00214DF20C6000F078FFA6214DF2E8
:104320000D6000F073FF00214DF20E6000F06EFF93
:10433000E5214DF20F6000F069FF01214DF21060A0
:1043400000F064FF13214DF2116000F05FFF0121C6
:104350004DF2126000F05AFF54214DF2136000F04C
:1043600055FF01214DF2146000F050FF82214DF203
:10437000156000F04BFF01214DF2166000F046FF82
:10438000CA214DF2176000F041FF02214DF2186082
:1043900000F03CFF00214DF2196000F037FF0221D0
:1043A0004DF21A6000F032FF01214DF21B6000F067
:1043B0002DFF02214DF21C6000F028FF34214DF248
:1043C0001D6000F023FF02214DF21E6000F01EFF71
:1043D00067214DF21F6000F019FF02214DF22060AD
:1043E00000F014FF84214DF2216000F00FFF022144
:1043F0004DF2226000F00AFFA4214DF2236000F08C
:1044000005FF02214DF2246000F000FFB7214DF2BC
:10441000256000F0FBFE02214DF2266000F0F6FE62
:10442000CF214DF2276000F0F1FE02214DF228600D
:1044300000F0ECFEDE214DF2296000F0E7FE0221E3
:104440004DF22A6000F0E2FEF2214DF22B6000F006
:10445000DDFE02214DF22C6000F0D8FEFE214DF26F
:104460002D6000F0D3FE03214DF22E6000F0CEFE51
:1044700010214DF22F6000F0C9FE03214DF2306093
:1044800000F0C4FE33214DF2316000F0BFFE032185
:104490004DF2326000F0BAFE6D214DF2336000F053
:1044A000B5FE55214FF4704000F0B0FEAA214FF246
:1044B000010000F0ABFE52214FF2020000F0A6FE18
:1044C00008214FF2030000F0A1FE00214FF204008A
:1044D00000F09CFECC214FF4314000F097FE00210B
:1044E0004BF2011000F092FE05214FF4364000F02F
:1044F0008DFE70214FF4374000F088FE70214BF2A2
:10450000017000F083FE01214FF4384000F07EFE80
:1045100003214BF6010000F079FE03214BF6020067
:1045200000F074FE03214BF6030000F06FFE022141
:104530004FF43C4000F06AFE00214BF6014000F0D1
:1045400065FE00214BF6024000F060FED0214FF4E2
:10455000494000F05BFE02214CF6011000F056FECF
:1045600050214CF6021000F051FE50214CF6031081
:1045700000F04CFE50214CF6041000F047FE0021E4
:104580004FF4545000F042FE55214FF4685000F0B3
:104590003DFE4FF4885000F023FE7820FDF756FED4
:1045A0004FF4245000F01CFE10BD10B5E22000F0C6
:1045B00017FE1D2000F008FE022000F005FE04207A
:1045C00000F002FE6420FDF741FEE02000F008FE4E
:1045D000012000F0F9FD0A20FDF72CFEE02000F09C
:1045E000FFFD032000F0F0FD0C20FDF723FE01206D
:1045F00000F0F6FD0A20FDF71DFEE62000F0F0FDBC
:104600002F2000F0E1FDFF2000F0DEFDFF2000F094
:10461000DBFDB02000F0E4FD202000F0D5FD0020FF
:1046200000F0D2FD032000F0CFFD40F21F3000F07B
:10463000CBFD012000F0C8FD40F2DF1000F0C4FD0A
:10464000002000F0C1FDB42000F0CAFD042000F0FD
:10465000BBFD40F21F4000F0B7FD002000F0B4FDAC
:104660002E2000F0B1FD002000F0AEFD002000F093
:10467000ABFD002000F0A8FD002000F0A5FDB62055
:1046800000F0AEFD022000F09FFD4FF4037000F03B
:104690009BFD002000F098FD172000F095FD1520EF
:1046A00000F092FD002000F08FFD002000F08CFD56
:1046B000F02000F095FD032000F086FD292000F099
:1046C0008FFDD02000F08CFD002000F07DFDBE208D
:1046D00000F086FD052000F077FDFE2000F074FD5F
:1046E000012000F071FD002000F06EFD002000F0C0
:1046F0006BFD002000F068FDB82000F071FD032084
:1047000000F062FD012000F05FFDBA2000F068FDBE
:10471000012000F059FD10BD10B5112000F060FD22
:104720007820FDF787FD362000F05AFD002000F0CC
:104730004BFD3A2000F054FD052000F045FDB2206D
:1047400000F04EFD0C2000F03FFD0C2000F03CFD81
:10475000002000F039FD332000F036FD332000F05A
:1047600033FDB72000F03CFD352000F02DFDBB20CF
:1047700000F036FD322000F027FDC02000F030FDB3
:104780000C2000F021FDC22000F02AFD012000F0E5
:104790001BFDC32000F024FD102000F015FDC420F7
:1047A00000F01EFD202000F00FFDC62000F018FDD7
:1047B0000F2000F009FDD02000F012FDA42000F031
:1047C00003FDA12000F000FDE02000F009FDD02055
:1047D00000F0FAFC002000F0F7FC022000F0F4FCEE
:1047E000072000F0F1FC0A2000F0EEFC282000F089
:1047F000EBFC322000F0E8FC442000F0E5FC422015
:1048000000F0E2FC062000F0DFFC0E2000F0DCFCF3
:10481000122000F0D9FC142000F0D6FC172000F084
:10482000D3FCE12000F0DCFCD02000F0CDFC002027
:1048300000F0CAFC022000F0C7FC072000F0C4FC16
:104840000A2000F0C1FC282000F0BEFC312000F05E
:10485000BBFC542000F0B8FC472000F0B5FC0E2053
:1048600000F0B2FC1C2000F0AFFC172000F0ACFC04
:104870001B2000F0A9FC1E2000F0A6FC2A2000F05E
:10488000AFFC002000F0A0FC002000F09DFC002008
:1048900000F09AFCEF2000F097FC2B2000F0A0FC29
:1048A000002000F091FC002000F08EFC012000F0C0
:1048B0008BFC3F2000F088FC292000F091FC10BD0B
:1048C00000B593B000BF00BFDC48806940F4807041
:1048D000DA4988610846806900F48070009000BF62
:1048E00000BF00BF00BF00BF0846806940F0200045
:1048F00088610846806900F02000009000BF00BF7A
:1049000000BF00BF00BF0846806940F020008861FA
:104910000846806900F02000009000BF00BF00BF83
:1049200000BF00BF0846806940F480708861084677
:10493000806900F48070009000BF00BF00BF00BF1E
:1049400000BF0846806940F0080088610846806919
:1049500000F00800009000BF00BF00BF88140F9057
:104960000220109001201190032012900FA9B4484A
:10497000FCF76AF820200F900FA9B248FCF764F802
:1049800010200F900FA9AF48FCF75EF801200F90A0
:104990000FA9AB48FCF758F801200F9010900FA911
:1049A000A948FCF751F84FF02040A8490860A848F2
:1049B0004860062088600021A448C1601021416140
:1049C00000218161C16141624FF480518162002107
:1049D000C1624FF480410163002141638163002083
:1049E000089009900F200A9000200E9001900290EC
:1049F000012003900020079001AA08A99348FCF722
:104A0000E1FD3220FDF716FCD32000F0E9FB00F0B9
:104A100029F99049888000F025F98E49888000F0B6
:104A200021F98C498880084680884FF6FF7101EA99
:104A300000208849888000F015F986498988084354
:104A4000844988800846808849F2413188427DD077
:104A5000042000F0C5FB00F005F97E49888000F0D5
:104A600001F97C49888000F0FDF87A498880084681
:104A700080884FF6FF7101EA00207649888000F0B7
:104A8000F1F874498988084372498880084680880B
:104A900048F25251884203D147F289706D498880AB
:104AA0006C48808847F289718842D0D0D42000F0C9
:104AB00097FB00F0D7F86749888000F0D3F8654984
:104AC000888000F0CFF863498880084680884FF6D8
:104AD000FF7101EA00205F49888000F0C3F85D495A
:104AE000898808435B4988800846808845F21031F0
:104AF00088425FD055214FF4704000F087FBAA2117
:104B00004FF2010000F082FB52214FF2020000F050
:104B10007DFB08214FF2030000F078FB01214FF2EA
:104B2000040000F073FB4FF4454000F059FB00F027
:104B300099F848498880084680884FF6FF7101EA55
:104B40000020444988804CF2015000E032E000F03F
:104B500047FB00F087F83F49898808433D49888032
:104B60000846808845F21051884223D0A12000F0E9
:104B700037FB00F077F83749888000F073F8354943
:104B80008880084680884FF6FF7101EA002031498D
:104B9000888000F067F82F49898808432D4988806C
:104BA0000846808845F26171884203D141F663105E
:104BB000284988802748818827A0FBF77FFB254864
:104BC000808847F28971884202D1FFF7A5FD25E070
:104BD0002048808849F24131884202D1FDF7D8FC53
:104BE0001CE01C48808845F21031884202D1FDF754
:104BF000E5FD13E01748808845F21051884202D144
:104C0000FEF755FD0AE01348808841F6631188429B
:104C100004D1FFF7CAFC642000F0ACFA0020FDF7D5
:104C20000FFC00BF012211460748FCF7ADF800BF9A
:104C30004FF6FF70FDF7EAFB13B000BD0010024015
:104C40000020014000140140000C0140D001002070
:104C5000040100A0180200204C43442049443A2596
:104C6000780D0A0008B5034800880090BDF80000E0
:104C700008BD00000008006CF0B5054600240027C0
:104C800088488079012805D18648808841F66311DB
:104C9000884208D183488079F0B98248808841F6FB
:104CA0006311884218D1082D15D2DFE805F00406FB
:104CB000080A0C0E101206250DE007250BE004254E
:104CC00009E0052507E0012505E0002503E00325AF
:104CD00001E0022500BF00BF082D1CD2DFE805F06F
:104CE0000406090C0F12151800BF14E044F08004EC
:104CF00011E044F040040EE044F0C0040BE044F046
:104D0000200408E044F0600405E044F0A00402E060
:104D100044F0E00400BF00BF36276248808845F2B7
:104D20001051884200D13F025E48808849F24131EB
:104D3000884205D05B48808847F28971884201D15A
:104D400044F008042146384600F060FA554880884F
:104D500041F6631188421DD004F0200068B151482B
:104D6000008850494988884214DA4E4806884088AD
:104D70004C490880084646800CE04A48008849496A
:104D80004988884206DD47480688408845490880AA
:104D9000084646804348808845F21051884252D1E7
:104DA0004049488900F01CFA002000F00DFA3D4906
:104DB0004989491C88B200F013FA002000F004FA77
:104DC00038494989891C88B200F00AFA35490988AE
:104DD000491EC1F30F2000F0F7F932494989C91C77
:104DE00088B200F0FDF92F490978491EC8B200F0D9
:104DF000EBF92C49888900F0F3F9002000F0E4F980
:104E000028498989491C88B200F0EAF9002000F09D
:104E1000DBF924498989891C88B200F0E1F921492C
:104E20004988491EC1F30F2000F0CEF91D49898938
:104E3000C91C88B200F0D4F91A498978491EC8B251
:104E400000F0C2F92DE01749488900F0C9F90020A7
:104E500000F0BAF9002000F0B7F912490988491E9C
:104E6000C1F30F2000F0B0F90E490978491EC8B20D
:104E700000F0AAF90B49888900F0B2F9002000F08F
:104E8000A3F9002000F0A0F906494988491EC1F3A2
:104E90000F2000F099F903498978491EC8B200F043
:104EA00093F9F0BD1802002010B502460C464548A3
:104EB000808841F66311884247D142488079A8B979
:104EC00040480088401E801A82B23E49488900F05E
:104ED00087F9002000F078F9002000F075F9101231
:104EE00000F072F9D0B200F06FF916E03549488948
:104EF00000F076F9101200F067F9D0B200F064F912
:104F000030490988491EC1F30F2000F05DF92D4991
:104F10000978491EC8B200F057F92A49888900F07B
:104F20005FF9201200F050F9E0B200F04DF9254988
:104F30004988491EC1F30F2000F046F921498978BC
:104F4000491EC8B200F040F93AE01E48808845F298
:104F50001051884220D11B49488900F041F91012B4
:104F600000F032F917494989491C88B200F038F934
:104F7000D0B200F029F91349888900F031F92012E4
:104F800000F022F90F498989491C88B200F028F9FC
:104F9000E0B200F019F913E00A49488900F020F95D
:104FA000101200F011F9D0B200F00EF9054988890D
:104FB00000F016F9201200F007F9E0B200F004F951
:104FC00010BD0000180200202DE9FC4F80460E465F
:104FD00015461C46B3460020019000902046E3177A
:104FE00004EB5373DB1021464FEAE47C04EB5C7C5A
:104FF0004FEAEC0CA4EBCC0CBCF1000F02D04FF04C
:10500000010C01E04FF0000C6344224604EBD27C1B
:105010004FEA6C0C03FB0CF3DBB20193A5F120000B
:10502000C5B20C2C06D0102C0BD0182C0ED0202C76
:1050300018D112E005EB45002D4901EB80000090EE
:1050400012E02C4800EB051000900DE005EBC500C8
:10505000294901EB8000009006E0284800EB85100C
:10506000009001E0BDE8FC8F00BF00273AE0009807
:1050700010F807904FF0000A2EE009F0800028B1E8
:10508000314640460C9AFDF773FA07E00B9828B9B1
:105090001B48314602684046FDF76AFA4FEA49600C
:1050A0004FEA1069701C86B216484088B04200DC96
:1050B000D8E7A6EB0B00A0420AD15E4608F101003A
:1050C0001FFA80F80F480088404500DCCAE706E078
:1050D0000AF1010000F0FF0ABAF1080FCDDB00BFB2
:1050E000781CC7B201988742C1DB00BFBAE7000055
:1050F00058780008CC7C0008BC8200081890000892
:1051000028000020180200202DE9FC4F04460D461F
:1051100090469946DDE90C7A0B9E04F0FF0B08EBF4
:1051200004001FFA80F809EB05001FFA80F917E068
:10513000444502DB5C46A81985B24D4500DB15E00D
:105140000020CDE9000A3A78334629462046FFF789
:105150003BFF304606EBD07104EB61018CB27F1C43
:1051600038787E2802DC38782028E1DA00BFBDE8F4
:10517000FC8F00002DE9F0470446BE2000F030F817
:10518000052000F021F8204602F049FA07464FF0CA
:1051900066320C4B02F056FA054602F013FA1FFA7B
:1051A00080F9484600F010F8012000F00DF8FF20CB
:1051B00000F00AF8002000F007F8002000F004F8E2
:1051C000BDE8F0876666044001B5BDF800000090B8
:1051D000BDF800000149088008BD00000008006C0F
:1051E00001B5BDF800000090BDF80000014908803D
:1051F00008BD0000FE07006C0248008902490880D3
:105200007047000018020020FE07006C024A108060
:10521000921C118070470000FE07006C00B585B03D
:1052200000BF00BF1E48806940F008001C4988612B
:105230000846806900F00800009000BF00BF00BF72
:1052400000BF00BF0846806940F040008861084602
:10525000806900F04000009000BF00BF00BF202028
:1052600001900120029003900320049001A90D48B1
:10527000FBF7EAFB2020019001A90B48FBF7E4FBB8
:1052800000BF012220210748FBF77EFD00BF00BFC1
:10529000012220210448FBF777FD00BF05B000BDC7
:1052A00000100240000C01400018014010B5FBF74F
:1052B00083FD4FF4E01000F0FDFE4820FCF792FF64
:1052C0004FF4E13000F05AFFFFF7A8FFFFF7F8FABC
:1052D000FDF740F8002000F005F8FCF7E9FF00209A
:1052E00010BD000030B504460225084951F82410CD
:1052F00001FB05F2064951F82400002100F02AF8CC
:10530000012103480830015530BD0000D8A700082E
:105310003C00002010B501460023002207E00B48A6
:1053200050F8210030F8120000B15B1C521C0848F4
:1053300050F821009042F2D84FF47A705843044C50
:1053400054F82140B0FBF4F080B210BD3C000020C6
:10535000D8A7000830B5034601E003F8011B141E6E
:10536000A2F10102F9D130BD2DE9F04105460E460A
:105370002948076800202949096881F85900274809
:105380000068001D00F016FF50B92448006890F82E
:105390002C1001208840224909688143204801607F
:1053A000681CD8B9D6B11F4948681C49096888608B
:1053B0001A4982680968CA6018490968091D826823
:1053C000516016490968091D8160164A1349096828
:1053D0004A6111460968491C11601AE07C190F489E
:1053E00000684460BC4207D20C480168091D0E48A1
:1053F000006800F003FF0CE008480168091D0B4835
:10540000006800F0FBFE0A480068844201D20848A8
:105410000460BDE8F08100005C000020480000202E
:105420006000002050850020500000204C0000202B
:105430007800002010B5044600F006FF31480068EF
:10544000401C304908603048006840B92E4804606C
:105450000846006801280DD100F016FA0AE02B4832
:10546000006838B928480068C06AE16A884201D8F3
:105470002548046026480068401C25490860084605
:105480000068606494F82C10012088402149096864
:10549000084320490860E16A01EB81011E4A02EBE2
:1054A00081014868A0608268E260211D82685160C5
:1054B0008160E16A01EB8101174A02EB81026261BE
:1054C000E16A01EB8101144A52F82110491CE26A99
:1054D00002EB8202104B43F8221000F0FFFE0B4853
:1054E000006868B108480068C06AE16A884207D26B
:1054F0004FF0805009490860BFF34F8FBFF36F8FA3
:1055000010BD00005800002048000020640000206A
:1055100074000020600000208082002004ED00E084
:1055200010B500F091FE10480068D0B90F4800F0A7
:1055300055FE0F4800F052FE0C480E4908600C481A
:105540000D49086000221021052001F0D7FA064914
:1055500008600846006820B108A10348006800F010
:105560007DFF00F0BBFE10BD900000206485002090
:1055700078850020880000208C000020546D725136
:105580000000000010B516E000F05EFE0C48C06898
:10559000C468201D00F00EFE0A480068401E09493C
:1055A000086009480068401E0749086000F096FE40
:1055B000204600F05FF8044800680028E4D110BDE0
:1055C0003C850020580000205400002070B504469F
:1055D0000D46206C70B1216CE0680144E160D4E9B3
:1055E0000210884201D32168E1602846226CE168FC
:1055F000FAF736FF70BD2DE9F04104460F46154617
:105600004FF00008A66B206C48B9206800282CD108
:10561000A06801F099FD80460020A06025E07DB9DA
:105620003946226C6068FAF71BFF216C60680844F9
:105630006060D4E90101884217D32068606014E0FB
:105640003946226CE068FAF70BFF216CE068411ADA
:10565000E1602168E068884203D2216CA068411AA9
:10566000E160022D01D106B1761E701CA063404698
:10567000BDE8F08110B50446206B00F06DFE2046B9
:1056800000F06AFE10BD00000146084A1268126868
:105690000AB9012200E000220A600A6822B9034A1E
:1056A0001268D268106800E000207047880000206F
:1056B00030B54FF42053174800F007042CB1C01D3B
:1056C00020F00700134C041B1B1B0246124C2260E7
:1056D0000024114D6C60D018083820F007000F4CE2
:1056E000206000240D4D2D686C600C4D2D682C60E1
:1056F0001146441A4C60094C24680C60084D4C68F3
:105700002C60084D4C682C604FF00044064D2C6016
:1057100030BD00008C8500209C000020A4000020EB
:10572000AC000020A8000020B800002000BFFFF758
:1057300029FF064800680128F9D94FF08050044934
:105740000860BFF34F8FBFF36F8FF0E780820020B8
:1057500004ED00E02DE9F04106460D461746984657
:10576000069C0DB9246000E02760E66325640121F2
:10577000204601F00BFA84F850800020A064BDE8B8
:10578000F08100002DE9F05F82460F4690469B466F
:105790000A9E0C9C4FEA8801A522206BFAF7A5FE11
:1057A000A8F10100216B01EB800929F0070909F03C
:1057B000070008B9012000E0002028B94FF4587212
:1057C00024A12DA0FAF77AFD87B1002507E0795DC5
:1057D00004F134004155785D00B902E06D1C102DD4
:1057E000F5D300BF00214320015502E0002084F8DA
:1057F0003400202E01D2012000E0002028B940F220
:10580000973214A11CA0FAF759FD202E00D31F26B1
:10581000E662E66400202065201D00F0ECFC04F147
:10582000180000F0E8FC2461C6F12000A061646269
:105830000020606584F8580084F859005A465146A3
:10584000484600F0F9FB20600B9808B10B98046003
:10585000BDE8F09F2E2E5C2E2E5C4D6964646C6555
:1058600077617265735C4672656552544F535C7420
:1058700061736B732E6300004572726F723A20255C
:10588000732C2025640D0A0010B5002407E004EBFA
:1058900084010F4A02EB810000F0A0FC641C202C64
:1058A000F5D30C4800F09AFC0B4800F097FC0B482D
:1058B00000F094FC0A4800F091FC0A4800F08EFCCD
:1058C00004480949086004480849086010BD000000
:1058D000808200200085002014850020288500207B
:1058E0003C850020508500204C0000205000002006
:1058F00010B50146164800E0006803688B42FBD3F0
:105900000246436813448B4204D143684C682344E5
:10591000436001460A464B6813440468A34211D110
:105920000C4C03682468A34208D04B680468646880
:1059300023444B6003681B680B6005E0054B1B6844
:105940000B6001E003680B60884200D0016010BD6D
:105950009C000020A40000202DE9F04104460D46E3
:1059600016461F464FF0000865602461B5420CD80A
:10597000F01BA169884202D34FF0010811E0211DFC
:105980000948006800F03AFC0BE0BE4204D2BD4278
:1059900002D34FF0010804E0211D0448006800F024
:1059A0002DFC4046BDE8F0818C00002088000020DE
:1059B00070B5054600F048FCA86B08B9012400E06A
:1059C000002400F08BFC204670BD0000F1B500986B
:1059D000846C00262CB940F6D53220A128A0FAF715
:1059E0006DFCA06BE16B884201D2012000E0002039
:1059F00028B940F6D63219A121A0FAF75FFCA06BB6
:105A0000E16B884227D294F945500022694620462E
:105A1000FFF7F1FD0646681C60B9606A08B901200D
:105A200000E00020B0B904F1240001F015FC88B1B9
:105A300001260FE07F2D01D0012000E0002028B9D1
:105A400040F6F63205A10EA0FAF738FC681C40B209
:105A500084F8450000BF3046F8BD00002E2E5C2EB5
:105A60002E5C4D6964646C6577617265735C467227
:105A7000656552544F535C71756575652E63000002
:105A80004572726F723A2025732C2025640D0A002E
:105A900070B505460E460E480068C068C468201DF3
:105AA00000F088FB94F8280000F0040028B132468A
:105AB0002946204600F0FEF805E094F8280000F0A2
:105AC000FE0084F828002046216A884770BD000047
:105AD0008800002070B586B08AE0029800280CDAB1
